{
	"contracts/MyToken.sol": {
		"MyToken": {
			"abi": [
				{
					"inputs": [],
					"stateMutability": "nonpayable",
					"type": "constructor"
				},
				{
					"anonymous": false,
					"inputs": [
						{
							"indexed": true,
							"internalType": "address",
							"name": "owner",
							"type": "address"
						},
						{
							"indexed": true,
							"internalType": "address",
							"name": "approved",
							"type": "address"
						},
						{
							"indexed": true,
							"internalType": "uint256",
							"name": "tokenId",
							"type": "uint256"
						}
					],
					"name": "Approval",
					"type": "event"
				},
				{
					"anonymous": false,
					"inputs": [
						{
							"indexed": true,
							"internalType": "address",
							"name": "owner",
							"type": "address"
						},
						{
							"indexed": true,
							"internalType": "address",
							"name": "operator",
							"type": "address"
						},
						{
							"indexed": false,
							"internalType": "bool",
							"name": "approved",
							"type": "bool"
						}
					],
					"name": "ApprovalForAll",
					"type": "event"
				},
				{
					"anonymous": false,
					"inputs": [
						{
							"indexed": false,
							"internalType": "uint8",
							"name": "version",
							"type": "uint8"
						}
					],
					"name": "Initialized",
					"type": "event"
				},
				{
					"anonymous": false,
					"inputs": [
						{
							"indexed": true,
							"internalType": "address",
							"name": "from",
							"type": "address"
						},
						{
							"indexed": true,
							"internalType": "address",
							"name": "to",
							"type": "address"
						},
						{
							"indexed": true,
							"internalType": "uint256",
							"name": "tokenId",
							"type": "uint256"
						}
					],
					"name": "Transfer",
					"type": "event"
				},
				{
					"inputs": [
						{
							"internalType": "address",
							"name": "to",
							"type": "address"
						},
						{
							"internalType": "uint256",
							"name": "tokenId",
							"type": "uint256"
						}
					],
					"name": "approve",
					"outputs": [],
					"stateMutability": "nonpayable",
					"type": "function"
				},
				{
					"inputs": [
						{
							"internalType": "address",
							"name": "owner",
							"type": "address"
						}
					],
					"name": "balanceOf",
					"outputs": [
						{
							"internalType": "uint256",
							"name": "",
							"type": "uint256"
						}
					],
					"stateMutability": "view",
					"type": "function"
				},
				{
					"inputs": [
						{
							"internalType": "uint256",
							"name": "tokenId",
							"type": "uint256"
						}
					],
					"name": "getApproved",
					"outputs": [
						{
							"internalType": "address",
							"name": "",
							"type": "address"
						}
					],
					"stateMutability": "view",
					"type": "function"
				},
				{
					"inputs": [],
					"name": "initialize",
					"outputs": [],
					"stateMutability": "nonpayable",
					"type": "function"
				},
				{
					"inputs": [
						{
							"internalType": "address",
							"name": "owner",
							"type": "address"
						},
						{
							"internalType": "address",
							"name": "operator",
							"type": "address"
						}
					],
					"name": "isApprovedForAll",
					"outputs": [
						{
							"internalType": "bool",
							"name": "",
							"type": "bool"
						}
					],
					"stateMutability": "view",
					"type": "function"
				},
				{
					"inputs": [],
					"name": "name",
					"outputs": [
						{
							"internalType": "string",
							"name": "",
							"type": "string"
						}
					],
					"stateMutability": "view",
					"type": "function"
				},
				{
					"inputs": [
						{
							"internalType": "uint256",
							"name": "tokenId",
							"type": "uint256"
						}
					],
					"name": "ownerOf",
					"outputs": [
						{
							"internalType": "address",
							"name": "",
							"type": "address"
						}
					],
					"stateMutability": "view",
					"type": "function"
				},
				{
					"inputs": [
						{
							"internalType": "address",
							"name": "to",
							"type": "address"
						},
						{
							"internalType": "uint256",
							"name": "tokenId",
							"type": "uint256"
						}
					],
					"name": "safeMint",
					"outputs": [],
					"stateMutability": "nonpayable",
					"type": "function"
				},
				{
					"inputs": [
						{
							"internalType": "address",
							"name": "operator",
							"type": "address"
						},
						{
							"internalType": "bool",
							"name": "approved",
							"type": "bool"
						}
					],
					"name": "setApprovalForAll",
					"outputs": [],
					"stateMutability": "nonpayable",
					"type": "function"
				},
				{
					"inputs": [
						{
							"internalType": "bytes4",
							"name": "interfaceId",
							"type": "bytes4"
						}
					],
					"name": "supportsInterface",
					"outputs": [
						{
							"internalType": "bool",
							"name": "",
							"type": "bool"
						}
					],
					"stateMutability": "view",
					"type": "function"
				},
				{
					"inputs": [],
					"name": "symbol",
					"outputs": [
						{
							"internalType": "string",
							"name": "",
							"type": "string"
						}
					],
					"stateMutability": "view",
					"type": "function"
				},
				{
					"inputs": [
						{
							"internalType": "uint256",
							"name": "tokenId",
							"type": "uint256"
						}
					],
					"name": "tokenURI",
					"outputs": [
						{
							"internalType": "string",
							"name": "",
							"type": "string"
						}
					],
					"stateMutability": "view",
					"type": "function"
				}
			],
			"devdoc": {
				"kind": "dev",
				"methods": {
					"approve(address,uint256)": {
						"details": "See {IERC721-approve}."
					},
					"balanceOf(address)": {
						"details": "See {IERC721-balanceOf}."
					},
					"constructor": {
						"custom:oz-upgrades-unsafe-allow": "constructor"
					},
					"getApproved(uint256)": {
						"details": "See {IERC721-getApproved}."
					},
					"isApprovedForAll(address,address)": {
						"details": "See {IERC721-isApprovedForAll}."
					},
					"name()": {
						"details": "See {IERC721Metadata-name}."
					},
					"ownerOf(uint256)": {
						"details": "See {IERC721-ownerOf}."
					},
					"setApprovalForAll(address,bool)": {
						"details": "See {IERC721-setApprovalForAll}."
					},
					"supportsInterface(bytes4)": {
						"details": "See {IERC165-supportsInterface}."
					},
					"symbol()": {
						"details": "See {IERC721Metadata-symbol}."
					},
					"tokenURI(uint256)": {
						"details": "See {IERC721Metadata-tokenURI}."
					}
				},
				"version": 1
			},
			"evm": {
				"assembly": "    /* \"contracts/MyToken.sol\":215:579  contract MyToken is Initializable, ERC721Upgradeable{... */\n  mstore(0x40, 0x80)\n    /* \"contracts/MyToken.sol\":326:379  constructor() {... */\n  callvalue\n  dup1\n  iszero\n  tag_1\n  jumpi\n  0x00\n  dup1\n  revert\ntag_1:\n  pop\n    /* \"contracts/MyToken.sol\":350:372  _disableInitializers() */\n  tag_4\n    /* \"contracts/MyToken.sol\":350:370  _disableInitializers */\n  shl(0x20, tag_5)\n    /* \"contracts/MyToken.sol\":350:372  _disableInitializers() */\n  0x20\n  shr\n  jump\t// in\ntag_4:\n    /* \"contracts/MyToken.sol\":215:579  contract MyToken is Initializable, ERC721Upgradeable{... */\n  jump(tag_6)\n    /* \"@openzeppelin/contracts-upgradeable/proxy/utils/Initializable.sol\":5928:6207  function _disableInitializers() internal virtual {... */\ntag_5:\n    /* \"@openzeppelin/contracts-upgradeable/proxy/utils/Initializable.sol\":5996:6009  _initializing */\n  0x00\n  0x01\n  swap1\n  sload\n  swap1\n  0x0100\n  exp\n  swap1\n  div\n  0xff\n  and\n    /* \"@openzeppelin/contracts-upgradeable/proxy/utils/Initializable.sol\":5995:6009  !_initializing */\n  iszero\n    /* \"@openzeppelin/contracts-upgradeable/proxy/utils/Initializable.sol\":5987:6053  require(!_initializing, \"Initializable: contract is initializing\") */\n  tag_8\n  jumpi\n  mload(0x40)\n  0x08c379a000000000000000000000000000000000000000000000000000000000\n  dup2\n  mstore\n  0x04\n  add\n  tag_9\n  swap1\n  tag_10\n  jump\t// in\ntag_9:\n  mload(0x40)\n  dup1\n  swap2\n  sub\n  swap1\n  revert\ntag_8:\n    /* \"@openzeppelin/contracts-upgradeable/proxy/utils/Initializable.sol\":6082:6097  type(uint8).max */\n  0xff\n    /* \"@openzeppelin/contracts-upgradeable/proxy/utils/Initializable.sol\":6067:6097  _initialized < type(uint8).max */\n  dup1\n  and\n    /* \"@openzeppelin/contracts-upgradeable/proxy/utils/Initializable.sol\":6067:6079  _initialized */\n  0x00\n  dup1\n  sload\n  swap1\n  0x0100\n  exp\n  swap1\n  div\n  0xff\n  and\n    /* \"@openzeppelin/contracts-upgradeable/proxy/utils/Initializable.sol\":6067:6097  _initialized < type(uint8).max */\n  0xff\n  and\n  lt\n    /* \"@openzeppelin/contracts-upgradeable/proxy/utils/Initializable.sol\":6063:6201  if (_initialized < type(uint8).max) {... */\n  iszero\n  tag_11\n  jumpi\n    /* \"@openzeppelin/contracts-upgradeable/proxy/utils/Initializable.sol\":6128:6143  type(uint8).max */\n  0xff\n    /* \"@openzeppelin/contracts-upgradeable/proxy/utils/Initializable.sol\":6113:6125  _initialized */\n  0x00\n  dup1\n    /* \"@openzeppelin/contracts-upgradeable/proxy/utils/Initializable.sol\":6113:6143  _initialized = type(uint8).max */\n  0x0100\n  exp\n  dup2\n  sload\n  dup2\n  0xff\n  mul\n  not\n  and\n  swap1\n  dup4\n  0xff\n  and\n  mul\n  or\n  swap1\n  sstore\n  pop\n    /* \"@openzeppelin/contracts-upgradeable/proxy/utils/Initializable.sol\":6162:6190  Initialized(type(uint8).max) */\n  0x7f26b83ff96e1f2b6a682f133852f6798a09c465da95921460cefb3847402498\n    /* \"@openzeppelin/contracts-upgradeable/proxy/utils/Initializable.sol\":6174:6189  type(uint8).max */\n  0xff\n    /* \"@openzeppelin/contracts-upgradeable/proxy/utils/Initializable.sol\":6162:6190  Initialized(type(uint8).max) */\n  mload(0x40)\n  tag_12\n  swap2\n  swap1\n  tag_13\n  jump\t// in\ntag_12:\n  mload(0x40)\n  dup1\n  swap2\n  sub\n  swap1\n  log1\n    /* \"@openzeppelin/contracts-upgradeable/proxy/utils/Initializable.sol\":6063:6201  if (_initialized < type(uint8).max) {... */\ntag_11:\n    /* \"@openzeppelin/contracts-upgradeable/proxy/utils/Initializable.sol\":5928:6207  function _disableInitializers() internal virtual {... */\n  jump\t// out\n    /* \"#utility.yul\":7:373   */\ntag_15:\n    /* \"#utility.yul\":149:152   */\n  0x00\n    /* \"#utility.yul\":170:237   */\n  tag_17\n    /* \"#utility.yul\":234:236   */\n  0x27\n    /* \"#utility.yul\":229:232   */\n  dup4\n    /* \"#utility.yul\":170:237   */\n  tag_18\n  jump\t// in\ntag_17:\n    /* \"#utility.yul\":163:237   */\n  swap2\n  pop\n    /* \"#utility.yul\":246:339   */\n  tag_19\n    /* \"#utility.yul\":335:338   */\n  dup3\n    /* \"#utility.yul\":246:339   */\n  tag_20\n  jump\t// in\ntag_19:\n    /* \"#utility.yul\":364:366   */\n  0x40\n    /* \"#utility.yul\":359:362   */\n  dup3\n    /* \"#utility.yul\":355:367   */\n  add\n    /* \"#utility.yul\":348:367   */\n  swap1\n  pop\n    /* \"#utility.yul\":7:373   */\n  swap2\n  swap1\n  pop\n  jump\t// out\n    /* \"#utility.yul\":379:491   */\ntag_21:\n    /* \"#utility.yul\":462:484   */\n  tag_23\n    /* \"#utility.yul\":478:483   */\n  dup2\n    /* \"#utility.yul\":462:484   */\n  tag_24\n  jump\t// in\ntag_23:\n    /* \"#utility.yul\":457:460   */\n  dup3\n    /* \"#utility.yul\":450:485   */\n  mstore\n    /* \"#utility.yul\":379:491   */\n  pop\n  pop\n  jump\t// out\n    /* \"#utility.yul\":497:916   */\ntag_10:\n    /* \"#utility.yul\":663:667   */\n  0x00\n    /* \"#utility.yul\":701:703   */\n  0x20\n    /* \"#utility.yul\":690:699   */\n  dup3\n    /* \"#utility.yul\":686:704   */\n  add\n    /* \"#utility.yul\":678:704   */\n  swap1\n  pop\n    /* \"#utility.yul\":750:759   */\n  dup2\n    /* \"#utility.yul\":744:748   */\n  dup2\n    /* \"#utility.yul\":740:760   */\n  sub\n    /* \"#utility.yul\":736:737   */\n  0x00\n    /* \"#utility.yul\":725:734   */\n  dup4\n    /* \"#utility.yul\":721:738   */\n  add\n    /* \"#utility.yul\":714:761   */\n  mstore\n    /* \"#utility.yul\":778:909   */\n  tag_26\n    /* \"#utility.yul\":904:908   */\n  dup2\n    /* \"#utility.yul\":778:909   */\n  tag_15\n  jump\t// in\ntag_26:\n    /* \"#utility.yul\":770:909   */\n  swap1\n  pop\n    /* \"#utility.yul\":497:916   */\n  swap2\n  swap1\n  pop\n  jump\t// out\n    /* \"#utility.yul\":922:1136   */\ntag_13:\n    /* \"#utility.yul\":1011:1015   */\n  0x00\n    /* \"#utility.yul\":1049:1051   */\n  0x20\n    /* \"#utility.yul\":1038:1047   */\n  dup3\n    /* \"#utility.yul\":1034:1052   */\n  add\n    /* \"#utility.yul\":1026:1052   */\n  swap1\n  pop\n    /* \"#utility.yul\":1062:1129   */\n  tag_28\n    /* \"#utility.yul\":1126:1127   */\n  0x00\n    /* \"#utility.yul\":1115:1124   */\n  dup4\n    /* \"#utility.yul\":1111:1128   */\n  add\n    /* \"#utility.yul\":1102:1108   */\n  dup5\n    /* \"#utility.yul\":1062:1129   */\n  tag_21\n  jump\t// in\ntag_28:\n    /* \"#utility.yul\":922:1136   */\n  swap3\n  swap2\n  pop\n  pop\n  jump\t// out\n    /* \"#utility.yul\":1142:1311   */\ntag_18:\n    /* \"#utility.yul\":1226:1237   */\n  0x00\n    /* \"#utility.yul\":1260:1266   */\n  dup3\n    /* \"#utility.yul\":1255:1258   */\n  dup3\n    /* \"#utility.yul\":1248:1267   */\n  mstore\n    /* \"#utility.yul\":1300:1304   */\n  0x20\n    /* \"#utility.yul\":1295:1298   */\n  dup3\n    /* \"#utility.yul\":1291:1305   */\n  add\n    /* \"#utility.yul\":1276:1305   */\n  swap1\n  pop\n    /* \"#utility.yul\":1142:1311   */\n  swap3\n  swap2\n  pop\n  pop\n  jump\t// out\n    /* \"#utility.yul\":1317:1403   */\ntag_24:\n    /* \"#utility.yul\":1352:1359   */\n  0x00\n    /* \"#utility.yul\":1392:1396   */\n  0xff\n    /* \"#utility.yul\":1385:1390   */\n  dup3\n    /* \"#utility.yul\":1381:1397   */\n  and\n    /* \"#utility.yul\":1370:1397   */\n  swap1\n  pop\n    /* \"#utility.yul\":1317:1403   */\n  swap2\n  swap1\n  pop\n  jump\t// out\n    /* \"#utility.yul\":1409:1635   */\ntag_20:\n    /* \"#utility.yul\":1549:1583   */\n  0x496e697469616c697a61626c653a20636f6e747261637420697320696e697469\n    /* \"#utility.yul\":1545:1546   */\n  0x00\n    /* \"#utility.yul\":1537:1543   */\n  dup3\n    /* \"#utility.yul\":1533:1547   */\n  add\n    /* \"#utility.yul\":1526:1584   */\n  mstore\n    /* \"#utility.yul\":1618:1627   */\n  0x616c697a696e6700000000000000000000000000000000000000000000000000\n    /* \"#utility.yul\":1613:1615   */\n  0x20\n    /* \"#utility.yul\":1605:1611   */\n  dup3\n    /* \"#utility.yul\":1601:1616   */\n  add\n    /* \"#utility.yul\":1594:1628   */\n  mstore\n    /* \"#utility.yul\":1409:1635   */\n  pop\n  jump\t// out\n    /* \"contracts/MyToken.sol\":215:579  contract MyToken is Initializable, ERC721Upgradeable{... */\ntag_6:\n  dataSize(sub_0)\n  dup1\n  dataOffset(sub_0)\n  0x00\n  codecopy\n  0x00\n  return\nstop\n\nsub_0: assembly {\n        /* \"contracts/MyToken.sol\":215:579  contract MyToken is Initializable, ERC721Upgradeable{... */\n      mstore(0x40, 0x80)\n      callvalue\n      dup1\n      iszero\n      tag_1\n      jumpi\n      0x00\n      dup1\n      revert\n    tag_1:\n      pop\n      jumpi(tag_2, lt(calldatasize, 0x04))\n      shr(0xe0, calldataload(0x00))\n      dup1\n      0x8129fc1c\n      gt\n      tag_15\n      jumpi\n      dup1\n      0x8129fc1c\n      eq\n      tag_9\n      jumpi\n      dup1\n      0x95d89b41\n      eq\n      tag_10\n      jumpi\n      dup1\n      0xa1448194\n      eq\n      tag_11\n      jumpi\n      dup1\n      0xa22cb465\n      eq\n      tag_12\n      jumpi\n      dup1\n      0xc87b56dd\n      eq\n      tag_13\n      jumpi\n      dup1\n      0xe985e9c5\n      eq\n      tag_14\n      jumpi\n      jump(tag_2)\n    tag_15:\n      dup1\n      0x01ffc9a7\n      eq\n      tag_3\n      jumpi\n      dup1\n      0x06fdde03\n      eq\n      tag_4\n      jumpi\n      dup1\n      0x081812fc\n      eq\n      tag_5\n      jumpi\n      dup1\n      0x095ea7b3\n      eq\n      tag_6\n      jumpi\n      dup1\n      0x6352211e\n      eq\n      tag_7\n      jumpi\n      dup1\n      0x70a08231\n      eq\n      tag_8\n      jumpi\n    tag_2:\n      0x00\n      dup1\n      revert\n        /* \"@openzeppelin/contracts-upgradeable/token/ERC721/ERC721Upgradeable.sol\":1987:2331  function supportsInterface(bytes4 interfaceId) public view virtual override(ERC165Upgradeable, IERC165Upgradeable) returns (bool) {... */\n    tag_3:\n      tag_16\n      0x04\n      dup1\n      calldatasize\n      sub\n      dup2\n      add\n      swap1\n      tag_17\n      swap2\n      swap1\n      tag_18\n      jump\t// in\n    tag_17:\n      tag_19\n      jump\t// in\n    tag_16:\n      mload(0x40)\n      tag_20\n      swap2\n      swap1\n      tag_21\n      jump\t// in\n    tag_20:\n      mload(0x40)\n      dup1\n      swap2\n      sub\n      swap1\n      return\n        /* \"@openzeppelin/contracts-upgradeable/token/ERC721/ERC721Upgradeable.sol\":2932:3030  function name() public view virtual override returns (string memory) {... */\n    tag_4:\n      tag_22\n      tag_23\n      jump\t// in\n    tag_22:\n      mload(0x40)\n      tag_24\n      swap2\n      swap1\n      tag_25\n      jump\t// in\n    tag_24:\n      mload(0x40)\n      dup1\n      swap2\n      sub\n      swap1\n      return\n        /* \"@openzeppelin/contracts-upgradeable/token/ERC721/ERC721Upgradeable.sol\":4407:4574  function getApproved(uint256 tokenId) public view virtual override returns (address) {... */\n    tag_5:\n      tag_26\n      0x04\n      dup1\n      calldatasize\n      sub\n      dup2\n      add\n      swap1\n      tag_27\n      swap2\n      swap1\n      tag_28\n      jump\t// in\n    tag_27:\n      tag_29\n      jump\t// in\n    tag_26:\n      mload(0x40)\n      tag_30\n      swap2\n      swap1\n      tag_31\n      jump\t// in\n    tag_30:\n      mload(0x40)\n      dup1\n      swap2\n      sub\n      swap1\n      return\n        /* \"@openzeppelin/contracts-upgradeable/token/ERC721/ERC721Upgradeable.sol\":3929:4346  function approve(address to, uint256 tokenId) public virtual override {... */\n    tag_6:\n      tag_32\n      0x04\n      dup1\n      calldatasize\n      sub\n      dup2\n      add\n      swap1\n      tag_33\n      swap2\n      swap1\n      tag_34\n      jump\t// in\n    tag_33:\n      tag_35\n      jump\t// in\n    tag_32:\n      stop\n        /* \"@openzeppelin/contracts-upgradeable/token/ERC721/ERC721Upgradeable.sol\":2651:2870  function ownerOf(uint256 tokenId) public view virtual override returns (address) {... */\n    tag_7:\n      tag_36\n      0x04\n      dup1\n      calldatasize\n      sub\n      dup2\n      add\n      swap1\n      tag_37\n      swap2\n      swap1\n      tag_28\n      jump\t// in\n    tag_37:\n      tag_38\n      jump\t// in\n    tag_36:\n      mload(0x40)\n      tag_39\n      swap2\n      swap1\n      tag_31\n      jump\t// in\n    tag_39:\n      mload(0x40)\n      dup1\n      swap2\n      sub\n      swap1\n      return\n        /* \"@openzeppelin/contracts-upgradeable/token/ERC721/ERC721Upgradeable.sol\":2390:2594  function balanceOf(address owner) public view virtual override returns (uint256) {... */\n    tag_8:\n      tag_40\n      0x04\n      dup1\n      calldatasize\n      sub\n      dup2\n      add\n      swap1\n      tag_41\n      swap2\n      swap1\n      tag_42\n      jump\t// in\n    tag_41:\n      tag_43\n      jump\t// in\n    tag_40:\n      mload(0x40)\n      tag_44\n      swap2\n      swap1\n      tag_45\n      jump\t// in\n    tag_44:\n      mload(0x40)\n      dup1\n      swap2\n      sub\n      swap1\n      return\n        /* \"contracts/MyToken.sol\":385:479  function initialize() initializer public {... */\n    tag_9:\n      tag_46\n      tag_47\n      jump\t// in\n    tag_46:\n      stop\n        /* \"@openzeppelin/contracts-upgradeable/token/ERC721/ERC721Upgradeable.sol\":3094:3196  function symbol() public view virtual override returns (string memory) {... */\n    tag_10:\n      tag_48\n      tag_49\n      jump\t// in\n    tag_48:\n      mload(0x40)\n      tag_50\n      swap2\n      swap1\n      tag_25\n      jump\t// in\n    tag_50:\n      mload(0x40)\n      dup1\n      swap2\n      sub\n      swap1\n      return\n        /* \"contracts/MyToken.sol\":485:577  function safeMint(address to, uint256 tokenId) public{... */\n    tag_11:\n      tag_51\n      0x04\n      dup1\n      calldatasize\n      sub\n      dup2\n      add\n      swap1\n      tag_52\n      swap2\n      swap1\n      tag_34\n      jump\t// in\n    tag_52:\n      tag_53\n      jump\t// in\n    tag_51:\n      stop\n        /* \"@openzeppelin/contracts-upgradeable/token/ERC721/ERC721Upgradeable.sol\":4641:4794  function setApprovalForAll(address operator, bool approved) public virtual override {... */\n    tag_12:\n      tag_54\n      0x04\n      dup1\n      calldatasize\n      sub\n      dup2\n      add\n      swap1\n      tag_55\n      swap2\n      swap1\n      tag_56\n      jump\t// in\n    tag_55:\n      tag_57\n      jump\t// in\n    tag_54:\n      stop\n        /* \"@openzeppelin/contracts-upgradeable/token/ERC721/ERC721Upgradeable.sol\":3262:3538  function tokenURI(uint256 tokenId) public view virtual override returns (string memory) {... */\n    tag_13:\n      tag_58\n      0x04\n      dup1\n      calldatasize\n      sub\n      dup2\n      add\n      swap1\n      tag_59\n      swap2\n      swap1\n      tag_28\n      jump\t// in\n    tag_59:\n      tag_60\n      jump\t// in\n    tag_58:\n      mload(0x40)\n      tag_61\n      swap2\n      swap1\n      tag_25\n      jump\t// in\n    tag_61:\n      mload(0x40)\n      dup1\n      swap2\n      sub\n      swap1\n      return\n        /* \"@openzeppelin/contracts-upgradeable/token/ERC721/ERC721Upgradeable.sol\":4860:5022  function isApprovedForAll(address owner, address operator) public view virtual override returns (bool) {... */\n    tag_14:\n      tag_62\n      0x04\n      dup1\n      calldatasize\n      sub\n      dup2\n      add\n      swap1\n      tag_63\n      swap2\n      swap1\n      tag_64\n      jump\t// in\n    tag_63:\n      tag_65\n      jump\t// in\n    tag_62:\n      mload(0x40)\n      tag_66\n      swap2\n      swap1\n      tag_21\n      jump\t// in\n    tag_66:\n      mload(0x40)\n      dup1\n      swap2\n      sub\n      swap1\n      return\n        /* \"@openzeppelin/contracts-upgradeable/token/ERC721/ERC721Upgradeable.sol\":1987:2331  function supportsInterface(bytes4 interfaceId) public view virtual override(ERC165Upgradeable, IERC165Upgradeable) returns (bool) {... */\n    tag_19:\n        /* \"@openzeppelin/contracts-upgradeable/token/ERC721/ERC721Upgradeable.sol\":2111:2115  bool */\n      0x00\n        /* \"@openzeppelin/contracts-upgradeable/token/ERC721/ERC721Upgradeable.sol\":2161:2197  type(IERC721Upgradeable).interfaceId */\n      0x591d4bc000000000000000000000000000000000000000000000000000000000\n        /* \"@openzeppelin/contracts-upgradeable/token/ERC721/ERC721Upgradeable.sol\":2146:2197  interfaceId == type(IERC721Upgradeable).interfaceId */\n      not(0xffffffffffffffffffffffffffffffffffffffffffffffffffffffff)\n      and\n        /* \"@openzeppelin/contracts-upgradeable/token/ERC721/ERC721Upgradeable.sol\":2146:2157  interfaceId */\n      dup3\n        /* \"@openzeppelin/contracts-upgradeable/token/ERC721/ERC721Upgradeable.sol\":2146:2197  interfaceId == type(IERC721Upgradeable).interfaceId */\n      not(0xffffffffffffffffffffffffffffffffffffffffffffffffffffffff)\n      and\n      eq\n        /* \"@openzeppelin/contracts-upgradeable/token/ERC721/ERC721Upgradeable.sol\":2146:2272  interfaceId == type(IERC721Upgradeable).interfaceId ||... */\n      dup1\n      tag_68\n      jumpi\n      pop\n        /* \"@openzeppelin/contracts-upgradeable/token/ERC721/ERC721Upgradeable.sol\":2228:2272  type(IERC721MetadataUpgradeable).interfaceId */\n      0x5b5e139f00000000000000000000000000000000000000000000000000000000\n        /* \"@openzeppelin/contracts-upgradeable/token/ERC721/ERC721Upgradeable.sol\":2213:2272  interfaceId == type(IERC721MetadataUpgradeable).interfaceId */\n      not(0xffffffffffffffffffffffffffffffffffffffffffffffffffffffff)\n      and\n        /* \"@openzeppelin/contracts-upgradeable/token/ERC721/ERC721Upgradeable.sol\":2213:2224  interfaceId */\n      dup3\n        /* \"@openzeppelin/contracts-upgradeable/token/ERC721/ERC721Upgradeable.sol\":2213:2272  interfaceId == type(IERC721MetadataUpgradeable).interfaceId */\n      not(0xffffffffffffffffffffffffffffffffffffffffffffffffffffffff)\n      and\n      eq\n        /* \"@openzeppelin/contracts-upgradeable/token/ERC721/ERC721Upgradeable.sol\":2146:2272  interfaceId == type(IERC721Upgradeable).interfaceId ||... */\n    tag_68:\n        /* \"@openzeppelin/contracts-upgradeable/token/ERC721/ERC721Upgradeable.sol\":2146:2324  interfaceId == type(IERC721Upgradeable).interfaceId ||... */\n      dup1\n      tag_69\n      jumpi\n      pop\n        /* \"@openzeppelin/contracts-upgradeable/token/ERC721/ERC721Upgradeable.sol\":2288:2324  super.supportsInterface(interfaceId) */\n      tag_70\n        /* \"@openzeppelin/contracts-upgradeable/token/ERC721/ERC721Upgradeable.sol\":2312:2323  interfaceId */\n      dup3\n        /* \"@openzeppelin/contracts-upgradeable/token/ERC721/ERC721Upgradeable.sol\":2288:2311  super.supportsInterface */\n      tag_71\n        /* \"@openzeppelin/contracts-upgradeable/token/ERC721/ERC721Upgradeable.sol\":2288:2324  super.supportsInterface(interfaceId) */\n      jump\t// in\n    tag_70:\n        /* \"@openzeppelin/contracts-upgradeable/token/ERC721/ERC721Upgradeable.sol\":2146:2324  interfaceId == type(IERC721Upgradeable).interfaceId ||... */\n    tag_69:\n        /* \"@openzeppelin/contracts-upgradeable/token/ERC721/ERC721Upgradeable.sol\":2127:2324  return... */\n      swap1\n      pop\n        /* \"@openzeppelin/contracts-upgradeable/token/ERC721/ERC721Upgradeable.sol\":1987:2331  function supportsInterface(bytes4 interfaceId) public view virtual override(ERC165Upgradeable, IERC165Upgradeable) returns (bool) {... */\n      swap2\n      swap1\n      pop\n      jump\t// out\n        /* \"@openzeppelin/contracts-upgradeable/token/ERC721/ERC721Upgradeable.sol\":2932:3030  function name() public view virtual override returns (string memory) {... */\n    tag_23:\n        /* \"@openzeppelin/contracts-upgradeable/token/ERC721/ERC721Upgradeable.sol\":2986:2999  string memory */\n      0x60\n        /* \"@openzeppelin/contracts-upgradeable/token/ERC721/ERC721Upgradeable.sol\":3018:3023  _name */\n      0x65\n        /* \"@openzeppelin/contracts-upgradeable/token/ERC721/ERC721Upgradeable.sol\":3011:3023  return _name */\n      dup1\n      sload\n      tag_73\n      swap1\n      tag_74\n      jump\t// in\n    tag_73:\n      dup1\n      0x1f\n      add\n      0x20\n      dup1\n      swap2\n      div\n      mul\n      0x20\n      add\n      mload(0x40)\n      swap1\n      dup2\n      add\n      0x40\n      mstore\n      dup1\n      swap3\n      swap2\n      swap1\n      dup2\n      dup2\n      mstore\n      0x20\n      add\n      dup3\n      dup1\n      sload\n      tag_75\n      swap1\n      tag_74\n      jump\t// in\n    tag_75:\n      dup1\n      iszero\n      tag_76\n      jumpi\n      dup1\n      0x1f\n      lt\n      tag_77\n      jumpi\n      0x0100\n      dup1\n      dup4\n      sload\n      div\n      mul\n      dup4\n      mstore\n      swap2\n      0x20\n      add\n      swap2\n      jump(tag_76)\n    tag_77:\n      dup3\n      add\n      swap2\n      swap1\n      0x00\n      mstore\n      keccak256(0x00, 0x20)\n      swap1\n    tag_78:\n      dup2\n      sload\n      dup2\n      mstore\n      swap1\n      0x01\n      add\n      swap1\n      0x20\n      add\n      dup1\n      dup4\n      gt\n      tag_78\n      jumpi\n      dup3\n      swap1\n      sub\n      0x1f\n      and\n      dup3\n      add\n      swap2\n    tag_76:\n      pop\n      pop\n      pop\n      pop\n      pop\n      swap1\n      pop\n        /* \"@openzeppelin/contracts-upgradeable/token/ERC721/ERC721Upgradeable.sol\":2932:3030  function name() public view virtual override returns (string memory) {... */\n      swap1\n      jump\t// out\n        /* \"@openzeppelin/contracts-upgradeable/token/ERC721/ERC721Upgradeable.sol\":4407:4574  function getApproved(uint256 tokenId) public view virtual override returns (address) {... */\n    tag_29:\n        /* \"@openzeppelin/contracts-upgradeable/token/ERC721/ERC721Upgradeable.sol\":4483:4490  address */\n      0x00\n        /* \"@openzeppelin/contracts-upgradeable/token/ERC721/ERC721Upgradeable.sol\":4502:4525  _requireMinted(tokenId) */\n      tag_80\n        /* \"@openzeppelin/contracts-upgradeable/token/ERC721/ERC721Upgradeable.sol\":4517:4524  tokenId */\n      dup3\n        /* \"@openzeppelin/contracts-upgradeable/token/ERC721/ERC721Upgradeable.sol\":4502:4516  _requireMinted */\n      tag_81\n        /* \"@openzeppelin/contracts-upgradeable/token/ERC721/ERC721Upgradeable.sol\":4502:4525  _requireMinted(tokenId) */\n      jump\t// in\n    tag_80:\n        /* \"@openzeppelin/contracts-upgradeable/token/ERC721/ERC721Upgradeable.sol\":4543:4558  _tokenApprovals */\n      0x69\n        /* \"@openzeppelin/contracts-upgradeable/token/ERC721/ERC721Upgradeable.sol\":4543:4567  _tokenApprovals[tokenId] */\n      0x00\n        /* \"@openzeppelin/contracts-upgradeable/token/ERC721/ERC721Upgradeable.sol\":4559:4566  tokenId */\n      dup4\n        /* \"@openzeppelin/contracts-upgradeable/token/ERC721/ERC721Upgradeable.sol\":4543:4567  _tokenApprovals[tokenId] */\n      dup2\n      mstore\n      0x20\n      add\n      swap1\n      dup2\n      mstore\n      0x20\n      add\n      0x00\n      keccak256\n      0x00\n      swap1\n      sload\n      swap1\n      0x0100\n      exp\n      swap1\n      div\n      0xffffffffffffffffffffffffffffffffffffffff\n      and\n        /* \"@openzeppelin/contracts-upgradeable/token/ERC721/ERC721Upgradeable.sol\":4536:4567  return _tokenApprovals[tokenId] */\n      swap1\n      pop\n        /* \"@openzeppelin/contracts-upgradeable/token/ERC721/ERC721Upgradeable.sol\":4407:4574  function getApproved(uint256 tokenId) public view virtual override returns (address) {... */\n      swap2\n      swap1\n      pop\n      jump\t// out\n        /* \"@openzeppelin/contracts-upgradeable/token/ERC721/ERC721Upgradeable.sol\":3929:4346  function approve(address to, uint256 tokenId) public virtual override {... */\n    tag_35:\n        /* \"@openzeppelin/contracts-upgradeable/token/ERC721/ERC721Upgradeable.sol\":4009:4022  address owner */\n      0x00\n        /* \"@openzeppelin/contracts-upgradeable/token/ERC721/ERC721Upgradeable.sol\":4025:4059  ERC721Upgradeable.ownerOf(tokenId) */\n      tag_83\n        /* \"@openzeppelin/contracts-upgradeable/token/ERC721/ERC721Upgradeable.sol\":4051:4058  tokenId */\n      dup3\n        /* \"@openzeppelin/contracts-upgradeable/token/ERC721/ERC721Upgradeable.sol\":4025:4050  ERC721Upgradeable.ownerOf */\n      tag_38\n        /* \"@openzeppelin/contracts-upgradeable/token/ERC721/ERC721Upgradeable.sol\":4025:4059  ERC721Upgradeable.ownerOf(tokenId) */\n      jump\t// in\n    tag_83:\n        /* \"@openzeppelin/contracts-upgradeable/token/ERC721/ERC721Upgradeable.sol\":4009:4059  address owner = ERC721Upgradeable.ownerOf(tokenId) */\n      swap1\n      pop\n        /* \"@openzeppelin/contracts-upgradeable/token/ERC721/ERC721Upgradeable.sol\":4083:4088  owner */\n      dup1\n        /* \"@openzeppelin/contracts-upgradeable/token/ERC721/ERC721Upgradeable.sol\":4077:4088  to != owner */\n      0xffffffffffffffffffffffffffffffffffffffff\n      and\n        /* \"@openzeppelin/contracts-upgradeable/token/ERC721/ERC721Upgradeable.sol\":4077:4079  to */\n      dup4\n        /* \"@openzeppelin/contracts-upgradeable/token/ERC721/ERC721Upgradeable.sol\":4077:4088  to != owner */\n      0xffffffffffffffffffffffffffffffffffffffff\n      and\n      eq\n      iszero\n        /* \"@openzeppelin/contracts-upgradeable/token/ERC721/ERC721Upgradeable.sol\":4069:4126  require(to != owner, \"ERC721: approval to current owner\") */\n      tag_84\n      jumpi\n      mload(0x40)\n      0x08c379a000000000000000000000000000000000000000000000000000000000\n      dup2\n      mstore\n      0x04\n      add\n      tag_85\n      swap1\n      tag_86\n      jump\t// in\n    tag_85:\n      mload(0x40)\n      dup1\n      swap2\n      sub\n      swap1\n      revert\n    tag_84:\n        /* \"@openzeppelin/contracts-upgradeable/token/ERC721/ERC721Upgradeable.sol\":4174:4179  owner */\n      dup1\n        /* \"@openzeppelin/contracts-upgradeable/token/ERC721/ERC721Upgradeable.sol\":4158:4179  _msgSender() == owner */\n      0xffffffffffffffffffffffffffffffffffffffff\n      and\n        /* \"@openzeppelin/contracts-upgradeable/token/ERC721/ERC721Upgradeable.sol\":4158:4170  _msgSender() */\n      tag_87\n        /* \"@openzeppelin/contracts-upgradeable/token/ERC721/ERC721Upgradeable.sol\":4158:4168  _msgSender */\n      tag_88\n        /* \"@openzeppelin/contracts-upgradeable/token/ERC721/ERC721Upgradeable.sol\":4158:4170  _msgSender() */\n      jump\t// in\n    tag_87:\n        /* \"@openzeppelin/contracts-upgradeable/token/ERC721/ERC721Upgradeable.sol\":4158:4179  _msgSender() == owner */\n      0xffffffffffffffffffffffffffffffffffffffff\n      and\n      eq\n        /* \"@openzeppelin/contracts-upgradeable/token/ERC721/ERC721Upgradeable.sol\":4158:4220  _msgSender() == owner || isApprovedForAll(owner, _msgSender()) */\n      dup1\n      tag_89\n      jumpi\n      pop\n        /* \"@openzeppelin/contracts-upgradeable/token/ERC721/ERC721Upgradeable.sol\":4183:4220  isApprovedForAll(owner, _msgSender()) */\n      tag_90\n        /* \"@openzeppelin/contracts-upgradeable/token/ERC721/ERC721Upgradeable.sol\":4200:4205  owner */\n      dup2\n        /* \"@openzeppelin/contracts-upgradeable/token/ERC721/ERC721Upgradeable.sol\":4207:4219  _msgSender() */\n      tag_91\n        /* \"@openzeppelin/contracts-upgradeable/token/ERC721/ERC721Upgradeable.sol\":4207:4217  _msgSender */\n      tag_88\n        /* \"@openzeppelin/contracts-upgradeable/token/ERC721/ERC721Upgradeable.sol\":4207:4219  _msgSender() */\n      jump\t// in\n    tag_91:\n        /* \"@openzeppelin/contracts-upgradeable/token/ERC721/ERC721Upgradeable.sol\":4183:4199  isApprovedForAll */\n      tag_65\n        /* \"@openzeppelin/contracts-upgradeable/token/ERC721/ERC721Upgradeable.sol\":4183:4220  isApprovedForAll(owner, _msgSender()) */\n      jump\t// in\n    tag_90:\n        /* \"@openzeppelin/contracts-upgradeable/token/ERC721/ERC721Upgradeable.sol\":4158:4220  _msgSender() == owner || isApprovedForAll(owner, _msgSender()) */\n    tag_89:\n        /* \"@openzeppelin/contracts-upgradeable/token/ERC721/ERC721Upgradeable.sol\":4137:4307  require(... */\n      tag_92\n      jumpi\n      mload(0x40)\n      0x08c379a000000000000000000000000000000000000000000000000000000000\n      dup2\n      mstore\n      0x04\n      add\n      tag_93\n      swap1\n      tag_94\n      jump\t// in\n    tag_93:\n      mload(0x40)\n      dup1\n      swap2\n      sub\n      swap1\n      revert\n    tag_92:\n        /* \"@openzeppelin/contracts-upgradeable/token/ERC721/ERC721Upgradeable.sol\":4318:4339  _approve(to, tokenId) */\n      tag_95\n        /* \"@openzeppelin/contracts-upgradeable/token/ERC721/ERC721Upgradeable.sol\":4327:4329  to */\n      dup4\n        /* \"@openzeppelin/contracts-upgradeable/token/ERC721/ERC721Upgradeable.sol\":4331:4338  tokenId */\n      dup4\n        /* \"@openzeppelin/contracts-upgradeable/token/ERC721/ERC721Upgradeable.sol\":4318:4326  _approve */\n      tag_96\n        /* \"@openzeppelin/contracts-upgradeable/token/ERC721/ERC721Upgradeable.sol\":4318:4339  _approve(to, tokenId) */\n      jump\t// in\n    tag_95:\n        /* \"@openzeppelin/contracts-upgradeable/token/ERC721/ERC721Upgradeable.sol\":3999:4346  {... */\n      pop\n        /* \"@openzeppelin/contracts-upgradeable/token/ERC721/ERC721Upgradeable.sol\":3929:4346  function approve(address to, uint256 tokenId) public virtual override {... */\n      pop\n      pop\n      jump\t// out\n        /* \"@openzeppelin/contracts-upgradeable/token/ERC721/ERC721Upgradeable.sol\":2651:2870  function ownerOf(uint256 tokenId) public view virtual override returns (address) {... */\n    tag_38:\n        /* \"@openzeppelin/contracts-upgradeable/token/ERC721/ERC721Upgradeable.sol\":2723:2730  address */\n      0x00\n        /* \"@openzeppelin/contracts-upgradeable/token/ERC721/ERC721Upgradeable.sol\":2742:2755  address owner */\n      dup1\n        /* \"@openzeppelin/contracts-upgradeable/token/ERC721/ERC721Upgradeable.sol\":2758:2775  _ownerOf(tokenId) */\n      tag_98\n        /* \"@openzeppelin/contracts-upgradeable/token/ERC721/ERC721Upgradeable.sol\":2767:2774  tokenId */\n      dup4\n        /* \"@openzeppelin/contracts-upgradeable/token/ERC721/ERC721Upgradeable.sol\":2758:2766  _ownerOf */\n      tag_99\n        /* \"@openzeppelin/contracts-upgradeable/token/ERC721/ERC721Upgradeable.sol\":2758:2775  _ownerOf(tokenId) */\n      jump\t// in\n    tag_98:\n        /* \"@openzeppelin/contracts-upgradeable/token/ERC721/ERC721Upgradeable.sol\":2742:2775  address owner = _ownerOf(tokenId) */\n      swap1\n      pop\n        /* \"@openzeppelin/contracts-upgradeable/token/ERC721/ERC721Upgradeable.sol\":2810:2811  0 */\n      0x00\n        /* \"@openzeppelin/contracts-upgradeable/token/ERC721/ERC721Upgradeable.sol\":2793:2812  owner != address(0) */\n      0xffffffffffffffffffffffffffffffffffffffff\n      and\n        /* \"@openzeppelin/contracts-upgradeable/token/ERC721/ERC721Upgradeable.sol\":2793:2798  owner */\n      dup2\n        /* \"@openzeppelin/contracts-upgradeable/token/ERC721/ERC721Upgradeable.sol\":2793:2812  owner != address(0) */\n      0xffffffffffffffffffffffffffffffffffffffff\n      and\n      eq\n      iszero\n        /* \"@openzeppelin/contracts-upgradeable/token/ERC721/ERC721Upgradeable.sol\":2785:2841  require(owner != address(0), \"ERC721: invalid token ID\") */\n      tag_100\n      jumpi\n      mload(0x40)\n      0x08c379a000000000000000000000000000000000000000000000000000000000\n      dup2\n      mstore\n      0x04\n      add\n      tag_101\n      swap1\n      tag_102\n      jump\t// in\n    tag_101:\n      mload(0x40)\n      dup1\n      swap2\n      sub\n      swap1\n      revert\n    tag_100:\n        /* \"@openzeppelin/contracts-upgradeable/token/ERC721/ERC721Upgradeable.sol\":2858:2863  owner */\n      dup1\n        /* \"@openzeppelin/contracts-upgradeable/token/ERC721/ERC721Upgradeable.sol\":2851:2863  return owner */\n      swap2\n      pop\n      pop\n        /* \"@openzeppelin/contracts-upgradeable/token/ERC721/ERC721Upgradeable.sol\":2651:2870  function ownerOf(uint256 tokenId) public view virtual override returns (address) {... */\n      swap2\n      swap1\n      pop\n      jump\t// out\n        /* \"@openzeppelin/contracts-upgradeable/token/ERC721/ERC721Upgradeable.sol\":2390:2594  function balanceOf(address owner) public view virtual override returns (uint256) {... */\n    tag_43:\n        /* \"@openzeppelin/contracts-upgradeable/token/ERC721/ERC721Upgradeable.sol\":2462:2469  uint256 */\n      0x00\n        /* \"@openzeppelin/contracts-upgradeable/token/ERC721/ERC721Upgradeable.sol\":2506:2507  0 */\n      dup1\n        /* \"@openzeppelin/contracts-upgradeable/token/ERC721/ERC721Upgradeable.sol\":2489:2508  owner != address(0) */\n      0xffffffffffffffffffffffffffffffffffffffff\n      and\n        /* \"@openzeppelin/contracts-upgradeable/token/ERC721/ERC721Upgradeable.sol\":2489:2494  owner */\n      dup3\n        /* \"@openzeppelin/contracts-upgradeable/token/ERC721/ERC721Upgradeable.sol\":2489:2508  owner != address(0) */\n      0xffffffffffffffffffffffffffffffffffffffff\n      and\n      eq\n      iszero\n        /* \"@openzeppelin/contracts-upgradeable/token/ERC721/ERC721Upgradeable.sol\":2481:2554  require(owner != address(0), \"ERC721: address zero is not a valid owner\") */\n      tag_104\n      jumpi\n      mload(0x40)\n      0x08c379a000000000000000000000000000000000000000000000000000000000\n      dup2\n      mstore\n      0x04\n      add\n      tag_105\n      swap1\n      tag_106\n      jump\t// in\n    tag_105:\n      mload(0x40)\n      dup1\n      swap2\n      sub\n      swap1\n      revert\n    tag_104:\n        /* \"@openzeppelin/contracts-upgradeable/token/ERC721/ERC721Upgradeable.sol\":2571:2580  _balances */\n      0x68\n        /* \"@openzeppelin/contracts-upgradeable/token/ERC721/ERC721Upgradeable.sol\":2571:2587  _balances[owner] */\n      0x00\n        /* \"@openzeppelin/contracts-upgradeable/token/ERC721/ERC721Upgradeable.sol\":2581:2586  owner */\n      dup4\n        /* \"@openzeppelin/contracts-upgradeable/token/ERC721/ERC721Upgradeable.sol\":2571:2587  _balances[owner] */\n      0xffffffffffffffffffffffffffffffffffffffff\n      and\n      0xffffffffffffffffffffffffffffffffffffffff\n      and\n      dup2\n      mstore\n      0x20\n      add\n      swap1\n      dup2\n      mstore\n      0x20\n      add\n      0x00\n      keccak256\n      sload\n        /* \"@openzeppelin/contracts-upgradeable/token/ERC721/ERC721Upgradeable.sol\":2564:2587  return _balances[owner] */\n      swap1\n      pop\n        /* \"@openzeppelin/contracts-upgradeable/token/ERC721/ERC721Upgradeable.sol\":2390:2594  function balanceOf(address owner) public view virtual override returns (uint256) {... */\n      swap2\n      swap1\n      pop\n      jump\t// out\n        /* \"contracts/MyToken.sol\":385:479  function initialize() initializer public {... */\n    tag_47:\n        /* \"@openzeppelin/contracts-upgradeable/proxy/utils/Initializable.sol\":3268:3287  bool isTopLevelCall */\n      0x00\n        /* \"@openzeppelin/contracts-upgradeable/proxy/utils/Initializable.sol\":3291:3304  _initializing */\n      dup1\n      0x01\n      swap1\n      sload\n      swap1\n      0x0100\n      exp\n      swap1\n      div\n      0xff\n      and\n        /* \"@openzeppelin/contracts-upgradeable/proxy/utils/Initializable.sol\":3290:3304  !_initializing */\n      iszero\n        /* \"@openzeppelin/contracts-upgradeable/proxy/utils/Initializable.sol\":3268:3304  bool isTopLevelCall = !_initializing */\n      swap1\n      pop\n        /* \"@openzeppelin/contracts-upgradeable/proxy/utils/Initializable.sol\":3336:3350  isTopLevelCall */\n      dup1\n        /* \"@openzeppelin/contracts-upgradeable/proxy/utils/Initializable.sol\":3336:3370  isTopLevelCall && _initialized < 1 */\n      dup1\n      iszero\n      tag_108\n      jumpi\n      pop\n        /* \"@openzeppelin/contracts-upgradeable/proxy/utils/Initializable.sol\":3369:3370  1 */\n      0x01\n        /* \"@openzeppelin/contracts-upgradeable/proxy/utils/Initializable.sol\":3354:3366  _initialized */\n      0x00\n      dup1\n      sload\n      swap1\n      0x0100\n      exp\n      swap1\n      div\n      0xff\n      and\n        /* \"@openzeppelin/contracts-upgradeable/proxy/utils/Initializable.sol\":3354:3370  _initialized < 1 */\n      0xff\n      and\n      lt\n        /* \"@openzeppelin/contracts-upgradeable/proxy/utils/Initializable.sol\":3336:3370  isTopLevelCall && _initialized < 1 */\n    tag_108:\n        /* \"@openzeppelin/contracts-upgradeable/proxy/utils/Initializable.sol\":3335:3443  (isTopLevelCall && _initialized < 1) || (!AddressUpgradeable.isContract(address(this)) && _initialized == 1) */\n      dup1\n      tag_109\n      jumpi\n      pop\n        /* \"@openzeppelin/contracts-upgradeable/proxy/utils/Initializable.sol\":3377:3421  AddressUpgradeable.isContract(address(this)) */\n      tag_110\n        /* \"@openzeppelin/contracts-upgradeable/proxy/utils/Initializable.sol\":3415:3419  this */\n      address\n        /* \"@openzeppelin/contracts-upgradeable/proxy/utils/Initializable.sol\":3377:3406  AddressUpgradeable.isContract */\n      tag_111\n        /* \"@openzeppelin/contracts-upgradeable/proxy/utils/Initializable.sol\":3377:3421  AddressUpgradeable.isContract(address(this)) */\n      jump\t// in\n    tag_110:\n        /* \"@openzeppelin/contracts-upgradeable/proxy/utils/Initializable.sol\":3376:3421  !AddressUpgradeable.isContract(address(this)) */\n      iszero\n        /* \"@openzeppelin/contracts-upgradeable/proxy/utils/Initializable.sol\":3376:3442  !AddressUpgradeable.isContract(address(this)) && _initialized == 1 */\n      dup1\n      iszero\n      tag_112\n      jumpi\n      pop\n        /* \"@openzeppelin/contracts-upgradeable/proxy/utils/Initializable.sol\":3441:3442  1 */\n      0x01\n        /* \"@openzeppelin/contracts-upgradeable/proxy/utils/Initializable.sol\":3425:3437  _initialized */\n      0x00\n      dup1\n      sload\n      swap1\n      0x0100\n      exp\n      swap1\n      div\n      0xff\n      and\n        /* \"@openzeppelin/contracts-upgradeable/proxy/utils/Initializable.sol\":3425:3442  _initialized == 1 */\n      0xff\n      and\n      eq\n        /* \"@openzeppelin/contracts-upgradeable/proxy/utils/Initializable.sol\":3376:3442  !AddressUpgradeable.isContract(address(this)) && _initialized == 1 */\n    tag_112:\n        /* \"@openzeppelin/contracts-upgradeable/proxy/utils/Initializable.sol\":3335:3443  (isTopLevelCall && _initialized < 1) || (!AddressUpgradeable.isContract(address(this)) && _initialized == 1) */\n    tag_109:\n        /* \"@openzeppelin/contracts-upgradeable/proxy/utils/Initializable.sol\":3314:3515  require(... */\n      tag_113\n      jumpi\n      mload(0x40)\n      0x08c379a000000000000000000000000000000000000000000000000000000000\n      dup2\n      mstore\n      0x04\n      add\n      tag_114\n      swap1\n      tag_115\n      jump\t// in\n    tag_114:\n      mload(0x40)\n      dup1\n      swap2\n      sub\n      swap1\n      revert\n    tag_113:\n        /* \"@openzeppelin/contracts-upgradeable/proxy/utils/Initializable.sol\":3540:3541  1 */\n      0x01\n        /* \"@openzeppelin/contracts-upgradeable/proxy/utils/Initializable.sol\":3525:3537  _initialized */\n      0x00\n      dup1\n        /* \"@openzeppelin/contracts-upgradeable/proxy/utils/Initializable.sol\":3525:3541  _initialized = 1 */\n      0x0100\n      exp\n      dup2\n      sload\n      dup2\n      0xff\n      mul\n      not\n      and\n      swap1\n      dup4\n      0xff\n      and\n      mul\n      or\n      swap1\n      sstore\n      pop\n        /* \"@openzeppelin/contracts-upgradeable/proxy/utils/Initializable.sol\":3555:3569  isTopLevelCall */\n      dup1\n        /* \"@openzeppelin/contracts-upgradeable/proxy/utils/Initializable.sol\":3551:3616  if (isTopLevelCall) {... */\n      iszero\n      tag_116\n      jumpi\n        /* \"@openzeppelin/contracts-upgradeable/proxy/utils/Initializable.sol\":3601:3605  true */\n      0x01\n        /* \"@openzeppelin/contracts-upgradeable/proxy/utils/Initializable.sol\":3585:3598  _initializing */\n      0x00\n      0x01\n        /* \"@openzeppelin/contracts-upgradeable/proxy/utils/Initializable.sol\":3585:3605  _initializing = true */\n      0x0100\n      exp\n      dup2\n      sload\n      dup2\n      0xff\n      mul\n      not\n      and\n      swap1\n      dup4\n      iszero\n      iszero\n      mul\n      or\n      swap1\n      sstore\n      pop\n        /* \"@openzeppelin/contracts-upgradeable/proxy/utils/Initializable.sol\":3551:3616  if (isTopLevelCall) {... */\n    tag_116:\n        /* \"contracts/MyToken.sol\":436:472  __ERC721_init(\"MedicalData\", \"MDAT\") */\n      tag_118\n      mload(0x40)\n      dup1\n      0x40\n      add\n      0x40\n      mstore\n      dup1\n      0x0b\n      dup2\n      mstore\n      0x20\n      add\n      0x4d65646963616c44617461000000000000000000000000000000000000000000\n      dup2\n      mstore\n      pop\n      mload(0x40)\n      dup1\n      0x40\n      add\n      0x40\n      mstore\n      dup1\n      0x04\n      dup2\n      mstore\n      0x20\n      add\n      0x4d44415400000000000000000000000000000000000000000000000000000000\n      dup2\n      mstore\n      pop\n        /* \"contracts/MyToken.sol\":436:449  __ERC721_init */\n      tag_119\n        /* \"contracts/MyToken.sol\":436:472  __ERC721_init(\"MedicalData\", \"MDAT\") */\n      jump\t// in\n    tag_118:\n        /* \"@openzeppelin/contracts-upgradeable/proxy/utils/Initializable.sol\":3640:3654  isTopLevelCall */\n      dup1\n        /* \"@openzeppelin/contracts-upgradeable/proxy/utils/Initializable.sol\":3636:3735  if (isTopLevelCall) {... */\n      iszero\n      tag_120\n      jumpi\n        /* \"@openzeppelin/contracts-upgradeable/proxy/utils/Initializable.sol\":3686:3691  false */\n      0x00\n        /* \"@openzeppelin/contracts-upgradeable/proxy/utils/Initializable.sol\":3670:3683  _initializing */\n      dup1\n      0x01\n        /* \"@openzeppelin/contracts-upgradeable/proxy/utils/Initializable.sol\":3670:3691  _initializing = false */\n      0x0100\n      exp\n      dup2\n      sload\n      dup2\n      0xff\n      mul\n      not\n      and\n      swap1\n      dup4\n      iszero\n      iszero\n      mul\n      or\n      swap1\n      sstore\n      pop\n        /* \"@openzeppelin/contracts-upgradeable/proxy/utils/Initializable.sol\":3710:3724  Initialized(1) */\n      0x7f26b83ff96e1f2b6a682f133852f6798a09c465da95921460cefb3847402498\n        /* \"@openzeppelin/contracts-upgradeable/proxy/utils/Initializable.sol\":3722:3723  1 */\n      0x01\n        /* \"@openzeppelin/contracts-upgradeable/proxy/utils/Initializable.sol\":3710:3724  Initialized(1) */\n      mload(0x40)\n      tag_121\n      swap2\n      swap1\n      tag_122\n      jump\t// in\n    tag_121:\n      mload(0x40)\n      dup1\n      swap2\n      sub\n      swap1\n      log1\n        /* \"@openzeppelin/contracts-upgradeable/proxy/utils/Initializable.sol\":3636:3735  if (isTopLevelCall) {... */\n    tag_120:\n        /* \"@openzeppelin/contracts-upgradeable/proxy/utils/Initializable.sol\":3258:3741  {... */\n      pop\n        /* \"contracts/MyToken.sol\":385:479  function initialize() initializer public {... */\n      jump\t// out\n        /* \"@openzeppelin/contracts-upgradeable/token/ERC721/ERC721Upgradeable.sol\":3094:3196  function symbol() public view virtual override returns (string memory) {... */\n    tag_49:\n        /* \"@openzeppelin/contracts-upgradeable/token/ERC721/ERC721Upgradeable.sol\":3150:3163  string memory */\n      0x60\n        /* \"@openzeppelin/contracts-upgradeable/token/ERC721/ERC721Upgradeable.sol\":3182:3189  _symbol */\n      0x66\n        /* \"@openzeppelin/contracts-upgradeable/token/ERC721/ERC721Upgradeable.sol\":3175:3189  return _symbol */\n      dup1\n      sload\n      tag_124\n      swap1\n      tag_74\n      jump\t// in\n    tag_124:\n      dup1\n      0x1f\n      add\n      0x20\n      dup1\n      swap2\n      div\n      mul\n      0x20\n      add\n      mload(0x40)\n      swap1\n      dup2\n      add\n      0x40\n      mstore\n      dup1\n      swap3\n      swap2\n      swap1\n      dup2\n      dup2\n      mstore\n      0x20\n      add\n      dup3\n      dup1\n      sload\n      tag_125\n      swap1\n      tag_74\n      jump\t// in\n    tag_125:\n      dup1\n      iszero\n      tag_126\n      jumpi\n      dup1\n      0x1f\n      lt\n      tag_127\n      jumpi\n      0x0100\n      dup1\n      dup4\n      sload\n      div\n      mul\n      dup4\n      mstore\n      swap2\n      0x20\n      add\n      swap2\n      jump(tag_126)\n    tag_127:\n      dup3\n      add\n      swap2\n      swap1\n      0x00\n      mstore\n      keccak256(0x00, 0x20)\n      swap1\n    tag_128:\n      dup2\n      sload\n      dup2\n      mstore\n      swap1\n      0x01\n      add\n      swap1\n      0x20\n      add\n      dup1\n      dup4\n      gt\n      tag_128\n      jumpi\n      dup3\n      swap1\n      sub\n      0x1f\n      and\n      dup3\n      add\n      swap2\n    tag_126:\n      pop\n      pop\n      pop\n      pop\n      pop\n      swap1\n      pop\n        /* \"@openzeppelin/contracts-upgradeable/token/ERC721/ERC721Upgradeable.sol\":3094:3196  function symbol() public view virtual override returns (string memory) {... */\n      swap1\n      jump\t// out\n        /* \"contracts/MyToken.sol\":485:577  function safeMint(address to, uint256 tokenId) public{... */\n    tag_53:\n        /* \"contracts/MyToken.sol\":548:570  _safeMint(to, tokenId) */\n      tag_130\n        /* \"contracts/MyToken.sol\":558:560  to */\n      dup3\n        /* \"contracts/MyToken.sol\":562:569  tokenId */\n      dup3\n        /* \"contracts/MyToken.sol\":548:557  _safeMint */\n      tag_131\n        /* \"contracts/MyToken.sol\":548:570  _safeMint(to, tokenId) */\n      jump\t// in\n    tag_130:\n        /* \"contracts/MyToken.sol\":485:577  function safeMint(address to, uint256 tokenId) public{... */\n      pop\n      pop\n      jump\t// out\n        /* \"@openzeppelin/contracts-upgradeable/token/ERC721/ERC721Upgradeable.sol\":4641:4794  function setApprovalForAll(address operator, bool approved) public virtual override {... */\n    tag_57:\n        /* \"@openzeppelin/contracts-upgradeable/token/ERC721/ERC721Upgradeable.sol\":4735:4787  _setApprovalForAll(_msgSender(), operator, approved) */\n      tag_133\n        /* \"@openzeppelin/contracts-upgradeable/token/ERC721/ERC721Upgradeable.sol\":4754:4766  _msgSender() */\n      tag_134\n        /* \"@openzeppelin/contracts-upgradeable/token/ERC721/ERC721Upgradeable.sol\":4754:4764  _msgSender */\n      tag_88\n        /* \"@openzeppelin/contracts-upgradeable/token/ERC721/ERC721Upgradeable.sol\":4754:4766  _msgSender() */\n      jump\t// in\n    tag_134:\n        /* \"@openzeppelin/contracts-upgradeable/token/ERC721/ERC721Upgradeable.sol\":4768:4776  operator */\n      dup4\n        /* \"@openzeppelin/contracts-upgradeable/token/ERC721/ERC721Upgradeable.sol\":4778:4786  approved */\n      dup4\n        /* \"@openzeppelin/contracts-upgradeable/token/ERC721/ERC721Upgradeable.sol\":4735:4753  _setApprovalForAll */\n      tag_135\n        /* \"@openzeppelin/contracts-upgradeable/token/ERC721/ERC721Upgradeable.sol\":4735:4787  _setApprovalForAll(_msgSender(), operator, approved) */\n      jump\t// in\n    tag_133:\n        /* \"@openzeppelin/contracts-upgradeable/token/ERC721/ERC721Upgradeable.sol\":4641:4794  function setApprovalForAll(address operator, bool approved) public virtual override {... */\n      pop\n      pop\n      jump\t// out\n        /* \"@openzeppelin/contracts-upgradeable/token/ERC721/ERC721Upgradeable.sol\":3262:3538  function tokenURI(uint256 tokenId) public view virtual override returns (string memory) {... */\n    tag_60:\n        /* \"@openzeppelin/contracts-upgradeable/token/ERC721/ERC721Upgradeable.sol\":3335:3348  string memory */\n      0x60\n        /* \"@openzeppelin/contracts-upgradeable/token/ERC721/ERC721Upgradeable.sol\":3360:3383  _requireMinted(tokenId) */\n      tag_137\n        /* \"@openzeppelin/contracts-upgradeable/token/ERC721/ERC721Upgradeable.sol\":3375:3382  tokenId */\n      dup3\n        /* \"@openzeppelin/contracts-upgradeable/token/ERC721/ERC721Upgradeable.sol\":3360:3374  _requireMinted */\n      tag_81\n        /* \"@openzeppelin/contracts-upgradeable/token/ERC721/ERC721Upgradeable.sol\":3360:3383  _requireMinted(tokenId) */\n      jump\t// in\n    tag_137:\n        /* \"@openzeppelin/contracts-upgradeable/token/ERC721/ERC721Upgradeable.sol\":3394:3415  string memory baseURI */\n      0x00\n        /* \"@openzeppelin/contracts-upgradeable/token/ERC721/ERC721Upgradeable.sol\":3418:3428  _baseURI() */\n      tag_138\n        /* \"@openzeppelin/contracts-upgradeable/token/ERC721/ERC721Upgradeable.sol\":3418:3426  _baseURI */\n      tag_139\n        /* \"@openzeppelin/contracts-upgradeable/token/ERC721/ERC721Upgradeable.sol\":3418:3428  _baseURI() */\n      jump\t// in\n    tag_138:\n        /* \"@openzeppelin/contracts-upgradeable/token/ERC721/ERC721Upgradeable.sol\":3394:3428  string memory baseURI = _baseURI() */\n      swap1\n      pop\n        /* \"@openzeppelin/contracts-upgradeable/token/ERC721/ERC721Upgradeable.sol\":3469:3470  0 */\n      0x00\n        /* \"@openzeppelin/contracts-upgradeable/token/ERC721/ERC721Upgradeable.sol\":3451:3458  baseURI */\n      dup2\n        /* \"@openzeppelin/contracts-upgradeable/token/ERC721/ERC721Upgradeable.sol\":3445:3466  bytes(baseURI).length */\n      mload\n        /* \"@openzeppelin/contracts-upgradeable/token/ERC721/ERC721Upgradeable.sol\":3445:3470  bytes(baseURI).length > 0 */\n      gt\n        /* \"@openzeppelin/contracts-upgradeable/token/ERC721/ERC721Upgradeable.sol\":3445:3531  bytes(baseURI).length > 0 ? string(abi.encodePacked(baseURI, tokenId.toString())) : \"\" */\n      tag_140\n      jumpi\n      mload(0x40)\n      dup1\n      0x20\n      add\n      0x40\n      mstore\n      dup1\n      0x00\n      dup2\n      mstore\n      pop\n      jump(tag_141)\n    tag_140:\n        /* \"@openzeppelin/contracts-upgradeable/token/ERC721/ERC721Upgradeable.sol\":3497:3504  baseURI */\n      dup1\n        /* \"@openzeppelin/contracts-upgradeable/token/ERC721/ERC721Upgradeable.sol\":3506:3524  tokenId.toString() */\n      tag_142\n        /* \"@openzeppelin/contracts-upgradeable/token/ERC721/ERC721Upgradeable.sol\":3506:3513  tokenId */\n      dup5\n        /* \"@openzeppelin/contracts-upgradeable/token/ERC721/ERC721Upgradeable.sol\":3506:3522  tokenId.toString */\n      tag_143\n        /* \"@openzeppelin/contracts-upgradeable/token/ERC721/ERC721Upgradeable.sol\":3506:3524  tokenId.toString() */\n      jump\t// in\n    tag_142:\n        /* \"@openzeppelin/contracts-upgradeable/token/ERC721/ERC721Upgradeable.sol\":3480:3525  abi.encodePacked(baseURI, tokenId.toString()) */\n      add(0x20, mload(0x40))\n      tag_144\n      swap3\n      swap2\n      swap1\n      tag_145\n      jump\t// in\n    tag_144:\n      mload(0x40)\n      0x20\n      dup2\n      dup4\n      sub\n      sub\n      dup2\n      mstore\n      swap1\n      0x40\n      mstore\n        /* \"@openzeppelin/contracts-upgradeable/token/ERC721/ERC721Upgradeable.sol\":3445:3531  bytes(baseURI).length > 0 ? string(abi.encodePacked(baseURI, tokenId.toString())) : \"\" */\n    tag_141:\n        /* \"@openzeppelin/contracts-upgradeable/token/ERC721/ERC721Upgradeable.sol\":3438:3531  return bytes(baseURI).length > 0 ? string(abi.encodePacked(baseURI, tokenId.toString())) : \"\" */\n      swap2\n      pop\n      pop\n        /* \"@openzeppelin/contracts-upgradeable/token/ERC721/ERC721Upgradeable.sol\":3262:3538  function tokenURI(uint256 tokenId) public view virtual override returns (string memory) {... */\n      swap2\n      swap1\n      pop\n      jump\t// out\n        /* \"@openzeppelin/contracts-upgradeable/token/ERC721/ERC721Upgradeable.sol\":4860:5022  function isApprovedForAll(address owner, address operator) public view virtual override returns (bool) {... */\n    tag_65:\n        /* \"@openzeppelin/contracts-upgradeable/token/ERC721/ERC721Upgradeable.sol\":4957:4961  bool */\n      0x00\n        /* \"@openzeppelin/contracts-upgradeable/token/ERC721/ERC721Upgradeable.sol\":4980:4998  _operatorApprovals */\n      0x6a\n        /* \"@openzeppelin/contracts-upgradeable/token/ERC721/ERC721Upgradeable.sol\":4980:5005  _operatorApprovals[owner] */\n      0x00\n        /* \"@openzeppelin/contracts-upgradeable/token/ERC721/ERC721Upgradeable.sol\":4999:5004  owner */\n      dup5\n        /* \"@openzeppelin/contracts-upgradeable/token/ERC721/ERC721Upgradeable.sol\":4980:5005  _operatorApprovals[owner] */\n      0xffffffffffffffffffffffffffffffffffffffff\n      and\n      0xffffffffffffffffffffffffffffffffffffffff\n      and\n      dup2\n      mstore\n      0x20\n      add\n      swap1\n      dup2\n      mstore\n      0x20\n      add\n      0x00\n      keccak256\n        /* \"@openzeppelin/contracts-upgradeable/token/ERC721/ERC721Upgradeable.sol\":4980:5015  _operatorApprovals[owner][operator] */\n      0x00\n        /* \"@openzeppelin/contracts-upgradeable/token/ERC721/ERC721Upgradeable.sol\":5006:5014  operator */\n      dup4\n        /* \"@openzeppelin/contracts-upgradeable/token/ERC721/ERC721Upgradeable.sol\":4980:5015  _operatorApprovals[owner][operator] */\n      0xffffffffffffffffffffffffffffffffffffffff\n      and\n      0xffffffffffffffffffffffffffffffffffffffff\n      and\n      dup2\n      mstore\n      0x20\n      add\n      swap1\n      dup2\n      mstore\n      0x20\n      add\n      0x00\n      keccak256\n      0x00\n      swap1\n      sload\n      swap1\n      0x0100\n      exp\n      swap1\n      div\n      0xff\n      and\n        /* \"@openzeppelin/contracts-upgradeable/token/ERC721/ERC721Upgradeable.sol\":4973:5015  return _operatorApprovals[owner][operator] */\n      swap1\n      pop\n        /* \"@openzeppelin/contracts-upgradeable/token/ERC721/ERC721Upgradeable.sol\":4860:5022  function isApprovedForAll(address owner, address operator) public view virtual override returns (bool) {... */\n      swap3\n      swap2\n      pop\n      pop\n      jump\t// out\n        /* \"@openzeppelin/contracts-upgradeable/utils/introspection/ERC165Upgradeable.sol\":1060:1226  function supportsInterface(bytes4 interfaceId) public view virtual override returns (bool) {... */\n    tag_71:\n        /* \"@openzeppelin/contracts-upgradeable/utils/introspection/ERC165Upgradeable.sol\":1145:1149  bool */\n      0x00\n        /* \"@openzeppelin/contracts-upgradeable/utils/introspection/ERC165Upgradeable.sol\":1183:1219  type(IERC165Upgradeable).interfaceId */\n      0x01ffc9a700000000000000000000000000000000000000000000000000000000\n        /* \"@openzeppelin/contracts-upgradeable/utils/introspection/ERC165Upgradeable.sol\":1168:1219  interfaceId == type(IERC165Upgradeable).interfaceId */\n      not(0xffffffffffffffffffffffffffffffffffffffffffffffffffffffff)\n      and\n        /* \"@openzeppelin/contracts-upgradeable/utils/introspection/ERC165Upgradeable.sol\":1168:1179  interfaceId */\n      dup3\n        /* \"@openzeppelin/contracts-upgradeable/utils/introspection/ERC165Upgradeable.sol\":1168:1219  interfaceId == type(IERC165Upgradeable).interfaceId */\n      not(0xffffffffffffffffffffffffffffffffffffffffffffffffffffffff)\n      and\n      eq\n        /* \"@openzeppelin/contracts-upgradeable/utils/introspection/ERC165Upgradeable.sol\":1161:1219  return interfaceId == type(IERC165Upgradeable).interfaceId */\n      swap1\n      pop\n        /* \"@openzeppelin/contracts-upgradeable/utils/introspection/ERC165Upgradeable.sol\":1060:1226  function supportsInterface(bytes4 interfaceId) public view virtual override returns (bool) {... */\n      swap2\n      swap1\n      pop\n      jump\t// out\n        /* \"@openzeppelin/contracts-upgradeable/token/ERC721/ERC721Upgradeable.sol\":14079:14212  function _requireMinted(uint256 tokenId) internal view virtual {... */\n    tag_81:\n        /* \"@openzeppelin/contracts-upgradeable/token/ERC721/ERC721Upgradeable.sol\":14160:14176  _exists(tokenId) */\n      tag_149\n        /* \"@openzeppelin/contracts-upgradeable/token/ERC721/ERC721Upgradeable.sol\":14168:14175  tokenId */\n      dup2\n        /* \"@openzeppelin/contracts-upgradeable/token/ERC721/ERC721Upgradeable.sol\":14160:14167  _exists */\n      tag_150\n        /* \"@openzeppelin/contracts-upgradeable/token/ERC721/ERC721Upgradeable.sol\":14160:14176  _exists(tokenId) */\n      jump\t// in\n    tag_149:\n        /* \"@openzeppelin/contracts-upgradeable/token/ERC721/ERC721Upgradeable.sol\":14152:14205  require(_exists(tokenId), \"ERC721: invalid token ID\") */\n      tag_151\n      jumpi\n      mload(0x40)\n      0x08c379a000000000000000000000000000000000000000000000000000000000\n      dup2\n      mstore\n      0x04\n      add\n      tag_152\n      swap1\n      tag_102\n      jump\t// in\n    tag_152:\n      mload(0x40)\n      dup1\n      swap2\n      sub\n      swap1\n      revert\n    tag_151:\n        /* \"@openzeppelin/contracts-upgradeable/token/ERC721/ERC721Upgradeable.sol\":14079:14212  function _requireMinted(uint256 tokenId) internal view virtual {... */\n      pop\n      jump\t// out\n        /* \"@openzeppelin/contracts-upgradeable/utils/ContextUpgradeable.sol\":850:946  function _msgSender() internal view virtual returns (address) {... */\n    tag_88:\n        /* \"@openzeppelin/contracts-upgradeable/utils/ContextUpgradeable.sol\":903:910  address */\n      0x00\n        /* \"@openzeppelin/contracts-upgradeable/utils/ContextUpgradeable.sol\":929:939  msg.sender */\n      caller\n        /* \"@openzeppelin/contracts-upgradeable/utils/ContextUpgradeable.sol\":922:939  return msg.sender */\n      swap1\n      pop\n        /* \"@openzeppelin/contracts-upgradeable/utils/ContextUpgradeable.sol\":850:946  function _msgSender() internal view virtual returns (address) {... */\n      swap1\n      jump\t// out\n        /* \"@openzeppelin/contracts-upgradeable/token/ERC721/ERC721Upgradeable.sol\":13370:13552  function _approve(address to, uint256 tokenId) internal virtual {... */\n    tag_96:\n        /* \"@openzeppelin/contracts-upgradeable/token/ERC721/ERC721Upgradeable.sol\":13471:13473  to */\n      dup2\n        /* \"@openzeppelin/contracts-upgradeable/token/ERC721/ERC721Upgradeable.sol\":13444:13459  _tokenApprovals */\n      0x69\n        /* \"@openzeppelin/contracts-upgradeable/token/ERC721/ERC721Upgradeable.sol\":13444:13468  _tokenApprovals[tokenId] */\n      0x00\n        /* \"@openzeppelin/contracts-upgradeable/token/ERC721/ERC721Upgradeable.sol\":13460:13467  tokenId */\n      dup4\n        /* \"@openzeppelin/contracts-upgradeable/token/ERC721/ERC721Upgradeable.sol\":13444:13468  _tokenApprovals[tokenId] */\n      dup2\n      mstore\n      0x20\n      add\n      swap1\n      dup2\n      mstore\n      0x20\n      add\n      0x00\n      keccak256\n      0x00\n        /* \"@openzeppelin/contracts-upgradeable/token/ERC721/ERC721Upgradeable.sol\":13444:13473  _tokenApprovals[tokenId] = to */\n      0x0100\n      exp\n      dup2\n      sload\n      dup2\n      0xffffffffffffffffffffffffffffffffffffffff\n      mul\n      not\n      and\n      swap1\n      dup4\n      0xffffffffffffffffffffffffffffffffffffffff\n      and\n      mul\n      or\n      swap1\n      sstore\n      pop\n        /* \"@openzeppelin/contracts-upgradeable/token/ERC721/ERC721Upgradeable.sol\":13537:13544  tokenId */\n      dup1\n        /* \"@openzeppelin/contracts-upgradeable/token/ERC721/ERC721Upgradeable.sol\":13533:13535  to */\n      dup3\n        /* \"@openzeppelin/contracts-upgradeable/token/ERC721/ERC721Upgradeable.sol\":13488:13545  Approval(ERC721Upgradeable.ownerOf(tokenId), to, tokenId) */\n      0xffffffffffffffffffffffffffffffffffffffff\n      and\n        /* \"@openzeppelin/contracts-upgradeable/token/ERC721/ERC721Upgradeable.sol\":13497:13531  ERC721Upgradeable.ownerOf(tokenId) */\n      tag_155\n        /* \"@openzeppelin/contracts-upgradeable/token/ERC721/ERC721Upgradeable.sol\":13523:13530  tokenId */\n      dup4\n        /* \"@openzeppelin/contracts-upgradeable/token/ERC721/ERC721Upgradeable.sol\":13497:13522  ERC721Upgradeable.ownerOf */\n      tag_38\n        /* \"@openzeppelin/contracts-upgradeable/token/ERC721/ERC721Upgradeable.sol\":13497:13531  ERC721Upgradeable.ownerOf(tokenId) */\n      jump\t// in\n    tag_155:\n        /* \"@openzeppelin/contracts-upgradeable/token/ERC721/ERC721Upgradeable.sol\":13488:13545  Approval(ERC721Upgradeable.ownerOf(tokenId), to, tokenId) */\n      0xffffffffffffffffffffffffffffffffffffffff\n      and\n      0x8c5be1e5ebec7d5bd14f71427d1e84f3dd0314c0f7b2291e5b200ac8c7c3b925\n      mload(0x40)\n      mload(0x40)\n      dup1\n      swap2\n      sub\n      swap1\n      log4\n        /* \"@openzeppelin/contracts-upgradeable/token/ERC721/ERC721Upgradeable.sol\":13370:13552  function _approve(address to, uint256 tokenId) internal virtual {... */\n      pop\n      pop\n      jump\t// out\n        /* \"@openzeppelin/contracts-upgradeable/token/ERC721/ERC721Upgradeable.sol\":7385:7500  function _ownerOf(uint256 tokenId) internal view virtual returns (address) {... */\n    tag_99:\n        /* \"@openzeppelin/contracts-upgradeable/token/ERC721/ERC721Upgradeable.sol\":7451:7458  address */\n      0x00\n        /* \"@openzeppelin/contracts-upgradeable/token/ERC721/ERC721Upgradeable.sol\":7477:7484  _owners */\n      0x67\n        /* \"@openzeppelin/contracts-upgradeable/token/ERC721/ERC721Upgradeable.sol\":7477:7493  _owners[tokenId] */\n      0x00\n        /* \"@openzeppelin/contracts-upgradeable/token/ERC721/ERC721Upgradeable.sol\":7485:7492  tokenId */\n      dup4\n        /* \"@openzeppelin/contracts-upgradeable/token/ERC721/ERC721Upgradeable.sol\":7477:7493  _owners[tokenId] */\n      dup2\n      mstore\n      0x20\n      add\n      swap1\n      dup2\n      mstore\n      0x20\n      add\n      0x00\n      keccak256\n      0x00\n      swap1\n      sload\n      swap1\n      0x0100\n      exp\n      swap1\n      div\n      0xffffffffffffffffffffffffffffffffffffffff\n      and\n        /* \"@openzeppelin/contracts-upgradeable/token/ERC721/ERC721Upgradeable.sol\":7470:7493  return _owners[tokenId] */\n      swap1\n      pop\n        /* \"@openzeppelin/contracts-upgradeable/token/ERC721/ERC721Upgradeable.sol\":7385:7500  function _ownerOf(uint256 tokenId) internal view virtual returns (address) {... */\n      swap2\n      swap1\n      pop\n      jump\t// out\n        /* \"@openzeppelin/contracts-upgradeable/utils/AddressUpgradeable.sol\":1186:1506  function isContract(address account) internal view returns (bool) {... */\n    tag_111:\n        /* \"@openzeppelin/contracts-upgradeable/utils/AddressUpgradeable.sol\":1246:1250  bool */\n      0x00\n        /* \"@openzeppelin/contracts-upgradeable/utils/AddressUpgradeable.sol\":1498:1499  0 */\n      dup1\n        /* \"@openzeppelin/contracts-upgradeable/utils/AddressUpgradeable.sol\":1476:1483  account */\n      dup3\n        /* \"@openzeppelin/contracts-upgradeable/utils/AddressUpgradeable.sol\":1476:1495  account.code.length */\n      0xffffffffffffffffffffffffffffffffffffffff\n      and\n      extcodesize\n        /* \"@openzeppelin/contracts-upgradeable/utils/AddressUpgradeable.sol\":1476:1499  account.code.length > 0 */\n      gt\n        /* \"@openzeppelin/contracts-upgradeable/utils/AddressUpgradeable.sol\":1469:1499  return account.code.length > 0 */\n      swap1\n      pop\n        /* \"@openzeppelin/contracts-upgradeable/utils/AddressUpgradeable.sol\":1186:1506  function isContract(address account) internal view returns (bool) {... */\n      swap2\n      swap1\n      pop\n      jump\t// out\n        /* \"@openzeppelin/contracts-upgradeable/token/ERC721/ERC721Upgradeable.sol\":1605:1754  function __ERC721_init(string memory name_, string memory symbol_) internal onlyInitializing {... */\n    tag_119:\n        /* \"@openzeppelin/contracts-upgradeable/proxy/utils/Initializable.sol\":5363:5376  _initializing */\n      0x00\n      0x01\n      swap1\n      sload\n      swap1\n      0x0100\n      exp\n      swap1\n      div\n      0xff\n      and\n        /* \"@openzeppelin/contracts-upgradeable/proxy/utils/Initializable.sol\":5355:5424  require(_initializing, \"Initializable: contract is not initializing\") */\n      tag_159\n      jumpi\n      mload(0x40)\n      0x08c379a000000000000000000000000000000000000000000000000000000000\n      dup2\n      mstore\n      0x04\n      add\n      tag_160\n      swap1\n      tag_161\n      jump\t// in\n    tag_160:\n      mload(0x40)\n      dup1\n      swap2\n      sub\n      swap1\n      revert\n    tag_159:\n        /* \"@openzeppelin/contracts-upgradeable/token/ERC721/ERC721Upgradeable.sol\":1708:1747  __ERC721_init_unchained(name_, symbol_) */\n      tag_163\n        /* \"@openzeppelin/contracts-upgradeable/token/ERC721/ERC721Upgradeable.sol\":1732:1737  name_ */\n      dup3\n        /* \"@openzeppelin/contracts-upgradeable/token/ERC721/ERC721Upgradeable.sol\":1739:1746  symbol_ */\n      dup3\n        /* \"@openzeppelin/contracts-upgradeable/token/ERC721/ERC721Upgradeable.sol\":1708:1731  __ERC721_init_unchained */\n      tag_164\n        /* \"@openzeppelin/contracts-upgradeable/token/ERC721/ERC721Upgradeable.sol\":1708:1747  __ERC721_init_unchained(name_, symbol_) */\n      jump\t// in\n    tag_163:\n        /* \"@openzeppelin/contracts-upgradeable/token/ERC721/ERC721Upgradeable.sol\":1605:1754  function __ERC721_init(string memory name_, string memory symbol_) internal onlyInitializing {... */\n      pop\n      pop\n      jump\t// out\n        /* \"@openzeppelin/contracts-upgradeable/token/ERC721/ERC721Upgradeable.sol\":8689:8797  function _safeMint(address to, uint256 tokenId) internal virtual {... */\n    tag_131:\n        /* \"@openzeppelin/contracts-upgradeable/token/ERC721/ERC721Upgradeable.sol\":8764:8790  _safeMint(to, tokenId, \"\") */\n      tag_166\n        /* \"@openzeppelin/contracts-upgradeable/token/ERC721/ERC721Upgradeable.sol\":8774:8776  to */\n      dup3\n        /* \"@openzeppelin/contracts-upgradeable/token/ERC721/ERC721Upgradeable.sol\":8778:8785  tokenId */\n      dup3\n        /* \"@openzeppelin/contracts-upgradeable/token/ERC721/ERC721Upgradeable.sol\":8764:8790  _safeMint(to, tokenId, \"\") */\n      mload(0x40)\n      dup1\n      0x20\n      add\n      0x40\n      mstore\n      dup1\n      0x00\n      dup2\n      mstore\n      pop\n        /* \"@openzeppelin/contracts-upgradeable/token/ERC721/ERC721Upgradeable.sol\":8764:8773  _safeMint */\n      tag_167\n        /* \"@openzeppelin/contracts-upgradeable/token/ERC721/ERC721Upgradeable.sol\":8764:8790  _safeMint(to, tokenId, \"\") */\n      jump\t// in\n    tag_166:\n        /* \"@openzeppelin/contracts-upgradeable/token/ERC721/ERC721Upgradeable.sol\":8689:8797  function _safeMint(address to, uint256 tokenId) internal virtual {... */\n      pop\n      pop\n      jump\t// out\n        /* \"@openzeppelin/contracts-upgradeable/token/ERC721/ERC721Upgradeable.sol\":13688:13995  function _setApprovalForAll(... */\n    tag_135:\n        /* \"@openzeppelin/contracts-upgradeable/token/ERC721/ERC721Upgradeable.sol\":13838:13846  operator */\n      dup2\n        /* \"@openzeppelin/contracts-upgradeable/token/ERC721/ERC721Upgradeable.sol\":13829:13846  owner != operator */\n      0xffffffffffffffffffffffffffffffffffffffff\n      and\n        /* \"@openzeppelin/contracts-upgradeable/token/ERC721/ERC721Upgradeable.sol\":13829:13834  owner */\n      dup4\n        /* \"@openzeppelin/contracts-upgradeable/token/ERC721/ERC721Upgradeable.sol\":13829:13846  owner != operator */\n      0xffffffffffffffffffffffffffffffffffffffff\n      and\n      eq\n      iszero\n        /* \"@openzeppelin/contracts-upgradeable/token/ERC721/ERC721Upgradeable.sol\":13821:13876  require(owner != operator, \"ERC721: approve to caller\") */\n      tag_169\n      jumpi\n      mload(0x40)\n      0x08c379a000000000000000000000000000000000000000000000000000000000\n      dup2\n      mstore\n      0x04\n      add\n      tag_170\n      swap1\n      tag_171\n      jump\t// in\n    tag_170:\n      mload(0x40)\n      dup1\n      swap2\n      sub\n      swap1\n      revert\n    tag_169:\n        /* \"@openzeppelin/contracts-upgradeable/token/ERC721/ERC721Upgradeable.sol\":13924:13932  approved */\n      dup1\n        /* \"@openzeppelin/contracts-upgradeable/token/ERC721/ERC721Upgradeable.sol\":13886:13904  _operatorApprovals */\n      0x6a\n        /* \"@openzeppelin/contracts-upgradeable/token/ERC721/ERC721Upgradeable.sol\":13886:13911  _operatorApprovals[owner] */\n      0x00\n        /* \"@openzeppelin/contracts-upgradeable/token/ERC721/ERC721Upgradeable.sol\":13905:13910  owner */\n      dup6\n        /* \"@openzeppelin/contracts-upgradeable/token/ERC721/ERC721Upgradeable.sol\":13886:13911  _operatorApprovals[owner] */\n      0xffffffffffffffffffffffffffffffffffffffff\n      and\n      0xffffffffffffffffffffffffffffffffffffffff\n      and\n      dup2\n      mstore\n      0x20\n      add\n      swap1\n      dup2\n      mstore\n      0x20\n      add\n      0x00\n      keccak256\n        /* \"@openzeppelin/contracts-upgradeable/token/ERC721/ERC721Upgradeable.sol\":13886:13921  _operatorApprovals[owner][operator] */\n      0x00\n        /* \"@openzeppelin/contracts-upgradeable/token/ERC721/ERC721Upgradeable.sol\":13912:13920  operator */\n      dup5\n        /* \"@openzeppelin/contracts-upgradeable/token/ERC721/ERC721Upgradeable.sol\":13886:13921  _operatorApprovals[owner][operator] */\n      0xffffffffffffffffffffffffffffffffffffffff\n      and\n      0xffffffffffffffffffffffffffffffffffffffff\n      and\n      dup2\n      mstore\n      0x20\n      add\n      swap1\n      dup2\n      mstore\n      0x20\n      add\n      0x00\n      keccak256\n      0x00\n        /* \"@openzeppelin/contracts-upgradeable/token/ERC721/ERC721Upgradeable.sol\":13886:13932  _operatorApprovals[owner][operator] = approved */\n      0x0100\n      exp\n      dup2\n      sload\n      dup2\n      0xff\n      mul\n      not\n      and\n      swap1\n      dup4\n      iszero\n      iszero\n      mul\n      or\n      swap1\n      sstore\n      pop\n        /* \"@openzeppelin/contracts-upgradeable/token/ERC721/ERC721Upgradeable.sol\":13969:13977  operator */\n      dup2\n        /* \"@openzeppelin/contracts-upgradeable/token/ERC721/ERC721Upgradeable.sol\":13947:13988  ApprovalForAll(owner, operator, approved) */\n      0xffffffffffffffffffffffffffffffffffffffff\n      and\n        /* \"@openzeppelin/contracts-upgradeable/token/ERC721/ERC721Upgradeable.sol\":13962:13967  owner */\n      dup4\n        /* \"@openzeppelin/contracts-upgradeable/token/ERC721/ERC721Upgradeable.sol\":13947:13988  ApprovalForAll(owner, operator, approved) */\n      0xffffffffffffffffffffffffffffffffffffffff\n      and\n      0x17307eab39ab6107e8899845ad3d59bd9653f200f220920489ca2b5937696c31\n        /* \"@openzeppelin/contracts-upgradeable/token/ERC721/ERC721Upgradeable.sol\":13979:13987  approved */\n      dup4\n        /* \"@openzeppelin/contracts-upgradeable/token/ERC721/ERC721Upgradeable.sol\":13947:13988  ApprovalForAll(owner, operator, approved) */\n      mload(0x40)\n      tag_172\n      swap2\n      swap1\n      tag_21\n      jump\t// in\n    tag_172:\n      mload(0x40)\n      dup1\n      swap2\n      sub\n      swap1\n      log3\n        /* \"@openzeppelin/contracts-upgradeable/token/ERC721/ERC721Upgradeable.sol\":13688:13995  function _setApprovalForAll(... */\n      pop\n      pop\n      pop\n      jump\t// out\n        /* \"@openzeppelin/contracts-upgradeable/token/ERC721/ERC721Upgradeable.sol\":3780:3872  function _baseURI() internal view virtual returns (string memory) {... */\n    tag_139:\n        /* \"@openzeppelin/contracts-upgradeable/token/ERC721/ERC721Upgradeable.sol\":3831:3844  string memory */\n      0x60\n        /* \"@openzeppelin/contracts-upgradeable/token/ERC721/ERC721Upgradeable.sol\":3856:3865  return \"\" */\n      mload(0x40)\n      dup1\n      0x20\n      add\n      0x40\n      mstore\n      dup1\n      0x00\n      dup2\n      mstore\n      pop\n      swap1\n      pop\n        /* \"@openzeppelin/contracts-upgradeable/token/ERC721/ERC721Upgradeable.sol\":3780:3872  function _baseURI() internal view virtual returns (string memory) {... */\n      swap1\n      jump\t// out\n        /* \"@openzeppelin/contracts-upgradeable/utils/StringsUpgradeable.sol\":437:1144  function toString(uint256 value) internal pure returns (string memory) {... */\n    tag_143:\n        /* \"@openzeppelin/contracts-upgradeable/utils/StringsUpgradeable.sol\":493:506  string memory */\n      0x60\n        /* \"@openzeppelin/contracts-upgradeable/utils/StringsUpgradeable.sol\":542:556  uint256 length */\n      0x00\n        /* \"@openzeppelin/contracts-upgradeable/utils/StringsUpgradeable.sol\":590:591  1 */\n      0x01\n        /* \"@openzeppelin/contracts-upgradeable/utils/StringsUpgradeable.sol\":559:587  MathUpgradeable.log10(value) */\n      tag_175\n        /* \"@openzeppelin/contracts-upgradeable/utils/StringsUpgradeable.sol\":581:586  value */\n      dup5\n        /* \"@openzeppelin/contracts-upgradeable/utils/StringsUpgradeable.sol\":559:580  MathUpgradeable.log10 */\n      tag_176\n        /* \"@openzeppelin/contracts-upgradeable/utils/StringsUpgradeable.sol\":559:587  MathUpgradeable.log10(value) */\n      jump\t// in\n    tag_175:\n        /* \"@openzeppelin/contracts-upgradeable/utils/StringsUpgradeable.sol\":559:591  MathUpgradeable.log10(value) + 1 */\n      add\n        /* \"@openzeppelin/contracts-upgradeable/utils/StringsUpgradeable.sol\":542:591  uint256 length = MathUpgradeable.log10(value) + 1 */\n      swap1\n      pop\n        /* \"@openzeppelin/contracts-upgradeable/utils/StringsUpgradeable.sol\":605:625  string memory buffer */\n      0x00\n        /* \"@openzeppelin/contracts-upgradeable/utils/StringsUpgradeable.sol\":639:645  length */\n      dup2\n        /* \"@openzeppelin/contracts-upgradeable/utils/StringsUpgradeable.sol\":628:646  new string(length) */\n      0xffffffffffffffff\n      dup2\n      gt\n      iszero\n      tag_177\n      jumpi\n      tag_178\n      tag_179\n      jump\t// in\n    tag_178:\n    tag_177:\n      mload(0x40)\n      swap1\n      dup1\n      dup3\n      mstore\n      dup1\n      0x1f\n      add\n      not(0x1f)\n      and\n      0x20\n      add\n      dup3\n      add\n      0x40\n      mstore\n      dup1\n      iszero\n      tag_180\n      jumpi\n      dup2\n      0x20\n      add\n      0x01\n      dup3\n      mul\n      dup1\n      calldatasize\n      dup4\n      calldatacopy\n      dup1\n      dup3\n      add\n      swap2\n      pop\n      pop\n      swap1\n      pop\n    tag_180:\n      pop\n        /* \"@openzeppelin/contracts-upgradeable/utils/StringsUpgradeable.sol\":605:646  string memory buffer = new string(length) */\n      swap1\n      pop\n        /* \"@openzeppelin/contracts-upgradeable/utils/StringsUpgradeable.sol\":660:671  uint256 ptr */\n      0x00\n        /* \"@openzeppelin/contracts-upgradeable/utils/StringsUpgradeable.sol\":786:792  length */\n      dup3\n        /* \"@openzeppelin/contracts-upgradeable/utils/StringsUpgradeable.sol\":782:784  32 */\n      0x20\n        /* \"@openzeppelin/contracts-upgradeable/utils/StringsUpgradeable.sol\":778:793  add(32, length) */\n      add\n        /* \"@openzeppelin/contracts-upgradeable/utils/StringsUpgradeable.sol\":770:776  buffer */\n      dup3\n        /* \"@openzeppelin/contracts-upgradeable/utils/StringsUpgradeable.sol\":766:794  add(buffer, add(32, length)) */\n      add\n        /* \"@openzeppelin/contracts-upgradeable/utils/StringsUpgradeable.sol\":759:794  ptr := add(buffer, add(32, length)) */\n      swap1\n      pop\n        /* \"@openzeppelin/contracts-upgradeable/utils/StringsUpgradeable.sol\":821:1101  while (true) {... */\n    tag_181:\n        /* \"@openzeppelin/contracts-upgradeable/utils/StringsUpgradeable.sol\":828:832  true */\n      0x01\n        /* \"@openzeppelin/contracts-upgradeable/utils/StringsUpgradeable.sol\":821:1101  while (true) {... */\n      iszero\n      tag_182\n      jumpi\n        /* \"@openzeppelin/contracts-upgradeable/utils/StringsUpgradeable.sol\":852:857  ptr-- */\n      dup1\n      dup1\n      0x01\n      swap1\n      sub\n      swap2\n      pop\n      pop\n        /* \"@openzeppelin/contracts-upgradeable/utils/StringsUpgradeable.sol\":991:999  _SYMBOLS */\n      0x3031323334353637383961626364656600000000000000000000000000000000\n        /* \"@openzeppelin/contracts-upgradeable/utils/StringsUpgradeable.sol\":986:988  10 */\n      0x0a\n        /* \"@openzeppelin/contracts-upgradeable/utils/StringsUpgradeable.sol\":979:984  value */\n      dup7\n        /* \"@openzeppelin/contracts-upgradeable/utils/StringsUpgradeable.sol\":975:989  mod(value, 10) */\n      mod\n        /* \"@openzeppelin/contracts-upgradeable/utils/StringsUpgradeable.sol\":970:1000  byte(mod(value, 10), _SYMBOLS) */\n      byte\n        /* \"@openzeppelin/contracts-upgradeable/utils/StringsUpgradeable.sol\":965:968  ptr */\n      dup2\n        /* \"@openzeppelin/contracts-upgradeable/utils/StringsUpgradeable.sol\":957:1001  mstore8(ptr, byte(mod(value, 10), _SYMBOLS)) */\n      mstore8\n        /* \"@openzeppelin/contracts-upgradeable/utils/StringsUpgradeable.sol\":1045:1047  10 */\n      0x0a\n        /* \"@openzeppelin/contracts-upgradeable/utils/StringsUpgradeable.sol\":1036:1047  value /= 10 */\n      dup6\n      dup2\n      tag_183\n      jumpi\n      tag_184\n      tag_185\n      jump\t// in\n    tag_184:\n    tag_183:\n      div\n      swap5\n      pop\n        /* \"@openzeppelin/contracts-upgradeable/utils/StringsUpgradeable.sol\":1078:1079  0 */\n      0x00\n        /* \"@openzeppelin/contracts-upgradeable/utils/StringsUpgradeable.sol\":1069:1074  value */\n      dup6\n        /* \"@openzeppelin/contracts-upgradeable/utils/StringsUpgradeable.sol\":1069:1079  value == 0 */\n      eq\n        /* \"@openzeppelin/contracts-upgradeable/utils/StringsUpgradeable.sol\":1065:1086  if (value == 0) break */\n      iszero\n      tag_186\n      jumpi\n        /* \"@openzeppelin/contracts-upgradeable/utils/StringsUpgradeable.sol\":1081:1086  break */\n      jump(tag_182)\n        /* \"@openzeppelin/contracts-upgradeable/utils/StringsUpgradeable.sol\":1065:1086  if (value == 0) break */\n    tag_186:\n        /* \"@openzeppelin/contracts-upgradeable/utils/StringsUpgradeable.sol\":821:1101  while (true) {... */\n      jump(tag_181)\n    tag_182:\n        /* \"@openzeppelin/contracts-upgradeable/utils/StringsUpgradeable.sol\":1121:1127  buffer */\n      dup2\n        /* \"@openzeppelin/contracts-upgradeable/utils/StringsUpgradeable.sol\":1114:1127  return buffer */\n      swap4\n      pop\n      pop\n      pop\n      pop\n        /* \"@openzeppelin/contracts-upgradeable/utils/StringsUpgradeable.sol\":437:1144  function toString(uint256 value) internal pure returns (string memory) {... */\n      swap2\n      swap1\n      pop\n      jump\t// out\n        /* \"@openzeppelin/contracts-upgradeable/token/ERC721/ERC721Upgradeable.sol\":7803:7929  function _exists(uint256 tokenId) internal view virtual returns (bool) {... */\n    tag_150:\n        /* \"@openzeppelin/contracts-upgradeable/token/ERC721/ERC721Upgradeable.sol\":7868:7872  bool */\n      0x00\n        /* \"@openzeppelin/contracts-upgradeable/token/ERC721/ERC721Upgradeable.sol\":7920:7921  0 */\n      dup1\n        /* \"@openzeppelin/contracts-upgradeable/token/ERC721/ERC721Upgradeable.sol\":7891:7922  _ownerOf(tokenId) != address(0) */\n      0xffffffffffffffffffffffffffffffffffffffff\n      and\n        /* \"@openzeppelin/contracts-upgradeable/token/ERC721/ERC721Upgradeable.sol\":7891:7908  _ownerOf(tokenId) */\n      tag_188\n        /* \"@openzeppelin/contracts-upgradeable/token/ERC721/ERC721Upgradeable.sol\":7900:7907  tokenId */\n      dup4\n        /* \"@openzeppelin/contracts-upgradeable/token/ERC721/ERC721Upgradeable.sol\":7891:7899  _ownerOf */\n      tag_99\n        /* \"@openzeppelin/contracts-upgradeable/token/ERC721/ERC721Upgradeable.sol\":7891:7908  _ownerOf(tokenId) */\n      jump\t// in\n    tag_188:\n        /* \"@openzeppelin/contracts-upgradeable/token/ERC721/ERC721Upgradeable.sol\":7891:7922  _ownerOf(tokenId) != address(0) */\n      0xffffffffffffffffffffffffffffffffffffffff\n      and\n      eq\n      iszero\n        /* \"@openzeppelin/contracts-upgradeable/token/ERC721/ERC721Upgradeable.sol\":7884:7922  return _ownerOf(tokenId) != address(0) */\n      swap1\n      pop\n        /* \"@openzeppelin/contracts-upgradeable/token/ERC721/ERC721Upgradeable.sol\":7803:7929  function _exists(uint256 tokenId) internal view virtual returns (bool) {... */\n      swap2\n      swap1\n      pop\n      jump\t// out\n        /* \"@openzeppelin/contracts-upgradeable/token/ERC721/ERC721Upgradeable.sol\":1760:1920  function __ERC721_init_unchained(string memory name_, string memory symbol_) internal onlyInitializing {... */\n    tag_164:\n        /* \"@openzeppelin/contracts-upgradeable/proxy/utils/Initializable.sol\":5363:5376  _initializing */\n      0x00\n      0x01\n      swap1\n      sload\n      swap1\n      0x0100\n      exp\n      swap1\n      div\n      0xff\n      and\n        /* \"@openzeppelin/contracts-upgradeable/proxy/utils/Initializable.sol\":5355:5424  require(_initializing, \"Initializable: contract is not initializing\") */\n      tag_190\n      jumpi\n      mload(0x40)\n      0x08c379a000000000000000000000000000000000000000000000000000000000\n      dup2\n      mstore\n      0x04\n      add\n      tag_191\n      swap1\n      tag_161\n      jump\t// in\n    tag_191:\n      mload(0x40)\n      dup1\n      swap2\n      sub\n      swap1\n      revert\n    tag_190:\n        /* \"@openzeppelin/contracts-upgradeable/token/ERC721/ERC721Upgradeable.sol\":1881:1886  name_ */\n      dup2\n        /* \"@openzeppelin/contracts-upgradeable/token/ERC721/ERC721Upgradeable.sol\":1873:1878  _name */\n      0x65\n        /* \"@openzeppelin/contracts-upgradeable/token/ERC721/ERC721Upgradeable.sol\":1873:1886  _name = name_ */\n      swap1\n      dup1\n      mload\n      swap1\n      0x20\n      add\n      swap1\n      tag_193\n      swap3\n      swap2\n      swap1\n      tag_194\n      jump\t// in\n    tag_193:\n      pop\n        /* \"@openzeppelin/contracts-upgradeable/token/ERC721/ERC721Upgradeable.sol\":1906:1913  symbol_ */\n      dup1\n        /* \"@openzeppelin/contracts-upgradeable/token/ERC721/ERC721Upgradeable.sol\":1896:1903  _symbol */\n      0x66\n        /* \"@openzeppelin/contracts-upgradeable/token/ERC721/ERC721Upgradeable.sol\":1896:1913  _symbol = symbol_ */\n      swap1\n      dup1\n      mload\n      swap1\n      0x20\n      add\n      swap1\n      tag_195\n      swap3\n      swap2\n      swap1\n      tag_194\n      jump\t// in\n    tag_195:\n      pop\n        /* \"@openzeppelin/contracts-upgradeable/token/ERC721/ERC721Upgradeable.sol\":1760:1920  function __ERC721_init_unchained(string memory name_, string memory symbol_) internal onlyInitializing {... */\n      pop\n      pop\n      jump\t// out\n        /* \"@openzeppelin/contracts-upgradeable/token/ERC721/ERC721Upgradeable.sol\":9018:9327  function _safeMint(... */\n    tag_167:\n        /* \"@openzeppelin/contracts-upgradeable/token/ERC721/ERC721Upgradeable.sol\":9142:9160  _mint(to, tokenId) */\n      tag_197\n        /* \"@openzeppelin/contracts-upgradeable/token/ERC721/ERC721Upgradeable.sol\":9148:9150  to */\n      dup4\n        /* \"@openzeppelin/contracts-upgradeable/token/ERC721/ERC721Upgradeable.sol\":9152:9159  tokenId */\n      dup4\n        /* \"@openzeppelin/contracts-upgradeable/token/ERC721/ERC721Upgradeable.sol\":9142:9147  _mint */\n      tag_198\n        /* \"@openzeppelin/contracts-upgradeable/token/ERC721/ERC721Upgradeable.sol\":9142:9160  _mint(to, tokenId) */\n      jump\t// in\n    tag_197:\n        /* \"@openzeppelin/contracts-upgradeable/token/ERC721/ERC721Upgradeable.sol\":9191:9244  _checkOnERC721Received(address(0), to, tokenId, data) */\n      tag_199\n        /* \"@openzeppelin/contracts-upgradeable/token/ERC721/ERC721Upgradeable.sol\":9222:9223  0 */\n      0x00\n        /* \"@openzeppelin/contracts-upgradeable/token/ERC721/ERC721Upgradeable.sol\":9226:9228  to */\n      dup5\n        /* \"@openzeppelin/contracts-upgradeable/token/ERC721/ERC721Upgradeable.sol\":9230:9237  tokenId */\n      dup5\n        /* \"@openzeppelin/contracts-upgradeable/token/ERC721/ERC721Upgradeable.sol\":9239:9243  data */\n      dup5\n        /* \"@openzeppelin/contracts-upgradeable/token/ERC721/ERC721Upgradeable.sol\":9191:9213  _checkOnERC721Received */\n      tag_200\n        /* \"@openzeppelin/contracts-upgradeable/token/ERC721/ERC721Upgradeable.sol\":9191:9244  _checkOnERC721Received(address(0), to, tokenId, data) */\n      jump\t// in\n    tag_199:\n        /* \"@openzeppelin/contracts-upgradeable/token/ERC721/ERC721Upgradeable.sol\":9170:9320  require(... */\n      tag_201\n      jumpi\n      mload(0x40)\n      0x08c379a000000000000000000000000000000000000000000000000000000000\n      dup2\n      mstore\n      0x04\n      add\n      tag_202\n      swap1\n      tag_203\n      jump\t// in\n    tag_202:\n      mload(0x40)\n      dup1\n      swap2\n      sub\n      swap1\n      revert\n    tag_201:\n        /* \"@openzeppelin/contracts-upgradeable/token/ERC721/ERC721Upgradeable.sol\":9018:9327  function _safeMint(... */\n      pop\n      pop\n      pop\n      jump\t// out\n        /* \"@openzeppelin/contracts-upgradeable/utils/math/MathUpgradeable.sol\":9900:10790  function log10(uint256 value) internal pure returns (uint256) {... */\n    tag_176:\n        /* \"@openzeppelin/contracts-upgradeable/utils/math/MathUpgradeable.sol\":9953:9960  uint256 */\n      0x00\n        /* \"@openzeppelin/contracts-upgradeable/utils/math/MathUpgradeable.sol\":9972:9986  uint256 result */\n      dup1\n        /* \"@openzeppelin/contracts-upgradeable/utils/math/MathUpgradeable.sol\":9989:9990  0 */\n      0x00\n        /* \"@openzeppelin/contracts-upgradeable/utils/math/MathUpgradeable.sol\":9972:9990  uint256 result = 0 */\n      swap1\n      pop\n        /* \"@openzeppelin/contracts-upgradeable/utils/math/MathUpgradeable.sol\":10037:10043  10**64 */\n      0x184f03e93ff9f4daa797ed6e38ed64bf6a1f010000000000000000\n        /* \"@openzeppelin/contracts-upgradeable/utils/math/MathUpgradeable.sol\":10028:10033  value */\n      dup4\n        /* \"@openzeppelin/contracts-upgradeable/utils/math/MathUpgradeable.sol\":10028:10043  value >= 10**64 */\n      lt\n        /* \"@openzeppelin/contracts-upgradeable/utils/math/MathUpgradeable.sol\":10024:10123  if (value >= 10**64) {... */\n      tag_205\n      jumpi\n        /* \"@openzeppelin/contracts-upgradeable/utils/math/MathUpgradeable.sol\":10072:10078  10**64 */\n      0x184f03e93ff9f4daa797ed6e38ed64bf6a1f010000000000000000\n        /* \"@openzeppelin/contracts-upgradeable/utils/math/MathUpgradeable.sol\":10063:10078  value /= 10**64 */\n      dup4\n      dup2\n      tag_206\n      jumpi\n      tag_207\n      tag_185\n      jump\t// in\n    tag_207:\n    tag_206:\n      div\n      swap3\n      pop\n        /* \"@openzeppelin/contracts-upgradeable/utils/math/MathUpgradeable.sol\":10106:10108  64 */\n      0x40\n        /* \"@openzeppelin/contracts-upgradeable/utils/math/MathUpgradeable.sol\":10096:10108  result += 64 */\n      dup2\n      add\n      swap1\n      pop\n        /* \"@openzeppelin/contracts-upgradeable/utils/math/MathUpgradeable.sol\":10024:10123  if (value >= 10**64) {... */\n    tag_205:\n        /* \"@openzeppelin/contracts-upgradeable/utils/math/MathUpgradeable.sol\":10149:10155  10**32 */\n      0x04ee2d6d415b85acef8100000000\n        /* \"@openzeppelin/contracts-upgradeable/utils/math/MathUpgradeable.sol\":10140:10145  value */\n      dup4\n        /* \"@openzeppelin/contracts-upgradeable/utils/math/MathUpgradeable.sol\":10140:10155  value >= 10**32 */\n      lt\n        /* \"@openzeppelin/contracts-upgradeable/utils/math/MathUpgradeable.sol\":10136:10235  if (value >= 10**32) {... */\n      tag_208\n      jumpi\n        /* \"@openzeppelin/contracts-upgradeable/utils/math/MathUpgradeable.sol\":10184:10190  10**32 */\n      0x04ee2d6d415b85acef8100000000\n        /* \"@openzeppelin/contracts-upgradeable/utils/math/MathUpgradeable.sol\":10175:10190  value /= 10**32 */\n      dup4\n      dup2\n      tag_209\n      jumpi\n      tag_210\n      tag_185\n      jump\t// in\n    tag_210:\n    tag_209:\n      div\n      swap3\n      pop\n        /* \"@openzeppelin/contracts-upgradeable/utils/math/MathUpgradeable.sol\":10218:10220  32 */\n      0x20\n        /* \"@openzeppelin/contracts-upgradeable/utils/math/MathUpgradeable.sol\":10208:10220  result += 32 */\n      dup2\n      add\n      swap1\n      pop\n        /* \"@openzeppelin/contracts-upgradeable/utils/math/MathUpgradeable.sol\":10136:10235  if (value >= 10**32) {... */\n    tag_208:\n        /* \"@openzeppelin/contracts-upgradeable/utils/math/MathUpgradeable.sol\":10261:10267  10**16 */\n      0x2386f26fc10000\n        /* \"@openzeppelin/contracts-upgradeable/utils/math/MathUpgradeable.sol\":10252:10257  value */\n      dup4\n        /* \"@openzeppelin/contracts-upgradeable/utils/math/MathUpgradeable.sol\":10252:10267  value >= 10**16 */\n      lt\n        /* \"@openzeppelin/contracts-upgradeable/utils/math/MathUpgradeable.sol\":10248:10347  if (value >= 10**16) {... */\n      tag_211\n      jumpi\n        /* \"@openzeppelin/contracts-upgradeable/utils/math/MathUpgradeable.sol\":10296:10302  10**16 */\n      0x2386f26fc10000\n        /* \"@openzeppelin/contracts-upgradeable/utils/math/MathUpgradeable.sol\":10287:10302  value /= 10**16 */\n      dup4\n      dup2\n      tag_212\n      jumpi\n      tag_213\n      tag_185\n      jump\t// in\n    tag_213:\n    tag_212:\n      div\n      swap3\n      pop\n        /* \"@openzeppelin/contracts-upgradeable/utils/math/MathUpgradeable.sol\":10330:10332  16 */\n      0x10\n        /* \"@openzeppelin/contracts-upgradeable/utils/math/MathUpgradeable.sol\":10320:10332  result += 16 */\n      dup2\n      add\n      swap1\n      pop\n        /* \"@openzeppelin/contracts-upgradeable/utils/math/MathUpgradeable.sol\":10248:10347  if (value >= 10**16) {... */\n    tag_211:\n        /* \"@openzeppelin/contracts-upgradeable/utils/math/MathUpgradeable.sol\":10373:10378  10**8 */\n      0x05f5e100\n        /* \"@openzeppelin/contracts-upgradeable/utils/math/MathUpgradeable.sol\":10364:10369  value */\n      dup4\n        /* \"@openzeppelin/contracts-upgradeable/utils/math/MathUpgradeable.sol\":10364:10378  value >= 10**8 */\n      lt\n        /* \"@openzeppelin/contracts-upgradeable/utils/math/MathUpgradeable.sol\":10360:10456  if (value >= 10**8) {... */\n      tag_214\n      jumpi\n        /* \"@openzeppelin/contracts-upgradeable/utils/math/MathUpgradeable.sol\":10407:10412  10**8 */\n      0x05f5e100\n        /* \"@openzeppelin/contracts-upgradeable/utils/math/MathUpgradeable.sol\":10398:10412  value /= 10**8 */\n      dup4\n      dup2\n      tag_215\n      jumpi\n      tag_216\n      tag_185\n      jump\t// in\n    tag_216:\n    tag_215:\n      div\n      swap3\n      pop\n        /* \"@openzeppelin/contracts-upgradeable/utils/math/MathUpgradeable.sol\":10440:10441  8 */\n      0x08\n        /* \"@openzeppelin/contracts-upgradeable/utils/math/MathUpgradeable.sol\":10430:10441  result += 8 */\n      dup2\n      add\n      swap1\n      pop\n        /* \"@openzeppelin/contracts-upgradeable/utils/math/MathUpgradeable.sol\":10360:10456  if (value >= 10**8) {... */\n    tag_214:\n        /* \"@openzeppelin/contracts-upgradeable/utils/math/MathUpgradeable.sol\":10482:10487  10**4 */\n      0x2710\n        /* \"@openzeppelin/contracts-upgradeable/utils/math/MathUpgradeable.sol\":10473:10478  value */\n      dup4\n        /* \"@openzeppelin/contracts-upgradeable/utils/math/MathUpgradeable.sol\":10473:10487  value >= 10**4 */\n      lt\n        /* \"@openzeppelin/contracts-upgradeable/utils/math/MathUpgradeable.sol\":10469:10565  if (value >= 10**4) {... */\n      tag_217\n      jumpi\n        /* \"@openzeppelin/contracts-upgradeable/utils/math/MathUpgradeable.sol\":10516:10521  10**4 */\n      0x2710\n        /* \"@openzeppelin/contracts-upgradeable/utils/math/MathUpgradeable.sol\":10507:10521  value /= 10**4 */\n      dup4\n      dup2\n      tag_218\n      jumpi\n      tag_219\n      tag_185\n      jump\t// in\n    tag_219:\n    tag_218:\n      div\n      swap3\n      pop\n        /* \"@openzeppelin/contracts-upgradeable/utils/math/MathUpgradeable.sol\":10549:10550  4 */\n      0x04\n        /* \"@openzeppelin/contracts-upgradeable/utils/math/MathUpgradeable.sol\":10539:10550  result += 4 */\n      dup2\n      add\n      swap1\n      pop\n        /* \"@openzeppelin/contracts-upgradeable/utils/math/MathUpgradeable.sol\":10469:10565  if (value >= 10**4) {... */\n    tag_217:\n        /* \"@openzeppelin/contracts-upgradeable/utils/math/MathUpgradeable.sol\":10591:10596  10**2 */\n      0x64\n        /* \"@openzeppelin/contracts-upgradeable/utils/math/MathUpgradeable.sol\":10582:10587  value */\n      dup4\n        /* \"@openzeppelin/contracts-upgradeable/utils/math/MathUpgradeable.sol\":10582:10596  value >= 10**2 */\n      lt\n        /* \"@openzeppelin/contracts-upgradeable/utils/math/MathUpgradeable.sol\":10578:10674  if (value >= 10**2) {... */\n      tag_220\n      jumpi\n        /* \"@openzeppelin/contracts-upgradeable/utils/math/MathUpgradeable.sol\":10625:10630  10**2 */\n      0x64\n        /* \"@openzeppelin/contracts-upgradeable/utils/math/MathUpgradeable.sol\":10616:10630  value /= 10**2 */\n      dup4\n      dup2\n      tag_221\n      jumpi\n      tag_222\n      tag_185\n      jump\t// in\n    tag_222:\n    tag_221:\n      div\n      swap3\n      pop\n        /* \"@openzeppelin/contracts-upgradeable/utils/math/MathUpgradeable.sol\":10658:10659  2 */\n      0x02\n        /* \"@openzeppelin/contracts-upgradeable/utils/math/MathUpgradeable.sol\":10648:10659  result += 2 */\n      dup2\n      add\n      swap1\n      pop\n        /* \"@openzeppelin/contracts-upgradeable/utils/math/MathUpgradeable.sol\":10578:10674  if (value >= 10**2) {... */\n    tag_220:\n        /* \"@openzeppelin/contracts-upgradeable/utils/math/MathUpgradeable.sol\":10700:10705  10**1 */\n      0x0a\n        /* \"@openzeppelin/contracts-upgradeable/utils/math/MathUpgradeable.sol\":10691:10696  value */\n      dup4\n        /* \"@openzeppelin/contracts-upgradeable/utils/math/MathUpgradeable.sol\":10691:10705  value >= 10**1 */\n      lt\n        /* \"@openzeppelin/contracts-upgradeable/utils/math/MathUpgradeable.sol\":10687:10751  if (value >= 10**1) {... */\n      tag_223\n      jumpi\n        /* \"@openzeppelin/contracts-upgradeable/utils/math/MathUpgradeable.sol\":10735:10736  1 */\n      0x01\n        /* \"@openzeppelin/contracts-upgradeable/utils/math/MathUpgradeable.sol\":10725:10736  result += 1 */\n      dup2\n      add\n      swap1\n      pop\n        /* \"@openzeppelin/contracts-upgradeable/utils/math/MathUpgradeable.sol\":10687:10751  if (value >= 10**1) {... */\n    tag_223:\n        /* \"@openzeppelin/contracts-upgradeable/utils/math/MathUpgradeable.sol\":10777:10783  result */\n      dup1\n        /* \"@openzeppelin/contracts-upgradeable/utils/math/MathUpgradeable.sol\":10770:10783  return result */\n      swap2\n      pop\n      pop\n        /* \"@openzeppelin/contracts-upgradeable/utils/math/MathUpgradeable.sol\":9900:10790  function log10(uint256 value) internal pure returns (uint256) {... */\n      swap2\n      swap1\n      pop\n      jump\t// out\n        /* \"@openzeppelin/contracts-upgradeable/token/ERC721/ERC721Upgradeable.sol\":9649:10569  function _mint(address to, uint256 tokenId) internal virtual {... */\n    tag_198:\n        /* \"@openzeppelin/contracts-upgradeable/token/ERC721/ERC721Upgradeable.sol\":9742:9743  0 */\n      0x00\n        /* \"@openzeppelin/contracts-upgradeable/token/ERC721/ERC721Upgradeable.sol\":9728:9744  to != address(0) */\n      0xffffffffffffffffffffffffffffffffffffffff\n      and\n        /* \"@openzeppelin/contracts-upgradeable/token/ERC721/ERC721Upgradeable.sol\":9728:9730  to */\n      dup3\n        /* \"@openzeppelin/contracts-upgradeable/token/ERC721/ERC721Upgradeable.sol\":9728:9744  to != address(0) */\n      0xffffffffffffffffffffffffffffffffffffffff\n      and\n      eq\n      iszero\n        /* \"@openzeppelin/contracts-upgradeable/token/ERC721/ERC721Upgradeable.sol\":9720:9781  require(to != address(0), \"ERC721: mint to the zero address\") */\n      tag_225\n      jumpi\n      mload(0x40)\n      0x08c379a000000000000000000000000000000000000000000000000000000000\n      dup2\n      mstore\n      0x04\n      add\n      tag_226\n      swap1\n      tag_227\n      jump\t// in\n    tag_226:\n      mload(0x40)\n      dup1\n      swap2\n      sub\n      swap1\n      revert\n    tag_225:\n        /* \"@openzeppelin/contracts-upgradeable/token/ERC721/ERC721Upgradeable.sol\":9800:9816  _exists(tokenId) */\n      tag_228\n        /* \"@openzeppelin/contracts-upgradeable/token/ERC721/ERC721Upgradeable.sol\":9808:9815  tokenId */\n      dup2\n        /* \"@openzeppelin/contracts-upgradeable/token/ERC721/ERC721Upgradeable.sol\":9800:9807  _exists */\n      tag_150\n        /* \"@openzeppelin/contracts-upgradeable/token/ERC721/ERC721Upgradeable.sol\":9800:9816  _exists(tokenId) */\n      jump\t// in\n    tag_228:\n        /* \"@openzeppelin/contracts-upgradeable/token/ERC721/ERC721Upgradeable.sol\":9799:9816  !_exists(tokenId) */\n      iszero\n        /* \"@openzeppelin/contracts-upgradeable/token/ERC721/ERC721Upgradeable.sol\":9791:9849  require(!_exists(tokenId), \"ERC721: token already minted\") */\n      tag_229\n      jumpi\n      mload(0x40)\n      0x08c379a000000000000000000000000000000000000000000000000000000000\n      dup2\n      mstore\n      0x04\n      add\n      tag_230\n      swap1\n      tag_231\n      jump\t// in\n    tag_230:\n      mload(0x40)\n      dup1\n      swap2\n      sub\n      swap1\n      revert\n    tag_229:\n        /* \"@openzeppelin/contracts-upgradeable/token/ERC721/ERC721Upgradeable.sol\":9860:9908  _beforeTokenTransfer(address(0), to, tokenId, 1) */\n      tag_232\n        /* \"@openzeppelin/contracts-upgradeable/token/ERC721/ERC721Upgradeable.sol\":9889:9890  0 */\n      0x00\n        /* \"@openzeppelin/contracts-upgradeable/token/ERC721/ERC721Upgradeable.sol\":9893:9895  to */\n      dup4\n        /* \"@openzeppelin/contracts-upgradeable/token/ERC721/ERC721Upgradeable.sol\":9897:9904  tokenId */\n      dup4\n        /* \"@openzeppelin/contracts-upgradeable/token/ERC721/ERC721Upgradeable.sol\":9906:9907  1 */\n      0x01\n        /* \"@openzeppelin/contracts-upgradeable/token/ERC721/ERC721Upgradeable.sol\":9860:9880  _beforeTokenTransfer */\n      tag_233\n        /* \"@openzeppelin/contracts-upgradeable/token/ERC721/ERC721Upgradeable.sol\":9860:9908  _beforeTokenTransfer(address(0), to, tokenId, 1) */\n      jump\t// in\n    tag_232:\n        /* \"@openzeppelin/contracts-upgradeable/token/ERC721/ERC721Upgradeable.sol\":10004:10020  _exists(tokenId) */\n      tag_234\n        /* \"@openzeppelin/contracts-upgradeable/token/ERC721/ERC721Upgradeable.sol\":10012:10019  tokenId */\n      dup2\n        /* \"@openzeppelin/contracts-upgradeable/token/ERC721/ERC721Upgradeable.sol\":10004:10011  _exists */\n      tag_150\n        /* \"@openzeppelin/contracts-upgradeable/token/ERC721/ERC721Upgradeable.sol\":10004:10020  _exists(tokenId) */\n      jump\t// in\n    tag_234:\n        /* \"@openzeppelin/contracts-upgradeable/token/ERC721/ERC721Upgradeable.sol\":10003:10020  !_exists(tokenId) */\n      iszero\n        /* \"@openzeppelin/contracts-upgradeable/token/ERC721/ERC721Upgradeable.sol\":9995:10053  require(!_exists(tokenId), \"ERC721: token already minted\") */\n      tag_235\n      jumpi\n      mload(0x40)\n      0x08c379a000000000000000000000000000000000000000000000000000000000\n      dup2\n      mstore\n      0x04\n      add\n      tag_236\n      swap1\n      tag_231\n      jump\t// in\n    tag_236:\n      mload(0x40)\n      dup1\n      swap2\n      sub\n      swap1\n      revert\n    tag_235:\n        /* \"@openzeppelin/contracts-upgradeable/token/ERC721/ERC721Upgradeable.sol\":10412:10413  1 */\n      0x01\n        /* \"@openzeppelin/contracts-upgradeable/token/ERC721/ERC721Upgradeable.sol\":10395:10404  _balances */\n      0x68\n        /* \"@openzeppelin/contracts-upgradeable/token/ERC721/ERC721Upgradeable.sol\":10395:10408  _balances[to] */\n      0x00\n        /* \"@openzeppelin/contracts-upgradeable/token/ERC721/ERC721Upgradeable.sol\":10405:10407  to */\n      dup5\n        /* \"@openzeppelin/contracts-upgradeable/token/ERC721/ERC721Upgradeable.sol\":10395:10408  _balances[to] */\n      0xffffffffffffffffffffffffffffffffffffffff\n      and\n      0xffffffffffffffffffffffffffffffffffffffff\n      and\n      dup2\n      mstore\n      0x20\n      add\n      swap1\n      dup2\n      mstore\n      0x20\n      add\n      0x00\n      keccak256\n      0x00\n        /* \"@openzeppelin/contracts-upgradeable/token/ERC721/ERC721Upgradeable.sol\":10395:10413  _balances[to] += 1 */\n      dup3\n      dup3\n      sload\n      add\n      swap3\n      pop\n      pop\n      dup2\n      swap1\n      sstore\n      pop\n        /* \"@openzeppelin/contracts-upgradeable/token/ERC721/ERC721Upgradeable.sol\":10453:10455  to */\n      dup2\n        /* \"@openzeppelin/contracts-upgradeable/token/ERC721/ERC721Upgradeable.sol\":10434:10441  _owners */\n      0x67\n        /* \"@openzeppelin/contracts-upgradeable/token/ERC721/ERC721Upgradeable.sol\":10434:10450  _owners[tokenId] */\n      0x00\n        /* \"@openzeppelin/contracts-upgradeable/token/ERC721/ERC721Upgradeable.sol\":10442:10449  tokenId */\n      dup4\n        /* \"@openzeppelin/contracts-upgradeable/token/ERC721/ERC721Upgradeable.sol\":10434:10450  _owners[tokenId] */\n      dup2\n      mstore\n      0x20\n      add\n      swap1\n      dup2\n      mstore\n      0x20\n      add\n      0x00\n      keccak256\n      0x00\n        /* \"@openzeppelin/contracts-upgradeable/token/ERC721/ERC721Upgradeable.sol\":10434:10455  _owners[tokenId] = to */\n      0x0100\n      exp\n      dup2\n      sload\n      dup2\n      0xffffffffffffffffffffffffffffffffffffffff\n      mul\n      not\n      and\n      swap1\n      dup4\n      0xffffffffffffffffffffffffffffffffffffffff\n      and\n      mul\n      or\n      swap1\n      sstore\n      pop\n        /* \"@openzeppelin/contracts-upgradeable/token/ERC721/ERC721Upgradeable.sol\":10496:10503  tokenId */\n      dup1\n        /* \"@openzeppelin/contracts-upgradeable/token/ERC721/ERC721Upgradeable.sol\":10492:10494  to */\n      dup3\n        /* \"@openzeppelin/contracts-upgradeable/token/ERC721/ERC721Upgradeable.sol\":10471:10504  Transfer(address(0), to, tokenId) */\n      0xffffffffffffffffffffffffffffffffffffffff\n      and\n        /* \"@openzeppelin/contracts-upgradeable/token/ERC721/ERC721Upgradeable.sol\":10488:10489  0 */\n      0x00\n        /* \"@openzeppelin/contracts-upgradeable/token/ERC721/ERC721Upgradeable.sol\":10471:10504  Transfer(address(0), to, tokenId) */\n      0xffffffffffffffffffffffffffffffffffffffff\n      and\n      0xddf252ad1be2c89b69c2b068fc378daa952ba7f163c4a11628f55a4df523b3ef\n      mload(0x40)\n      mload(0x40)\n      dup1\n      swap2\n      sub\n      swap1\n      log4\n        /* \"@openzeppelin/contracts-upgradeable/token/ERC721/ERC721Upgradeable.sol\":10515:10562  _afterTokenTransfer(address(0), to, tokenId, 1) */\n      tag_237\n        /* \"@openzeppelin/contracts-upgradeable/token/ERC721/ERC721Upgradeable.sol\":10543:10544  0 */\n      0x00\n        /* \"@openzeppelin/contracts-upgradeable/token/ERC721/ERC721Upgradeable.sol\":10547:10549  to */\n      dup4\n        /* \"@openzeppelin/contracts-upgradeable/token/ERC721/ERC721Upgradeable.sol\":10551:10558  tokenId */\n      dup4\n        /* \"@openzeppelin/contracts-upgradeable/token/ERC721/ERC721Upgradeable.sol\":10560:10561  1 */\n      0x01\n        /* \"@openzeppelin/contracts-upgradeable/token/ERC721/ERC721Upgradeable.sol\":10515:10534  _afterTokenTransfer */\n      tag_238\n        /* \"@openzeppelin/contracts-upgradeable/token/ERC721/ERC721Upgradeable.sol\":10515:10562  _afterTokenTransfer(address(0), to, tokenId, 1) */\n      jump\t// in\n    tag_237:\n        /* \"@openzeppelin/contracts-upgradeable/token/ERC721/ERC721Upgradeable.sol\":9649:10569  function _mint(address to, uint256 tokenId) internal virtual {... */\n      pop\n      pop\n      jump\t// out\n        /* \"@openzeppelin/contracts-upgradeable/token/ERC721/ERC721Upgradeable.sol\":14764:15617  function _checkOnERC721Received(... */\n    tag_200:\n        /* \"@openzeppelin/contracts-upgradeable/token/ERC721/ERC721Upgradeable.sol\":14913:14917  bool */\n      0x00\n        /* \"@openzeppelin/contracts-upgradeable/token/ERC721/ERC721Upgradeable.sol\":14933:14948  to.isContract() */\n      tag_240\n        /* \"@openzeppelin/contracts-upgradeable/token/ERC721/ERC721Upgradeable.sol\":14933:14935  to */\n      dup5\n        /* \"@openzeppelin/contracts-upgradeable/token/ERC721/ERC721Upgradeable.sol\":14933:14946  to.isContract */\n      0xffffffffffffffffffffffffffffffffffffffff\n      and\n      tag_111\n        /* \"@openzeppelin/contracts-upgradeable/token/ERC721/ERC721Upgradeable.sol\":14933:14948  to.isContract() */\n      jump\t// in\n    tag_240:\n        /* \"@openzeppelin/contracts-upgradeable/token/ERC721/ERC721Upgradeable.sol\":14929:15611  if (to.isContract()) {... */\n      iszero\n      tag_241\n      jumpi\n        /* \"@openzeppelin/contracts-upgradeable/token/ERC721/ERC721Upgradeable.sol\":14995:14997  to */\n      dup4\n        /* \"@openzeppelin/contracts-upgradeable/token/ERC721/ERC721Upgradeable.sol\":14968:15015  IERC721ReceiverUpgradeable(to).onERC721Received */\n      0xffffffffffffffffffffffffffffffffffffffff\n      and\n      0x150b7a02\n        /* \"@openzeppelin/contracts-upgradeable/token/ERC721/ERC721Upgradeable.sol\":15016:15028  _msgSender() */\n      tag_242\n        /* \"@openzeppelin/contracts-upgradeable/token/ERC721/ERC721Upgradeable.sol\":15016:15026  _msgSender */\n      tag_88\n        /* \"@openzeppelin/contracts-upgradeable/token/ERC721/ERC721Upgradeable.sol\":15016:15028  _msgSender() */\n      jump\t// in\n    tag_242:\n        /* \"@openzeppelin/contracts-upgradeable/token/ERC721/ERC721Upgradeable.sol\":15030:15034  from */\n      dup8\n        /* \"@openzeppelin/contracts-upgradeable/token/ERC721/ERC721Upgradeable.sol\":15036:15043  tokenId */\n      dup7\n        /* \"@openzeppelin/contracts-upgradeable/token/ERC721/ERC721Upgradeable.sol\":15045:15049  data */\n      dup7\n        /* \"@openzeppelin/contracts-upgradeable/token/ERC721/ERC721Upgradeable.sol\":14968:15050  IERC721ReceiverUpgradeable(to).onERC721Received(_msgSender(), from, tokenId, data) */\n      mload(0x40)\n      dup6\n      0xffffffff\n      and\n      0xe0\n      shl\n      dup2\n      mstore\n      0x04\n      add\n      tag_243\n      swap5\n      swap4\n      swap3\n      swap2\n      swap1\n      tag_244\n      jump\t// in\n    tag_243:\n      0x20\n      mload(0x40)\n      dup1\n      dup4\n      sub\n      dup2\n      0x00\n      dup8\n      dup1\n      extcodesize\n      iszero\n      dup1\n      iszero\n      tag_245\n      jumpi\n      0x00\n      dup1\n      revert\n    tag_245:\n      pop\n      gas\n      call\n      swap3\n      pop\n      pop\n      pop\n      dup1\n      iszero\n      tag_246\n      jumpi\n      pop\n      mload(0x40)\n      returndatasize\n      not(0x1f)\n      0x1f\n      dup3\n      add\n      and\n      dup3\n      add\n      dup1\n      0x40\n      mstore\n      pop\n      dup2\n      add\n      swap1\n      tag_247\n      swap2\n      swap1\n      tag_248\n      jump\t// in\n    tag_247:\n      0x01\n    tag_246:\n        /* \"@openzeppelin/contracts-upgradeable/token/ERC721/ERC721Upgradeable.sol\":14964:15559  try IERC721ReceiverUpgradeable(to).onERC721Received(_msgSender(), from, tokenId, data) returns (bytes4 retval) {... */\n      tag_249\n      jumpi\n      returndatasize\n      dup1\n      0x00\n      dup2\n      eq\n      tag_254\n      jumpi\n      mload(0x40)\n      swap2\n      pop\n      and(add(returndatasize, 0x3f), not(0x1f))\n      dup3\n      add\n      0x40\n      mstore\n      returndatasize\n      dup3\n      mstore\n      returndatasize\n      0x00\n      0x20\n      dup5\n      add\n      returndatacopy\n      jump(tag_253)\n    tag_254:\n      0x60\n      swap2\n      pop\n    tag_253:\n      pop\n        /* \"@openzeppelin/contracts-upgradeable/token/ERC721/ERC721Upgradeable.sol\":15245:15246  0 */\n      0x00\n        /* \"@openzeppelin/contracts-upgradeable/token/ERC721/ERC721Upgradeable.sol\":15228:15234  reason */\n      dup2\n        /* \"@openzeppelin/contracts-upgradeable/token/ERC721/ERC721Upgradeable.sol\":15228:15241  reason.length */\n      mload\n        /* \"@openzeppelin/contracts-upgradeable/token/ERC721/ERC721Upgradeable.sol\":15228:15246  reason.length == 0 */\n      eq\n        /* \"@openzeppelin/contracts-upgradeable/token/ERC721/ERC721Upgradeable.sol\":15224:15545  if (reason.length == 0) {... */\n      iszero\n      tag_255\n      jumpi\n        /* \"@openzeppelin/contracts-upgradeable/token/ERC721/ERC721Upgradeable.sol\":15270:15330  revert(\"ERC721: transfer to non ERC721Receiver implementer\") */\n      mload(0x40)\n      0x08c379a000000000000000000000000000000000000000000000000000000000\n      dup2\n      mstore\n      0x04\n      add\n      tag_256\n      swap1\n      tag_203\n      jump\t// in\n    tag_256:\n      mload(0x40)\n      dup1\n      swap2\n      sub\n      swap1\n      revert\n        /* \"@openzeppelin/contracts-upgradeable/token/ERC721/ERC721Upgradeable.sol\":15224:15545  if (reason.length == 0) {... */\n    tag_255:\n        /* \"@openzeppelin/contracts-upgradeable/token/ERC721/ERC721Upgradeable.sol\":15497:15503  reason */\n      dup1\n        /* \"@openzeppelin/contracts-upgradeable/token/ERC721/ERC721Upgradeable.sol\":15491:15504  mload(reason) */\n      mload\n        /* \"@openzeppelin/contracts-upgradeable/token/ERC721/ERC721Upgradeable.sol\":15482:15488  reason */\n      dup2\n        /* \"@openzeppelin/contracts-upgradeable/token/ERC721/ERC721Upgradeable.sol\":15478:15480  32 */\n      0x20\n        /* \"@openzeppelin/contracts-upgradeable/token/ERC721/ERC721Upgradeable.sol\":15474:15489  add(32, reason) */\n      add\n        /* \"@openzeppelin/contracts-upgradeable/token/ERC721/ERC721Upgradeable.sol\":15467:15505  revert(add(32, reason), mload(reason)) */\n      revert\n        /* \"@openzeppelin/contracts-upgradeable/token/ERC721/ERC721Upgradeable.sol\":14964:15559  try IERC721ReceiverUpgradeable(to).onERC721Received(_msgSender(), from, tokenId, data) returns (bytes4 retval) {... */\n    tag_249:\n        /* \"@openzeppelin/contracts-upgradeable/token/ERC721/ERC721Upgradeable.sol\":15110:15162  IERC721ReceiverUpgradeable.onERC721Received.selector */\n      shl(0xe0, 0x150b7a02)\n        /* \"@openzeppelin/contracts-upgradeable/token/ERC721/ERC721Upgradeable.sol\":15100:15162  retval == IERC721ReceiverUpgradeable.onERC721Received.selector */\n      not(0xffffffffffffffffffffffffffffffffffffffffffffffffffffffff)\n      and\n        /* \"@openzeppelin/contracts-upgradeable/token/ERC721/ERC721Upgradeable.sol\":15100:15106  retval */\n      dup2\n        /* \"@openzeppelin/contracts-upgradeable/token/ERC721/ERC721Upgradeable.sol\":15100:15162  retval == IERC721ReceiverUpgradeable.onERC721Received.selector */\n      not(0xffffffffffffffffffffffffffffffffffffffffffffffffffffffff)\n      and\n      eq\n        /* \"@openzeppelin/contracts-upgradeable/token/ERC721/ERC721Upgradeable.sol\":15093:15162  return retval == IERC721ReceiverUpgradeable.onERC721Received.selector */\n      swap2\n      pop\n      pop\n      jump(tag_239)\n        /* \"@openzeppelin/contracts-upgradeable/token/ERC721/ERC721Upgradeable.sol\":14929:15611  if (to.isContract()) {... */\n    tag_241:\n        /* \"@openzeppelin/contracts-upgradeable/token/ERC721/ERC721Upgradeable.sol\":15596:15600  true */\n      0x01\n        /* \"@openzeppelin/contracts-upgradeable/token/ERC721/ERC721Upgradeable.sol\":15589:15600  return true */\n      swap1\n      pop\n        /* \"@openzeppelin/contracts-upgradeable/token/ERC721/ERC721Upgradeable.sol\":14764:15617  function _checkOnERC721Received(... */\n    tag_239:\n      swap5\n      swap4\n      pop\n      pop\n      pop\n      pop\n      jump\t// out\n        /* \"@openzeppelin/contracts-upgradeable/token/ERC721/ERC721Upgradeable.sol\":16333:16729  function _beforeTokenTransfer(... */\n    tag_233:\n        /* \"@openzeppelin/contracts-upgradeable/token/ERC721/ERC721Upgradeable.sol\":16517:16518  1 */\n      0x01\n        /* \"@openzeppelin/contracts-upgradeable/token/ERC721/ERC721Upgradeable.sol\":16505:16514  batchSize */\n      dup2\n        /* \"@openzeppelin/contracts-upgradeable/token/ERC721/ERC721Upgradeable.sol\":16505:16518  batchSize > 1 */\n      gt\n        /* \"@openzeppelin/contracts-upgradeable/token/ERC721/ERC721Upgradeable.sol\":16501:16723  if (batchSize > 1) {... */\n      iszero\n      tag_261\n      jumpi\n        /* \"@openzeppelin/contracts-upgradeable/token/ERC721/ERC721Upgradeable.sol\":16554:16555  0 */\n      0x00\n        /* \"@openzeppelin/contracts-upgradeable/token/ERC721/ERC721Upgradeable.sol\":16538:16556  from != address(0) */\n      0xffffffffffffffffffffffffffffffffffffffff\n      and\n        /* \"@openzeppelin/contracts-upgradeable/token/ERC721/ERC721Upgradeable.sol\":16538:16542  from */\n      dup5\n        /* \"@openzeppelin/contracts-upgradeable/token/ERC721/ERC721Upgradeable.sol\":16538:16556  from != address(0) */\n      0xffffffffffffffffffffffffffffffffffffffff\n      and\n      eq\n        /* \"@openzeppelin/contracts-upgradeable/token/ERC721/ERC721Upgradeable.sol\":16534:16619  if (from != address(0)) {... */\n      tag_262\n      jumpi\n        /* \"@openzeppelin/contracts-upgradeable/token/ERC721/ERC721Upgradeable.sol\":16595:16604  batchSize */\n      dup1\n        /* \"@openzeppelin/contracts-upgradeable/token/ERC721/ERC721Upgradeable.sol\":16576:16585  _balances */\n      0x68\n        /* \"@openzeppelin/contracts-upgradeable/token/ERC721/ERC721Upgradeable.sol\":16576:16591  _balances[from] */\n      0x00\n        /* \"@openzeppelin/contracts-upgradeable/token/ERC721/ERC721Upgradeable.sol\":16586:16590  from */\n      dup7\n        /* \"@openzeppelin/contracts-upgradeable/token/ERC721/ERC721Upgradeable.sol\":16576:16591  _balances[from] */\n      0xffffffffffffffffffffffffffffffffffffffff\n      and\n      0xffffffffffffffffffffffffffffffffffffffff\n      and\n      dup2\n      mstore\n      0x20\n      add\n      swap1\n      dup2\n      mstore\n      0x20\n      add\n      0x00\n      keccak256\n      0x00\n        /* \"@openzeppelin/contracts-upgradeable/token/ERC721/ERC721Upgradeable.sol\":16576:16604  _balances[from] -= batchSize */\n      dup3\n      dup3\n      sload\n      tag_263\n      swap2\n      swap1\n      tag_264\n      jump\t// in\n    tag_263:\n      swap3\n      pop\n      pop\n      dup2\n      swap1\n      sstore\n      pop\n        /* \"@openzeppelin/contracts-upgradeable/token/ERC721/ERC721Upgradeable.sol\":16534:16619  if (from != address(0)) {... */\n    tag_262:\n        /* \"@openzeppelin/contracts-upgradeable/token/ERC721/ERC721Upgradeable.sol\":16650:16651  0 */\n      0x00\n        /* \"@openzeppelin/contracts-upgradeable/token/ERC721/ERC721Upgradeable.sol\":16636:16652  to != address(0) */\n      0xffffffffffffffffffffffffffffffffffffffff\n      and\n        /* \"@openzeppelin/contracts-upgradeable/token/ERC721/ERC721Upgradeable.sol\":16636:16638  to */\n      dup4\n        /* \"@openzeppelin/contracts-upgradeable/token/ERC721/ERC721Upgradeable.sol\":16636:16652  to != address(0) */\n      0xffffffffffffffffffffffffffffffffffffffff\n      and\n      eq\n        /* \"@openzeppelin/contracts-upgradeable/token/ERC721/ERC721Upgradeable.sol\":16632:16713  if (to != address(0)) {... */\n      tag_265\n      jumpi\n        /* \"@openzeppelin/contracts-upgradeable/token/ERC721/ERC721Upgradeable.sol\":16689:16698  batchSize */\n      dup1\n        /* \"@openzeppelin/contracts-upgradeable/token/ERC721/ERC721Upgradeable.sol\":16672:16681  _balances */\n      0x68\n        /* \"@openzeppelin/contracts-upgradeable/token/ERC721/ERC721Upgradeable.sol\":16672:16685  _balances[to] */\n      0x00\n        /* \"@openzeppelin/contracts-upgradeable/token/ERC721/ERC721Upgradeable.sol\":16682:16684  to */\n      dup6\n        /* \"@openzeppelin/contracts-upgradeable/token/ERC721/ERC721Upgradeable.sol\":16672:16685  _balances[to] */\n      0xffffffffffffffffffffffffffffffffffffffff\n      and\n      0xffffffffffffffffffffffffffffffffffffffff\n      and\n      dup2\n      mstore\n      0x20\n      add\n      swap1\n      dup2\n      mstore\n      0x20\n      add\n      0x00\n      keccak256\n      0x00\n        /* \"@openzeppelin/contracts-upgradeable/token/ERC721/ERC721Upgradeable.sol\":16672:16698  _balances[to] += batchSize */\n      dup3\n      dup3\n      sload\n      tag_266\n      swap2\n      swap1\n      tag_267\n      jump\t// in\n    tag_266:\n      swap3\n      pop\n      pop\n      dup2\n      swap1\n      sstore\n      pop\n        /* \"@openzeppelin/contracts-upgradeable/token/ERC721/ERC721Upgradeable.sol\":16632:16713  if (to != address(0)) {... */\n    tag_265:\n        /* \"@openzeppelin/contracts-upgradeable/token/ERC721/ERC721Upgradeable.sol\":16501:16723  if (batchSize > 1) {... */\n    tag_261:\n        /* \"@openzeppelin/contracts-upgradeable/token/ERC721/ERC721Upgradeable.sol\":16333:16729  function _beforeTokenTransfer(... */\n      pop\n      pop\n      pop\n      pop\n      jump\t// out\n        /* \"@openzeppelin/contracts-upgradeable/token/ERC721/ERC721Upgradeable.sol\":17435:17588  function _afterTokenTransfer(... */\n    tag_238:\n      pop\n      pop\n      pop\n      pop\n      jump\t// out\n    tag_194:\n      dup3\n      dup1\n      sload\n      tag_269\n      swap1\n      tag_74\n      jump\t// in\n    tag_269:\n      swap1\n      0x00\n      mstore\n      keccak256(0x00, 0x20)\n      swap1\n      0x1f\n      add\n      0x20\n      swap1\n      div\n      dup2\n      add\n      swap3\n      dup3\n      tag_271\n      jumpi\n      0x00\n      dup6\n      sstore\n      jump(tag_270)\n    tag_271:\n      dup3\n      0x1f\n      lt\n      tag_272\n      jumpi\n      dup1\n      mload\n      not(0xff)\n      and\n      dup4\n      dup1\n      add\n      or\n      dup6\n      sstore\n      jump(tag_270)\n    tag_272:\n      dup3\n      dup1\n      add\n      0x01\n      add\n      dup6\n      sstore\n      dup3\n      iszero\n      tag_270\n      jumpi\n      swap2\n      dup3\n      add\n    tag_273:\n      dup3\n      dup2\n      gt\n      iszero\n      tag_274\n      jumpi\n      dup3\n      mload\n      dup3\n      sstore\n      swap2\n      0x20\n      add\n      swap2\n      swap1\n      0x01\n      add\n      swap1\n      jump(tag_273)\n    tag_274:\n    tag_270:\n      pop\n      swap1\n      pop\n      tag_275\n      swap2\n      swap1\n      tag_276\n      jump\t// in\n    tag_275:\n      pop\n      swap1\n      jump\t// out\n    tag_276:\n    tag_277:\n      dup1\n      dup3\n      gt\n      iszero\n      tag_278\n      jumpi\n      0x00\n      dup2\n      0x00\n      swap1\n      sstore\n      pop\n      0x01\n      add\n      jump(tag_277)\n    tag_278:\n      pop\n      swap1\n      jump\t// out\n        /* \"#utility.yul\":7:146   */\n    tag_280:\n        /* \"#utility.yul\":53:58   */\n      0x00\n        /* \"#utility.yul\":91:97   */\n      dup2\n        /* \"#utility.yul\":78:98   */\n      calldataload\n        /* \"#utility.yul\":69:98   */\n      swap1\n      pop\n        /* \"#utility.yul\":107:140   */\n      tag_282\n        /* \"#utility.yul\":134:139   */\n      dup2\n        /* \"#utility.yul\":107:140   */\n      tag_283\n      jump\t// in\n    tag_282:\n        /* \"#utility.yul\":7:146   */\n      swap3\n      swap2\n      pop\n      pop\n      jump\t// out\n        /* \"#utility.yul\":152:285   */\n    tag_284:\n        /* \"#utility.yul\":195:200   */\n      0x00\n        /* \"#utility.yul\":233:239   */\n      dup2\n        /* \"#utility.yul\":220:240   */\n      calldataload\n        /* \"#utility.yul\":211:240   */\n      swap1\n      pop\n        /* \"#utility.yul\":249:279   */\n      tag_286\n        /* \"#utility.yul\":273:278   */\n      dup2\n        /* \"#utility.yul\":249:279   */\n      tag_287\n      jump\t// in\n    tag_286:\n        /* \"#utility.yul\":152:285   */\n      swap3\n      swap2\n      pop\n      pop\n      jump\t// out\n        /* \"#utility.yul\":291:428   */\n    tag_288:\n        /* \"#utility.yul\":336:341   */\n      0x00\n        /* \"#utility.yul\":374:380   */\n      dup2\n        /* \"#utility.yul\":361:381   */\n      calldataload\n        /* \"#utility.yul\":352:381   */\n      swap1\n      pop\n        /* \"#utility.yul\":390:422   */\n      tag_290\n        /* \"#utility.yul\":416:421   */\n      dup2\n        /* \"#utility.yul\":390:422   */\n      tag_291\n      jump\t// in\n    tag_290:\n        /* \"#utility.yul\":291:428   */\n      swap3\n      swap2\n      pop\n      pop\n      jump\t// out\n        /* \"#utility.yul\":434:575   */\n    tag_292:\n        /* \"#utility.yul\":490:495   */\n      0x00\n        /* \"#utility.yul\":521:527   */\n      dup2\n        /* \"#utility.yul\":515:528   */\n      mload\n        /* \"#utility.yul\":506:528   */\n      swap1\n      pop\n        /* \"#utility.yul\":537:569   */\n      tag_294\n        /* \"#utility.yul\":563:568   */\n      dup2\n        /* \"#utility.yul\":537:569   */\n      tag_291\n      jump\t// in\n    tag_294:\n        /* \"#utility.yul\":434:575   */\n      swap3\n      swap2\n      pop\n      pop\n      jump\t// out\n        /* \"#utility.yul\":581:720   */\n    tag_295:\n        /* \"#utility.yul\":627:632   */\n      0x00\n        /* \"#utility.yul\":665:671   */\n      dup2\n        /* \"#utility.yul\":652:672   */\n      calldataload\n        /* \"#utility.yul\":643:672   */\n      swap1\n      pop\n        /* \"#utility.yul\":681:714   */\n      tag_297\n        /* \"#utility.yul\":708:713   */\n      dup2\n        /* \"#utility.yul\":681:714   */\n      tag_298\n      jump\t// in\n    tag_297:\n        /* \"#utility.yul\":581:720   */\n      swap3\n      swap2\n      pop\n      pop\n      jump\t// out\n        /* \"#utility.yul\":726:1055   */\n    tag_42:\n        /* \"#utility.yul\":785:791   */\n      0x00\n        /* \"#utility.yul\":834:836   */\n      0x20\n        /* \"#utility.yul\":822:831   */\n      dup3\n        /* \"#utility.yul\":813:820   */\n      dup5\n        /* \"#utility.yul\":809:832   */\n      sub\n        /* \"#utility.yul\":805:837   */\n      slt\n        /* \"#utility.yul\":802:921   */\n      iszero\n      tag_300\n      jumpi\n        /* \"#utility.yul\":840:919   */\n      tag_301\n      tag_302\n      jump\t// in\n    tag_301:\n        /* \"#utility.yul\":802:921   */\n    tag_300:\n        /* \"#utility.yul\":960:961   */\n      0x00\n        /* \"#utility.yul\":985:1038   */\n      tag_303\n        /* \"#utility.yul\":1030:1037   */\n      dup5\n        /* \"#utility.yul\":1021:1027   */\n      dup3\n        /* \"#utility.yul\":1010:1019   */\n      dup6\n        /* \"#utility.yul\":1006:1028   */\n      add\n        /* \"#utility.yul\":985:1038   */\n      tag_280\n      jump\t// in\n    tag_303:\n        /* \"#utility.yul\":975:1038   */\n      swap2\n      pop\n        /* \"#utility.yul\":931:1048   */\n      pop\n        /* \"#utility.yul\":726:1055   */\n      swap3\n      swap2\n      pop\n      pop\n      jump\t// out\n        /* \"#utility.yul\":1061:1535   */\n    tag_64:\n        /* \"#utility.yul\":1129:1135   */\n      0x00\n        /* \"#utility.yul\":1137:1143   */\n      dup1\n        /* \"#utility.yul\":1186:1188   */\n      0x40\n        /* \"#utility.yul\":1174:1183   */\n      dup4\n        /* \"#utility.yul\":1165:1172   */\n      dup6\n        /* \"#utility.yul\":1161:1184   */\n      sub\n        /* \"#utility.yul\":1157:1189   */\n      slt\n        /* \"#utility.yul\":1154:1273   */\n      iszero\n      tag_305\n      jumpi\n        /* \"#utility.yul\":1192:1271   */\n      tag_306\n      tag_302\n      jump\t// in\n    tag_306:\n        /* \"#utility.yul\":1154:1273   */\n    tag_305:\n        /* \"#utility.yul\":1312:1313   */\n      0x00\n        /* \"#utility.yul\":1337:1390   */\n      tag_307\n        /* \"#utility.yul\":1382:1389   */\n      dup6\n        /* \"#utility.yul\":1373:1379   */\n      dup3\n        /* \"#utility.yul\":1362:1371   */\n      dup7\n        /* \"#utility.yul\":1358:1380   */\n      add\n        /* \"#utility.yul\":1337:1390   */\n      tag_280\n      jump\t// in\n    tag_307:\n        /* \"#utility.yul\":1327:1390   */\n      swap3\n      pop\n        /* \"#utility.yul\":1283:1400   */\n      pop\n        /* \"#utility.yul\":1439:1441   */\n      0x20\n        /* \"#utility.yul\":1465:1518   */\n      tag_308\n        /* \"#utility.yul\":1510:1517   */\n      dup6\n        /* \"#utility.yul\":1501:1507   */\n      dup3\n        /* \"#utility.yul\":1490:1499   */\n      dup7\n        /* \"#utility.yul\":1486:1508   */\n      add\n        /* \"#utility.yul\":1465:1518   */\n      tag_280\n      jump\t// in\n    tag_308:\n        /* \"#utility.yul\":1455:1518   */\n      swap2\n      pop\n        /* \"#utility.yul\":1410:1528   */\n      pop\n        /* \"#utility.yul\":1061:1535   */\n      swap3\n      pop\n      swap3\n      swap1\n      pop\n      jump\t// out\n        /* \"#utility.yul\":1541:2009   */\n    tag_56:\n        /* \"#utility.yul\":1606:1612   */\n      0x00\n        /* \"#utility.yul\":1614:1620   */\n      dup1\n        /* \"#utility.yul\":1663:1665   */\n      0x40\n        /* \"#utility.yul\":1651:1660   */\n      dup4\n        /* \"#utility.yul\":1642:1649   */\n      dup6\n        /* \"#utility.yul\":1638:1661   */\n      sub\n        /* \"#utility.yul\":1634:1666   */\n      slt\n        /* \"#utility.yul\":1631:1750   */\n      iszero\n      tag_310\n      jumpi\n        /* \"#utility.yul\":1669:1748   */\n      tag_311\n      tag_302\n      jump\t// in\n    tag_311:\n        /* \"#utility.yul\":1631:1750   */\n    tag_310:\n        /* \"#utility.yul\":1789:1790   */\n      0x00\n        /* \"#utility.yul\":1814:1867   */\n      tag_312\n        /* \"#utility.yul\":1859:1866   */\n      dup6\n        /* \"#utility.yul\":1850:1856   */\n      dup3\n        /* \"#utility.yul\":1839:1848   */\n      dup7\n        /* \"#utility.yul\":1835:1857   */\n      add\n        /* \"#utility.yul\":1814:1867   */\n      tag_280\n      jump\t// in\n    tag_312:\n        /* \"#utility.yul\":1804:1867   */\n      swap3\n      pop\n        /* \"#utility.yul\":1760:1877   */\n      pop\n        /* \"#utility.yul\":1916:1918   */\n      0x20\n        /* \"#utility.yul\":1942:1992   */\n      tag_313\n        /* \"#utility.yul\":1984:1991   */\n      dup6\n        /* \"#utility.yul\":1975:1981   */\n      dup3\n        /* \"#utility.yul\":1964:1973   */\n      dup7\n        /* \"#utility.yul\":1960:1982   */\n      add\n        /* \"#utility.yul\":1942:1992   */\n      tag_284\n      jump\t// in\n    tag_313:\n        /* \"#utility.yul\":1932:1992   */\n      swap2\n      pop\n        /* \"#utility.yul\":1887:2002   */\n      pop\n        /* \"#utility.yul\":1541:2009   */\n      swap3\n      pop\n      swap3\n      swap1\n      pop\n      jump\t// out\n        /* \"#utility.yul\":2015:2489   */\n    tag_34:\n        /* \"#utility.yul\":2083:2089   */\n      0x00\n        /* \"#utility.yul\":2091:2097   */\n      dup1\n        /* \"#utility.yul\":2140:2142   */\n      0x40\n        /* \"#utility.yul\":2128:2137   */\n      dup4\n        /* \"#utility.yul\":2119:2126   */\n      dup6\n        /* \"#utility.yul\":2115:2138   */\n      sub\n        /* \"#utility.yul\":2111:2143   */\n      slt\n        /* \"#utility.yul\":2108:2227   */\n      iszero\n      tag_315\n      jumpi\n        /* \"#utility.yul\":2146:2225   */\n      tag_316\n      tag_302\n      jump\t// in\n    tag_316:\n        /* \"#utility.yul\":2108:2227   */\n    tag_315:\n        /* \"#utility.yul\":2266:2267   */\n      0x00\n        /* \"#utility.yul\":2291:2344   */\n      tag_317\n        /* \"#utility.yul\":2336:2343   */\n      dup6\n        /* \"#utility.yul\":2327:2333   */\n      dup3\n        /* \"#utility.yul\":2316:2325   */\n      dup7\n        /* \"#utility.yul\":2312:2334   */\n      add\n        /* \"#utility.yul\":2291:2344   */\n      tag_280\n      jump\t// in\n    tag_317:\n        /* \"#utility.yul\":2281:2344   */\n      swap3\n      pop\n        /* \"#utility.yul\":2237:2354   */\n      pop\n        /* \"#utility.yul\":2393:2395   */\n      0x20\n        /* \"#utility.yul\":2419:2472   */\n      tag_318\n        /* \"#utility.yul\":2464:2471   */\n      dup6\n        /* \"#utility.yul\":2455:2461   */\n      dup3\n        /* \"#utility.yul\":2444:2453   */\n      dup7\n        /* \"#utility.yul\":2440:2462   */\n      add\n        /* \"#utility.yul\":2419:2472   */\n      tag_295\n      jump\t// in\n    tag_318:\n        /* \"#utility.yul\":2409:2472   */\n      swap2\n      pop\n        /* \"#utility.yul\":2364:2482   */\n      pop\n        /* \"#utility.yul\":2015:2489   */\n      swap3\n      pop\n      swap3\n      swap1\n      pop\n      jump\t// out\n        /* \"#utility.yul\":2495:2822   */\n    tag_18:\n        /* \"#utility.yul\":2553:2559   */\n      0x00\n        /* \"#utility.yul\":2602:2604   */\n      0x20\n        /* \"#utility.yul\":2590:2599   */\n      dup3\n        /* \"#utility.yul\":2581:2588   */\n      dup5\n        /* \"#utility.yul\":2577:2600   */\n      sub\n        /* \"#utility.yul\":2573:2605   */\n      slt\n        /* \"#utility.yul\":2570:2689   */\n      iszero\n      tag_320\n      jumpi\n        /* \"#utility.yul\":2608:2687   */\n      tag_321\n      tag_302\n      jump\t// in\n    tag_321:\n        /* \"#utility.yul\":2570:2689   */\n    tag_320:\n        /* \"#utility.yul\":2728:2729   */\n      0x00\n        /* \"#utility.yul\":2753:2805   */\n      tag_322\n        /* \"#utility.yul\":2797:2804   */\n      dup5\n        /* \"#utility.yul\":2788:2794   */\n      dup3\n        /* \"#utility.yul\":2777:2786   */\n      dup6\n        /* \"#utility.yul\":2773:2795   */\n      add\n        /* \"#utility.yul\":2753:2805   */\n      tag_288\n      jump\t// in\n    tag_322:\n        /* \"#utility.yul\":2743:2805   */\n      swap2\n      pop\n        /* \"#utility.yul\":2699:2815   */\n      pop\n        /* \"#utility.yul\":2495:2822   */\n      swap3\n      swap2\n      pop\n      pop\n      jump\t// out\n        /* \"#utility.yul\":2828:3177   */\n    tag_248:\n        /* \"#utility.yul\":2897:2903   */\n      0x00\n        /* \"#utility.yul\":2946:2948   */\n      0x20\n        /* \"#utility.yul\":2934:2943   */\n      dup3\n        /* \"#utility.yul\":2925:2932   */\n      dup5\n        /* \"#utility.yul\":2921:2944   */\n      sub\n        /* \"#utility.yul\":2917:2949   */\n      slt\n        /* \"#utility.yul\":2914:3033   */\n      iszero\n      tag_324\n      jumpi\n        /* \"#utility.yul\":2952:3031   */\n      tag_325\n      tag_302\n      jump\t// in\n    tag_325:\n        /* \"#utility.yul\":2914:3033   */\n    tag_324:\n        /* \"#utility.yul\":3072:3073   */\n      0x00\n        /* \"#utility.yul\":3097:3160   */\n      tag_326\n        /* \"#utility.yul\":3152:3159   */\n      dup5\n        /* \"#utility.yul\":3143:3149   */\n      dup3\n        /* \"#utility.yul\":3132:3141   */\n      dup6\n        /* \"#utility.yul\":3128:3150   */\n      add\n        /* \"#utility.yul\":3097:3160   */\n      tag_292\n      jump\t// in\n    tag_326:\n        /* \"#utility.yul\":3087:3160   */\n      swap2\n      pop\n        /* \"#utility.yul\":3043:3170   */\n      pop\n        /* \"#utility.yul\":2828:3177   */\n      swap3\n      swap2\n      pop\n      pop\n      jump\t// out\n        /* \"#utility.yul\":3183:3512   */\n    tag_28:\n        /* \"#utility.yul\":3242:3248   */\n      0x00\n        /* \"#utility.yul\":3291:3293   */\n      0x20\n        /* \"#utility.yul\":3279:3288   */\n      dup3\n        /* \"#utility.yul\":3270:3277   */\n      dup5\n        /* \"#utility.yul\":3266:3289   */\n      sub\n        /* \"#utility.yul\":3262:3294   */\n      slt\n        /* \"#utility.yul\":3259:3378   */\n      iszero\n      tag_328\n      jumpi\n        /* \"#utility.yul\":3297:3376   */\n      tag_329\n      tag_302\n      jump\t// in\n    tag_329:\n        /* \"#utility.yul\":3259:3378   */\n    tag_328:\n        /* \"#utility.yul\":3417:3418   */\n      0x00\n        /* \"#utility.yul\":3442:3495   */\n      tag_330\n        /* \"#utility.yul\":3487:3494   */\n      dup5\n        /* \"#utility.yul\":3478:3484   */\n      dup3\n        /* \"#utility.yul\":3467:3476   */\n      dup6\n        /* \"#utility.yul\":3463:3485   */\n      add\n        /* \"#utility.yul\":3442:3495   */\n      tag_295\n      jump\t// in\n    tag_330:\n        /* \"#utility.yul\":3432:3495   */\n      swap2\n      pop\n        /* \"#utility.yul\":3388:3505   */\n      pop\n        /* \"#utility.yul\":3183:3512   */\n      swap3\n      swap2\n      pop\n      pop\n      jump\t// out\n        /* \"#utility.yul\":3518:3636   */\n    tag_331:\n        /* \"#utility.yul\":3605:3629   */\n      tag_333\n        /* \"#utility.yul\":3623:3628   */\n      dup2\n        /* \"#utility.yul\":3605:3629   */\n      tag_334\n      jump\t// in\n    tag_333:\n        /* \"#utility.yul\":3600:3603   */\n      dup3\n        /* \"#utility.yul\":3593:3630   */\n      mstore\n        /* \"#utility.yul\":3518:3636   */\n      pop\n      pop\n      jump\t// out\n        /* \"#utility.yul\":3642:3751   */\n    tag_335:\n        /* \"#utility.yul\":3723:3744   */\n      tag_337\n        /* \"#utility.yul\":3738:3743   */\n      dup2\n        /* \"#utility.yul\":3723:3744   */\n      tag_338\n      jump\t// in\n    tag_337:\n        /* \"#utility.yul\":3718:3721   */\n      dup3\n        /* \"#utility.yul\":3711:3745   */\n      mstore\n        /* \"#utility.yul\":3642:3751   */\n      pop\n      pop\n      jump\t// out\n        /* \"#utility.yul\":3757:4117   */\n    tag_339:\n        /* \"#utility.yul\":3843:3846   */\n      0x00\n        /* \"#utility.yul\":3871:3909   */\n      tag_341\n        /* \"#utility.yul\":3903:3908   */\n      dup3\n        /* \"#utility.yul\":3871:3909   */\n      tag_342\n      jump\t// in\n    tag_341:\n        /* \"#utility.yul\":3925:3995   */\n      tag_343\n        /* \"#utility.yul\":3988:3994   */\n      dup2\n        /* \"#utility.yul\":3983:3986   */\n      dup6\n        /* \"#utility.yul\":3925:3995   */\n      tag_344\n      jump\t// in\n    tag_343:\n        /* \"#utility.yul\":3918:3995   */\n      swap4\n      pop\n        /* \"#utility.yul\":4004:4056   */\n      tag_345\n        /* \"#utility.yul\":4049:4055   */\n      dup2\n        /* \"#utility.yul\":4044:4047   */\n      dup6\n        /* \"#utility.yul\":4037:4041   */\n      0x20\n        /* \"#utility.yul\":4030:4035   */\n      dup7\n        /* \"#utility.yul\":4026:4042   */\n      add\n        /* \"#utility.yul\":4004:4056   */\n      tag_346\n      jump\t// in\n    tag_345:\n        /* \"#utility.yul\":4081:4110   */\n      tag_347\n        /* \"#utility.yul\":4103:4109   */\n      dup2\n        /* \"#utility.yul\":4081:4110   */\n      tag_348\n      jump\t// in\n    tag_347:\n        /* \"#utility.yul\":4076:4079   */\n      dup5\n        /* \"#utility.yul\":4072:4111   */\n      add\n        /* \"#utility.yul\":4065:4111   */\n      swap2\n      pop\n        /* \"#utility.yul\":3847:4117   */\n      pop\n        /* \"#utility.yul\":3757:4117   */\n      swap3\n      swap2\n      pop\n      pop\n      jump\t// out\n        /* \"#utility.yul\":4123:4266   */\n    tag_349:\n        /* \"#utility.yul\":4216:4259   */\n      tag_351\n        /* \"#utility.yul\":4253:4258   */\n      dup2\n        /* \"#utility.yul\":4216:4259   */\n      tag_352\n      jump\t// in\n    tag_351:\n        /* \"#utility.yul\":4211:4214   */\n      dup3\n        /* \"#utility.yul\":4204:4260   */\n      mstore\n        /* \"#utility.yul\":4123:4266   */\n      pop\n      pop\n      jump\t// out\n        /* \"#utility.yul\":4272:4636   */\n    tag_353:\n        /* \"#utility.yul\":4360:4363   */\n      0x00\n        /* \"#utility.yul\":4388:4427   */\n      tag_355\n        /* \"#utility.yul\":4421:4426   */\n      dup3\n        /* \"#utility.yul\":4388:4427   */\n      tag_356\n      jump\t// in\n    tag_355:\n        /* \"#utility.yul\":4443:4514   */\n      tag_357\n        /* \"#utility.yul\":4507:4513   */\n      dup2\n        /* \"#utility.yul\":4502:4505   */\n      dup6\n        /* \"#utility.yul\":4443:4514   */\n      tag_358\n      jump\t// in\n    tag_357:\n        /* \"#utility.yul\":4436:4514   */\n      swap4\n      pop\n        /* \"#utility.yul\":4523:4575   */\n      tag_359\n        /* \"#utility.yul\":4568:4574   */\n      dup2\n        /* \"#utility.yul\":4563:4566   */\n      dup6\n        /* \"#utility.yul\":4556:4560   */\n      0x20\n        /* \"#utility.yul\":4549:4554   */\n      dup7\n        /* \"#utility.yul\":4545:4561   */\n      add\n        /* \"#utility.yul\":4523:4575   */\n      tag_346\n      jump\t// in\n    tag_359:\n        /* \"#utility.yul\":4600:4629   */\n      tag_360\n        /* \"#utility.yul\":4622:4628   */\n      dup2\n        /* \"#utility.yul\":4600:4629   */\n      tag_348\n      jump\t// in\n    tag_360:\n        /* \"#utility.yul\":4595:4598   */\n      dup5\n        /* \"#utility.yul\":4591:4630   */\n      add\n        /* \"#utility.yul\":4584:4630   */\n      swap2\n      pop\n        /* \"#utility.yul\":4364:4636   */\n      pop\n        /* \"#utility.yul\":4272:4636   */\n      swap3\n      swap2\n      pop\n      pop\n      jump\t// out\n        /* \"#utility.yul\":4642:5019   */\n    tag_361:\n        /* \"#utility.yul\":4748:4751   */\n      0x00\n        /* \"#utility.yul\":4776:4815   */\n      tag_363\n        /* \"#utility.yul\":4809:4814   */\n      dup3\n        /* \"#utility.yul\":4776:4815   */\n      tag_356\n      jump\t// in\n    tag_363:\n        /* \"#utility.yul\":4831:4920   */\n      tag_364\n        /* \"#utility.yul\":4913:4919   */\n      dup2\n        /* \"#utility.yul\":4908:4911   */\n      dup6\n        /* \"#utility.yul\":4831:4920   */\n      tag_365\n      jump\t// in\n    tag_364:\n        /* \"#utility.yul\":4824:4920   */\n      swap4\n      pop\n        /* \"#utility.yul\":4929:4981   */\n      tag_366\n        /* \"#utility.yul\":4974:4980   */\n      dup2\n        /* \"#utility.yul\":4969:4972   */\n      dup6\n        /* \"#utility.yul\":4962:4966   */\n      0x20\n        /* \"#utility.yul\":4955:4960   */\n      dup7\n        /* \"#utility.yul\":4951:4967   */\n      add\n        /* \"#utility.yul\":4929:4981   */\n      tag_346\n      jump\t// in\n    tag_366:\n        /* \"#utility.yul\":5006:5012   */\n      dup1\n        /* \"#utility.yul\":5001:5004   */\n      dup5\n        /* \"#utility.yul\":4997:5013   */\n      add\n        /* \"#utility.yul\":4990:5013   */\n      swap2\n      pop\n        /* \"#utility.yul\":4752:5019   */\n      pop\n        /* \"#utility.yul\":4642:5019   */\n      swap3\n      swap2\n      pop\n      pop\n      jump\t// out\n        /* \"#utility.yul\":5025:5391   */\n    tag_367:\n        /* \"#utility.yul\":5167:5170   */\n      0x00\n        /* \"#utility.yul\":5188:5255   */\n      tag_369\n        /* \"#utility.yul\":5252:5254   */\n      0x32\n        /* \"#utility.yul\":5247:5250   */\n      dup4\n        /* \"#utility.yul\":5188:5255   */\n      tag_358\n      jump\t// in\n    tag_369:\n        /* \"#utility.yul\":5181:5255   */\n      swap2\n      pop\n        /* \"#utility.yul\":5264:5357   */\n      tag_370\n        /* \"#utility.yul\":5353:5356   */\n      dup3\n        /* \"#utility.yul\":5264:5357   */\n      tag_371\n      jump\t// in\n    tag_370:\n        /* \"#utility.yul\":5382:5384   */\n      0x40\n        /* \"#utility.yul\":5377:5380   */\n      dup3\n        /* \"#utility.yul\":5373:5385   */\n      add\n        /* \"#utility.yul\":5366:5385   */\n      swap1\n      pop\n        /* \"#utility.yul\":5025:5391   */\n      swap2\n      swap1\n      pop\n      jump\t// out\n        /* \"#utility.yul\":5397:5763   */\n    tag_372:\n        /* \"#utility.yul\":5539:5542   */\n      0x00\n        /* \"#utility.yul\":5560:5627   */\n      tag_374\n        /* \"#utility.yul\":5624:5626   */\n      0x1c\n        /* \"#utility.yul\":5619:5622   */\n      dup4\n        /* \"#utility.yul\":5560:5627   */\n      tag_358\n      jump\t// in\n    tag_374:\n        /* \"#utility.yul\":5553:5627   */\n      swap2\n      pop\n        /* \"#utility.yul\":5636:5729   */\n      tag_375\n        /* \"#utility.yul\":5725:5728   */\n      dup3\n        /* \"#utility.yul\":5636:5729   */\n      tag_376\n      jump\t// in\n    tag_375:\n        /* \"#utility.yul\":5754:5756   */\n      0x20\n        /* \"#utility.yul\":5749:5752   */\n      dup3\n        /* \"#utility.yul\":5745:5757   */\n      add\n        /* \"#utility.yul\":5738:5757   */\n      swap1\n      pop\n        /* \"#utility.yul\":5397:5763   */\n      swap2\n      swap1\n      pop\n      jump\t// out\n        /* \"#utility.yul\":5769:6135   */\n    tag_377:\n        /* \"#utility.yul\":5911:5914   */\n      0x00\n        /* \"#utility.yul\":5932:5999   */\n      tag_379\n        /* \"#utility.yul\":5996:5998   */\n      0x19\n        /* \"#utility.yul\":5991:5994   */\n      dup4\n        /* \"#utility.yul\":5932:5999   */\n      tag_358\n      jump\t// in\n    tag_379:\n        /* \"#utility.yul\":5925:5999   */\n      swap2\n      pop\n        /* \"#utility.yul\":6008:6101   */\n      tag_380\n        /* \"#utility.yul\":6097:6100   */\n      dup3\n        /* \"#utility.yul\":6008:6101   */\n      tag_381\n      jump\t// in\n    tag_380:\n        /* \"#utility.yul\":6126:6128   */\n      0x20\n        /* \"#utility.yul\":6121:6124   */\n      dup3\n        /* \"#utility.yul\":6117:6129   */\n      add\n        /* \"#utility.yul\":6110:6129   */\n      swap1\n      pop\n        /* \"#utility.yul\":5769:6135   */\n      swap2\n      swap1\n      pop\n      jump\t// out\n        /* \"#utility.yul\":6141:6507   */\n    tag_382:\n        /* \"#utility.yul\":6283:6286   */\n      0x00\n        /* \"#utility.yul\":6304:6371   */\n      tag_384\n        /* \"#utility.yul\":6368:6370   */\n      0x29\n        /* \"#utility.yul\":6363:6366   */\n      dup4\n        /* \"#utility.yul\":6304:6371   */\n      tag_358\n      jump\t// in\n    tag_384:\n        /* \"#utility.yul\":6297:6371   */\n      swap2\n      pop\n        /* \"#utility.yul\":6380:6473   */\n      tag_385\n        /* \"#utility.yul\":6469:6472   */\n      dup3\n        /* \"#utility.yul\":6380:6473   */\n      tag_386\n      jump\t// in\n    tag_385:\n        /* \"#utility.yul\":6498:6500   */\n      0x40\n        /* \"#utility.yul\":6493:6496   */\n      dup3\n        /* \"#utility.yul\":6489:6501   */\n      add\n        /* \"#utility.yul\":6482:6501   */\n      swap1\n      pop\n        /* \"#utility.yul\":6141:6507   */\n      swap2\n      swap1\n      pop\n      jump\t// out\n        /* \"#utility.yul\":6513:6879   */\n    tag_387:\n        /* \"#utility.yul\":6655:6658   */\n      0x00\n        /* \"#utility.yul\":6676:6743   */\n      tag_389\n        /* \"#utility.yul\":6740:6742   */\n      0x2e\n        /* \"#utility.yul\":6735:6738   */\n      dup4\n        /* \"#utility.yul\":6676:6743   */\n      tag_358\n      jump\t// in\n    tag_389:\n        /* \"#utility.yul\":6669:6743   */\n      swap2\n      pop\n        /* \"#utility.yul\":6752:6845   */\n      tag_390\n        /* \"#utility.yul\":6841:6844   */\n      dup3\n        /* \"#utility.yul\":6752:6845   */\n      tag_391\n      jump\t// in\n    tag_390:\n        /* \"#utility.yul\":6870:6872   */\n      0x40\n        /* \"#utility.yul\":6865:6868   */\n      dup3\n        /* \"#utility.yul\":6861:6873   */\n      add\n        /* \"#utility.yul\":6854:6873   */\n      swap1\n      pop\n        /* \"#utility.yul\":6513:6879   */\n      swap2\n      swap1\n      pop\n      jump\t// out\n        /* \"#utility.yul\":6885:7251   */\n    tag_392:\n        /* \"#utility.yul\":7027:7030   */\n      0x00\n        /* \"#utility.yul\":7048:7115   */\n      tag_394\n        /* \"#utility.yul\":7112:7114   */\n      0x20\n        /* \"#utility.yul\":7107:7110   */\n      dup4\n        /* \"#utility.yul\":7048:7115   */\n      tag_358\n      jump\t// in\n    tag_394:\n        /* \"#utility.yul\":7041:7115   */\n      swap2\n      pop\n        /* \"#utility.yul\":7124:7217   */\n      tag_395\n        /* \"#utility.yul\":7213:7216   */\n      dup3\n        /* \"#utility.yul\":7124:7217   */\n      tag_396\n      jump\t// in\n    tag_395:\n        /* \"#utility.yul\":7242:7244   */\n      0x20\n        /* \"#utility.yul\":7237:7240   */\n      dup3\n        /* \"#utility.yul\":7233:7245   */\n      add\n        /* \"#utility.yul\":7226:7245   */\n      swap1\n      pop\n        /* \"#utility.yul\":6885:7251   */\n      swap2\n      swap1\n      pop\n      jump\t// out\n        /* \"#utility.yul\":7257:7623   */\n    tag_397:\n        /* \"#utility.yul\":7399:7402   */\n      0x00\n        /* \"#utility.yul\":7420:7487   */\n      tag_399\n        /* \"#utility.yul\":7484:7486   */\n      0x18\n        /* \"#utility.yul\":7479:7482   */\n      dup4\n        /* \"#utility.yul\":7420:7487   */\n      tag_358\n      jump\t// in\n    tag_399:\n        /* \"#utility.yul\":7413:7487   */\n      swap2\n      pop\n        /* \"#utility.yul\":7496:7589   */\n      tag_400\n        /* \"#utility.yul\":7585:7588   */\n      dup3\n        /* \"#utility.yul\":7496:7589   */\n      tag_401\n      jump\t// in\n    tag_400:\n        /* \"#utility.yul\":7614:7616   */\n      0x20\n        /* \"#utility.yul\":7609:7612   */\n      dup3\n        /* \"#utility.yul\":7605:7617   */\n      add\n        /* \"#utility.yul\":7598:7617   */\n      swap1\n      pop\n        /* \"#utility.yul\":7257:7623   */\n      swap2\n      swap1\n      pop\n      jump\t// out\n        /* \"#utility.yul\":7629:7995   */\n    tag_402:\n        /* \"#utility.yul\":7771:7774   */\n      0x00\n        /* \"#utility.yul\":7792:7859   */\n      tag_404\n        /* \"#utility.yul\":7856:7858   */\n      0x21\n        /* \"#utility.yul\":7851:7854   */\n      dup4\n        /* \"#utility.yul\":7792:7859   */\n      tag_358\n      jump\t// in\n    tag_404:\n        /* \"#utility.yul\":7785:7859   */\n      swap2\n      pop\n        /* \"#utility.yul\":7868:7961   */\n      tag_405\n        /* \"#utility.yul\":7957:7960   */\n      dup3\n        /* \"#utility.yul\":7868:7961   */\n      tag_406\n      jump\t// in\n    tag_405:\n        /* \"#utility.yul\":7986:7988   */\n      0x40\n        /* \"#utility.yul\":7981:7984   */\n      dup3\n        /* \"#utility.yul\":7977:7989   */\n      add\n        /* \"#utility.yul\":7970:7989   */\n      swap1\n      pop\n        /* \"#utility.yul\":7629:7995   */\n      swap2\n      swap1\n      pop\n      jump\t// out\n        /* \"#utility.yul\":8001:8367   */\n    tag_407:\n        /* \"#utility.yul\":8143:8146   */\n      0x00\n        /* \"#utility.yul\":8164:8231   */\n      tag_409\n        /* \"#utility.yul\":8228:8230   */\n      0x3d\n        /* \"#utility.yul\":8223:8226   */\n      dup4\n        /* \"#utility.yul\":8164:8231   */\n      tag_358\n      jump\t// in\n    tag_409:\n        /* \"#utility.yul\":8157:8231   */\n      swap2\n      pop\n        /* \"#utility.yul\":8240:8333   */\n      tag_410\n        /* \"#utility.yul\":8329:8332   */\n      dup3\n        /* \"#utility.yul\":8240:8333   */\n      tag_411\n      jump\t// in\n    tag_410:\n        /* \"#utility.yul\":8358:8360   */\n      0x40\n        /* \"#utility.yul\":8353:8356   */\n      dup3\n        /* \"#utility.yul\":8349:8361   */\n      add\n        /* \"#utility.yul\":8342:8361   */\n      swap1\n      pop\n        /* \"#utility.yul\":8001:8367   */\n      swap2\n      swap1\n      pop\n      jump\t// out\n        /* \"#utility.yul\":8373:8739   */\n    tag_412:\n        /* \"#utility.yul\":8515:8518   */\n      0x00\n        /* \"#utility.yul\":8536:8603   */\n      tag_414\n        /* \"#utility.yul\":8600:8602   */\n      0x2b\n        /* \"#utility.yul\":8595:8598   */\n      dup4\n        /* \"#utility.yul\":8536:8603   */\n      tag_358\n      jump\t// in\n    tag_414:\n        /* \"#utility.yul\":8529:8603   */\n      swap2\n      pop\n        /* \"#utility.yul\":8612:8705   */\n      tag_415\n        /* \"#utility.yul\":8701:8704   */\n      dup3\n        /* \"#utility.yul\":8612:8705   */\n      tag_416\n      jump\t// in\n    tag_415:\n        /* \"#utility.yul\":8730:8732   */\n      0x40\n        /* \"#utility.yul\":8725:8728   */\n      dup3\n        /* \"#utility.yul\":8721:8733   */\n      add\n        /* \"#utility.yul\":8714:8733   */\n      swap1\n      pop\n        /* \"#utility.yul\":8373:8739   */\n      swap2\n      swap1\n      pop\n      jump\t// out\n        /* \"#utility.yul\":8745:8863   */\n    tag_417:\n        /* \"#utility.yul\":8832:8856   */\n      tag_419\n        /* \"#utility.yul\":8850:8855   */\n      dup2\n        /* \"#utility.yul\":8832:8856   */\n      tag_420\n      jump\t// in\n    tag_419:\n        /* \"#utility.yul\":8827:8830   */\n      dup3\n        /* \"#utility.yul\":8820:8857   */\n      mstore\n        /* \"#utility.yul\":8745:8863   */\n      pop\n      pop\n      jump\t// out\n        /* \"#utility.yul\":8869:9304   */\n    tag_145:\n        /* \"#utility.yul\":9049:9052   */\n      0x00\n        /* \"#utility.yul\":9071:9166   */\n      tag_422\n        /* \"#utility.yul\":9162:9165   */\n      dup3\n        /* \"#utility.yul\":9153:9159   */\n      dup6\n        /* \"#utility.yul\":9071:9166   */\n      tag_361\n      jump\t// in\n    tag_422:\n        /* \"#utility.yul\":9064:9166   */\n      swap2\n      pop\n        /* \"#utility.yul\":9183:9278   */\n      tag_423\n        /* \"#utility.yul\":9274:9277   */\n      dup3\n        /* \"#utility.yul\":9265:9271   */\n      dup5\n        /* \"#utility.yul\":9183:9278   */\n      tag_361\n      jump\t// in\n    tag_423:\n        /* \"#utility.yul\":9176:9278   */\n      swap2\n      pop\n        /* \"#utility.yul\":9295:9298   */\n      dup2\n        /* \"#utility.yul\":9288:9298   */\n      swap1\n      pop\n        /* \"#utility.yul\":8869:9304   */\n      swap4\n      swap3\n      pop\n      pop\n      pop\n      jump\t// out\n        /* \"#utility.yul\":9310:9532   */\n    tag_31:\n        /* \"#utility.yul\":9403:9407   */\n      0x00\n        /* \"#utility.yul\":9441:9443   */\n      0x20\n        /* \"#utility.yul\":9430:9439   */\n      dup3\n        /* \"#utility.yul\":9426:9444   */\n      add\n        /* \"#utility.yul\":9418:9444   */\n      swap1\n      pop\n        /* \"#utility.yul\":9454:9525   */\n      tag_425\n        /* \"#utility.yul\":9522:9523   */\n      0x00\n        /* \"#utility.yul\":9511:9520   */\n      dup4\n        /* \"#utility.yul\":9507:9524   */\n      add\n        /* \"#utility.yul\":9498:9504   */\n      dup5\n        /* \"#utility.yul\":9454:9525   */\n      tag_331\n      jump\t// in\n    tag_425:\n        /* \"#utility.yul\":9310:9532   */\n      swap3\n      swap2\n      pop\n      pop\n      jump\t// out\n        /* \"#utility.yul\":9538:10178   */\n    tag_244:\n        /* \"#utility.yul\":9733:9737   */\n      0x00\n        /* \"#utility.yul\":9771:9774   */\n      0x80\n        /* \"#utility.yul\":9760:9769   */\n      dup3\n        /* \"#utility.yul\":9756:9775   */\n      add\n        /* \"#utility.yul\":9748:9775   */\n      swap1\n      pop\n        /* \"#utility.yul\":9785:9856   */\n      tag_427\n        /* \"#utility.yul\":9853:9854   */\n      0x00\n        /* \"#utility.yul\":9842:9851   */\n      dup4\n        /* \"#utility.yul\":9838:9855   */\n      add\n        /* \"#utility.yul\":9829:9835   */\n      dup8\n        /* \"#utility.yul\":9785:9856   */\n      tag_331\n      jump\t// in\n    tag_427:\n        /* \"#utility.yul\":9866:9938   */\n      tag_428\n        /* \"#utility.yul\":9934:9936   */\n      0x20\n        /* \"#utility.yul\":9923:9932   */\n      dup4\n        /* \"#utility.yul\":9919:9937   */\n      add\n        /* \"#utility.yul\":9910:9916   */\n      dup7\n        /* \"#utility.yul\":9866:9938   */\n      tag_331\n      jump\t// in\n    tag_428:\n        /* \"#utility.yul\":9948:10020   */\n      tag_429\n        /* \"#utility.yul\":10016:10018   */\n      0x40\n        /* \"#utility.yul\":10005:10014   */\n      dup4\n        /* \"#utility.yul\":10001:10019   */\n      add\n        /* \"#utility.yul\":9992:9998   */\n      dup6\n        /* \"#utility.yul\":9948:10020   */\n      tag_417\n      jump\t// in\n    tag_429:\n        /* \"#utility.yul\":10067:10076   */\n      dup2\n        /* \"#utility.yul\":10061:10065   */\n      dup2\n        /* \"#utility.yul\":10057:10077   */\n      sub\n        /* \"#utility.yul\":10052:10054   */\n      0x60\n        /* \"#utility.yul\":10041:10050   */\n      dup4\n        /* \"#utility.yul\":10037:10055   */\n      add\n        /* \"#utility.yul\":10030:10078   */\n      mstore\n        /* \"#utility.yul\":10095:10171   */\n      tag_430\n        /* \"#utility.yul\":10166:10170   */\n      dup2\n        /* \"#utility.yul\":10157:10163   */\n      dup5\n        /* \"#utility.yul\":10095:10171   */\n      tag_339\n      jump\t// in\n    tag_430:\n        /* \"#utility.yul\":10087:10171   */\n      swap1\n      pop\n        /* \"#utility.yul\":9538:10178   */\n      swap6\n      swap5\n      pop\n      pop\n      pop\n      pop\n      pop\n      jump\t// out\n        /* \"#utility.yul\":10184:10394   */\n    tag_21:\n        /* \"#utility.yul\":10271:10275   */\n      0x00\n        /* \"#utility.yul\":10309:10311   */\n      0x20\n        /* \"#utility.yul\":10298:10307   */\n      dup3\n        /* \"#utility.yul\":10294:10312   */\n      add\n        /* \"#utility.yul\":10286:10312   */\n      swap1\n      pop\n        /* \"#utility.yul\":10322:10387   */\n      tag_432\n        /* \"#utility.yul\":10384:10385   */\n      0x00\n        /* \"#utility.yul\":10373:10382   */\n      dup4\n        /* \"#utility.yul\":10369:10386   */\n      add\n        /* \"#utility.yul\":10360:10366   */\n      dup5\n        /* \"#utility.yul\":10322:10387   */\n      tag_335\n      jump\t// in\n    tag_432:\n        /* \"#utility.yul\":10184:10394   */\n      swap3\n      swap2\n      pop\n      pop\n      jump\t// out\n        /* \"#utility.yul\":10400:10634   */\n    tag_122:\n        /* \"#utility.yul\":10499:10503   */\n      0x00\n        /* \"#utility.yul\":10537:10539   */\n      0x20\n        /* \"#utility.yul\":10526:10535   */\n      dup3\n        /* \"#utility.yul\":10522:10540   */\n      add\n        /* \"#utility.yul\":10514:10540   */\n      swap1\n      pop\n        /* \"#utility.yul\":10550:10627   */\n      tag_434\n        /* \"#utility.yul\":10624:10625   */\n      0x00\n        /* \"#utility.yul\":10613:10622   */\n      dup4\n        /* \"#utility.yul\":10609:10626   */\n      add\n        /* \"#utility.yul\":10600:10606   */\n      dup5\n        /* \"#utility.yul\":10550:10627   */\n      tag_349\n      jump\t// in\n    tag_434:\n        /* \"#utility.yul\":10400:10634   */\n      swap3\n      swap2\n      pop\n      pop\n      jump\t// out\n        /* \"#utility.yul\":10640:10953   */\n    tag_25:\n        /* \"#utility.yul\":10753:10757   */\n      0x00\n        /* \"#utility.yul\":10791:10793   */\n      0x20\n        /* \"#utility.yul\":10780:10789   */\n      dup3\n        /* \"#utility.yul\":10776:10794   */\n      add\n        /* \"#utility.yul\":10768:10794   */\n      swap1\n      pop\n        /* \"#utility.yul\":10840:10849   */\n      dup2\n        /* \"#utility.yul\":10834:10838   */\n      dup2\n        /* \"#utility.yul\":10830:10850   */\n      sub\n        /* \"#utility.yul\":10826:10827   */\n      0x00\n        /* \"#utility.yul\":10815:10824   */\n      dup4\n        /* \"#utility.yul\":10811:10828   */\n      add\n        /* \"#utility.yul\":10804:10851   */\n      mstore\n        /* \"#utility.yul\":10868:10946   */\n      tag_436\n        /* \"#utility.yul\":10941:10945   */\n      dup2\n        /* \"#utility.yul\":10932:10938   */\n      dup5\n        /* \"#utility.yul\":10868:10946   */\n      tag_353\n      jump\t// in\n    tag_436:\n        /* \"#utility.yul\":10860:10946   */\n      swap1\n      pop\n        /* \"#utility.yul\":10640:10953   */\n      swap3\n      swap2\n      pop\n      pop\n      jump\t// out\n        /* \"#utility.yul\":10959:11378   */\n    tag_203:\n        /* \"#utility.yul\":11125:11129   */\n      0x00\n        /* \"#utility.yul\":11163:11165   */\n      0x20\n        /* \"#utility.yul\":11152:11161   */\n      dup3\n        /* \"#utility.yul\":11148:11166   */\n      add\n        /* \"#utility.yul\":11140:11166   */\n      swap1\n      pop\n        /* \"#utility.yul\":11212:11221   */\n      dup2\n        /* \"#utility.yul\":11206:11210   */\n      dup2\n        /* \"#utility.yul\":11202:11222   */\n      sub\n        /* \"#utility.yul\":11198:11199   */\n      0x00\n        /* \"#utility.yul\":11187:11196   */\n      dup4\n        /* \"#utility.yul\":11183:11200   */\n      add\n        /* \"#utility.yul\":11176:11223   */\n      mstore\n        /* \"#utility.yul\":11240:11371   */\n      tag_438\n        /* \"#utility.yul\":11366:11370   */\n      dup2\n        /* \"#utility.yul\":11240:11371   */\n      tag_367\n      jump\t// in\n    tag_438:\n        /* \"#utility.yul\":11232:11371   */\n      swap1\n      pop\n        /* \"#utility.yul\":10959:11378   */\n      swap2\n      swap1\n      pop\n      jump\t// out\n        /* \"#utility.yul\":11384:11803   */\n    tag_231:\n        /* \"#utility.yul\":11550:11554   */\n      0x00\n        /* \"#utility.yul\":11588:11590   */\n      0x20\n        /* \"#utility.yul\":11577:11586   */\n      dup3\n        /* \"#utility.yul\":11573:11591   */\n      add\n        /* \"#utility.yul\":11565:11591   */\n      swap1\n      pop\n        /* \"#utility.yul\":11637:11646   */\n      dup2\n        /* \"#utility.yul\":11631:11635   */\n      dup2\n        /* \"#utility.yul\":11627:11647   */\n      sub\n        /* \"#utility.yul\":11623:11624   */\n      0x00\n        /* \"#utility.yul\":11612:11621   */\n      dup4\n        /* \"#utility.yul\":11608:11625   */\n      add\n        /* \"#utility.yul\":11601:11648   */\n      mstore\n        /* \"#utility.yul\":11665:11796   */\n      tag_440\n        /* \"#utility.yul\":11791:11795   */\n      dup2\n        /* \"#utility.yul\":11665:11796   */\n      tag_372\n      jump\t// in\n    tag_440:\n        /* \"#utility.yul\":11657:11796   */\n      swap1\n      pop\n        /* \"#utility.yul\":11384:11803   */\n      swap2\n      swap1\n      pop\n      jump\t// out\n        /* \"#utility.yul\":11809:12228   */\n    tag_171:\n        /* \"#utility.yul\":11975:11979   */\n      0x00\n        /* \"#utility.yul\":12013:12015   */\n      0x20\n        /* \"#utility.yul\":12002:12011   */\n      dup3\n        /* \"#utility.yul\":11998:12016   */\n      add\n        /* \"#utility.yul\":11990:12016   */\n      swap1\n      pop\n        /* \"#utility.yul\":12062:12071   */\n      dup2\n        /* \"#utility.yul\":12056:12060   */\n      dup2\n        /* \"#utility.yul\":12052:12072   */\n      sub\n        /* \"#utility.yul\":12048:12049   */\n      0x00\n        /* \"#utility.yul\":12037:12046   */\n      dup4\n        /* \"#utility.yul\":12033:12050   */\n      add\n        /* \"#utility.yul\":12026:12073   */\n      mstore\n        /* \"#utility.yul\":12090:12221   */\n      tag_442\n        /* \"#utility.yul\":12216:12220   */\n      dup2\n        /* \"#utility.yul\":12090:12221   */\n      tag_377\n      jump\t// in\n    tag_442:\n        /* \"#utility.yul\":12082:12221   */\n      swap1\n      pop\n        /* \"#utility.yul\":11809:12228   */\n      swap2\n      swap1\n      pop\n      jump\t// out\n        /* \"#utility.yul\":12234:12653   */\n    tag_106:\n        /* \"#utility.yul\":12400:12404   */\n      0x00\n        /* \"#utility.yul\":12438:12440   */\n      0x20\n        /* \"#utility.yul\":12427:12436   */\n      dup3\n        /* \"#utility.yul\":12423:12441   */\n      add\n        /* \"#utility.yul\":12415:12441   */\n      swap1\n      pop\n        /* \"#utility.yul\":12487:12496   */\n      dup2\n        /* \"#utility.yul\":12481:12485   */\n      dup2\n        /* \"#utility.yul\":12477:12497   */\n      sub\n        /* \"#utility.yul\":12473:12474   */\n      0x00\n        /* \"#utility.yul\":12462:12471   */\n      dup4\n        /* \"#utility.yul\":12458:12475   */\n      add\n        /* \"#utility.yul\":12451:12498   */\n      mstore\n        /* \"#utility.yul\":12515:12646   */\n      tag_444\n        /* \"#utility.yul\":12641:12645   */\n      dup2\n        /* \"#utility.yul\":12515:12646   */\n      tag_382\n      jump\t// in\n    tag_444:\n        /* \"#utility.yul\":12507:12646   */\n      swap1\n      pop\n        /* \"#utility.yul\":12234:12653   */\n      swap2\n      swap1\n      pop\n      jump\t// out\n        /* \"#utility.yul\":12659:13078   */\n    tag_115:\n        /* \"#utility.yul\":12825:12829   */\n      0x00\n        /* \"#utility.yul\":12863:12865   */\n      0x20\n        /* \"#utility.yul\":12852:12861   */\n      dup3\n        /* \"#utility.yul\":12848:12866   */\n      add\n        /* \"#utility.yul\":12840:12866   */\n      swap1\n      pop\n        /* \"#utility.yul\":12912:12921   */\n      dup2\n        /* \"#utility.yul\":12906:12910   */\n      dup2\n        /* \"#utility.yul\":12902:12922   */\n      sub\n        /* \"#utility.yul\":12898:12899   */\n      0x00\n        /* \"#utility.yul\":12887:12896   */\n      dup4\n        /* \"#utility.yul\":12883:12900   */\n      add\n        /* \"#utility.yul\":12876:12923   */\n      mstore\n        /* \"#utility.yul\":12940:13071   */\n      tag_446\n        /* \"#utility.yul\":13066:13070   */\n      dup2\n        /* \"#utility.yul\":12940:13071   */\n      tag_387\n      jump\t// in\n    tag_446:\n        /* \"#utility.yul\":12932:13071   */\n      swap1\n      pop\n        /* \"#utility.yul\":12659:13078   */\n      swap2\n      swap1\n      pop\n      jump\t// out\n        /* \"#utility.yul\":13084:13503   */\n    tag_227:\n        /* \"#utility.yul\":13250:13254   */\n      0x00\n        /* \"#utility.yul\":13288:13290   */\n      0x20\n        /* \"#utility.yul\":13277:13286   */\n      dup3\n        /* \"#utility.yul\":13273:13291   */\n      add\n        /* \"#utility.yul\":13265:13291   */\n      swap1\n      pop\n        /* \"#utility.yul\":13337:13346   */\n      dup2\n        /* \"#utility.yul\":13331:13335   */\n      dup2\n        /* \"#utility.yul\":13327:13347   */\n      sub\n        /* \"#utility.yul\":13323:13324   */\n      0x00\n        /* \"#utility.yul\":13312:13321   */\n      dup4\n        /* \"#utility.yul\":13308:13325   */\n      add\n        /* \"#utility.yul\":13301:13348   */\n      mstore\n        /* \"#utility.yul\":13365:13496   */\n      tag_448\n        /* \"#utility.yul\":13491:13495   */\n      dup2\n        /* \"#utility.yul\":13365:13496   */\n      tag_392\n      jump\t// in\n    tag_448:\n        /* \"#utility.yul\":13357:13496   */\n      swap1\n      pop\n        /* \"#utility.yul\":13084:13503   */\n      swap2\n      swap1\n      pop\n      jump\t// out\n        /* \"#utility.yul\":13509:13928   */\n    tag_102:\n        /* \"#utility.yul\":13675:13679   */\n      0x00\n        /* \"#utility.yul\":13713:13715   */\n      0x20\n        /* \"#utility.yul\":13702:13711   */\n      dup3\n        /* \"#utility.yul\":13698:13716   */\n      add\n        /* \"#utility.yul\":13690:13716   */\n      swap1\n      pop\n        /* \"#utility.yul\":13762:13771   */\n      dup2\n        /* \"#utility.yul\":13756:13760   */\n      dup2\n        /* \"#utility.yul\":13752:13772   */\n      sub\n        /* \"#utility.yul\":13748:13749   */\n      0x00\n        /* \"#utility.yul\":13737:13746   */\n      dup4\n        /* \"#utility.yul\":13733:13750   */\n      add\n        /* \"#utility.yul\":13726:13773   */\n      mstore\n        /* \"#utility.yul\":13790:13921   */\n      tag_450\n        /* \"#utility.yul\":13916:13920   */\n      dup2\n        /* \"#utility.yul\":13790:13921   */\n      tag_397\n      jump\t// in\n    tag_450:\n        /* \"#utility.yul\":13782:13921   */\n      swap1\n      pop\n        /* \"#utility.yul\":13509:13928   */\n      swap2\n      swap1\n      pop\n      jump\t// out\n        /* \"#utility.yul\":13934:14353   */\n    tag_86:\n        /* \"#utility.yul\":14100:14104   */\n      0x00\n        /* \"#utility.yul\":14138:14140   */\n      0x20\n        /* \"#utility.yul\":14127:14136   */\n      dup3\n        /* \"#utility.yul\":14123:14141   */\n      add\n        /* \"#utility.yul\":14115:14141   */\n      swap1\n      pop\n        /* \"#utility.yul\":14187:14196   */\n      dup2\n        /* \"#utility.yul\":14181:14185   */\n      dup2\n        /* \"#utility.yul\":14177:14197   */\n      sub\n        /* \"#utility.yul\":14173:14174   */\n      0x00\n        /* \"#utility.yul\":14162:14171   */\n      dup4\n        /* \"#utility.yul\":14158:14175   */\n      add\n        /* \"#utility.yul\":14151:14198   */\n      mstore\n        /* \"#utility.yul\":14215:14346   */\n      tag_452\n        /* \"#utility.yul\":14341:14345   */\n      dup2\n        /* \"#utility.yul\":14215:14346   */\n      tag_402\n      jump\t// in\n    tag_452:\n        /* \"#utility.yul\":14207:14346   */\n      swap1\n      pop\n        /* \"#utility.yul\":13934:14353   */\n      swap2\n      swap1\n      pop\n      jump\t// out\n        /* \"#utility.yul\":14359:14778   */\n    tag_94:\n        /* \"#utility.yul\":14525:14529   */\n      0x00\n        /* \"#utility.yul\":14563:14565   */\n      0x20\n        /* \"#utility.yul\":14552:14561   */\n      dup3\n        /* \"#utility.yul\":14548:14566   */\n      add\n        /* \"#utility.yul\":14540:14566   */\n      swap1\n      pop\n        /* \"#utility.yul\":14612:14621   */\n      dup2\n        /* \"#utility.yul\":14606:14610   */\n      dup2\n        /* \"#utility.yul\":14602:14622   */\n      sub\n        /* \"#utility.yul\":14598:14599   */\n      0x00\n        /* \"#utility.yul\":14587:14596   */\n      dup4\n        /* \"#utility.yul\":14583:14600   */\n      add\n        /* \"#utility.yul\":14576:14623   */\n      mstore\n        /* \"#utility.yul\":14640:14771   */\n      tag_454\n        /* \"#utility.yul\":14766:14770   */\n      dup2\n        /* \"#utility.yul\":14640:14771   */\n      tag_407\n      jump\t// in\n    tag_454:\n        /* \"#utility.yul\":14632:14771   */\n      swap1\n      pop\n        /* \"#utility.yul\":14359:14778   */\n      swap2\n      swap1\n      pop\n      jump\t// out\n        /* \"#utility.yul\":14784:15203   */\n    tag_161:\n        /* \"#utility.yul\":14950:14954   */\n      0x00\n        /* \"#utility.yul\":14988:14990   */\n      0x20\n        /* \"#utility.yul\":14977:14986   */\n      dup3\n        /* \"#utility.yul\":14973:14991   */\n      add\n        /* \"#utility.yul\":14965:14991   */\n      swap1\n      pop\n        /* \"#utility.yul\":15037:15046   */\n      dup2\n        /* \"#utility.yul\":15031:15035   */\n      dup2\n        /* \"#utility.yul\":15027:15047   */\n      sub\n        /* \"#utility.yul\":15023:15024   */\n      0x00\n        /* \"#utility.yul\":15012:15021   */\n      dup4\n        /* \"#utility.yul\":15008:15025   */\n      add\n        /* \"#utility.yul\":15001:15048   */\n      mstore\n        /* \"#utility.yul\":15065:15196   */\n      tag_456\n        /* \"#utility.yul\":15191:15195   */\n      dup2\n        /* \"#utility.yul\":15065:15196   */\n      tag_412\n      jump\t// in\n    tag_456:\n        /* \"#utility.yul\":15057:15196   */\n      swap1\n      pop\n        /* \"#utility.yul\":14784:15203   */\n      swap2\n      swap1\n      pop\n      jump\t// out\n        /* \"#utility.yul\":15209:15431   */\n    tag_45:\n        /* \"#utility.yul\":15302:15306   */\n      0x00\n        /* \"#utility.yul\":15340:15342   */\n      0x20\n        /* \"#utility.yul\":15329:15338   */\n      dup3\n        /* \"#utility.yul\":15325:15343   */\n      add\n        /* \"#utility.yul\":15317:15343   */\n      swap1\n      pop\n        /* \"#utility.yul\":15353:15424   */\n      tag_458\n        /* \"#utility.yul\":15421:15422   */\n      0x00\n        /* \"#utility.yul\":15410:15419   */\n      dup4\n        /* \"#utility.yul\":15406:15423   */\n      add\n        /* \"#utility.yul\":15397:15403   */\n      dup5\n        /* \"#utility.yul\":15353:15424   */\n      tag_417\n      jump\t// in\n    tag_458:\n        /* \"#utility.yul\":15209:15431   */\n      swap3\n      swap2\n      pop\n      pop\n      jump\t// out\n        /* \"#utility.yul\":15518:15616   */\n    tag_342:\n        /* \"#utility.yul\":15569:15575   */\n      0x00\n        /* \"#utility.yul\":15603:15608   */\n      dup2\n        /* \"#utility.yul\":15597:15609   */\n      mload\n        /* \"#utility.yul\":15587:15609   */\n      swap1\n      pop\n        /* \"#utility.yul\":15518:15616   */\n      swap2\n      swap1\n      pop\n      jump\t// out\n        /* \"#utility.yul\":15622:15721   */\n    tag_356:\n        /* \"#utility.yul\":15674:15680   */\n      0x00\n        /* \"#utility.yul\":15708:15713   */\n      dup2\n        /* \"#utility.yul\":15702:15714   */\n      mload\n        /* \"#utility.yul\":15692:15714   */\n      swap1\n      pop\n        /* \"#utility.yul\":15622:15721   */\n      swap2\n      swap1\n      pop\n      jump\t// out\n        /* \"#utility.yul\":15727:15895   */\n    tag_344:\n        /* \"#utility.yul\":15810:15821   */\n      0x00\n        /* \"#utility.yul\":15844:15850   */\n      dup3\n        /* \"#utility.yul\":15839:15842   */\n      dup3\n        /* \"#utility.yul\":15832:15851   */\n      mstore\n        /* \"#utility.yul\":15884:15888   */\n      0x20\n        /* \"#utility.yul\":15879:15882   */\n      dup3\n        /* \"#utility.yul\":15875:15889   */\n      add\n        /* \"#utility.yul\":15860:15889   */\n      swap1\n      pop\n        /* \"#utility.yul\":15727:15895   */\n      swap3\n      swap2\n      pop\n      pop\n      jump\t// out\n        /* \"#utility.yul\":15901:16070   */\n    tag_358:\n        /* \"#utility.yul\":15985:15996   */\n      0x00\n        /* \"#utility.yul\":16019:16025   */\n      dup3\n        /* \"#utility.yul\":16014:16017   */\n      dup3\n        /* \"#utility.yul\":16007:16026   */\n      mstore\n        /* \"#utility.yul\":16059:16063   */\n      0x20\n        /* \"#utility.yul\":16054:16057   */\n      dup3\n        /* \"#utility.yul\":16050:16064   */\n      add\n        /* \"#utility.yul\":16035:16064   */\n      swap1\n      pop\n        /* \"#utility.yul\":15901:16070   */\n      swap3\n      swap2\n      pop\n      pop\n      jump\t// out\n        /* \"#utility.yul\":16076:16224   */\n    tag_365:\n        /* \"#utility.yul\":16178:16189   */\n      0x00\n        /* \"#utility.yul\":16215:16218   */\n      dup2\n        /* \"#utility.yul\":16200:16218   */\n      swap1\n      pop\n        /* \"#utility.yul\":16076:16224   */\n      swap3\n      swap2\n      pop\n      pop\n      jump\t// out\n        /* \"#utility.yul\":16230:16535   */\n    tag_267:\n        /* \"#utility.yul\":16270:16273   */\n      0x00\n        /* \"#utility.yul\":16289:16309   */\n      tag_467\n        /* \"#utility.yul\":16307:16308   */\n      dup3\n        /* \"#utility.yul\":16289:16309   */\n      tag_420\n      jump\t// in\n    tag_467:\n        /* \"#utility.yul\":16284:16309   */\n      swap2\n      pop\n        /* \"#utility.yul\":16323:16343   */\n      tag_468\n        /* \"#utility.yul\":16341:16342   */\n      dup4\n        /* \"#utility.yul\":16323:16343   */\n      tag_420\n      jump\t// in\n    tag_468:\n        /* \"#utility.yul\":16318:16343   */\n      swap3\n      pop\n        /* \"#utility.yul\":16477:16478   */\n      dup3\n        /* \"#utility.yul\":16409:16475   */\n      0xffffffffffffffffffffffffffffffffffffffffffffffffffffffffffffffff\n        /* \"#utility.yul\":16405:16479   */\n      sub\n        /* \"#utility.yul\":16402:16403   */\n      dup3\n        /* \"#utility.yul\":16399:16480   */\n      gt\n        /* \"#utility.yul\":16396:16503   */\n      iszero\n      tag_469\n      jumpi\n        /* \"#utility.yul\":16483:16501   */\n      tag_470\n      tag_471\n      jump\t// in\n    tag_470:\n        /* \"#utility.yul\":16396:16503   */\n    tag_469:\n        /* \"#utility.yul\":16527:16528   */\n      dup3\n        /* \"#utility.yul\":16524:16525   */\n      dup3\n        /* \"#utility.yul\":16520:16529   */\n      add\n        /* \"#utility.yul\":16513:16529   */\n      swap1\n      pop\n        /* \"#utility.yul\":16230:16535   */\n      swap3\n      swap2\n      pop\n      pop\n      jump\t// out\n        /* \"#utility.yul\":16541:16732   */\n    tag_264:\n        /* \"#utility.yul\":16581:16585   */\n      0x00\n        /* \"#utility.yul\":16601:16621   */\n      tag_473\n        /* \"#utility.yul\":16619:16620   */\n      dup3\n        /* \"#utility.yul\":16601:16621   */\n      tag_420\n      jump\t// in\n    tag_473:\n        /* \"#utility.yul\":16596:16621   */\n      swap2\n      pop\n        /* \"#utility.yul\":16635:16655   */\n      tag_474\n        /* \"#utility.yul\":16653:16654   */\n      dup4\n        /* \"#utility.yul\":16635:16655   */\n      tag_420\n      jump\t// in\n    tag_474:\n        /* \"#utility.yul\":16630:16655   */\n      swap3\n      pop\n        /* \"#utility.yul\":16674:16675   */\n      dup3\n        /* \"#utility.yul\":16671:16672   */\n      dup3\n        /* \"#utility.yul\":16668:16676   */\n      lt\n        /* \"#utility.yul\":16665:16699   */\n      iszero\n      tag_475\n      jumpi\n        /* \"#utility.yul\":16679:16697   */\n      tag_476\n      tag_471\n      jump\t// in\n    tag_476:\n        /* \"#utility.yul\":16665:16699   */\n    tag_475:\n        /* \"#utility.yul\":16724:16725   */\n      dup3\n        /* \"#utility.yul\":16721:16722   */\n      dup3\n        /* \"#utility.yul\":16717:16726   */\n      sub\n        /* \"#utility.yul\":16709:16726   */\n      swap1\n      pop\n        /* \"#utility.yul\":16541:16732   */\n      swap3\n      swap2\n      pop\n      pop\n      jump\t// out\n        /* \"#utility.yul\":16738:16834   */\n    tag_334:\n        /* \"#utility.yul\":16775:16782   */\n      0x00\n        /* \"#utility.yul\":16804:16828   */\n      tag_478\n        /* \"#utility.yul\":16822:16827   */\n      dup3\n        /* \"#utility.yul\":16804:16828   */\n      tag_479\n      jump\t// in\n    tag_478:\n        /* \"#utility.yul\":16793:16828   */\n      swap1\n      pop\n        /* \"#utility.yul\":16738:16834   */\n      swap2\n      swap1\n      pop\n      jump\t// out\n        /* \"#utility.yul\":16840:16930   */\n    tag_338:\n        /* \"#utility.yul\":16874:16881   */\n      0x00\n        /* \"#utility.yul\":16917:16922   */\n      dup2\n        /* \"#utility.yul\":16910:16923   */\n      iszero\n        /* \"#utility.yul\":16903:16924   */\n      iszero\n        /* \"#utility.yul\":16892:16924   */\n      swap1\n      pop\n        /* \"#utility.yul\":16840:16930   */\n      swap2\n      swap1\n      pop\n      jump\t// out\n        /* \"#utility.yul\":16936:17085   */\n    tag_481:\n        /* \"#utility.yul\":16972:16979   */\n      0x00\n        /* \"#utility.yul\":17012:17078   */\n      0xffffffff00000000000000000000000000000000000000000000000000000000\n        /* \"#utility.yul\":17005:17010   */\n      dup3\n        /* \"#utility.yul\":17001:17079   */\n      and\n        /* \"#utility.yul\":16990:17079   */\n      swap1\n      pop\n        /* \"#utility.yul\":16936:17085   */\n      swap2\n      swap1\n      pop\n      jump\t// out\n        /* \"#utility.yul\":17091:17217   */\n    tag_479:\n        /* \"#utility.yul\":17128:17135   */\n      0x00\n        /* \"#utility.yul\":17168:17210   */\n      0xffffffffffffffffffffffffffffffffffffffff\n        /* \"#utility.yul\":17161:17166   */\n      dup3\n        /* \"#utility.yul\":17157:17211   */\n      and\n        /* \"#utility.yul\":17146:17211   */\n      swap1\n      pop\n        /* \"#utility.yul\":17091:17217   */\n      swap2\n      swap1\n      pop\n      jump\t// out\n        /* \"#utility.yul\":17223:17300   */\n    tag_420:\n        /* \"#utility.yul\":17260:17267   */\n      0x00\n        /* \"#utility.yul\":17289:17294   */\n      dup2\n        /* \"#utility.yul\":17278:17294   */\n      swap1\n      pop\n        /* \"#utility.yul\":17223:17300   */\n      swap2\n      swap1\n      pop\n      jump\t// out\n        /* \"#utility.yul\":17306:17392   */\n    tag_485:\n        /* \"#utility.yul\":17341:17348   */\n      0x00\n        /* \"#utility.yul\":17381:17385   */\n      0xff\n        /* \"#utility.yul\":17374:17379   */\n      dup3\n        /* \"#utility.yul\":17370:17386   */\n      and\n        /* \"#utility.yul\":17359:17386   */\n      swap1\n      pop\n        /* \"#utility.yul\":17306:17392   */\n      swap2\n      swap1\n      pop\n      jump\t// out\n        /* \"#utility.yul\":17398:17515   */\n    tag_352:\n        /* \"#utility.yul\":17454:17463   */\n      0x00\n        /* \"#utility.yul\":17487:17509   */\n      tag_488\n        /* \"#utility.yul\":17503:17508   */\n      dup3\n        /* \"#utility.yul\":17487:17509   */\n      tag_485\n      jump\t// in\n    tag_488:\n        /* \"#utility.yul\":17474:17509   */\n      swap1\n      pop\n        /* \"#utility.yul\":17398:17515   */\n      swap2\n      swap1\n      pop\n      jump\t// out\n        /* \"#utility.yul\":17521:17828   */\n    tag_346:\n        /* \"#utility.yul\":17589:17590   */\n      0x00\n        /* \"#utility.yul\":17599:17712   */\n    tag_490:\n        /* \"#utility.yul\":17613:17619   */\n      dup4\n        /* \"#utility.yul\":17610:17611   */\n      dup2\n        /* \"#utility.yul\":17607:17620   */\n      lt\n        /* \"#utility.yul\":17599:17712   */\n      iszero\n      tag_492\n      jumpi\n        /* \"#utility.yul\":17698:17699   */\n      dup1\n        /* \"#utility.yul\":17693:17696   */\n      dup3\n        /* \"#utility.yul\":17689:17700   */\n      add\n        /* \"#utility.yul\":17683:17701   */\n      mload\n        /* \"#utility.yul\":17679:17680   */\n      dup2\n        /* \"#utility.yul\":17674:17677   */\n      dup5\n        /* \"#utility.yul\":17670:17681   */\n      add\n        /* \"#utility.yul\":17663:17702   */\n      mstore\n        /* \"#utility.yul\":17635:17637   */\n      0x20\n        /* \"#utility.yul\":17632:17633   */\n      dup2\n        /* \"#utility.yul\":17628:17638   */\n      add\n        /* \"#utility.yul\":17623:17638   */\n      swap1\n      pop\n        /* \"#utility.yul\":17599:17712   */\n      jump(tag_490)\n    tag_492:\n        /* \"#utility.yul\":17730:17736   */\n      dup4\n        /* \"#utility.yul\":17727:17728   */\n      dup2\n        /* \"#utility.yul\":17724:17737   */\n      gt\n        /* \"#utility.yul\":17721:17822   */\n      iszero\n      tag_493\n      jumpi\n        /* \"#utility.yul\":17810:17811   */\n      0x00\n        /* \"#utility.yul\":17801:17807   */\n      dup5\n        /* \"#utility.yul\":17796:17799   */\n      dup5\n        /* \"#utility.yul\":17792:17808   */\n      add\n        /* \"#utility.yul\":17785:17812   */\n      mstore\n        /* \"#utility.yul\":17721:17822   */\n    tag_493:\n        /* \"#utility.yul\":17570:17828   */\n      pop\n        /* \"#utility.yul\":17521:17828   */\n      pop\n      pop\n      pop\n      jump\t// out\n        /* \"#utility.yul\":17834:18154   */\n    tag_74:\n        /* \"#utility.yul\":17878:17884   */\n      0x00\n        /* \"#utility.yul\":17915:17916   */\n      0x02\n        /* \"#utility.yul\":17909:17913   */\n      dup3\n        /* \"#utility.yul\":17905:17917   */\n      div\n        /* \"#utility.yul\":17895:17917   */\n      swap1\n      pop\n        /* \"#utility.yul\":17962:17963   */\n      0x01\n        /* \"#utility.yul\":17956:17960   */\n      dup3\n        /* \"#utility.yul\":17952:17964   */\n      and\n        /* \"#utility.yul\":17983:18001   */\n      dup1\n        /* \"#utility.yul\":17973:18054   */\n      tag_495\n      jumpi\n        /* \"#utility.yul\":18039:18043   */\n      0x7f\n        /* \"#utility.yul\":18031:18037   */\n      dup3\n        /* \"#utility.yul\":18027:18044   */\n      and\n        /* \"#utility.yul\":18017:18044   */\n      swap2\n      pop\n        /* \"#utility.yul\":17973:18054   */\n    tag_495:\n        /* \"#utility.yul\":18101:18103   */\n      0x20\n        /* \"#utility.yul\":18093:18099   */\n      dup3\n        /* \"#utility.yul\":18090:18104   */\n      lt\n        /* \"#utility.yul\":18070:18088   */\n      dup2\n        /* \"#utility.yul\":18067:18105   */\n      eq\n        /* \"#utility.yul\":18064:18148   */\n      iszero\n      tag_496\n      jumpi\n        /* \"#utility.yul\":18120:18138   */\n      tag_497\n      tag_498\n      jump\t// in\n    tag_497:\n        /* \"#utility.yul\":18064:18148   */\n    tag_496:\n        /* \"#utility.yul\":17885:18154   */\n      pop\n        /* \"#utility.yul\":17834:18154   */\n      swap2\n      swap1\n      pop\n      jump\t// out\n        /* \"#utility.yul\":18160:18340   */\n    tag_471:\n        /* \"#utility.yul\":18208:18285   */\n      0x4e487b7100000000000000000000000000000000000000000000000000000000\n        /* \"#utility.yul\":18205:18206   */\n      0x00\n        /* \"#utility.yul\":18198:18286   */\n      mstore\n        /* \"#utility.yul\":18305:18309   */\n      0x11\n        /* \"#utility.yul\":18302:18303   */\n      0x04\n        /* \"#utility.yul\":18295:18310   */\n      mstore\n        /* \"#utility.yul\":18329:18333   */\n      0x24\n        /* \"#utility.yul\":18326:18327   */\n      0x00\n        /* \"#utility.yul\":18319:18334   */\n      revert\n        /* \"#utility.yul\":18346:18526   */\n    tag_185:\n        /* \"#utility.yul\":18394:18471   */\n      0x4e487b7100000000000000000000000000000000000000000000000000000000\n        /* \"#utility.yul\":18391:18392   */\n      0x00\n        /* \"#utility.yul\":18384:18472   */\n      mstore\n        /* \"#utility.yul\":18491:18495   */\n      0x12\n        /* \"#utility.yul\":18488:18489   */\n      0x04\n        /* \"#utility.yul\":18481:18496   */\n      mstore\n        /* \"#utility.yul\":18515:18519   */\n      0x24\n        /* \"#utility.yul\":18512:18513   */\n      0x00\n        /* \"#utility.yul\":18505:18520   */\n      revert\n        /* \"#utility.yul\":18532:18712   */\n    tag_498:\n        /* \"#utility.yul\":18580:18657   */\n      0x4e487b7100000000000000000000000000000000000000000000000000000000\n        /* \"#utility.yul\":18577:18578   */\n      0x00\n        /* \"#utility.yul\":18570:18658   */\n      mstore\n        /* \"#utility.yul\":18677:18681   */\n      0x22\n        /* \"#utility.yul\":18674:18675   */\n      0x04\n        /* \"#utility.yul\":18667:18682   */\n      mstore\n        /* \"#utility.yul\":18701:18705   */\n      0x24\n        /* \"#utility.yul\":18698:18699   */\n      0x00\n        /* \"#utility.yul\":18691:18706   */\n      revert\n        /* \"#utility.yul\":18718:18898   */\n    tag_179:\n        /* \"#utility.yul\":18766:18843   */\n      0x4e487b7100000000000000000000000000000000000000000000000000000000\n        /* \"#utility.yul\":18763:18764   */\n      0x00\n        /* \"#utility.yul\":18756:18844   */\n      mstore\n        /* \"#utility.yul\":18863:18867   */\n      0x41\n        /* \"#utility.yul\":18860:18861   */\n      0x04\n        /* \"#utility.yul\":18853:18868   */\n      mstore\n        /* \"#utility.yul\":18887:18891   */\n      0x24\n        /* \"#utility.yul\":18884:18885   */\n      0x00\n        /* \"#utility.yul\":18877:18892   */\n      revert\n        /* \"#utility.yul\":19027:19144   */\n    tag_302:\n        /* \"#utility.yul\":19136:19137   */\n      0x00\n        /* \"#utility.yul\":19133:19134   */\n      dup1\n        /* \"#utility.yul\":19126:19138   */\n      revert\n        /* \"#utility.yul\":19150:19252   */\n    tag_348:\n        /* \"#utility.yul\":19191:19197   */\n      0x00\n        /* \"#utility.yul\":19242:19244   */\n      0x1f\n        /* \"#utility.yul\":19238:19245   */\n      not\n        /* \"#utility.yul\":19233:19235   */\n      0x1f\n        /* \"#utility.yul\":19226:19231   */\n      dup4\n        /* \"#utility.yul\":19222:19236   */\n      add\n        /* \"#utility.yul\":19218:19246   */\n      and\n        /* \"#utility.yul\":19208:19246   */\n      swap1\n      pop\n        /* \"#utility.yul\":19150:19252   */\n      swap2\n      swap1\n      pop\n      jump\t// out\n        /* \"#utility.yul\":19258:19495   */\n    tag_371:\n        /* \"#utility.yul\":19398:19432   */\n      0x4552433732313a207472616e7366657220746f206e6f6e204552433732315265\n        /* \"#utility.yul\":19394:19395   */\n      0x00\n        /* \"#utility.yul\":19386:19392   */\n      dup3\n        /* \"#utility.yul\":19382:19396   */\n      add\n        /* \"#utility.yul\":19375:19433   */\n      mstore\n        /* \"#utility.yul\":19467:19487   */\n      0x63656976657220696d706c656d656e7465720000000000000000000000000000\n        /* \"#utility.yul\":19462:19464   */\n      0x20\n        /* \"#utility.yul\":19454:19460   */\n      dup3\n        /* \"#utility.yul\":19450:19465   */\n      add\n        /* \"#utility.yul\":19443:19488   */\n      mstore\n        /* \"#utility.yul\":19258:19495   */\n      pop\n      jump\t// out\n        /* \"#utility.yul\":19501:19679   */\n    tag_376:\n        /* \"#utility.yul\":19641:19671   */\n      0x4552433732313a20746f6b656e20616c7265616479206d696e74656400000000\n        /* \"#utility.yul\":19637:19638   */\n      0x00\n        /* \"#utility.yul\":19629:19635   */\n      dup3\n        /* \"#utility.yul\":19625:19639   */\n      add\n        /* \"#utility.yul\":19618:19672   */\n      mstore\n        /* \"#utility.yul\":19501:19679   */\n      pop\n      jump\t// out\n        /* \"#utility.yul\":19685:19860   */\n    tag_381:\n        /* \"#utility.yul\":19825:19852   */\n      0x4552433732313a20617070726f766520746f2063616c6c657200000000000000\n        /* \"#utility.yul\":19821:19822   */\n      0x00\n        /* \"#utility.yul\":19813:19819   */\n      dup3\n        /* \"#utility.yul\":19809:19823   */\n      add\n        /* \"#utility.yul\":19802:19853   */\n      mstore\n        /* \"#utility.yul\":19685:19860   */\n      pop\n      jump\t// out\n        /* \"#utility.yul\":19866:20094   */\n    tag_386:\n        /* \"#utility.yul\":20006:20040   */\n      0x4552433732313a2061646472657373207a65726f206973206e6f742061207661\n        /* \"#utility.yul\":20002:20003   */\n      0x00\n        /* \"#utility.yul\":19994:20000   */\n      dup3\n        /* \"#utility.yul\":19990:20004   */\n      add\n        /* \"#utility.yul\":19983:20041   */\n      mstore\n        /* \"#utility.yul\":20075:20086   */\n      0x6c6964206f776e65720000000000000000000000000000000000000000000000\n        /* \"#utility.yul\":20070:20072   */\n      0x20\n        /* \"#utility.yul\":20062:20068   */\n      dup3\n        /* \"#utility.yul\":20058:20073   */\n      add\n        /* \"#utility.yul\":20051:20087   */\n      mstore\n        /* \"#utility.yul\":19866:20094   */\n      pop\n      jump\t// out\n        /* \"#utility.yul\":20100:20333   */\n    tag_391:\n        /* \"#utility.yul\":20240:20274   */\n      0x496e697469616c697a61626c653a20636f6e747261637420697320616c726561\n        /* \"#utility.yul\":20236:20237   */\n      0x00\n        /* \"#utility.yul\":20228:20234   */\n      dup3\n        /* \"#utility.yul\":20224:20238   */\n      add\n        /* \"#utility.yul\":20217:20275   */\n      mstore\n        /* \"#utility.yul\":20309:20325   */\n      0x647920696e697469616c697a6564000000000000000000000000000000000000\n        /* \"#utility.yul\":20304:20306   */\n      0x20\n        /* \"#utility.yul\":20296:20302   */\n      dup3\n        /* \"#utility.yul\":20292:20307   */\n      add\n        /* \"#utility.yul\":20285:20326   */\n      mstore\n        /* \"#utility.yul\":20100:20333   */\n      pop\n      jump\t// out\n        /* \"#utility.yul\":20339:20521   */\n    tag_396:\n        /* \"#utility.yul\":20479:20513   */\n      0x4552433732313a206d696e7420746f20746865207a65726f2061646472657373\n        /* \"#utility.yul\":20475:20476   */\n      0x00\n        /* \"#utility.yul\":20467:20473   */\n      dup3\n        /* \"#utility.yul\":20463:20477   */\n      add\n        /* \"#utility.yul\":20456:20514   */\n      mstore\n        /* \"#utility.yul\":20339:20521   */\n      pop\n      jump\t// out\n        /* \"#utility.yul\":20527:20701   */\n    tag_401:\n        /* \"#utility.yul\":20667:20693   */\n      0x4552433732313a20696e76616c696420746f6b656e2049440000000000000000\n        /* \"#utility.yul\":20663:20664   */\n      0x00\n        /* \"#utility.yul\":20655:20661   */\n      dup3\n        /* \"#utility.yul\":20651:20665   */\n      add\n        /* \"#utility.yul\":20644:20694   */\n      mstore\n        /* \"#utility.yul\":20527:20701   */\n      pop\n      jump\t// out\n        /* \"#utility.yul\":20707:20927   */\n    tag_406:\n        /* \"#utility.yul\":20847:20881   */\n      0x4552433732313a20617070726f76616c20746f2063757272656e74206f776e65\n        /* \"#utility.yul\":20843:20844   */\n      0x00\n        /* \"#utility.yul\":20835:20841   */\n      dup3\n        /* \"#utility.yul\":20831:20845   */\n      add\n        /* \"#utility.yul\":20824:20882   */\n      mstore\n        /* \"#utility.yul\":20916:20919   */\n      0x7200000000000000000000000000000000000000000000000000000000000000\n        /* \"#utility.yul\":20911:20913   */\n      0x20\n        /* \"#utility.yul\":20903:20909   */\n      dup3\n        /* \"#utility.yul\":20899:20914   */\n      add\n        /* \"#utility.yul\":20892:20920   */\n      mstore\n        /* \"#utility.yul\":20707:20927   */\n      pop\n      jump\t// out\n        /* \"#utility.yul\":20933:21181   */\n    tag_411:\n        /* \"#utility.yul\":21073:21107   */\n      0x4552433732313a20617070726f76652063616c6c6572206973206e6f7420746f\n        /* \"#utility.yul\":21069:21070   */\n      0x00\n        /* \"#utility.yul\":21061:21067   */\n      dup3\n        /* \"#utility.yul\":21057:21071   */\n      add\n        /* \"#utility.yul\":21050:21108   */\n      mstore\n        /* \"#utility.yul\":21142:21173   */\n      0x6b656e206f776e6572206f7220617070726f76656420666f7220616c6c000000\n        /* \"#utility.yul\":21137:21139   */\n      0x20\n        /* \"#utility.yul\":21129:21135   */\n      dup3\n        /* \"#utility.yul\":21125:21140   */\n      add\n        /* \"#utility.yul\":21118:21174   */\n      mstore\n        /* \"#utility.yul\":20933:21181   */\n      pop\n      jump\t// out\n        /* \"#utility.yul\":21187:21417   */\n    tag_416:\n        /* \"#utility.yul\":21327:21361   */\n      0x496e697469616c697a61626c653a20636f6e7472616374206973206e6f742069\n        /* \"#utility.yul\":21323:21324   */\n      0x00\n        /* \"#utility.yul\":21315:21321   */\n      dup3\n        /* \"#utility.yul\":21311:21325   */\n      add\n        /* \"#utility.yul\":21304:21362   */\n      mstore\n        /* \"#utility.yul\":21396:21409   */\n      0x6e697469616c697a696e67000000000000000000000000000000000000000000\n        /* \"#utility.yul\":21391:21393   */\n      0x20\n        /* \"#utility.yul\":21383:21389   */\n      dup3\n        /* \"#utility.yul\":21379:21394   */\n      add\n        /* \"#utility.yul\":21372:21410   */\n      mstore\n        /* \"#utility.yul\":21187:21417   */\n      pop\n      jump\t// out\n        /* \"#utility.yul\":21423:21545   */\n    tag_283:\n        /* \"#utility.yul\":21496:21520   */\n      tag_518\n        /* \"#utility.yul\":21514:21519   */\n      dup2\n        /* \"#utility.yul\":21496:21520   */\n      tag_334\n      jump\t// in\n    tag_518:\n        /* \"#utility.yul\":21489:21494   */\n      dup2\n        /* \"#utility.yul\":21486:21521   */\n      eq\n        /* \"#utility.yul\":21476:21539   */\n      tag_519\n      jumpi\n        /* \"#utility.yul\":21535:21536   */\n      0x00\n        /* \"#utility.yul\":21532:21533   */\n      dup1\n        /* \"#utility.yul\":21525:21537   */\n      revert\n        /* \"#utility.yul\":21476:21539   */\n    tag_519:\n        /* \"#utility.yul\":21423:21545   */\n      pop\n      jump\t// out\n        /* \"#utility.yul\":21551:21667   */\n    tag_287:\n        /* \"#utility.yul\":21621:21642   */\n      tag_521\n        /* \"#utility.yul\":21636:21641   */\n      dup2\n        /* \"#utility.yul\":21621:21642   */\n      tag_338\n      jump\t// in\n    tag_521:\n        /* \"#utility.yul\":21614:21619   */\n      dup2\n        /* \"#utility.yul\":21611:21643   */\n      eq\n        /* \"#utility.yul\":21601:21661   */\n      tag_522\n      jumpi\n        /* \"#utility.yul\":21657:21658   */\n      0x00\n        /* \"#utility.yul\":21654:21655   */\n      dup1\n        /* \"#utility.yul\":21647:21659   */\n      revert\n        /* \"#utility.yul\":21601:21661   */\n    tag_522:\n        /* \"#utility.yul\":21551:21667   */\n      pop\n      jump\t// out\n        /* \"#utility.yul\":21673:21793   */\n    tag_291:\n        /* \"#utility.yul\":21745:21768   */\n      tag_524\n        /* \"#utility.yul\":21762:21767   */\n      dup2\n        /* \"#utility.yul\":21745:21768   */\n      tag_481\n      jump\t// in\n    tag_524:\n        /* \"#utility.yul\":21738:21743   */\n      dup2\n        /* \"#utility.yul\":21735:21769   */\n      eq\n        /* \"#utility.yul\":21725:21787   */\n      tag_525\n      jumpi\n        /* \"#utility.yul\":21783:21784   */\n      0x00\n        /* \"#utility.yul\":21780:21781   */\n      dup1\n        /* \"#utility.yul\":21773:21785   */\n      revert\n        /* \"#utility.yul\":21725:21787   */\n    tag_525:\n        /* \"#utility.yul\":21673:21793   */\n      pop\n      jump\t// out\n        /* \"#utility.yul\":21799:21921   */\n    tag_298:\n        /* \"#utility.yul\":21872:21896   */\n      tag_527\n        /* \"#utility.yul\":21890:21895   */\n      dup2\n        /* \"#utility.yul\":21872:21896   */\n      tag_420\n      jump\t// in\n    tag_527:\n        /* \"#utility.yul\":21865:21870   */\n      dup2\n        /* \"#utility.yul\":21862:21897   */\n      eq\n        /* \"#utility.yul\":21852:21915   */\n      tag_528\n      jumpi\n        /* \"#utility.yul\":21911:21912   */\n      0x00\n        /* \"#utility.yul\":21908:21909   */\n      dup1\n        /* \"#utility.yul\":21901:21913   */\n      revert\n        /* \"#utility.yul\":21852:21915   */\n    tag_528:\n        /* \"#utility.yul\":21799:21921   */\n      pop\n      jump\t// out\n\n    auxdata: 0xa2646970667358221220063c6e0b2e851d39a73ed78cbf34fafb3166b991b89504a5f43bc6f1e46a8cf764736f6c63430008070033\n}\n",
				"bytecode": {
					"linkReferences": {},
					"object": "60806040523480156200001157600080fd5b50620000226200002860201b60201c565b620001d3565b600060019054906101000a900460ff16156200007b576040517f08c379a0000000000000000000000000000000000000000000000000000000008152600401620000729062000127565b60405180910390fd5b60ff801660008054906101000a900460ff1660ff161015620000ed5760ff6000806101000a81548160ff021916908360ff1602179055507f7f26b83ff96e1f2b6a682f133852f6798a09c465da95921460cefb384740249860ff604051620000e4919062000149565b60405180910390a15b565b6000620000fe60278362000166565b91506200010b8262000184565b604082019050919050565b620001218162000177565b82525050565b600060208201905081810360008301526200014281620000ef565b9050919050565b600060208201905062000160600083018462000116565b92915050565b600082825260208201905092915050565b600060ff82169050919050565b7f496e697469616c697a61626c653a20636f6e747261637420697320696e69746960008201527f616c697a696e6700000000000000000000000000000000000000000000000000602082015250565b61228080620001e36000396000f3fe608060405234801561001057600080fd5b50600436106100b45760003560e01c80638129fc1c116100715780638129fc1c146101b357806395d89b41146101bd578063a1448194146101db578063a22cb465146101f7578063c87b56dd14610213578063e985e9c514610243576100b4565b806301ffc9a7146100b957806306fdde03146100e9578063081812fc14610107578063095ea7b3146101375780636352211e1461015357806370a0823114610183575b600080fd5b6100d360048036038101906100ce91906117d7565b610273565b6040516100e09190611b26565b60405180910390f35b6100f1610355565b6040516100fe9190611b5c565b60405180910390f35b610121600480360381019061011c9190611831565b6103e7565b60405161012e9190611abf565b60405180910390f35b610151600480360381019061014c9190611797565b61042d565b005b61016d60048036038101906101689190611831565b610545565b60405161017a9190611abf565b60405180910390f35b61019d600480360381019061019891906116ea565b6105cc565b6040516101aa9190611cbe565b60405180910390f35b6101bb610684565b005b6101c561082e565b6040516101d29190611b5c565b60405180910390f35b6101f560048036038101906101f09190611797565b6108c0565b005b610211600480360381019061020c9190611757565b6108ce565b005b61022d60048036038101906102289190611831565b6108e4565b60405161023a9190611b5c565b60405180910390f35b61025d60048036038101906102589190611717565b61094c565b60405161026a9190611b26565b60405180910390f35b60007f591d4bc0000000000000000000000000000000000000000000000000000000007bffffffffffffffffffffffffffffffffffffffffffffffffffffffff1916827bffffffffffffffffffffffffffffffffffffffffffffffffffffffff1916148061033e57507f5b5e139f000000000000000000000000000000000000000000000000000000007bffffffffffffffffffffffffffffffffffffffffffffffffffffffff1916827bffffffffffffffffffffffffffffffffffffffffffffffffffffffff1916145b8061034e575061034d826109e0565b5b9050919050565b60606065805461036490611e6c565b80601f016020809104026020016040519081016040528092919081815260200182805461039090611e6c565b80156103dd5780601f106103b2576101008083540402835291602001916103dd565b820191906000526020600020905b8154815290600101906020018083116103c057829003601f168201915b5050505050905090565b60006103f282610a4a565b6069600083815260200190815260200160002060009054906101000a900473ffffffffffffffffffffffffffffffffffffffff169050919050565b600061043882610545565b90508073ffffffffffffffffffffffffffffffffffffffff168373ffffffffffffffffffffffffffffffffffffffff1614156104a9576040517f08c379a00000000000000000000000000000000000000000000000000000000081526004016104a090611c5e565b60405180910390fd5b8073ffffffffffffffffffffffffffffffffffffffff166104c8610a95565b73ffffffffffffffffffffffffffffffffffffffff1614806104f757506104f6816104f1610a95565b61094c565b5b610536576040517f08c379a000000000000000000000000000000000000000000000000000000000815260040161052d90611c7e565b60405180910390fd5b6105408383610a9d565b505050565b60008061055183610b56565b9050600073ffffffffffffffffffffffffffffffffffffffff168173ffffffffffffffffffffffffffffffffffffffff1614156105c3576040517f08c379a00000000000000000000000000000000000000000000000000000000081526004016105ba90611c3e565b60405180910390fd5b80915050919050565b60008073ffffffffffffffffffffffffffffffffffffffff168273ffffffffffffffffffffffffffffffffffffffff16141561063d576040517f08c379a000000000000000000000000000000000000000000000000000000000815260040161063490611bde565b60405180910390fd5b606860008373ffffffffffffffffffffffffffffffffffffffff1673ffffffffffffffffffffffffffffffffffffffff168152602001908152602001600020549050919050565b60008060019054906101000a900460ff161590508080156106b55750600160008054906101000a900460ff1660ff16105b806106e257506106c430610b93565b1580156106e15750600160008054906101000a900460ff1660ff16145b5b610721576040517f08c379a000000000000000000000000000000000000000000000000000000000815260040161071890611bfe565b60405180910390fd5b60016000806101000a81548160ff021916908360ff160217905550801561075e576001600060016101000a81548160ff0219169083151502179055505b6107d26040518060400160405280600b81526020017f4d65646963616c446174610000000000000000000000000000000000000000008152506040518060400160405280600481526020017f4d44415400000000000000000000000000000000000000000000000000000000815250610bb6565b801561082b5760008060016101000a81548160ff0219169083151502179055507f7f26b83ff96e1f2b6a682f133852f6798a09c465da95921460cefb384740249860016040516108229190611b41565b60405180910390a15b50565b60606066805461083d90611e6c565b80601f016020809104026020016040519081016040528092919081815260200182805461086990611e6c565b80156108b65780601f1061088b576101008083540402835291602001916108b6565b820191906000526020600020905b81548152906001019060200180831161089957829003601f168201915b5050505050905090565b6108ca8282610c13565b5050565b6108e06108d9610a95565b8383610c31565b5050565b60606108ef82610a4a565b60006108f9610d9e565b905060008151116109195760405180602001604052806000815250610944565b8061092384610db5565b604051602001610934929190611a9b565b6040516020818303038152906040525b915050919050565b6000606a60008473ffffffffffffffffffffffffffffffffffffffff1673ffffffffffffffffffffffffffffffffffffffff16815260200190815260200160002060008373ffffffffffffffffffffffffffffffffffffffff1673ffffffffffffffffffffffffffffffffffffffff16815260200190815260200160002060009054906101000a900460ff16905092915050565b60007f01ffc9a7000000000000000000000000000000000000000000000000000000007bffffffffffffffffffffffffffffffffffffffffffffffffffffffff1916827bffffffffffffffffffffffffffffffffffffffffffffffffffffffff1916149050919050565b610a5381610e8d565b610a92576040517f08c379a0000000000000000000000000000000000000000000000000000000008152600401610a8990611c3e565b60405180910390fd5b50565b600033905090565b816069600083815260200190815260200160002060006101000a81548173ffffffffffffffffffffffffffffffffffffffff021916908373ffffffffffffffffffffffffffffffffffffffff160217905550808273ffffffffffffffffffffffffffffffffffffffff16610b1083610545565b73ffffffffffffffffffffffffffffffffffffffff167f8c5be1e5ebec7d5bd14f71427d1e84f3dd0314c0f7b2291e5b200ac8c7c3b92560405160405180910390a45050565b60006067600083815260200190815260200160002060009054906101000a900473ffffffffffffffffffffffffffffffffffffffff169050919050565b6000808273ffffffffffffffffffffffffffffffffffffffff163b119050919050565b600060019054906101000a900460ff16610c05576040517f08c379a0000000000000000000000000000000000000000000000000000000008152600401610bfc90611c9e565b60405180910390fd5b610c0f8282610ece565b5050565b610c2d828260405180602001604052806000815250610f4f565b5050565b8173ffffffffffffffffffffffffffffffffffffffff168373ffffffffffffffffffffffffffffffffffffffff161415610ca0576040517f08c379a0000000000000000000000000000000000000000000000000000000008152600401610c9790611bbe565b60405180910390fd5b80606a60008573ffffffffffffffffffffffffffffffffffffffff1673ffffffffffffffffffffffffffffffffffffffff16815260200190815260200160002060008473ffffffffffffffffffffffffffffffffffffffff1673ffffffffffffffffffffffffffffffffffffffff16815260200190815260200160002060006101000a81548160ff0219169083151502179055508173ffffffffffffffffffffffffffffffffffffffff168373ffffffffffffffffffffffffffffffffffffffff167f17307eab39ab6107e8899845ad3d59bd9653f200f220920489ca2b5937696c3183604051610d919190611b26565b60405180910390a3505050565b606060405180602001604052806000815250905090565b606060006001610dc484610faa565b01905060008167ffffffffffffffff811115610de357610de2611f2b565b5b6040519080825280601f01601f191660200182016040528015610e155781602001600182028036833780820191505090505b509050600082602001820190505b600115610e82578080600190039150507f3031323334353637383961626364656600000000000000000000000000000000600a86061a8153600a8581610e6c57610e6b611ecd565b5b0494506000851415610e7d57610e82565b610e23565b819350505050919050565b60008073ffffffffffffffffffffffffffffffffffffffff16610eaf83610b56565b73ffffffffffffffffffffffffffffffffffffffff1614159050919050565b600060019054906101000a900460ff16610f1d576040517f08c379a0000000000000000000000000000000000000000000000000000000008152600401610f1490611c9e565b60405180910390fd5b8160659080519060200190610f339291906115de565b508060669080519060200190610f4a9291906115de565b505050565b610f5983836110fd565b610f66600084848461131b565b610fa5576040517f08c379a0000000000000000000000000000000000000000000000000000000008152600401610f9c90611b7e565b60405180910390fd5b505050565b600080600090507a184f03e93ff9f4daa797ed6e38ed64bf6a1f0100000000000000008310611008577a184f03e93ff9f4daa797ed6e38ed64bf6a1f0100000000000000008381610ffe57610ffd611ecd565b5b0492506040810190505b6d04ee2d6d415b85acef81000000008310611045576d04ee2d6d415b85acef8100000000838161103b5761103a611ecd565b5b0492506020810190505b662386f26fc10000831061107457662386f26fc10000838161106a57611069611ecd565b5b0492506010810190505b6305f5e100831061109d576305f5e100838161109357611092611ecd565b5b0492506008810190505b61271083106110c25761271083816110b8576110b7611ecd565b5b0492506004810190505b606483106110e557606483816110db576110da611ecd565b5b0492506002810190505b600a83106110f4576001810190505b80915050919050565b600073ffffffffffffffffffffffffffffffffffffffff168273ffffffffffffffffffffffffffffffffffffffff16141561116d576040517f08c379a000000000000000000000000000000000000000000000000000000000815260040161116490611c1e565b60405180910390fd5b61117681610e8d565b156111b6576040517f08c379a00000000000000000000000000000000000000000000000000000000081526004016111ad90611b9e565b60405180910390fd5b6111c46000838360016114b2565b6111cd81610e8d565b1561120d576040517f08c379a000000000000000000000000000000000000000000000000000000000815260040161120490611b9e565b60405180910390fd5b6001606860008473ffffffffffffffffffffffffffffffffffffffff1673ffffffffffffffffffffffffffffffffffffffff16815260200190815260200160002060008282540192505081905550816067600083815260200190815260200160002060006101000a81548173ffffffffffffffffffffffffffffffffffffffff021916908373ffffffffffffffffffffffffffffffffffffffff160217905550808273ffffffffffffffffffffffffffffffffffffffff16600073ffffffffffffffffffffffffffffffffffffffff167fddf252ad1be2c89b69c2b068fc378daa952ba7f163c4a11628f55a4df523b3ef60405160405180910390a46113176000838360016115d8565b5050565b600061133c8473ffffffffffffffffffffffffffffffffffffffff16610b93565b156114a5578373ffffffffffffffffffffffffffffffffffffffff1663150b7a02611365610a95565b8786866040518563ffffffff1660e01b81526004016113879493929190611ada565b602060405180830381600087803b1580156113a157600080fd5b505af19250505080156113d257506040513d601f19601f820116820180604052508101906113cf9190611804565b60015b611455573d8060008114611402576040519150601f19603f3d011682016040523d82523d6000602084013e611407565b606091505b5060008151141561144d576040517f08c379a000000000000000000000000000000000000000000000000000000000815260040161144490611b7e565b60405180910390fd5b805181602001fd5b63150b7a0260e01b7bffffffffffffffffffffffffffffffffffffffffffffffffffffffff1916817bffffffffffffffffffffffffffffffffffffffffffffffffffffffff1916149150506114aa565b600190505b949350505050565b60018111156115d257600073ffffffffffffffffffffffffffffffffffffffff168473ffffffffffffffffffffffffffffffffffffffff16146115465780606860008673ffffffffffffffffffffffffffffffffffffffff1673ffffffffffffffffffffffffffffffffffffffff168152602001908152602001600020600082825461153e9190611d72565b925050819055505b600073ffffffffffffffffffffffffffffffffffffffff168373ffffffffffffffffffffffffffffffffffffffff16146115d15780606860008573ffffffffffffffffffffffffffffffffffffffff1673ffffffffffffffffffffffffffffffffffffffff16815260200190815260200160002060008282546115c99190611d1c565b925050819055505b5b50505050565b50505050565b8280546115ea90611e6c565b90600052602060002090601f01602090048101928261160c5760008555611653565b82601f1061162557805160ff1916838001178555611653565b82800160010185558215611653579182015b82811115611652578251825591602001919060010190611637565b5b5090506116609190611664565b5090565b5b8082111561167d576000816000905550600101611665565b5090565b600081359050611690816121ee565b92915050565b6000813590506116a581612205565b92915050565b6000813590506116ba8161221c565b92915050565b6000815190506116cf8161221c565b92915050565b6000813590506116e481612233565b92915050565b600060208284031215611700576116ff611f5a565b5b600061170e84828501611681565b91505092915050565b6000806040838503121561172e5761172d611f5a565b5b600061173c85828601611681565b925050602061174d85828601611681565b9150509250929050565b6000806040838503121561176e5761176d611f5a565b5b600061177c85828601611681565b925050602061178d85828601611696565b9150509250929050565b600080604083850312156117ae576117ad611f5a565b5b60006117bc85828601611681565b92505060206117cd858286016116d5565b9150509250929050565b6000602082840312156117ed576117ec611f5a565b5b60006117fb848285016116ab565b91505092915050565b60006020828403121561181a57611819611f5a565b5b6000611828848285016116c0565b91505092915050565b60006020828403121561184757611846611f5a565b5b6000611855848285016116d5565b91505092915050565b61186781611da6565b82525050565b61187681611db8565b82525050565b600061188782611cd9565b6118918185611cef565b93506118a1818560208601611e39565b6118aa81611f5f565b840191505092915050565b6118be81611e27565b82525050565b60006118cf82611ce4565b6118d98185611d00565b93506118e9818560208601611e39565b6118f281611f5f565b840191505092915050565b600061190882611ce4565b6119128185611d11565b9350611922818560208601611e39565b80840191505092915050565b600061193b603283611d00565b915061194682611f70565b604082019050919050565b600061195e601c83611d00565b915061196982611fbf565b602082019050919050565b6000611981601983611d00565b915061198c82611fe8565b602082019050919050565b60006119a4602983611d00565b91506119af82612011565b604082019050919050565b60006119c7602e83611d00565b91506119d282612060565b604082019050919050565b60006119ea602083611d00565b91506119f5826120af565b602082019050919050565b6000611a0d601883611d00565b9150611a18826120d8565b602082019050919050565b6000611a30602183611d00565b9150611a3b82612101565b604082019050919050565b6000611a53603d83611d00565b9150611a5e82612150565b604082019050919050565b6000611a76602b83611d00565b9150611a818261219f565b604082019050919050565b611a9581611e10565b82525050565b6000611aa782856118fd565b9150611ab382846118fd565b91508190509392505050565b6000602082019050611ad4600083018461185e565b92915050565b6000608082019050611aef600083018761185e565b611afc602083018661185e565b611b096040830185611a8c565b8181036060830152611b1b818461187c565b905095945050505050565b6000602082019050611b3b600083018461186d565b92915050565b6000602082019050611b5660008301846118b5565b92915050565b60006020820190508181036000830152611b7681846118c4565b905092915050565b60006020820190508181036000830152611b978161192e565b9050919050565b60006020820190508181036000830152611bb781611951565b9050919050565b60006020820190508181036000830152611bd781611974565b9050919050565b60006020820190508181036000830152611bf781611997565b9050919050565b60006020820190508181036000830152611c17816119ba565b9050919050565b60006020820190508181036000830152611c37816119dd565b9050919050565b60006020820190508181036000830152611c5781611a00565b9050919050565b60006020820190508181036000830152611c7781611a23565b9050919050565b60006020820190508181036000830152611c9781611a46565b9050919050565b60006020820190508181036000830152611cb781611a69565b9050919050565b6000602082019050611cd36000830184611a8c565b92915050565b600081519050919050565b600081519050919050565b600082825260208201905092915050565b600082825260208201905092915050565b600081905092915050565b6000611d2782611e10565b9150611d3283611e10565b9250827fffffffffffffffffffffffffffffffffffffffffffffffffffffffffffffffff03821115611d6757611d66611e9e565b5b828201905092915050565b6000611d7d82611e10565b9150611d8883611e10565b925082821015611d9b57611d9a611e9e565b5b828203905092915050565b6000611db182611df0565b9050919050565b60008115159050919050565b60007fffffffff0000000000000000000000000000000000000000000000000000000082169050919050565b600073ffffffffffffffffffffffffffffffffffffffff82169050919050565b6000819050919050565b600060ff82169050919050565b6000611e3282611e1a565b9050919050565b60005b83811015611e57578082015181840152602081019050611e3c565b83811115611e66576000848401525b50505050565b60006002820490506001821680611e8457607f821691505b60208210811415611e9857611e97611efc565b5b50919050565b7f4e487b7100000000000000000000000000000000000000000000000000000000600052601160045260246000fd5b7f4e487b7100000000000000000000000000000000000000000000000000000000600052601260045260246000fd5b7f4e487b7100000000000000000000000000000000000000000000000000000000600052602260045260246000fd5b7f4e487b7100000000000000000000000000000000000000000000000000000000600052604160045260246000fd5b600080fd5b6000601f19601f8301169050919050565b7f4552433732313a207472616e7366657220746f206e6f6e20455243373231526560008201527f63656976657220696d706c656d656e7465720000000000000000000000000000602082015250565b7f4552433732313a20746f6b656e20616c7265616479206d696e74656400000000600082015250565b7f4552433732313a20617070726f766520746f2063616c6c657200000000000000600082015250565b7f4552433732313a2061646472657373207a65726f206973206e6f74206120766160008201527f6c6964206f776e65720000000000000000000000000000000000000000000000602082015250565b7f496e697469616c697a61626c653a20636f6e747261637420697320616c72656160008201527f647920696e697469616c697a6564000000000000000000000000000000000000602082015250565b7f4552433732313a206d696e7420746f20746865207a65726f2061646472657373600082015250565b7f4552433732313a20696e76616c696420746f6b656e2049440000000000000000600082015250565b7f4552433732313a20617070726f76616c20746f2063757272656e74206f776e6560008201527f7200000000000000000000000000000000000000000000000000000000000000602082015250565b7f4552433732313a20617070726f76652063616c6c6572206973206e6f7420746f60008201527f6b656e206f776e6572206f7220617070726f76656420666f7220616c6c000000602082015250565b7f496e697469616c697a61626c653a20636f6e7472616374206973206e6f74206960008201527f6e697469616c697a696e67000000000000000000000000000000000000000000602082015250565b6121f781611da6565b811461220257600080fd5b50565b61220e81611db8565b811461221957600080fd5b50565b61222581611dc4565b811461223057600080fd5b50565b61223c81611e10565b811461224757600080fd5b5056fea2646970667358221220063c6e0b2e851d39a73ed78cbf34fafb3166b991b89504a5f43bc6f1e46a8cf764736f6c63430008070033",
					"opcodes": "PUSH1 0x80 PUSH1 0x40 MSTORE CALLVALUE DUP1 ISZERO PUSH3 0x11 JUMPI PUSH1 0x0 DUP1 REVERT JUMPDEST POP PUSH3 0x22 PUSH3 0x28 PUSH1 0x20 SHL PUSH1 0x20 SHR JUMP JUMPDEST PUSH3 0x1D3 JUMP JUMPDEST PUSH1 0x0 PUSH1 0x1 SWAP1 SLOAD SWAP1 PUSH2 0x100 EXP SWAP1 DIV PUSH1 0xFF AND ISZERO PUSH3 0x7B JUMPI PUSH1 0x40 MLOAD PUSH32 0x8C379A000000000000000000000000000000000000000000000000000000000 DUP2 MSTORE PUSH1 0x4 ADD PUSH3 0x72 SWAP1 PUSH3 0x127 JUMP JUMPDEST PUSH1 0x40 MLOAD DUP1 SWAP2 SUB SWAP1 REVERT JUMPDEST PUSH1 0xFF DUP1 AND PUSH1 0x0 DUP1 SLOAD SWAP1 PUSH2 0x100 EXP SWAP1 DIV PUSH1 0xFF AND PUSH1 0xFF AND LT ISZERO PUSH3 0xED JUMPI PUSH1 0xFF PUSH1 0x0 DUP1 PUSH2 0x100 EXP DUP2 SLOAD DUP2 PUSH1 0xFF MUL NOT AND SWAP1 DUP4 PUSH1 0xFF AND MUL OR SWAP1 SSTORE POP PUSH32 0x7F26B83FF96E1F2B6A682F133852F6798A09C465DA95921460CEFB3847402498 PUSH1 0xFF PUSH1 0x40 MLOAD PUSH3 0xE4 SWAP2 SWAP1 PUSH3 0x149 JUMP JUMPDEST PUSH1 0x40 MLOAD DUP1 SWAP2 SUB SWAP1 LOG1 JUMPDEST JUMP JUMPDEST PUSH1 0x0 PUSH3 0xFE PUSH1 0x27 DUP4 PUSH3 0x166 JUMP JUMPDEST SWAP2 POP PUSH3 0x10B DUP3 PUSH3 0x184 JUMP JUMPDEST PUSH1 0x40 DUP3 ADD SWAP1 POP SWAP2 SWAP1 POP JUMP JUMPDEST PUSH3 0x121 DUP2 PUSH3 0x177 JUMP JUMPDEST DUP3 MSTORE POP POP JUMP JUMPDEST PUSH1 0x0 PUSH1 0x20 DUP3 ADD SWAP1 POP DUP2 DUP2 SUB PUSH1 0x0 DUP4 ADD MSTORE PUSH3 0x142 DUP2 PUSH3 0xEF JUMP JUMPDEST SWAP1 POP SWAP2 SWAP1 POP JUMP JUMPDEST PUSH1 0x0 PUSH1 0x20 DUP3 ADD SWAP1 POP PUSH3 0x160 PUSH1 0x0 DUP4 ADD DUP5 PUSH3 0x116 JUMP JUMPDEST SWAP3 SWAP2 POP POP JUMP JUMPDEST PUSH1 0x0 DUP3 DUP3 MSTORE PUSH1 0x20 DUP3 ADD SWAP1 POP SWAP3 SWAP2 POP POP JUMP JUMPDEST PUSH1 0x0 PUSH1 0xFF DUP3 AND SWAP1 POP SWAP2 SWAP1 POP JUMP JUMPDEST PUSH32 0x496E697469616C697A61626C653A20636F6E747261637420697320696E697469 PUSH1 0x0 DUP3 ADD MSTORE PUSH32 0x616C697A696E6700000000000000000000000000000000000000000000000000 PUSH1 0x20 DUP3 ADD MSTORE POP JUMP JUMPDEST PUSH2 0x2280 DUP1 PUSH3 0x1E3 PUSH1 0x0 CODECOPY PUSH1 0x0 RETURN INVALID PUSH1 0x80 PUSH1 0x40 MSTORE CALLVALUE DUP1 ISZERO PUSH2 0x10 JUMPI PUSH1 0x0 DUP1 REVERT JUMPDEST POP PUSH1 0x4 CALLDATASIZE LT PUSH2 0xB4 JUMPI PUSH1 0x0 CALLDATALOAD PUSH1 0xE0 SHR DUP1 PUSH4 0x8129FC1C GT PUSH2 0x71 JUMPI DUP1 PUSH4 0x8129FC1C EQ PUSH2 0x1B3 JUMPI DUP1 PUSH4 0x95D89B41 EQ PUSH2 0x1BD JUMPI DUP1 PUSH4 0xA1448194 EQ PUSH2 0x1DB JUMPI DUP1 PUSH4 0xA22CB465 EQ PUSH2 0x1F7 JUMPI DUP1 PUSH4 0xC87B56DD EQ PUSH2 0x213 JUMPI DUP1 PUSH4 0xE985E9C5 EQ PUSH2 0x243 JUMPI PUSH2 0xB4 JUMP JUMPDEST DUP1 PUSH4 0x1FFC9A7 EQ PUSH2 0xB9 JUMPI DUP1 PUSH4 0x6FDDE03 EQ PUSH2 0xE9 JUMPI DUP1 PUSH4 0x81812FC EQ PUSH2 0x107 JUMPI DUP1 PUSH4 0x95EA7B3 EQ PUSH2 0x137 JUMPI DUP1 PUSH4 0x6352211E EQ PUSH2 0x153 JUMPI DUP1 PUSH4 0x70A08231 EQ PUSH2 0x183 JUMPI JUMPDEST PUSH1 0x0 DUP1 REVERT JUMPDEST PUSH2 0xD3 PUSH1 0x4 DUP1 CALLDATASIZE SUB DUP2 ADD SWAP1 PUSH2 0xCE SWAP2 SWAP1 PUSH2 0x17D7 JUMP JUMPDEST PUSH2 0x273 JUMP JUMPDEST PUSH1 0x40 MLOAD PUSH2 0xE0 SWAP2 SWAP1 PUSH2 0x1B26 JUMP JUMPDEST PUSH1 0x40 MLOAD DUP1 SWAP2 SUB SWAP1 RETURN JUMPDEST PUSH2 0xF1 PUSH2 0x355 JUMP JUMPDEST PUSH1 0x40 MLOAD PUSH2 0xFE SWAP2 SWAP1 PUSH2 0x1B5C JUMP JUMPDEST PUSH1 0x40 MLOAD DUP1 SWAP2 SUB SWAP1 RETURN JUMPDEST PUSH2 0x121 PUSH1 0x4 DUP1 CALLDATASIZE SUB DUP2 ADD SWAP1 PUSH2 0x11C SWAP2 SWAP1 PUSH2 0x1831 JUMP JUMPDEST PUSH2 0x3E7 JUMP JUMPDEST PUSH1 0x40 MLOAD PUSH2 0x12E SWAP2 SWAP1 PUSH2 0x1ABF JUMP JUMPDEST PUSH1 0x40 MLOAD DUP1 SWAP2 SUB SWAP1 RETURN JUMPDEST PUSH2 0x151 PUSH1 0x4 DUP1 CALLDATASIZE SUB DUP2 ADD SWAP1 PUSH2 0x14C SWAP2 SWAP1 PUSH2 0x1797 JUMP JUMPDEST PUSH2 0x42D JUMP JUMPDEST STOP JUMPDEST PUSH2 0x16D PUSH1 0x4 DUP1 CALLDATASIZE SUB DUP2 ADD SWAP1 PUSH2 0x168 SWAP2 SWAP1 PUSH2 0x1831 JUMP JUMPDEST PUSH2 0x545 JUMP JUMPDEST PUSH1 0x40 MLOAD PUSH2 0x17A SWAP2 SWAP1 PUSH2 0x1ABF JUMP JUMPDEST PUSH1 0x40 MLOAD DUP1 SWAP2 SUB SWAP1 RETURN JUMPDEST PUSH2 0x19D PUSH1 0x4 DUP1 CALLDATASIZE SUB DUP2 ADD SWAP1 PUSH2 0x198 SWAP2 SWAP1 PUSH2 0x16EA JUMP JUMPDEST PUSH2 0x5CC JUMP JUMPDEST PUSH1 0x40 MLOAD PUSH2 0x1AA SWAP2 SWAP1 PUSH2 0x1CBE JUMP JUMPDEST PUSH1 0x40 MLOAD DUP1 SWAP2 SUB SWAP1 RETURN JUMPDEST PUSH2 0x1BB PUSH2 0x684 JUMP JUMPDEST STOP JUMPDEST PUSH2 0x1C5 PUSH2 0x82E JUMP JUMPDEST PUSH1 0x40 MLOAD PUSH2 0x1D2 SWAP2 SWAP1 PUSH2 0x1B5C JUMP JUMPDEST PUSH1 0x40 MLOAD DUP1 SWAP2 SUB SWAP1 RETURN JUMPDEST PUSH2 0x1F5 PUSH1 0x4 DUP1 CALLDATASIZE SUB DUP2 ADD SWAP1 PUSH2 0x1F0 SWAP2 SWAP1 PUSH2 0x1797 JUMP JUMPDEST PUSH2 0x8C0 JUMP JUMPDEST STOP JUMPDEST PUSH2 0x211 PUSH1 0x4 DUP1 CALLDATASIZE SUB DUP2 ADD SWAP1 PUSH2 0x20C SWAP2 SWAP1 PUSH2 0x1757 JUMP JUMPDEST PUSH2 0x8CE JUMP JUMPDEST STOP JUMPDEST PUSH2 0x22D PUSH1 0x4 DUP1 CALLDATASIZE SUB DUP2 ADD SWAP1 PUSH2 0x228 SWAP2 SWAP1 PUSH2 0x1831 JUMP JUMPDEST PUSH2 0x8E4 JUMP JUMPDEST PUSH1 0x40 MLOAD PUSH2 0x23A SWAP2 SWAP1 PUSH2 0x1B5C JUMP JUMPDEST PUSH1 0x40 MLOAD DUP1 SWAP2 SUB SWAP1 RETURN JUMPDEST PUSH2 0x25D PUSH1 0x4 DUP1 CALLDATASIZE SUB DUP2 ADD SWAP1 PUSH2 0x258 SWAP2 SWAP1 PUSH2 0x1717 JUMP JUMPDEST PUSH2 0x94C JUMP JUMPDEST PUSH1 0x40 MLOAD PUSH2 0x26A SWAP2 SWAP1 PUSH2 0x1B26 JUMP JUMPDEST PUSH1 0x40 MLOAD DUP1 SWAP2 SUB SWAP1 RETURN JUMPDEST PUSH1 0x0 PUSH32 0x591D4BC000000000000000000000000000000000000000000000000000000000 PUSH28 0xFFFFFFFFFFFFFFFFFFFFFFFFFFFFFFFFFFFFFFFFFFFFFFFFFFFFFFFF NOT AND DUP3 PUSH28 0xFFFFFFFFFFFFFFFFFFFFFFFFFFFFFFFFFFFFFFFFFFFFFFFFFFFFFFFF NOT AND EQ DUP1 PUSH2 0x33E JUMPI POP PUSH32 0x5B5E139F00000000000000000000000000000000000000000000000000000000 PUSH28 0xFFFFFFFFFFFFFFFFFFFFFFFFFFFFFFFFFFFFFFFFFFFFFFFFFFFFFFFF NOT AND DUP3 PUSH28 0xFFFFFFFFFFFFFFFFFFFFFFFFFFFFFFFFFFFFFFFFFFFFFFFFFFFFFFFF NOT AND EQ JUMPDEST DUP1 PUSH2 0x34E JUMPI POP PUSH2 0x34D DUP3 PUSH2 0x9E0 JUMP JUMPDEST JUMPDEST SWAP1 POP SWAP2 SWAP1 POP JUMP JUMPDEST PUSH1 0x60 PUSH1 0x65 DUP1 SLOAD PUSH2 0x364 SWAP1 PUSH2 0x1E6C JUMP JUMPDEST DUP1 PUSH1 0x1F ADD PUSH1 0x20 DUP1 SWAP2 DIV MUL PUSH1 0x20 ADD PUSH1 0x40 MLOAD SWAP1 DUP2 ADD PUSH1 0x40 MSTORE DUP1 SWAP3 SWAP2 SWAP1 DUP2 DUP2 MSTORE PUSH1 0x20 ADD DUP3 DUP1 SLOAD PUSH2 0x390 SWAP1 PUSH2 0x1E6C JUMP JUMPDEST DUP1 ISZERO PUSH2 0x3DD JUMPI DUP1 PUSH1 0x1F LT PUSH2 0x3B2 JUMPI PUSH2 0x100 DUP1 DUP4 SLOAD DIV MUL DUP4 MSTORE SWAP2 PUSH1 0x20 ADD SWAP2 PUSH2 0x3DD JUMP JUMPDEST DUP3 ADD SWAP2 SWAP1 PUSH1 0x0 MSTORE PUSH1 0x20 PUSH1 0x0 KECCAK256 SWAP1 JUMPDEST DUP2 SLOAD DUP2 MSTORE SWAP1 PUSH1 0x1 ADD SWAP1 PUSH1 0x20 ADD DUP1 DUP4 GT PUSH2 0x3C0 JUMPI DUP3 SWAP1 SUB PUSH1 0x1F AND DUP3 ADD SWAP2 JUMPDEST POP POP POP POP POP SWAP1 POP SWAP1 JUMP JUMPDEST PUSH1 0x0 PUSH2 0x3F2 DUP3 PUSH2 0xA4A JUMP JUMPDEST PUSH1 0x69 PUSH1 0x0 DUP4 DUP2 MSTORE PUSH1 0x20 ADD SWAP1 DUP2 MSTORE PUSH1 0x20 ADD PUSH1 0x0 KECCAK256 PUSH1 0x0 SWAP1 SLOAD SWAP1 PUSH2 0x100 EXP SWAP1 DIV PUSH20 0xFFFFFFFFFFFFFFFFFFFFFFFFFFFFFFFFFFFFFFFF AND SWAP1 POP SWAP2 SWAP1 POP JUMP JUMPDEST PUSH1 0x0 PUSH2 0x438 DUP3 PUSH2 0x545 JUMP JUMPDEST SWAP1 POP DUP1 PUSH20 0xFFFFFFFFFFFFFFFFFFFFFFFFFFFFFFFFFFFFFFFF AND DUP4 PUSH20 0xFFFFFFFFFFFFFFFFFFFFFFFFFFFFFFFFFFFFFFFF AND EQ ISZERO PUSH2 0x4A9 JUMPI PUSH1 0x40 MLOAD PUSH32 0x8C379A000000000000000000000000000000000000000000000000000000000 DUP2 MSTORE PUSH1 0x4 ADD PUSH2 0x4A0 SWAP1 PUSH2 0x1C5E JUMP JUMPDEST PUSH1 0x40 MLOAD DUP1 SWAP2 SUB SWAP1 REVERT JUMPDEST DUP1 PUSH20 0xFFFFFFFFFFFFFFFFFFFFFFFFFFFFFFFFFFFFFFFF AND PUSH2 0x4C8 PUSH2 0xA95 JUMP JUMPDEST PUSH20 0xFFFFFFFFFFFFFFFFFFFFFFFFFFFFFFFFFFFFFFFF AND EQ DUP1 PUSH2 0x4F7 JUMPI POP PUSH2 0x4F6 DUP2 PUSH2 0x4F1 PUSH2 0xA95 JUMP JUMPDEST PUSH2 0x94C JUMP JUMPDEST JUMPDEST PUSH2 0x536 JUMPI PUSH1 0x40 MLOAD PUSH32 0x8C379A000000000000000000000000000000000000000000000000000000000 DUP2 MSTORE PUSH1 0x4 ADD PUSH2 0x52D SWAP1 PUSH2 0x1C7E JUMP JUMPDEST PUSH1 0x40 MLOAD DUP1 SWAP2 SUB SWAP1 REVERT JUMPDEST PUSH2 0x540 DUP4 DUP4 PUSH2 0xA9D JUMP JUMPDEST POP POP POP JUMP JUMPDEST PUSH1 0x0 DUP1 PUSH2 0x551 DUP4 PUSH2 0xB56 JUMP JUMPDEST SWAP1 POP PUSH1 0x0 PUSH20 0xFFFFFFFFFFFFFFFFFFFFFFFFFFFFFFFFFFFFFFFF AND DUP2 PUSH20 0xFFFFFFFFFFFFFFFFFFFFFFFFFFFFFFFFFFFFFFFF AND EQ ISZERO PUSH2 0x5C3 JUMPI PUSH1 0x40 MLOAD PUSH32 0x8C379A000000000000000000000000000000000000000000000000000000000 DUP2 MSTORE PUSH1 0x4 ADD PUSH2 0x5BA SWAP1 PUSH2 0x1C3E JUMP JUMPDEST PUSH1 0x40 MLOAD DUP1 SWAP2 SUB SWAP1 REVERT JUMPDEST DUP1 SWAP2 POP POP SWAP2 SWAP1 POP JUMP JUMPDEST PUSH1 0x0 DUP1 PUSH20 0xFFFFFFFFFFFFFFFFFFFFFFFFFFFFFFFFFFFFFFFF AND DUP3 PUSH20 0xFFFFFFFFFFFFFFFFFFFFFFFFFFFFFFFFFFFFFFFF AND EQ ISZERO PUSH2 0x63D JUMPI PUSH1 0x40 MLOAD PUSH32 0x8C379A000000000000000000000000000000000000000000000000000000000 DUP2 MSTORE PUSH1 0x4 ADD PUSH2 0x634 SWAP1 PUSH2 0x1BDE JUMP JUMPDEST PUSH1 0x40 MLOAD DUP1 SWAP2 SUB SWAP1 REVERT JUMPDEST PUSH1 0x68 PUSH1 0x0 DUP4 PUSH20 0xFFFFFFFFFFFFFFFFFFFFFFFFFFFFFFFFFFFFFFFF AND PUSH20 0xFFFFFFFFFFFFFFFFFFFFFFFFFFFFFFFFFFFFFFFF AND DUP2 MSTORE PUSH1 0x20 ADD SWAP1 DUP2 MSTORE PUSH1 0x20 ADD PUSH1 0x0 KECCAK256 SLOAD SWAP1 POP SWAP2 SWAP1 POP JUMP JUMPDEST PUSH1 0x0 DUP1 PUSH1 0x1 SWAP1 SLOAD SWAP1 PUSH2 0x100 EXP SWAP1 DIV PUSH1 0xFF AND ISZERO SWAP1 POP DUP1 DUP1 ISZERO PUSH2 0x6B5 JUMPI POP PUSH1 0x1 PUSH1 0x0 DUP1 SLOAD SWAP1 PUSH2 0x100 EXP SWAP1 DIV PUSH1 0xFF AND PUSH1 0xFF AND LT JUMPDEST DUP1 PUSH2 0x6E2 JUMPI POP PUSH2 0x6C4 ADDRESS PUSH2 0xB93 JUMP JUMPDEST ISZERO DUP1 ISZERO PUSH2 0x6E1 JUMPI POP PUSH1 0x1 PUSH1 0x0 DUP1 SLOAD SWAP1 PUSH2 0x100 EXP SWAP1 DIV PUSH1 0xFF AND PUSH1 0xFF AND EQ JUMPDEST JUMPDEST PUSH2 0x721 JUMPI PUSH1 0x40 MLOAD PUSH32 0x8C379A000000000000000000000000000000000000000000000000000000000 DUP2 MSTORE PUSH1 0x4 ADD PUSH2 0x718 SWAP1 PUSH2 0x1BFE JUMP JUMPDEST PUSH1 0x40 MLOAD DUP1 SWAP2 SUB SWAP1 REVERT JUMPDEST PUSH1 0x1 PUSH1 0x0 DUP1 PUSH2 0x100 EXP DUP2 SLOAD DUP2 PUSH1 0xFF MUL NOT AND SWAP1 DUP4 PUSH1 0xFF AND MUL OR SWAP1 SSTORE POP DUP1 ISZERO PUSH2 0x75E JUMPI PUSH1 0x1 PUSH1 0x0 PUSH1 0x1 PUSH2 0x100 EXP DUP2 SLOAD DUP2 PUSH1 0xFF MUL NOT AND SWAP1 DUP4 ISZERO ISZERO MUL OR SWAP1 SSTORE POP JUMPDEST PUSH2 0x7D2 PUSH1 0x40 MLOAD DUP1 PUSH1 0x40 ADD PUSH1 0x40 MSTORE DUP1 PUSH1 0xB DUP2 MSTORE PUSH1 0x20 ADD PUSH32 0x4D65646963616C44617461000000000000000000000000000000000000000000 DUP2 MSTORE POP PUSH1 0x40 MLOAD DUP1 PUSH1 0x40 ADD PUSH1 0x40 MSTORE DUP1 PUSH1 0x4 DUP2 MSTORE PUSH1 0x20 ADD PUSH32 0x4D44415400000000000000000000000000000000000000000000000000000000 DUP2 MSTORE POP PUSH2 0xBB6 JUMP JUMPDEST DUP1 ISZERO PUSH2 0x82B JUMPI PUSH1 0x0 DUP1 PUSH1 0x1 PUSH2 0x100 EXP DUP2 SLOAD DUP2 PUSH1 0xFF MUL NOT AND SWAP1 DUP4 ISZERO ISZERO MUL OR SWAP1 SSTORE POP PUSH32 0x7F26B83FF96E1F2B6A682F133852F6798A09C465DA95921460CEFB3847402498 PUSH1 0x1 PUSH1 0x40 MLOAD PUSH2 0x822 SWAP2 SWAP1 PUSH2 0x1B41 JUMP JUMPDEST PUSH1 0x40 MLOAD DUP1 SWAP2 SUB SWAP1 LOG1 JUMPDEST POP JUMP JUMPDEST PUSH1 0x60 PUSH1 0x66 DUP1 SLOAD PUSH2 0x83D SWAP1 PUSH2 0x1E6C JUMP JUMPDEST DUP1 PUSH1 0x1F ADD PUSH1 0x20 DUP1 SWAP2 DIV MUL PUSH1 0x20 ADD PUSH1 0x40 MLOAD SWAP1 DUP2 ADD PUSH1 0x40 MSTORE DUP1 SWAP3 SWAP2 SWAP1 DUP2 DUP2 MSTORE PUSH1 0x20 ADD DUP3 DUP1 SLOAD PUSH2 0x869 SWAP1 PUSH2 0x1E6C JUMP JUMPDEST DUP1 ISZERO PUSH2 0x8B6 JUMPI DUP1 PUSH1 0x1F LT PUSH2 0x88B JUMPI PUSH2 0x100 DUP1 DUP4 SLOAD DIV MUL DUP4 MSTORE SWAP2 PUSH1 0x20 ADD SWAP2 PUSH2 0x8B6 JUMP JUMPDEST DUP3 ADD SWAP2 SWAP1 PUSH1 0x0 MSTORE PUSH1 0x20 PUSH1 0x0 KECCAK256 SWAP1 JUMPDEST DUP2 SLOAD DUP2 MSTORE SWAP1 PUSH1 0x1 ADD SWAP1 PUSH1 0x20 ADD DUP1 DUP4 GT PUSH2 0x899 JUMPI DUP3 SWAP1 SUB PUSH1 0x1F AND DUP3 ADD SWAP2 JUMPDEST POP POP POP POP POP SWAP1 POP SWAP1 JUMP JUMPDEST PUSH2 0x8CA DUP3 DUP3 PUSH2 0xC13 JUMP JUMPDEST POP POP JUMP JUMPDEST PUSH2 0x8E0 PUSH2 0x8D9 PUSH2 0xA95 JUMP JUMPDEST DUP4 DUP4 PUSH2 0xC31 JUMP JUMPDEST POP POP JUMP JUMPDEST PUSH1 0x60 PUSH2 0x8EF DUP3 PUSH2 0xA4A JUMP JUMPDEST PUSH1 0x0 PUSH2 0x8F9 PUSH2 0xD9E JUMP JUMPDEST SWAP1 POP PUSH1 0x0 DUP2 MLOAD GT PUSH2 0x919 JUMPI PUSH1 0x40 MLOAD DUP1 PUSH1 0x20 ADD PUSH1 0x40 MSTORE DUP1 PUSH1 0x0 DUP2 MSTORE POP PUSH2 0x944 JUMP JUMPDEST DUP1 PUSH2 0x923 DUP5 PUSH2 0xDB5 JUMP JUMPDEST PUSH1 0x40 MLOAD PUSH1 0x20 ADD PUSH2 0x934 SWAP3 SWAP2 SWAP1 PUSH2 0x1A9B JUMP JUMPDEST PUSH1 0x40 MLOAD PUSH1 0x20 DUP2 DUP4 SUB SUB DUP2 MSTORE SWAP1 PUSH1 0x40 MSTORE JUMPDEST SWAP2 POP POP SWAP2 SWAP1 POP JUMP JUMPDEST PUSH1 0x0 PUSH1 0x6A PUSH1 0x0 DUP5 PUSH20 0xFFFFFFFFFFFFFFFFFFFFFFFFFFFFFFFFFFFFFFFF AND PUSH20 0xFFFFFFFFFFFFFFFFFFFFFFFFFFFFFFFFFFFFFFFF AND DUP2 MSTORE PUSH1 0x20 ADD SWAP1 DUP2 MSTORE PUSH1 0x20 ADD PUSH1 0x0 KECCAK256 PUSH1 0x0 DUP4 PUSH20 0xFFFFFFFFFFFFFFFFFFFFFFFFFFFFFFFFFFFFFFFF AND PUSH20 0xFFFFFFFFFFFFFFFFFFFFFFFFFFFFFFFFFFFFFFFF AND DUP2 MSTORE PUSH1 0x20 ADD SWAP1 DUP2 MSTORE PUSH1 0x20 ADD PUSH1 0x0 KECCAK256 PUSH1 0x0 SWAP1 SLOAD SWAP1 PUSH2 0x100 EXP SWAP1 DIV PUSH1 0xFF AND SWAP1 POP SWAP3 SWAP2 POP POP JUMP JUMPDEST PUSH1 0x0 PUSH32 0x1FFC9A700000000000000000000000000000000000000000000000000000000 PUSH28 0xFFFFFFFFFFFFFFFFFFFFFFFFFFFFFFFFFFFFFFFFFFFFFFFFFFFFFFFF NOT AND DUP3 PUSH28 0xFFFFFFFFFFFFFFFFFFFFFFFFFFFFFFFFFFFFFFFFFFFFFFFFFFFFFFFF NOT AND EQ SWAP1 POP SWAP2 SWAP1 POP JUMP JUMPDEST PUSH2 0xA53 DUP2 PUSH2 0xE8D JUMP JUMPDEST PUSH2 0xA92 JUMPI PUSH1 0x40 MLOAD PUSH32 0x8C379A000000000000000000000000000000000000000000000000000000000 DUP2 MSTORE PUSH1 0x4 ADD PUSH2 0xA89 SWAP1 PUSH2 0x1C3E JUMP JUMPDEST PUSH1 0x40 MLOAD DUP1 SWAP2 SUB SWAP1 REVERT JUMPDEST POP JUMP JUMPDEST PUSH1 0x0 CALLER SWAP1 POP SWAP1 JUMP JUMPDEST DUP2 PUSH1 0x69 PUSH1 0x0 DUP4 DUP2 MSTORE PUSH1 0x20 ADD SWAP1 DUP2 MSTORE PUSH1 0x20 ADD PUSH1 0x0 KECCAK256 PUSH1 0x0 PUSH2 0x100 EXP DUP2 SLOAD DUP2 PUSH20 0xFFFFFFFFFFFFFFFFFFFFFFFFFFFFFFFFFFFFFFFF MUL NOT AND SWAP1 DUP4 PUSH20 0xFFFFFFFFFFFFFFFFFFFFFFFFFFFFFFFFFFFFFFFF AND MUL OR SWAP1 SSTORE POP DUP1 DUP3 PUSH20 0xFFFFFFFFFFFFFFFFFFFFFFFFFFFFFFFFFFFFFFFF AND PUSH2 0xB10 DUP4 PUSH2 0x545 JUMP JUMPDEST PUSH20 0xFFFFFFFFFFFFFFFFFFFFFFFFFFFFFFFFFFFFFFFF AND PUSH32 0x8C5BE1E5EBEC7D5BD14F71427D1E84F3DD0314C0F7B2291E5B200AC8C7C3B925 PUSH1 0x40 MLOAD PUSH1 0x40 MLOAD DUP1 SWAP2 SUB SWAP1 LOG4 POP POP JUMP JUMPDEST PUSH1 0x0 PUSH1 0x67 PUSH1 0x0 DUP4 DUP2 MSTORE PUSH1 0x20 ADD SWAP1 DUP2 MSTORE PUSH1 0x20 ADD PUSH1 0x0 KECCAK256 PUSH1 0x0 SWAP1 SLOAD SWAP1 PUSH2 0x100 EXP SWAP1 DIV PUSH20 0xFFFFFFFFFFFFFFFFFFFFFFFFFFFFFFFFFFFFFFFF AND SWAP1 POP SWAP2 SWAP1 POP JUMP JUMPDEST PUSH1 0x0 DUP1 DUP3 PUSH20 0xFFFFFFFFFFFFFFFFFFFFFFFFFFFFFFFFFFFFFFFF AND EXTCODESIZE GT SWAP1 POP SWAP2 SWAP1 POP JUMP JUMPDEST PUSH1 0x0 PUSH1 0x1 SWAP1 SLOAD SWAP1 PUSH2 0x100 EXP SWAP1 DIV PUSH1 0xFF AND PUSH2 0xC05 JUMPI PUSH1 0x40 MLOAD PUSH32 0x8C379A000000000000000000000000000000000000000000000000000000000 DUP2 MSTORE PUSH1 0x4 ADD PUSH2 0xBFC SWAP1 PUSH2 0x1C9E JUMP JUMPDEST PUSH1 0x40 MLOAD DUP1 SWAP2 SUB SWAP1 REVERT JUMPDEST PUSH2 0xC0F DUP3 DUP3 PUSH2 0xECE JUMP JUMPDEST POP POP JUMP JUMPDEST PUSH2 0xC2D DUP3 DUP3 PUSH1 0x40 MLOAD DUP1 PUSH1 0x20 ADD PUSH1 0x40 MSTORE DUP1 PUSH1 0x0 DUP2 MSTORE POP PUSH2 0xF4F JUMP JUMPDEST POP POP JUMP JUMPDEST DUP2 PUSH20 0xFFFFFFFFFFFFFFFFFFFFFFFFFFFFFFFFFFFFFFFF AND DUP4 PUSH20 0xFFFFFFFFFFFFFFFFFFFFFFFFFFFFFFFFFFFFFFFF AND EQ ISZERO PUSH2 0xCA0 JUMPI PUSH1 0x40 MLOAD PUSH32 0x8C379A000000000000000000000000000000000000000000000000000000000 DUP2 MSTORE PUSH1 0x4 ADD PUSH2 0xC97 SWAP1 PUSH2 0x1BBE JUMP JUMPDEST PUSH1 0x40 MLOAD DUP1 SWAP2 SUB SWAP1 REVERT JUMPDEST DUP1 PUSH1 0x6A PUSH1 0x0 DUP6 PUSH20 0xFFFFFFFFFFFFFFFFFFFFFFFFFFFFFFFFFFFFFFFF AND PUSH20 0xFFFFFFFFFFFFFFFFFFFFFFFFFFFFFFFFFFFFFFFF AND DUP2 MSTORE PUSH1 0x20 ADD SWAP1 DUP2 MSTORE PUSH1 0x20 ADD PUSH1 0x0 KECCAK256 PUSH1 0x0 DUP5 PUSH20 0xFFFFFFFFFFFFFFFFFFFFFFFFFFFFFFFFFFFFFFFF AND PUSH20 0xFFFFFFFFFFFFFFFFFFFFFFFFFFFFFFFFFFFFFFFF AND DUP2 MSTORE PUSH1 0x20 ADD SWAP1 DUP2 MSTORE PUSH1 0x20 ADD PUSH1 0x0 KECCAK256 PUSH1 0x0 PUSH2 0x100 EXP DUP2 SLOAD DUP2 PUSH1 0xFF MUL NOT AND SWAP1 DUP4 ISZERO ISZERO MUL OR SWAP1 SSTORE POP DUP2 PUSH20 0xFFFFFFFFFFFFFFFFFFFFFFFFFFFFFFFFFFFFFFFF AND DUP4 PUSH20 0xFFFFFFFFFFFFFFFFFFFFFFFFFFFFFFFFFFFFFFFF AND PUSH32 0x17307EAB39AB6107E8899845AD3D59BD9653F200F220920489CA2B5937696C31 DUP4 PUSH1 0x40 MLOAD PUSH2 0xD91 SWAP2 SWAP1 PUSH2 0x1B26 JUMP JUMPDEST PUSH1 0x40 MLOAD DUP1 SWAP2 SUB SWAP1 LOG3 POP POP POP JUMP JUMPDEST PUSH1 0x60 PUSH1 0x40 MLOAD DUP1 PUSH1 0x20 ADD PUSH1 0x40 MSTORE DUP1 PUSH1 0x0 DUP2 MSTORE POP SWAP1 POP SWAP1 JUMP JUMPDEST PUSH1 0x60 PUSH1 0x0 PUSH1 0x1 PUSH2 0xDC4 DUP5 PUSH2 0xFAA JUMP JUMPDEST ADD SWAP1 POP PUSH1 0x0 DUP2 PUSH8 0xFFFFFFFFFFFFFFFF DUP2 GT ISZERO PUSH2 0xDE3 JUMPI PUSH2 0xDE2 PUSH2 0x1F2B JUMP JUMPDEST JUMPDEST PUSH1 0x40 MLOAD SWAP1 DUP1 DUP3 MSTORE DUP1 PUSH1 0x1F ADD PUSH1 0x1F NOT AND PUSH1 0x20 ADD DUP3 ADD PUSH1 0x40 MSTORE DUP1 ISZERO PUSH2 0xE15 JUMPI DUP2 PUSH1 0x20 ADD PUSH1 0x1 DUP3 MUL DUP1 CALLDATASIZE DUP4 CALLDATACOPY DUP1 DUP3 ADD SWAP2 POP POP SWAP1 POP JUMPDEST POP SWAP1 POP PUSH1 0x0 DUP3 PUSH1 0x20 ADD DUP3 ADD SWAP1 POP JUMPDEST PUSH1 0x1 ISZERO PUSH2 0xE82 JUMPI DUP1 DUP1 PUSH1 0x1 SWAP1 SUB SWAP2 POP POP PUSH32 0x3031323334353637383961626364656600000000000000000000000000000000 PUSH1 0xA DUP7 MOD BYTE DUP2 MSTORE8 PUSH1 0xA DUP6 DUP2 PUSH2 0xE6C JUMPI PUSH2 0xE6B PUSH2 0x1ECD JUMP JUMPDEST JUMPDEST DIV SWAP5 POP PUSH1 0x0 DUP6 EQ ISZERO PUSH2 0xE7D JUMPI PUSH2 0xE82 JUMP JUMPDEST PUSH2 0xE23 JUMP JUMPDEST DUP2 SWAP4 POP POP POP POP SWAP2 SWAP1 POP JUMP JUMPDEST PUSH1 0x0 DUP1 PUSH20 0xFFFFFFFFFFFFFFFFFFFFFFFFFFFFFFFFFFFFFFFF AND PUSH2 0xEAF DUP4 PUSH2 0xB56 JUMP JUMPDEST PUSH20 0xFFFFFFFFFFFFFFFFFFFFFFFFFFFFFFFFFFFFFFFF AND EQ ISZERO SWAP1 POP SWAP2 SWAP1 POP JUMP JUMPDEST PUSH1 0x0 PUSH1 0x1 SWAP1 SLOAD SWAP1 PUSH2 0x100 EXP SWAP1 DIV PUSH1 0xFF AND PUSH2 0xF1D JUMPI PUSH1 0x40 MLOAD PUSH32 0x8C379A000000000000000000000000000000000000000000000000000000000 DUP2 MSTORE PUSH1 0x4 ADD PUSH2 0xF14 SWAP1 PUSH2 0x1C9E JUMP JUMPDEST PUSH1 0x40 MLOAD DUP1 SWAP2 SUB SWAP1 REVERT JUMPDEST DUP2 PUSH1 0x65 SWAP1 DUP1 MLOAD SWAP1 PUSH1 0x20 ADD SWAP1 PUSH2 0xF33 SWAP3 SWAP2 SWAP1 PUSH2 0x15DE JUMP JUMPDEST POP DUP1 PUSH1 0x66 SWAP1 DUP1 MLOAD SWAP1 PUSH1 0x20 ADD SWAP1 PUSH2 0xF4A SWAP3 SWAP2 SWAP1 PUSH2 0x15DE JUMP JUMPDEST POP POP POP JUMP JUMPDEST PUSH2 0xF59 DUP4 DUP4 PUSH2 0x10FD JUMP JUMPDEST PUSH2 0xF66 PUSH1 0x0 DUP5 DUP5 DUP5 PUSH2 0x131B JUMP JUMPDEST PUSH2 0xFA5 JUMPI PUSH1 0x40 MLOAD PUSH32 0x8C379A000000000000000000000000000000000000000000000000000000000 DUP2 MSTORE PUSH1 0x4 ADD PUSH2 0xF9C SWAP1 PUSH2 0x1B7E JUMP JUMPDEST PUSH1 0x40 MLOAD DUP1 SWAP2 SUB SWAP1 REVERT JUMPDEST POP POP POP JUMP JUMPDEST PUSH1 0x0 DUP1 PUSH1 0x0 SWAP1 POP PUSH27 0x184F03E93FF9F4DAA797ED6E38ED64BF6A1F010000000000000000 DUP4 LT PUSH2 0x1008 JUMPI PUSH27 0x184F03E93FF9F4DAA797ED6E38ED64BF6A1F010000000000000000 DUP4 DUP2 PUSH2 0xFFE JUMPI PUSH2 0xFFD PUSH2 0x1ECD JUMP JUMPDEST JUMPDEST DIV SWAP3 POP PUSH1 0x40 DUP2 ADD SWAP1 POP JUMPDEST PUSH14 0x4EE2D6D415B85ACEF8100000000 DUP4 LT PUSH2 0x1045 JUMPI PUSH14 0x4EE2D6D415B85ACEF8100000000 DUP4 DUP2 PUSH2 0x103B JUMPI PUSH2 0x103A PUSH2 0x1ECD JUMP JUMPDEST JUMPDEST DIV SWAP3 POP PUSH1 0x20 DUP2 ADD SWAP1 POP JUMPDEST PUSH7 0x2386F26FC10000 DUP4 LT PUSH2 0x1074 JUMPI PUSH7 0x2386F26FC10000 DUP4 DUP2 PUSH2 0x106A JUMPI PUSH2 0x1069 PUSH2 0x1ECD JUMP JUMPDEST JUMPDEST DIV SWAP3 POP PUSH1 0x10 DUP2 ADD SWAP1 POP JUMPDEST PUSH4 0x5F5E100 DUP4 LT PUSH2 0x109D JUMPI PUSH4 0x5F5E100 DUP4 DUP2 PUSH2 0x1093 JUMPI PUSH2 0x1092 PUSH2 0x1ECD JUMP JUMPDEST JUMPDEST DIV SWAP3 POP PUSH1 0x8 DUP2 ADD SWAP1 POP JUMPDEST PUSH2 0x2710 DUP4 LT PUSH2 0x10C2 JUMPI PUSH2 0x2710 DUP4 DUP2 PUSH2 0x10B8 JUMPI PUSH2 0x10B7 PUSH2 0x1ECD JUMP JUMPDEST JUMPDEST DIV SWAP3 POP PUSH1 0x4 DUP2 ADD SWAP1 POP JUMPDEST PUSH1 0x64 DUP4 LT PUSH2 0x10E5 JUMPI PUSH1 0x64 DUP4 DUP2 PUSH2 0x10DB JUMPI PUSH2 0x10DA PUSH2 0x1ECD JUMP JUMPDEST JUMPDEST DIV SWAP3 POP PUSH1 0x2 DUP2 ADD SWAP1 POP JUMPDEST PUSH1 0xA DUP4 LT PUSH2 0x10F4 JUMPI PUSH1 0x1 DUP2 ADD SWAP1 POP JUMPDEST DUP1 SWAP2 POP POP SWAP2 SWAP1 POP JUMP JUMPDEST PUSH1 0x0 PUSH20 0xFFFFFFFFFFFFFFFFFFFFFFFFFFFFFFFFFFFFFFFF AND DUP3 PUSH20 0xFFFFFFFFFFFFFFFFFFFFFFFFFFFFFFFFFFFFFFFF AND EQ ISZERO PUSH2 0x116D JUMPI PUSH1 0x40 MLOAD PUSH32 0x8C379A000000000000000000000000000000000000000000000000000000000 DUP2 MSTORE PUSH1 0x4 ADD PUSH2 0x1164 SWAP1 PUSH2 0x1C1E JUMP JUMPDEST PUSH1 0x40 MLOAD DUP1 SWAP2 SUB SWAP1 REVERT JUMPDEST PUSH2 0x1176 DUP2 PUSH2 0xE8D JUMP JUMPDEST ISZERO PUSH2 0x11B6 JUMPI PUSH1 0x40 MLOAD PUSH32 0x8C379A000000000000000000000000000000000000000000000000000000000 DUP2 MSTORE PUSH1 0x4 ADD PUSH2 0x11AD SWAP1 PUSH2 0x1B9E JUMP JUMPDEST PUSH1 0x40 MLOAD DUP1 SWAP2 SUB SWAP1 REVERT JUMPDEST PUSH2 0x11C4 PUSH1 0x0 DUP4 DUP4 PUSH1 0x1 PUSH2 0x14B2 JUMP JUMPDEST PUSH2 0x11CD DUP2 PUSH2 0xE8D JUMP JUMPDEST ISZERO PUSH2 0x120D JUMPI PUSH1 0x40 MLOAD PUSH32 0x8C379A000000000000000000000000000000000000000000000000000000000 DUP2 MSTORE PUSH1 0x4 ADD PUSH2 0x1204 SWAP1 PUSH2 0x1B9E JUMP JUMPDEST PUSH1 0x40 MLOAD DUP1 SWAP2 SUB SWAP1 REVERT JUMPDEST PUSH1 0x1 PUSH1 0x68 PUSH1 0x0 DUP5 PUSH20 0xFFFFFFFFFFFFFFFFFFFFFFFFFFFFFFFFFFFFFFFF AND PUSH20 0xFFFFFFFFFFFFFFFFFFFFFFFFFFFFFFFFFFFFFFFF AND DUP2 MSTORE PUSH1 0x20 ADD SWAP1 DUP2 MSTORE PUSH1 0x20 ADD PUSH1 0x0 KECCAK256 PUSH1 0x0 DUP3 DUP3 SLOAD ADD SWAP3 POP POP DUP2 SWAP1 SSTORE POP DUP2 PUSH1 0x67 PUSH1 0x0 DUP4 DUP2 MSTORE PUSH1 0x20 ADD SWAP1 DUP2 MSTORE PUSH1 0x20 ADD PUSH1 0x0 KECCAK256 PUSH1 0x0 PUSH2 0x100 EXP DUP2 SLOAD DUP2 PUSH20 0xFFFFFFFFFFFFFFFFFFFFFFFFFFFFFFFFFFFFFFFF MUL NOT AND SWAP1 DUP4 PUSH20 0xFFFFFFFFFFFFFFFFFFFFFFFFFFFFFFFFFFFFFFFF AND MUL OR SWAP1 SSTORE POP DUP1 DUP3 PUSH20 0xFFFFFFFFFFFFFFFFFFFFFFFFFFFFFFFFFFFFFFFF AND PUSH1 0x0 PUSH20 0xFFFFFFFFFFFFFFFFFFFFFFFFFFFFFFFFFFFFFFFF AND PUSH32 0xDDF252AD1BE2C89B69C2B068FC378DAA952BA7F163C4A11628F55A4DF523B3EF PUSH1 0x40 MLOAD PUSH1 0x40 MLOAD DUP1 SWAP2 SUB SWAP1 LOG4 PUSH2 0x1317 PUSH1 0x0 DUP4 DUP4 PUSH1 0x1 PUSH2 0x15D8 JUMP JUMPDEST POP POP JUMP JUMPDEST PUSH1 0x0 PUSH2 0x133C DUP5 PUSH20 0xFFFFFFFFFFFFFFFFFFFFFFFFFFFFFFFFFFFFFFFF AND PUSH2 0xB93 JUMP JUMPDEST ISZERO PUSH2 0x14A5 JUMPI DUP4 PUSH20 0xFFFFFFFFFFFFFFFFFFFFFFFFFFFFFFFFFFFFFFFF AND PUSH4 0x150B7A02 PUSH2 0x1365 PUSH2 0xA95 JUMP JUMPDEST DUP8 DUP7 DUP7 PUSH1 0x40 MLOAD DUP6 PUSH4 0xFFFFFFFF AND PUSH1 0xE0 SHL DUP2 MSTORE PUSH1 0x4 ADD PUSH2 0x1387 SWAP5 SWAP4 SWAP3 SWAP2 SWAP1 PUSH2 0x1ADA JUMP JUMPDEST PUSH1 0x20 PUSH1 0x40 MLOAD DUP1 DUP4 SUB DUP2 PUSH1 0x0 DUP8 DUP1 EXTCODESIZE ISZERO DUP1 ISZERO PUSH2 0x13A1 JUMPI PUSH1 0x0 DUP1 REVERT JUMPDEST POP GAS CALL SWAP3 POP POP POP DUP1 ISZERO PUSH2 0x13D2 JUMPI POP PUSH1 0x40 MLOAD RETURNDATASIZE PUSH1 0x1F NOT PUSH1 0x1F DUP3 ADD AND DUP3 ADD DUP1 PUSH1 0x40 MSTORE POP DUP2 ADD SWAP1 PUSH2 0x13CF SWAP2 SWAP1 PUSH2 0x1804 JUMP JUMPDEST PUSH1 0x1 JUMPDEST PUSH2 0x1455 JUMPI RETURNDATASIZE DUP1 PUSH1 0x0 DUP2 EQ PUSH2 0x1402 JUMPI PUSH1 0x40 MLOAD SWAP2 POP PUSH1 0x1F NOT PUSH1 0x3F RETURNDATASIZE ADD AND DUP3 ADD PUSH1 0x40 MSTORE RETURNDATASIZE DUP3 MSTORE RETURNDATASIZE PUSH1 0x0 PUSH1 0x20 DUP5 ADD RETURNDATACOPY PUSH2 0x1407 JUMP JUMPDEST PUSH1 0x60 SWAP2 POP JUMPDEST POP PUSH1 0x0 DUP2 MLOAD EQ ISZERO PUSH2 0x144D JUMPI PUSH1 0x40 MLOAD PUSH32 0x8C379A000000000000000000000000000000000000000000000000000000000 DUP2 MSTORE PUSH1 0x4 ADD PUSH2 0x1444 SWAP1 PUSH2 0x1B7E JUMP JUMPDEST PUSH1 0x40 MLOAD DUP1 SWAP2 SUB SWAP1 REVERT JUMPDEST DUP1 MLOAD DUP2 PUSH1 0x20 ADD REVERT JUMPDEST PUSH4 0x150B7A02 PUSH1 0xE0 SHL PUSH28 0xFFFFFFFFFFFFFFFFFFFFFFFFFFFFFFFFFFFFFFFFFFFFFFFFFFFFFFFF NOT AND DUP2 PUSH28 0xFFFFFFFFFFFFFFFFFFFFFFFFFFFFFFFFFFFFFFFFFFFFFFFFFFFFFFFF NOT AND EQ SWAP2 POP POP PUSH2 0x14AA JUMP JUMPDEST PUSH1 0x1 SWAP1 POP JUMPDEST SWAP5 SWAP4 POP POP POP POP JUMP JUMPDEST PUSH1 0x1 DUP2 GT ISZERO PUSH2 0x15D2 JUMPI PUSH1 0x0 PUSH20 0xFFFFFFFFFFFFFFFFFFFFFFFFFFFFFFFFFFFFFFFF AND DUP5 PUSH20 0xFFFFFFFFFFFFFFFFFFFFFFFFFFFFFFFFFFFFFFFF AND EQ PUSH2 0x1546 JUMPI DUP1 PUSH1 0x68 PUSH1 0x0 DUP7 PUSH20 0xFFFFFFFFFFFFFFFFFFFFFFFFFFFFFFFFFFFFFFFF AND PUSH20 0xFFFFFFFFFFFFFFFFFFFFFFFFFFFFFFFFFFFFFFFF AND DUP2 MSTORE PUSH1 0x20 ADD SWAP1 DUP2 MSTORE PUSH1 0x20 ADD PUSH1 0x0 KECCAK256 PUSH1 0x0 DUP3 DUP3 SLOAD PUSH2 0x153E SWAP2 SWAP1 PUSH2 0x1D72 JUMP JUMPDEST SWAP3 POP POP DUP2 SWAP1 SSTORE POP JUMPDEST PUSH1 0x0 PUSH20 0xFFFFFFFFFFFFFFFFFFFFFFFFFFFFFFFFFFFFFFFF AND DUP4 PUSH20 0xFFFFFFFFFFFFFFFFFFFFFFFFFFFFFFFFFFFFFFFF AND EQ PUSH2 0x15D1 JUMPI DUP1 PUSH1 0x68 PUSH1 0x0 DUP6 PUSH20 0xFFFFFFFFFFFFFFFFFFFFFFFFFFFFFFFFFFFFFFFF AND PUSH20 0xFFFFFFFFFFFFFFFFFFFFFFFFFFFFFFFFFFFFFFFF AND DUP2 MSTORE PUSH1 0x20 ADD SWAP1 DUP2 MSTORE PUSH1 0x20 ADD PUSH1 0x0 KECCAK256 PUSH1 0x0 DUP3 DUP3 SLOAD PUSH2 0x15C9 SWAP2 SWAP1 PUSH2 0x1D1C JUMP JUMPDEST SWAP3 POP POP DUP2 SWAP1 SSTORE POP JUMPDEST JUMPDEST POP POP POP POP JUMP JUMPDEST POP POP POP POP JUMP JUMPDEST DUP3 DUP1 SLOAD PUSH2 0x15EA SWAP1 PUSH2 0x1E6C JUMP JUMPDEST SWAP1 PUSH1 0x0 MSTORE PUSH1 0x20 PUSH1 0x0 KECCAK256 SWAP1 PUSH1 0x1F ADD PUSH1 0x20 SWAP1 DIV DUP2 ADD SWAP3 DUP3 PUSH2 0x160C JUMPI PUSH1 0x0 DUP6 SSTORE PUSH2 0x1653 JUMP JUMPDEST DUP3 PUSH1 0x1F LT PUSH2 0x1625 JUMPI DUP1 MLOAD PUSH1 0xFF NOT AND DUP4 DUP1 ADD OR DUP6 SSTORE PUSH2 0x1653 JUMP JUMPDEST DUP3 DUP1 ADD PUSH1 0x1 ADD DUP6 SSTORE DUP3 ISZERO PUSH2 0x1653 JUMPI SWAP2 DUP3 ADD JUMPDEST DUP3 DUP2 GT ISZERO PUSH2 0x1652 JUMPI DUP3 MLOAD DUP3 SSTORE SWAP2 PUSH1 0x20 ADD SWAP2 SWAP1 PUSH1 0x1 ADD SWAP1 PUSH2 0x1637 JUMP JUMPDEST JUMPDEST POP SWAP1 POP PUSH2 0x1660 SWAP2 SWAP1 PUSH2 0x1664 JUMP JUMPDEST POP SWAP1 JUMP JUMPDEST JUMPDEST DUP1 DUP3 GT ISZERO PUSH2 0x167D JUMPI PUSH1 0x0 DUP2 PUSH1 0x0 SWAP1 SSTORE POP PUSH1 0x1 ADD PUSH2 0x1665 JUMP JUMPDEST POP SWAP1 JUMP JUMPDEST PUSH1 0x0 DUP2 CALLDATALOAD SWAP1 POP PUSH2 0x1690 DUP2 PUSH2 0x21EE JUMP JUMPDEST SWAP3 SWAP2 POP POP JUMP JUMPDEST PUSH1 0x0 DUP2 CALLDATALOAD SWAP1 POP PUSH2 0x16A5 DUP2 PUSH2 0x2205 JUMP JUMPDEST SWAP3 SWAP2 POP POP JUMP JUMPDEST PUSH1 0x0 DUP2 CALLDATALOAD SWAP1 POP PUSH2 0x16BA DUP2 PUSH2 0x221C JUMP JUMPDEST SWAP3 SWAP2 POP POP JUMP JUMPDEST PUSH1 0x0 DUP2 MLOAD SWAP1 POP PUSH2 0x16CF DUP2 PUSH2 0x221C JUMP JUMPDEST SWAP3 SWAP2 POP POP JUMP JUMPDEST PUSH1 0x0 DUP2 CALLDATALOAD SWAP1 POP PUSH2 0x16E4 DUP2 PUSH2 0x2233 JUMP JUMPDEST SWAP3 SWAP2 POP POP JUMP JUMPDEST PUSH1 0x0 PUSH1 0x20 DUP3 DUP5 SUB SLT ISZERO PUSH2 0x1700 JUMPI PUSH2 0x16FF PUSH2 0x1F5A JUMP JUMPDEST JUMPDEST PUSH1 0x0 PUSH2 0x170E DUP5 DUP3 DUP6 ADD PUSH2 0x1681 JUMP JUMPDEST SWAP2 POP POP SWAP3 SWAP2 POP POP JUMP JUMPDEST PUSH1 0x0 DUP1 PUSH1 0x40 DUP4 DUP6 SUB SLT ISZERO PUSH2 0x172E JUMPI PUSH2 0x172D PUSH2 0x1F5A JUMP JUMPDEST JUMPDEST PUSH1 0x0 PUSH2 0x173C DUP6 DUP3 DUP7 ADD PUSH2 0x1681 JUMP JUMPDEST SWAP3 POP POP PUSH1 0x20 PUSH2 0x174D DUP6 DUP3 DUP7 ADD PUSH2 0x1681 JUMP JUMPDEST SWAP2 POP POP SWAP3 POP SWAP3 SWAP1 POP JUMP JUMPDEST PUSH1 0x0 DUP1 PUSH1 0x40 DUP4 DUP6 SUB SLT ISZERO PUSH2 0x176E JUMPI PUSH2 0x176D PUSH2 0x1F5A JUMP JUMPDEST JUMPDEST PUSH1 0x0 PUSH2 0x177C DUP6 DUP3 DUP7 ADD PUSH2 0x1681 JUMP JUMPDEST SWAP3 POP POP PUSH1 0x20 PUSH2 0x178D DUP6 DUP3 DUP7 ADD PUSH2 0x1696 JUMP JUMPDEST SWAP2 POP POP SWAP3 POP SWAP3 SWAP1 POP JUMP JUMPDEST PUSH1 0x0 DUP1 PUSH1 0x40 DUP4 DUP6 SUB SLT ISZERO PUSH2 0x17AE JUMPI PUSH2 0x17AD PUSH2 0x1F5A JUMP JUMPDEST JUMPDEST PUSH1 0x0 PUSH2 0x17BC DUP6 DUP3 DUP7 ADD PUSH2 0x1681 JUMP JUMPDEST SWAP3 POP POP PUSH1 0x20 PUSH2 0x17CD DUP6 DUP3 DUP7 ADD PUSH2 0x16D5 JUMP JUMPDEST SWAP2 POP POP SWAP3 POP SWAP3 SWAP1 POP JUMP JUMPDEST PUSH1 0x0 PUSH1 0x20 DUP3 DUP5 SUB SLT ISZERO PUSH2 0x17ED JUMPI PUSH2 0x17EC PUSH2 0x1F5A JUMP JUMPDEST JUMPDEST PUSH1 0x0 PUSH2 0x17FB DUP5 DUP3 DUP6 ADD PUSH2 0x16AB JUMP JUMPDEST SWAP2 POP POP SWAP3 SWAP2 POP POP JUMP JUMPDEST PUSH1 0x0 PUSH1 0x20 DUP3 DUP5 SUB SLT ISZERO PUSH2 0x181A JUMPI PUSH2 0x1819 PUSH2 0x1F5A JUMP JUMPDEST JUMPDEST PUSH1 0x0 PUSH2 0x1828 DUP5 DUP3 DUP6 ADD PUSH2 0x16C0 JUMP JUMPDEST SWAP2 POP POP SWAP3 SWAP2 POP POP JUMP JUMPDEST PUSH1 0x0 PUSH1 0x20 DUP3 DUP5 SUB SLT ISZERO PUSH2 0x1847 JUMPI PUSH2 0x1846 PUSH2 0x1F5A JUMP JUMPDEST JUMPDEST PUSH1 0x0 PUSH2 0x1855 DUP5 DUP3 DUP6 ADD PUSH2 0x16D5 JUMP JUMPDEST SWAP2 POP POP SWAP3 SWAP2 POP POP JUMP JUMPDEST PUSH2 0x1867 DUP2 PUSH2 0x1DA6 JUMP JUMPDEST DUP3 MSTORE POP POP JUMP JUMPDEST PUSH2 0x1876 DUP2 PUSH2 0x1DB8 JUMP JUMPDEST DUP3 MSTORE POP POP JUMP JUMPDEST PUSH1 0x0 PUSH2 0x1887 DUP3 PUSH2 0x1CD9 JUMP JUMPDEST PUSH2 0x1891 DUP2 DUP6 PUSH2 0x1CEF JUMP JUMPDEST SWAP4 POP PUSH2 0x18A1 DUP2 DUP6 PUSH1 0x20 DUP7 ADD PUSH2 0x1E39 JUMP JUMPDEST PUSH2 0x18AA DUP2 PUSH2 0x1F5F JUMP JUMPDEST DUP5 ADD SWAP2 POP POP SWAP3 SWAP2 POP POP JUMP JUMPDEST PUSH2 0x18BE DUP2 PUSH2 0x1E27 JUMP JUMPDEST DUP3 MSTORE POP POP JUMP JUMPDEST PUSH1 0x0 PUSH2 0x18CF DUP3 PUSH2 0x1CE4 JUMP JUMPDEST PUSH2 0x18D9 DUP2 DUP6 PUSH2 0x1D00 JUMP JUMPDEST SWAP4 POP PUSH2 0x18E9 DUP2 DUP6 PUSH1 0x20 DUP7 ADD PUSH2 0x1E39 JUMP JUMPDEST PUSH2 0x18F2 DUP2 PUSH2 0x1F5F JUMP JUMPDEST DUP5 ADD SWAP2 POP POP SWAP3 SWAP2 POP POP JUMP JUMPDEST PUSH1 0x0 PUSH2 0x1908 DUP3 PUSH2 0x1CE4 JUMP JUMPDEST PUSH2 0x1912 DUP2 DUP6 PUSH2 0x1D11 JUMP JUMPDEST SWAP4 POP PUSH2 0x1922 DUP2 DUP6 PUSH1 0x20 DUP7 ADD PUSH2 0x1E39 JUMP JUMPDEST DUP1 DUP5 ADD SWAP2 POP POP SWAP3 SWAP2 POP POP JUMP JUMPDEST PUSH1 0x0 PUSH2 0x193B PUSH1 0x32 DUP4 PUSH2 0x1D00 JUMP JUMPDEST SWAP2 POP PUSH2 0x1946 DUP3 PUSH2 0x1F70 JUMP JUMPDEST PUSH1 0x40 DUP3 ADD SWAP1 POP SWAP2 SWAP1 POP JUMP JUMPDEST PUSH1 0x0 PUSH2 0x195E PUSH1 0x1C DUP4 PUSH2 0x1D00 JUMP JUMPDEST SWAP2 POP PUSH2 0x1969 DUP3 PUSH2 0x1FBF JUMP JUMPDEST PUSH1 0x20 DUP3 ADD SWAP1 POP SWAP2 SWAP1 POP JUMP JUMPDEST PUSH1 0x0 PUSH2 0x1981 PUSH1 0x19 DUP4 PUSH2 0x1D00 JUMP JUMPDEST SWAP2 POP PUSH2 0x198C DUP3 PUSH2 0x1FE8 JUMP JUMPDEST PUSH1 0x20 DUP3 ADD SWAP1 POP SWAP2 SWAP1 POP JUMP JUMPDEST PUSH1 0x0 PUSH2 0x19A4 PUSH1 0x29 DUP4 PUSH2 0x1D00 JUMP JUMPDEST SWAP2 POP PUSH2 0x19AF DUP3 PUSH2 0x2011 JUMP JUMPDEST PUSH1 0x40 DUP3 ADD SWAP1 POP SWAP2 SWAP1 POP JUMP JUMPDEST PUSH1 0x0 PUSH2 0x19C7 PUSH1 0x2E DUP4 PUSH2 0x1D00 JUMP JUMPDEST SWAP2 POP PUSH2 0x19D2 DUP3 PUSH2 0x2060 JUMP JUMPDEST PUSH1 0x40 DUP3 ADD SWAP1 POP SWAP2 SWAP1 POP JUMP JUMPDEST PUSH1 0x0 PUSH2 0x19EA PUSH1 0x20 DUP4 PUSH2 0x1D00 JUMP JUMPDEST SWAP2 POP PUSH2 0x19F5 DUP3 PUSH2 0x20AF JUMP JUMPDEST PUSH1 0x20 DUP3 ADD SWAP1 POP SWAP2 SWAP1 POP JUMP JUMPDEST PUSH1 0x0 PUSH2 0x1A0D PUSH1 0x18 DUP4 PUSH2 0x1D00 JUMP JUMPDEST SWAP2 POP PUSH2 0x1A18 DUP3 PUSH2 0x20D8 JUMP JUMPDEST PUSH1 0x20 DUP3 ADD SWAP1 POP SWAP2 SWAP1 POP JUMP JUMPDEST PUSH1 0x0 PUSH2 0x1A30 PUSH1 0x21 DUP4 PUSH2 0x1D00 JUMP JUMPDEST SWAP2 POP PUSH2 0x1A3B DUP3 PUSH2 0x2101 JUMP JUMPDEST PUSH1 0x40 DUP3 ADD SWAP1 POP SWAP2 SWAP1 POP JUMP JUMPDEST PUSH1 0x0 PUSH2 0x1A53 PUSH1 0x3D DUP4 PUSH2 0x1D00 JUMP JUMPDEST SWAP2 POP PUSH2 0x1A5E DUP3 PUSH2 0x2150 JUMP JUMPDEST PUSH1 0x40 DUP3 ADD SWAP1 POP SWAP2 SWAP1 POP JUMP JUMPDEST PUSH1 0x0 PUSH2 0x1A76 PUSH1 0x2B DUP4 PUSH2 0x1D00 JUMP JUMPDEST SWAP2 POP PUSH2 0x1A81 DUP3 PUSH2 0x219F JUMP JUMPDEST PUSH1 0x40 DUP3 ADD SWAP1 POP SWAP2 SWAP1 POP JUMP JUMPDEST PUSH2 0x1A95 DUP2 PUSH2 0x1E10 JUMP JUMPDEST DUP3 MSTORE POP POP JUMP JUMPDEST PUSH1 0x0 PUSH2 0x1AA7 DUP3 DUP6 PUSH2 0x18FD JUMP JUMPDEST SWAP2 POP PUSH2 0x1AB3 DUP3 DUP5 PUSH2 0x18FD JUMP JUMPDEST SWAP2 POP DUP2 SWAP1 POP SWAP4 SWAP3 POP POP POP JUMP JUMPDEST PUSH1 0x0 PUSH1 0x20 DUP3 ADD SWAP1 POP PUSH2 0x1AD4 PUSH1 0x0 DUP4 ADD DUP5 PUSH2 0x185E JUMP JUMPDEST SWAP3 SWAP2 POP POP JUMP JUMPDEST PUSH1 0x0 PUSH1 0x80 DUP3 ADD SWAP1 POP PUSH2 0x1AEF PUSH1 0x0 DUP4 ADD DUP8 PUSH2 0x185E JUMP JUMPDEST PUSH2 0x1AFC PUSH1 0x20 DUP4 ADD DUP7 PUSH2 0x185E JUMP JUMPDEST PUSH2 0x1B09 PUSH1 0x40 DUP4 ADD DUP6 PUSH2 0x1A8C JUMP JUMPDEST DUP2 DUP2 SUB PUSH1 0x60 DUP4 ADD MSTORE PUSH2 0x1B1B DUP2 DUP5 PUSH2 0x187C JUMP JUMPDEST SWAP1 POP SWAP6 SWAP5 POP POP POP POP POP JUMP JUMPDEST PUSH1 0x0 PUSH1 0x20 DUP3 ADD SWAP1 POP PUSH2 0x1B3B PUSH1 0x0 DUP4 ADD DUP5 PUSH2 0x186D JUMP JUMPDEST SWAP3 SWAP2 POP POP JUMP JUMPDEST PUSH1 0x0 PUSH1 0x20 DUP3 ADD SWAP1 POP PUSH2 0x1B56 PUSH1 0x0 DUP4 ADD DUP5 PUSH2 0x18B5 JUMP JUMPDEST SWAP3 SWAP2 POP POP JUMP JUMPDEST PUSH1 0x0 PUSH1 0x20 DUP3 ADD SWAP1 POP DUP2 DUP2 SUB PUSH1 0x0 DUP4 ADD MSTORE PUSH2 0x1B76 DUP2 DUP5 PUSH2 0x18C4 JUMP JUMPDEST SWAP1 POP SWAP3 SWAP2 POP POP JUMP JUMPDEST PUSH1 0x0 PUSH1 0x20 DUP3 ADD SWAP1 POP DUP2 DUP2 SUB PUSH1 0x0 DUP4 ADD MSTORE PUSH2 0x1B97 DUP2 PUSH2 0x192E JUMP JUMPDEST SWAP1 POP SWAP2 SWAP1 POP JUMP JUMPDEST PUSH1 0x0 PUSH1 0x20 DUP3 ADD SWAP1 POP DUP2 DUP2 SUB PUSH1 0x0 DUP4 ADD MSTORE PUSH2 0x1BB7 DUP2 PUSH2 0x1951 JUMP JUMPDEST SWAP1 POP SWAP2 SWAP1 POP JUMP JUMPDEST PUSH1 0x0 PUSH1 0x20 DUP3 ADD SWAP1 POP DUP2 DUP2 SUB PUSH1 0x0 DUP4 ADD MSTORE PUSH2 0x1BD7 DUP2 PUSH2 0x1974 JUMP JUMPDEST SWAP1 POP SWAP2 SWAP1 POP JUMP JUMPDEST PUSH1 0x0 PUSH1 0x20 DUP3 ADD SWAP1 POP DUP2 DUP2 SUB PUSH1 0x0 DUP4 ADD MSTORE PUSH2 0x1BF7 DUP2 PUSH2 0x1997 JUMP JUMPDEST SWAP1 POP SWAP2 SWAP1 POP JUMP JUMPDEST PUSH1 0x0 PUSH1 0x20 DUP3 ADD SWAP1 POP DUP2 DUP2 SUB PUSH1 0x0 DUP4 ADD MSTORE PUSH2 0x1C17 DUP2 PUSH2 0x19BA JUMP JUMPDEST SWAP1 POP SWAP2 SWAP1 POP JUMP JUMPDEST PUSH1 0x0 PUSH1 0x20 DUP3 ADD SWAP1 POP DUP2 DUP2 SUB PUSH1 0x0 DUP4 ADD MSTORE PUSH2 0x1C37 DUP2 PUSH2 0x19DD JUMP JUMPDEST SWAP1 POP SWAP2 SWAP1 POP JUMP JUMPDEST PUSH1 0x0 PUSH1 0x20 DUP3 ADD SWAP1 POP DUP2 DUP2 SUB PUSH1 0x0 DUP4 ADD MSTORE PUSH2 0x1C57 DUP2 PUSH2 0x1A00 JUMP JUMPDEST SWAP1 POP SWAP2 SWAP1 POP JUMP JUMPDEST PUSH1 0x0 PUSH1 0x20 DUP3 ADD SWAP1 POP DUP2 DUP2 SUB PUSH1 0x0 DUP4 ADD MSTORE PUSH2 0x1C77 DUP2 PUSH2 0x1A23 JUMP JUMPDEST SWAP1 POP SWAP2 SWAP1 POP JUMP JUMPDEST PUSH1 0x0 PUSH1 0x20 DUP3 ADD SWAP1 POP DUP2 DUP2 SUB PUSH1 0x0 DUP4 ADD MSTORE PUSH2 0x1C97 DUP2 PUSH2 0x1A46 JUMP JUMPDEST SWAP1 POP SWAP2 SWAP1 POP JUMP JUMPDEST PUSH1 0x0 PUSH1 0x20 DUP3 ADD SWAP1 POP DUP2 DUP2 SUB PUSH1 0x0 DUP4 ADD MSTORE PUSH2 0x1CB7 DUP2 PUSH2 0x1A69 JUMP JUMPDEST SWAP1 POP SWAP2 SWAP1 POP JUMP JUMPDEST PUSH1 0x0 PUSH1 0x20 DUP3 ADD SWAP1 POP PUSH2 0x1CD3 PUSH1 0x0 DUP4 ADD DUP5 PUSH2 0x1A8C JUMP JUMPDEST SWAP3 SWAP2 POP POP JUMP JUMPDEST PUSH1 0x0 DUP2 MLOAD SWAP1 POP SWAP2 SWAP1 POP JUMP JUMPDEST PUSH1 0x0 DUP2 MLOAD SWAP1 POP SWAP2 SWAP1 POP JUMP JUMPDEST PUSH1 0x0 DUP3 DUP3 MSTORE PUSH1 0x20 DUP3 ADD SWAP1 POP SWAP3 SWAP2 POP POP JUMP JUMPDEST PUSH1 0x0 DUP3 DUP3 MSTORE PUSH1 0x20 DUP3 ADD SWAP1 POP SWAP3 SWAP2 POP POP JUMP JUMPDEST PUSH1 0x0 DUP2 SWAP1 POP SWAP3 SWAP2 POP POP JUMP JUMPDEST PUSH1 0x0 PUSH2 0x1D27 DUP3 PUSH2 0x1E10 JUMP JUMPDEST SWAP2 POP PUSH2 0x1D32 DUP4 PUSH2 0x1E10 JUMP JUMPDEST SWAP3 POP DUP3 PUSH32 0xFFFFFFFFFFFFFFFFFFFFFFFFFFFFFFFFFFFFFFFFFFFFFFFFFFFFFFFFFFFFFFFF SUB DUP3 GT ISZERO PUSH2 0x1D67 JUMPI PUSH2 0x1D66 PUSH2 0x1E9E JUMP JUMPDEST JUMPDEST DUP3 DUP3 ADD SWAP1 POP SWAP3 SWAP2 POP POP JUMP JUMPDEST PUSH1 0x0 PUSH2 0x1D7D DUP3 PUSH2 0x1E10 JUMP JUMPDEST SWAP2 POP PUSH2 0x1D88 DUP4 PUSH2 0x1E10 JUMP JUMPDEST SWAP3 POP DUP3 DUP3 LT ISZERO PUSH2 0x1D9B JUMPI PUSH2 0x1D9A PUSH2 0x1E9E JUMP JUMPDEST JUMPDEST DUP3 DUP3 SUB SWAP1 POP SWAP3 SWAP2 POP POP JUMP JUMPDEST PUSH1 0x0 PUSH2 0x1DB1 DUP3 PUSH2 0x1DF0 JUMP JUMPDEST SWAP1 POP SWAP2 SWAP1 POP JUMP JUMPDEST PUSH1 0x0 DUP2 ISZERO ISZERO SWAP1 POP SWAP2 SWAP1 POP JUMP JUMPDEST PUSH1 0x0 PUSH32 0xFFFFFFFF00000000000000000000000000000000000000000000000000000000 DUP3 AND SWAP1 POP SWAP2 SWAP1 POP JUMP JUMPDEST PUSH1 0x0 PUSH20 0xFFFFFFFFFFFFFFFFFFFFFFFFFFFFFFFFFFFFFFFF DUP3 AND SWAP1 POP SWAP2 SWAP1 POP JUMP JUMPDEST PUSH1 0x0 DUP2 SWAP1 POP SWAP2 SWAP1 POP JUMP JUMPDEST PUSH1 0x0 PUSH1 0xFF DUP3 AND SWAP1 POP SWAP2 SWAP1 POP JUMP JUMPDEST PUSH1 0x0 PUSH2 0x1E32 DUP3 PUSH2 0x1E1A JUMP JUMPDEST SWAP1 POP SWAP2 SWAP1 POP JUMP JUMPDEST PUSH1 0x0 JUMPDEST DUP4 DUP2 LT ISZERO PUSH2 0x1E57 JUMPI DUP1 DUP3 ADD MLOAD DUP2 DUP5 ADD MSTORE PUSH1 0x20 DUP2 ADD SWAP1 POP PUSH2 0x1E3C JUMP JUMPDEST DUP4 DUP2 GT ISZERO PUSH2 0x1E66 JUMPI PUSH1 0x0 DUP5 DUP5 ADD MSTORE JUMPDEST POP POP POP POP JUMP JUMPDEST PUSH1 0x0 PUSH1 0x2 DUP3 DIV SWAP1 POP PUSH1 0x1 DUP3 AND DUP1 PUSH2 0x1E84 JUMPI PUSH1 0x7F DUP3 AND SWAP2 POP JUMPDEST PUSH1 0x20 DUP3 LT DUP2 EQ ISZERO PUSH2 0x1E98 JUMPI PUSH2 0x1E97 PUSH2 0x1EFC JUMP JUMPDEST JUMPDEST POP SWAP2 SWAP1 POP JUMP JUMPDEST PUSH32 0x4E487B7100000000000000000000000000000000000000000000000000000000 PUSH1 0x0 MSTORE PUSH1 0x11 PUSH1 0x4 MSTORE PUSH1 0x24 PUSH1 0x0 REVERT JUMPDEST PUSH32 0x4E487B7100000000000000000000000000000000000000000000000000000000 PUSH1 0x0 MSTORE PUSH1 0x12 PUSH1 0x4 MSTORE PUSH1 0x24 PUSH1 0x0 REVERT JUMPDEST PUSH32 0x4E487B7100000000000000000000000000000000000000000000000000000000 PUSH1 0x0 MSTORE PUSH1 0x22 PUSH1 0x4 MSTORE PUSH1 0x24 PUSH1 0x0 REVERT JUMPDEST PUSH32 0x4E487B7100000000000000000000000000000000000000000000000000000000 PUSH1 0x0 MSTORE PUSH1 0x41 PUSH1 0x4 MSTORE PUSH1 0x24 PUSH1 0x0 REVERT JUMPDEST PUSH1 0x0 DUP1 REVERT JUMPDEST PUSH1 0x0 PUSH1 0x1F NOT PUSH1 0x1F DUP4 ADD AND SWAP1 POP SWAP2 SWAP1 POP JUMP JUMPDEST PUSH32 0x4552433732313A207472616E7366657220746F206E6F6E204552433732315265 PUSH1 0x0 DUP3 ADD MSTORE PUSH32 0x63656976657220696D706C656D656E7465720000000000000000000000000000 PUSH1 0x20 DUP3 ADD MSTORE POP JUMP JUMPDEST PUSH32 0x4552433732313A20746F6B656E20616C7265616479206D696E74656400000000 PUSH1 0x0 DUP3 ADD MSTORE POP JUMP JUMPDEST PUSH32 0x4552433732313A20617070726F766520746F2063616C6C657200000000000000 PUSH1 0x0 DUP3 ADD MSTORE POP JUMP JUMPDEST PUSH32 0x4552433732313A2061646472657373207A65726F206973206E6F742061207661 PUSH1 0x0 DUP3 ADD MSTORE PUSH32 0x6C6964206F776E65720000000000000000000000000000000000000000000000 PUSH1 0x20 DUP3 ADD MSTORE POP JUMP JUMPDEST PUSH32 0x496E697469616C697A61626C653A20636F6E747261637420697320616C726561 PUSH1 0x0 DUP3 ADD MSTORE PUSH32 0x647920696E697469616C697A6564000000000000000000000000000000000000 PUSH1 0x20 DUP3 ADD MSTORE POP JUMP JUMPDEST PUSH32 0x4552433732313A206D696E7420746F20746865207A65726F2061646472657373 PUSH1 0x0 DUP3 ADD MSTORE POP JUMP JUMPDEST PUSH32 0x4552433732313A20696E76616C696420746F6B656E2049440000000000000000 PUSH1 0x0 DUP3 ADD MSTORE POP JUMP JUMPDEST PUSH32 0x4552433732313A20617070726F76616C20746F2063757272656E74206F776E65 PUSH1 0x0 DUP3 ADD MSTORE PUSH32 0x7200000000000000000000000000000000000000000000000000000000000000 PUSH1 0x20 DUP3 ADD MSTORE POP JUMP JUMPDEST PUSH32 0x4552433732313A20617070726F76652063616C6C6572206973206E6F7420746F PUSH1 0x0 DUP3 ADD MSTORE PUSH32 0x6B656E206F776E6572206F7220617070726F76656420666F7220616C6C000000 PUSH1 0x20 DUP3 ADD MSTORE POP JUMP JUMPDEST PUSH32 0x496E697469616C697A61626C653A20636F6E7472616374206973206E6F742069 PUSH1 0x0 DUP3 ADD MSTORE PUSH32 0x6E697469616C697A696E67000000000000000000000000000000000000000000 PUSH1 0x20 DUP3 ADD MSTORE POP JUMP JUMPDEST PUSH2 0x21F7 DUP2 PUSH2 0x1DA6 JUMP JUMPDEST DUP2 EQ PUSH2 0x2202 JUMPI PUSH1 0x0 DUP1 REVERT JUMPDEST POP JUMP JUMPDEST PUSH2 0x220E DUP2 PUSH2 0x1DB8 JUMP JUMPDEST DUP2 EQ PUSH2 0x2219 JUMPI PUSH1 0x0 DUP1 REVERT JUMPDEST POP JUMP JUMPDEST PUSH2 0x2225 DUP2 PUSH2 0x1DC4 JUMP JUMPDEST DUP2 EQ PUSH2 0x2230 JUMPI PUSH1 0x0 DUP1 REVERT JUMPDEST POP JUMP JUMPDEST PUSH2 0x223C DUP2 PUSH2 0x1E10 JUMP JUMPDEST DUP2 EQ PUSH2 0x2247 JUMPI PUSH1 0x0 DUP1 REVERT JUMPDEST POP JUMP INVALID LOG2 PUSH5 0x6970667358 0x22 SLT KECCAK256 MOD EXTCODECOPY PUSH15 0xB2E851D39A73ED78CBF34FAFB3166 0xB9 SWAP2 0xB8 SWAP6 DIV 0xA5 DELEGATECALL EXTCODESIZE 0xC6 CALL 0xE4 PUSH11 0x8CF764736F6C6343000807 STOP CALLER "
				},
				"gasEstimates": {
					"creation": {
						"codeDepositCost": "1766400",
						"executionCost": "infinite",
						"totalCost": "infinite"
					},
					"external": {
						"approve(address,uint256)": "infinite",
						"balanceOf(address)": "2990",
						"getApproved(uint256)": "5277",
						"initialize()": "infinite",
						"isApprovedForAll(address,address)": "infinite",
						"name()": "infinite",
						"ownerOf(uint256)": "3091",
						"safeMint(address,uint256)": "infinite",
						"setApprovalForAll(address,bool)": "infinite",
						"supportsInterface(bytes4)": "774",
						"symbol()": "infinite",
						"tokenURI(uint256)": "3489"
					}
				},
				"methodIdentifiers": {
					"approve(address,uint256)": "095ea7b3",
					"balanceOf(address)": "70a08231",
					"getApproved(uint256)": "081812fc",
					"initialize()": "8129fc1c",
					"isApprovedForAll(address,address)": "e985e9c5",
					"name()": "06fdde03",
					"ownerOf(uint256)": "6352211e",
					"safeMint(address,uint256)": "a1448194",
					"setApprovalForAll(address,bool)": "a22cb465",
					"supportsInterface(bytes4)": "01ffc9a7",
					"symbol()": "95d89b41",
					"tokenURI(uint256)": "c87b56dd"
				}
			},
			"storageLayout": {
				"storage": [
					{
						"astId": 6,
						"contract": "contracts/MyToken.sol:MyToken",
						"label": "_initialized",
						"offset": 0,
						"slot": "0",
						"type": "t_uint8"
					},
					{
						"astId": 9,
						"contract": "contracts/MyToken.sol:MyToken",
						"label": "_initializing",
						"offset": 1,
						"slot": "0",
						"type": "t_bool"
					},
					{
						"astId": 1516,
						"contract": "contracts/MyToken.sol:MyToken",
						"label": "__gap",
						"offset": 0,
						"slot": "1",
						"type": "t_array(t_uint256)50_storage"
					},
					{
						"astId": 1735,
						"contract": "contracts/MyToken.sol:MyToken",
						"label": "__gap",
						"offset": 0,
						"slot": "51",
						"type": "t_array(t_uint256)50_storage"
					},
					{
						"astId": 197,
						"contract": "contracts/MyToken.sol:MyToken",
						"label": "_name",
						"offset": 0,
						"slot": "101",
						"type": "t_string_storage"
					},
					{
						"astId": 199,
						"contract": "contracts/MyToken.sol:MyToken",
						"label": "_symbol",
						"offset": 0,
						"slot": "102",
						"type": "t_string_storage"
					},
					{
						"astId": 203,
						"contract": "contracts/MyToken.sol:MyToken",
						"label": "_owners",
						"offset": 0,
						"slot": "103",
						"type": "t_mapping(t_uint256,t_address)"
					},
					{
						"astId": 207,
						"contract": "contracts/MyToken.sol:MyToken",
						"label": "_balances",
						"offset": 0,
						"slot": "104",
						"type": "t_mapping(t_address,t_uint256)"
					},
					{
						"astId": 211,
						"contract": "contracts/MyToken.sol:MyToken",
						"label": "_tokenApprovals",
						"offset": 0,
						"slot": "105",
						"type": "t_mapping(t_uint256,t_address)"
					},
					{
						"astId": 217,
						"contract": "contracts/MyToken.sol:MyToken",
						"label": "_operatorApprovals",
						"offset": 0,
						"slot": "106",
						"type": "t_mapping(t_address,t_mapping(t_address,t_bool))"
					},
					{
						"astId": 1061,
						"contract": "contracts/MyToken.sol:MyToken",
						"label": "__gap",
						"offset": 0,
						"slot": "107",
						"type": "t_array(t_uint256)44_storage"
					}
				],
				"types": {
					"t_address": {
						"encoding": "inplace",
						"label": "address",
						"numberOfBytes": "20"
					},
					"t_array(t_uint256)44_storage": {
						"base": "t_uint256",
						"encoding": "inplace",
						"label": "uint256[44]",
						"numberOfBytes": "1408"
					},
					"t_array(t_uint256)50_storage": {
						"base": "t_uint256",
						"encoding": "inplace",
						"label": "uint256[50]",
						"numberOfBytes": "1600"
					},
					"t_bool": {
						"encoding": "inplace",
						"label": "bool",
						"numberOfBytes": "1"
					},
					"t_mapping(t_address,t_bool)": {
						"encoding": "mapping",
						"key": "t_address",
						"label": "mapping(address => bool)",
						"numberOfBytes": "32",
						"value": "t_bool"
					},
					"t_mapping(t_address,t_mapping(t_address,t_bool))": {
						"encoding": "mapping",
						"key": "t_address",
						"label": "mapping(address => mapping(address => bool))",
						"numberOfBytes": "32",
						"value": "t_mapping(t_address,t_bool)"
					},
					"t_mapping(t_address,t_uint256)": {
						"encoding": "mapping",
						"key": "t_address",
						"label": "mapping(address => uint256)",
						"numberOfBytes": "32",
						"value": "t_uint256"
					},
					"t_mapping(t_uint256,t_address)": {
						"encoding": "mapping",
						"key": "t_uint256",
						"label": "mapping(uint256 => address)",
						"numberOfBytes": "32",
						"value": "t_address"
					},
					"t_string_storage": {
						"encoding": "bytes",
						"label": "string",
						"numberOfBytes": "32"
					},
					"t_uint256": {
						"encoding": "inplace",
						"label": "uint256",
						"numberOfBytes": "32"
					},
					"t_uint8": {
						"encoding": "inplace",
						"label": "uint8",
						"numberOfBytes": "1"
					}
				}
			},
			"userdoc": {
				"kind": "user",
				"methods": {},
				"version": 1
			}
		}
	}
}