{
	"@openzeppelin/contracts-upgradeable/token/ERC721/ERC721Upgradeable.sol": {
		"ERC721Upgradeable": {
			"abi": [
				{
					"anonymous": false,
					"inputs": [
						{
							"indexed": true,
							"internalType": "address",
							"name": "owner",
							"type": "address"
						},
						{
							"indexed": true,
							"internalType": "address",
							"name": "approved",
							"type": "address"
						},
						{
							"indexed": true,
							"internalType": "uint256",
							"name": "tokenId",
							"type": "uint256"
						}
					],
					"name": "Approval",
					"type": "event"
				},
				{
					"anonymous": false,
					"inputs": [
						{
							"indexed": true,
							"internalType": "address",
							"name": "owner",
							"type": "address"
						},
						{
							"indexed": true,
							"internalType": "address",
							"name": "operator",
							"type": "address"
						},
						{
							"indexed": false,
							"internalType": "bool",
							"name": "approved",
							"type": "bool"
						}
					],
					"name": "ApprovalForAll",
					"type": "event"
				},
				{
					"anonymous": false,
					"inputs": [
						{
							"indexed": false,
							"internalType": "uint8",
							"name": "version",
							"type": "uint8"
						}
					],
					"name": "Initialized",
					"type": "event"
				},
				{
					"anonymous": false,
					"inputs": [
						{
							"indexed": true,
							"internalType": "address",
							"name": "from",
							"type": "address"
						},
						{
							"indexed": true,
							"internalType": "address",
							"name": "to",
							"type": "address"
						},
						{
							"indexed": true,
							"internalType": "uint256",
							"name": "tokenId",
							"type": "uint256"
						}
					],
					"name": "Transfer",
					"type": "event"
				},
				{
					"inputs": [
						{
							"internalType": "address",
							"name": "to",
							"type": "address"
						},
						{
							"internalType": "uint256",
							"name": "tokenId",
							"type": "uint256"
						}
					],
					"name": "approve",
					"outputs": [],
					"stateMutability": "nonpayable",
					"type": "function"
				},
				{
					"inputs": [
						{
							"internalType": "address",
							"name": "owner",
							"type": "address"
						}
					],
					"name": "balanceOf",
					"outputs": [
						{
							"internalType": "uint256",
							"name": "",
							"type": "uint256"
						}
					],
					"stateMutability": "view",
					"type": "function"
				},
				{
					"inputs": [
						{
							"internalType": "uint256",
							"name": "tokenId",
							"type": "uint256"
						}
					],
					"name": "getApproved",
					"outputs": [
						{
							"internalType": "address",
							"name": "",
							"type": "address"
						}
					],
					"stateMutability": "view",
					"type": "function"
				},
				{
					"inputs": [
						{
							"internalType": "address",
							"name": "owner",
							"type": "address"
						},
						{
							"internalType": "address",
							"name": "operator",
							"type": "address"
						}
					],
					"name": "isApprovedForAll",
					"outputs": [
						{
							"internalType": "bool",
							"name": "",
							"type": "bool"
						}
					],
					"stateMutability": "view",
					"type": "function"
				},
				{
					"inputs": [],
					"name": "name",
					"outputs": [
						{
							"internalType": "string",
							"name": "",
							"type": "string"
						}
					],
					"stateMutability": "view",
					"type": "function"
				},
				{
					"inputs": [
						{
							"internalType": "uint256",
							"name": "tokenId",
							"type": "uint256"
						}
					],
					"name": "ownerOf",
					"outputs": [
						{
							"internalType": "address",
							"name": "",
							"type": "address"
						}
					],
					"stateMutability": "view",
					"type": "function"
				},
				{
					"inputs": [
						{
							"internalType": "address",
							"name": "operator",
							"type": "address"
						},
						{
							"internalType": "bool",
							"name": "approved",
							"type": "bool"
						}
					],
					"name": "setApprovalForAll",
					"outputs": [],
					"stateMutability": "nonpayable",
					"type": "function"
				},
				{
					"inputs": [
						{
							"internalType": "bytes4",
							"name": "interfaceId",
							"type": "bytes4"
						}
					],
					"name": "supportsInterface",
					"outputs": [
						{
							"internalType": "bool",
							"name": "",
							"type": "bool"
						}
					],
					"stateMutability": "view",
					"type": "function"
				},
				{
					"inputs": [],
					"name": "symbol",
					"outputs": [
						{
							"internalType": "string",
							"name": "",
							"type": "string"
						}
					],
					"stateMutability": "view",
					"type": "function"
				},
				{
					"inputs": [
						{
							"internalType": "uint256",
							"name": "tokenId",
							"type": "uint256"
						}
					],
					"name": "tokenURI",
					"outputs": [
						{
							"internalType": "string",
							"name": "",
							"type": "string"
						}
					],
					"stateMutability": "view",
					"type": "function"
				}
			],
			"devdoc": {
				"details": "Implementation of https://eips.ethereum.org/EIPS/eip-721[ERC721] Non-Fungible Token Standard, including the Metadata extension, but not including the Enumerable extension, which is available separately as {ERC721Enumerable}.",
				"kind": "dev",
				"methods": {
					"approve(address,uint256)": {
						"details": "See {IERC721-approve}."
					},
					"balanceOf(address)": {
						"details": "See {IERC721-balanceOf}."
					},
					"getApproved(uint256)": {
						"details": "See {IERC721-getApproved}."
					},
					"isApprovedForAll(address,address)": {
						"details": "See {IERC721-isApprovedForAll}."
					},
					"name()": {
						"details": "See {IERC721Metadata-name}."
					},
					"ownerOf(uint256)": {
						"details": "See {IERC721-ownerOf}."
					},
					"setApprovalForAll(address,bool)": {
						"details": "See {IERC721-setApprovalForAll}."
					},
					"supportsInterface(bytes4)": {
						"details": "See {IERC165-supportsInterface}."
					},
					"symbol()": {
						"details": "See {IERC721Metadata-symbol}."
					},
					"tokenURI(uint256)": {
						"details": "See {IERC721Metadata-tokenURI}."
					}
				},
				"stateVariables": {
					"__gap": {
						"details": "This empty reserved space is put in place to allow future versions to add new variables without shifting down storage in the inheritance chain. See https://docs.openzeppelin.com/contracts/4.x/upgradeable#storage_gaps"
					}
				},
				"version": 1
			},
			"evm": {
				"assembly": "    /* \"@openzeppelin/contracts-upgradeable/token/ERC721/ERC721Upgradeable.sol\":751:17881  contract ERC721Upgradeable is Initializable, ContextUpgradeable, ERC165Upgradeable, IERC721Upgradeable, IERC721MetadataUpgradeable {... */\n  mstore(0x40, 0x80)\n  callvalue\n  dup1\n  iszero\n  tag_1\n  jumpi\n  0x00\n  dup1\n  revert\ntag_1:\n  pop\n  dataSize(sub_0)\n  dup1\n  dataOffset(sub_0)\n  0x00\n  codecopy\n  0x00\n  return\nstop\n\nsub_0: assembly {\n        /* \"@openzeppelin/contracts-upgradeable/token/ERC721/ERC721Upgradeable.sol\":751:17881  contract ERC721Upgradeable is Initializable, ContextUpgradeable, ERC165Upgradeable, IERC721Upgradeable, IERC721MetadataUpgradeable {... */\n      mstore(0x40, 0x80)\n      callvalue\n      dup1\n      iszero\n      tag_1\n      jumpi\n      0x00\n      dup1\n      revert\n    tag_1:\n      pop\n      jumpi(tag_2, lt(calldatasize, 0x04))\n      shr(0xe0, calldataload(0x00))\n      dup1\n      0x70a08231\n      gt\n      tag_13\n      jumpi\n      dup1\n      0x70a08231\n      eq\n      tag_8\n      jumpi\n      dup1\n      0x95d89b41\n      eq\n      tag_9\n      jumpi\n      dup1\n      0xa22cb465\n      eq\n      tag_10\n      jumpi\n      dup1\n      0xc87b56dd\n      eq\n      tag_11\n      jumpi\n      dup1\n      0xe985e9c5\n      eq\n      tag_12\n      jumpi\n      jump(tag_2)\n    tag_13:\n      dup1\n      0x01ffc9a7\n      eq\n      tag_3\n      jumpi\n      dup1\n      0x06fdde03\n      eq\n      tag_4\n      jumpi\n      dup1\n      0x081812fc\n      eq\n      tag_5\n      jumpi\n      dup1\n      0x095ea7b3\n      eq\n      tag_6\n      jumpi\n      dup1\n      0x6352211e\n      eq\n      tag_7\n      jumpi\n    tag_2:\n      0x00\n      dup1\n      revert\n        /* \"@openzeppelin/contracts-upgradeable/token/ERC721/ERC721Upgradeable.sol\":1987:2331  function supportsInterface(bytes4 interfaceId) public view virtual override(ERC165Upgradeable, IERC165Upgradeable) returns (bool) {... */\n    tag_3:\n      tag_14\n      0x04\n      dup1\n      calldatasize\n      sub\n      dup2\n      add\n      swap1\n      tag_15\n      swap2\n      swap1\n      tag_16\n      jump\t// in\n    tag_15:\n      tag_17\n      jump\t// in\n    tag_14:\n      mload(0x40)\n      tag_18\n      swap2\n      swap1\n      tag_19\n      jump\t// in\n    tag_18:\n      mload(0x40)\n      dup1\n      swap2\n      sub\n      swap1\n      return\n        /* \"@openzeppelin/contracts-upgradeable/token/ERC721/ERC721Upgradeable.sol\":2932:3030  function name() public view virtual override returns (string memory) {... */\n    tag_4:\n      tag_20\n      tag_21\n      jump\t// in\n    tag_20:\n      mload(0x40)\n      tag_22\n      swap2\n      swap1\n      tag_23\n      jump\t// in\n    tag_22:\n      mload(0x40)\n      dup1\n      swap2\n      sub\n      swap1\n      return\n        /* \"@openzeppelin/contracts-upgradeable/token/ERC721/ERC721Upgradeable.sol\":4407:4574  function getApproved(uint256 tokenId) public view virtual override returns (address) {... */\n    tag_5:\n      tag_24\n      0x04\n      dup1\n      calldatasize\n      sub\n      dup2\n      add\n      swap1\n      tag_25\n      swap2\n      swap1\n      tag_26\n      jump\t// in\n    tag_25:\n      tag_27\n      jump\t// in\n    tag_24:\n      mload(0x40)\n      tag_28\n      swap2\n      swap1\n      tag_29\n      jump\t// in\n    tag_28:\n      mload(0x40)\n      dup1\n      swap2\n      sub\n      swap1\n      return\n        /* \"@openzeppelin/contracts-upgradeable/token/ERC721/ERC721Upgradeable.sol\":3929:4346  function approve(address to, uint256 tokenId) public virtual override {... */\n    tag_6:\n      tag_30\n      0x04\n      dup1\n      calldatasize\n      sub\n      dup2\n      add\n      swap1\n      tag_31\n      swap2\n      swap1\n      tag_32\n      jump\t// in\n    tag_31:\n      tag_33\n      jump\t// in\n    tag_30:\n      stop\n        /* \"@openzeppelin/contracts-upgradeable/token/ERC721/ERC721Upgradeable.sol\":2651:2870  function ownerOf(uint256 tokenId) public view virtual override returns (address) {... */\n    tag_7:\n      tag_34\n      0x04\n      dup1\n      calldatasize\n      sub\n      dup2\n      add\n      swap1\n      tag_35\n      swap2\n      swap1\n      tag_26\n      jump\t// in\n    tag_35:\n      tag_36\n      jump\t// in\n    tag_34:\n      mload(0x40)\n      tag_37\n      swap2\n      swap1\n      tag_29\n      jump\t// in\n    tag_37:\n      mload(0x40)\n      dup1\n      swap2\n      sub\n      swap1\n      return\n        /* \"@openzeppelin/contracts-upgradeable/token/ERC721/ERC721Upgradeable.sol\":2390:2594  function balanceOf(address owner) public view virtual override returns (uint256) {... */\n    tag_8:\n      tag_38\n      0x04\n      dup1\n      calldatasize\n      sub\n      dup2\n      add\n      swap1\n      tag_39\n      swap2\n      swap1\n      tag_40\n      jump\t// in\n    tag_39:\n      tag_41\n      jump\t// in\n    tag_38:\n      mload(0x40)\n      tag_42\n      swap2\n      swap1\n      tag_43\n      jump\t// in\n    tag_42:\n      mload(0x40)\n      dup1\n      swap2\n      sub\n      swap1\n      return\n        /* \"@openzeppelin/contracts-upgradeable/token/ERC721/ERC721Upgradeable.sol\":3094:3196  function symbol() public view virtual override returns (string memory) {... */\n    tag_9:\n      tag_44\n      tag_45\n      jump\t// in\n    tag_44:\n      mload(0x40)\n      tag_46\n      swap2\n      swap1\n      tag_23\n      jump\t// in\n    tag_46:\n      mload(0x40)\n      dup1\n      swap2\n      sub\n      swap1\n      return\n        /* \"@openzeppelin/contracts-upgradeable/token/ERC721/ERC721Upgradeable.sol\":4641:4794  function setApprovalForAll(address operator, bool approved) public virtual override {... */\n    tag_10:\n      tag_47\n      0x04\n      dup1\n      calldatasize\n      sub\n      dup2\n      add\n      swap1\n      tag_48\n      swap2\n      swap1\n      tag_49\n      jump\t// in\n    tag_48:\n      tag_50\n      jump\t// in\n    tag_47:\n      stop\n        /* \"@openzeppelin/contracts-upgradeable/token/ERC721/ERC721Upgradeable.sol\":3262:3538  function tokenURI(uint256 tokenId) public view virtual override returns (string memory) {... */\n    tag_11:\n      tag_51\n      0x04\n      dup1\n      calldatasize\n      sub\n      dup2\n      add\n      swap1\n      tag_52\n      swap2\n      swap1\n      tag_26\n      jump\t// in\n    tag_52:\n      tag_53\n      jump\t// in\n    tag_51:\n      mload(0x40)\n      tag_54\n      swap2\n      swap1\n      tag_23\n      jump\t// in\n    tag_54:\n      mload(0x40)\n      dup1\n      swap2\n      sub\n      swap1\n      return\n        /* \"@openzeppelin/contracts-upgradeable/token/ERC721/ERC721Upgradeable.sol\":4860:5022  function isApprovedForAll(address owner, address operator) public view virtual override returns (bool) {... */\n    tag_12:\n      tag_55\n      0x04\n      dup1\n      calldatasize\n      sub\n      dup2\n      add\n      swap1\n      tag_56\n      swap2\n      swap1\n      tag_57\n      jump\t// in\n    tag_56:\n      tag_58\n      jump\t// in\n    tag_55:\n      mload(0x40)\n      tag_59\n      swap2\n      swap1\n      tag_19\n      jump\t// in\n    tag_59:\n      mload(0x40)\n      dup1\n      swap2\n      sub\n      swap1\n      return\n        /* \"@openzeppelin/contracts-upgradeable/token/ERC721/ERC721Upgradeable.sol\":1987:2331  function supportsInterface(bytes4 interfaceId) public view virtual override(ERC165Upgradeable, IERC165Upgradeable) returns (bool) {... */\n    tag_17:\n        /* \"@openzeppelin/contracts-upgradeable/token/ERC721/ERC721Upgradeable.sol\":2111:2115  bool */\n      0x00\n        /* \"@openzeppelin/contracts-upgradeable/token/ERC721/ERC721Upgradeable.sol\":2161:2197  type(IERC721Upgradeable).interfaceId */\n      0x591d4bc000000000000000000000000000000000000000000000000000000000\n        /* \"@openzeppelin/contracts-upgradeable/token/ERC721/ERC721Upgradeable.sol\":2146:2197  interfaceId == type(IERC721Upgradeable).interfaceId */\n      not(0xffffffffffffffffffffffffffffffffffffffffffffffffffffffff)\n      and\n        /* \"@openzeppelin/contracts-upgradeable/token/ERC721/ERC721Upgradeable.sol\":2146:2157  interfaceId */\n      dup3\n        /* \"@openzeppelin/contracts-upgradeable/token/ERC721/ERC721Upgradeable.sol\":2146:2197  interfaceId == type(IERC721Upgradeable).interfaceId */\n      not(0xffffffffffffffffffffffffffffffffffffffffffffffffffffffff)\n      and\n      eq\n        /* \"@openzeppelin/contracts-upgradeable/token/ERC721/ERC721Upgradeable.sol\":2146:2272  interfaceId == type(IERC721Upgradeable).interfaceId ||... */\n      dup1\n      tag_61\n      jumpi\n      pop\n        /* \"@openzeppelin/contracts-upgradeable/token/ERC721/ERC721Upgradeable.sol\":2228:2272  type(IERC721MetadataUpgradeable).interfaceId */\n      0x5b5e139f00000000000000000000000000000000000000000000000000000000\n        /* \"@openzeppelin/contracts-upgradeable/token/ERC721/ERC721Upgradeable.sol\":2213:2272  interfaceId == type(IERC721MetadataUpgradeable).interfaceId */\n      not(0xffffffffffffffffffffffffffffffffffffffffffffffffffffffff)\n      and\n        /* \"@openzeppelin/contracts-upgradeable/token/ERC721/ERC721Upgradeable.sol\":2213:2224  interfaceId */\n      dup3\n        /* \"@openzeppelin/contracts-upgradeable/token/ERC721/ERC721Upgradeable.sol\":2213:2272  interfaceId == type(IERC721MetadataUpgradeable).interfaceId */\n      not(0xffffffffffffffffffffffffffffffffffffffffffffffffffffffff)\n      and\n      eq\n        /* \"@openzeppelin/contracts-upgradeable/token/ERC721/ERC721Upgradeable.sol\":2146:2272  interfaceId == type(IERC721Upgradeable).interfaceId ||... */\n    tag_61:\n        /* \"@openzeppelin/contracts-upgradeable/token/ERC721/ERC721Upgradeable.sol\":2146:2324  interfaceId == type(IERC721Upgradeable).interfaceId ||... */\n      dup1\n      tag_62\n      jumpi\n      pop\n        /* \"@openzeppelin/contracts-upgradeable/token/ERC721/ERC721Upgradeable.sol\":2288:2324  super.supportsInterface(interfaceId) */\n      tag_63\n        /* \"@openzeppelin/contracts-upgradeable/token/ERC721/ERC721Upgradeable.sol\":2312:2323  interfaceId */\n      dup3\n        /* \"@openzeppelin/contracts-upgradeable/token/ERC721/ERC721Upgradeable.sol\":2288:2311  super.supportsInterface */\n      tag_64\n        /* \"@openzeppelin/contracts-upgradeable/token/ERC721/ERC721Upgradeable.sol\":2288:2324  super.supportsInterface(interfaceId) */\n      jump\t// in\n    tag_63:\n        /* \"@openzeppelin/contracts-upgradeable/token/ERC721/ERC721Upgradeable.sol\":2146:2324  interfaceId == type(IERC721Upgradeable).interfaceId ||... */\n    tag_62:\n        /* \"@openzeppelin/contracts-upgradeable/token/ERC721/ERC721Upgradeable.sol\":2127:2324  return... */\n      swap1\n      pop\n        /* \"@openzeppelin/contracts-upgradeable/token/ERC721/ERC721Upgradeable.sol\":1987:2331  function supportsInterface(bytes4 interfaceId) public view virtual override(ERC165Upgradeable, IERC165Upgradeable) returns (bool) {... */\n      swap2\n      swap1\n      pop\n      jump\t// out\n        /* \"@openzeppelin/contracts-upgradeable/token/ERC721/ERC721Upgradeable.sol\":2932:3030  function name() public view virtual override returns (string memory) {... */\n    tag_21:\n        /* \"@openzeppelin/contracts-upgradeable/token/ERC721/ERC721Upgradeable.sol\":2986:2999  string memory */\n      0x60\n        /* \"@openzeppelin/contracts-upgradeable/token/ERC721/ERC721Upgradeable.sol\":3018:3023  _name */\n      0x65\n        /* \"@openzeppelin/contracts-upgradeable/token/ERC721/ERC721Upgradeable.sol\":3011:3023  return _name */\n      dup1\n      sload\n      tag_66\n      swap1\n      tag_67\n      jump\t// in\n    tag_66:\n      dup1\n      0x1f\n      add\n      0x20\n      dup1\n      swap2\n      div\n      mul\n      0x20\n      add\n      mload(0x40)\n      swap1\n      dup2\n      add\n      0x40\n      mstore\n      dup1\n      swap3\n      swap2\n      swap1\n      dup2\n      dup2\n      mstore\n      0x20\n      add\n      dup3\n      dup1\n      sload\n      tag_68\n      swap1\n      tag_67\n      jump\t// in\n    tag_68:\n      dup1\n      iszero\n      tag_69\n      jumpi\n      dup1\n      0x1f\n      lt\n      tag_70\n      jumpi\n      0x0100\n      dup1\n      dup4\n      sload\n      div\n      mul\n      dup4\n      mstore\n      swap2\n      0x20\n      add\n      swap2\n      jump(tag_69)\n    tag_70:\n      dup3\n      add\n      swap2\n      swap1\n      0x00\n      mstore\n      keccak256(0x00, 0x20)\n      swap1\n    tag_71:\n      dup2\n      sload\n      dup2\n      mstore\n      swap1\n      0x01\n      add\n      swap1\n      0x20\n      add\n      dup1\n      dup4\n      gt\n      tag_71\n      jumpi\n      dup3\n      swap1\n      sub\n      0x1f\n      and\n      dup3\n      add\n      swap2\n    tag_69:\n      pop\n      pop\n      pop\n      pop\n      pop\n      swap1\n      pop\n        /* \"@openzeppelin/contracts-upgradeable/token/ERC721/ERC721Upgradeable.sol\":2932:3030  function name() public view virtual override returns (string memory) {... */\n      swap1\n      jump\t// out\n        /* \"@openzeppelin/contracts-upgradeable/token/ERC721/ERC721Upgradeable.sol\":4407:4574  function getApproved(uint256 tokenId) public view virtual override returns (address) {... */\n    tag_27:\n        /* \"@openzeppelin/contracts-upgradeable/token/ERC721/ERC721Upgradeable.sol\":4483:4490  address */\n      0x00\n        /* \"@openzeppelin/contracts-upgradeable/token/ERC721/ERC721Upgradeable.sol\":4502:4525  _requireMinted(tokenId) */\n      tag_73\n        /* \"@openzeppelin/contracts-upgradeable/token/ERC721/ERC721Upgradeable.sol\":4517:4524  tokenId */\n      dup3\n        /* \"@openzeppelin/contracts-upgradeable/token/ERC721/ERC721Upgradeable.sol\":4502:4516  _requireMinted */\n      tag_74\n        /* \"@openzeppelin/contracts-upgradeable/token/ERC721/ERC721Upgradeable.sol\":4502:4525  _requireMinted(tokenId) */\n      jump\t// in\n    tag_73:\n        /* \"@openzeppelin/contracts-upgradeable/token/ERC721/ERC721Upgradeable.sol\":4543:4558  _tokenApprovals */\n      0x69\n        /* \"@openzeppelin/contracts-upgradeable/token/ERC721/ERC721Upgradeable.sol\":4543:4567  _tokenApprovals[tokenId] */\n      0x00\n        /* \"@openzeppelin/contracts-upgradeable/token/ERC721/ERC721Upgradeable.sol\":4559:4566  tokenId */\n      dup4\n        /* \"@openzeppelin/contracts-upgradeable/token/ERC721/ERC721Upgradeable.sol\":4543:4567  _tokenApprovals[tokenId] */\n      dup2\n      mstore\n      0x20\n      add\n      swap1\n      dup2\n      mstore\n      0x20\n      add\n      0x00\n      keccak256\n      0x00\n      swap1\n      sload\n      swap1\n      0x0100\n      exp\n      swap1\n      div\n      0xffffffffffffffffffffffffffffffffffffffff\n      and\n        /* \"@openzeppelin/contracts-upgradeable/token/ERC721/ERC721Upgradeable.sol\":4536:4567  return _tokenApprovals[tokenId] */\n      swap1\n      pop\n        /* \"@openzeppelin/contracts-upgradeable/token/ERC721/ERC721Upgradeable.sol\":4407:4574  function getApproved(uint256 tokenId) public view virtual override returns (address) {... */\n      swap2\n      swap1\n      pop\n      jump\t// out\n        /* \"@openzeppelin/contracts-upgradeable/token/ERC721/ERC721Upgradeable.sol\":3929:4346  function approve(address to, uint256 tokenId) public virtual override {... */\n    tag_33:\n        /* \"@openzeppelin/contracts-upgradeable/token/ERC721/ERC721Upgradeable.sol\":4009:4022  address owner */\n      0x00\n        /* \"@openzeppelin/contracts-upgradeable/token/ERC721/ERC721Upgradeable.sol\":4025:4059  ERC721Upgradeable.ownerOf(tokenId) */\n      tag_76\n        /* \"@openzeppelin/contracts-upgradeable/token/ERC721/ERC721Upgradeable.sol\":4051:4058  tokenId */\n      dup3\n        /* \"@openzeppelin/contracts-upgradeable/token/ERC721/ERC721Upgradeable.sol\":4025:4050  ERC721Upgradeable.ownerOf */\n      tag_36\n        /* \"@openzeppelin/contracts-upgradeable/token/ERC721/ERC721Upgradeable.sol\":4025:4059  ERC721Upgradeable.ownerOf(tokenId) */\n      jump\t// in\n    tag_76:\n        /* \"@openzeppelin/contracts-upgradeable/token/ERC721/ERC721Upgradeable.sol\":4009:4059  address owner = ERC721Upgradeable.ownerOf(tokenId) */\n      swap1\n      pop\n        /* \"@openzeppelin/contracts-upgradeable/token/ERC721/ERC721Upgradeable.sol\":4083:4088  owner */\n      dup1\n        /* \"@openzeppelin/contracts-upgradeable/token/ERC721/ERC721Upgradeable.sol\":4077:4088  to != owner */\n      0xffffffffffffffffffffffffffffffffffffffff\n      and\n        /* \"@openzeppelin/contracts-upgradeable/token/ERC721/ERC721Upgradeable.sol\":4077:4079  to */\n      dup4\n        /* \"@openzeppelin/contracts-upgradeable/token/ERC721/ERC721Upgradeable.sol\":4077:4088  to != owner */\n      0xffffffffffffffffffffffffffffffffffffffff\n      and\n      eq\n      iszero\n        /* \"@openzeppelin/contracts-upgradeable/token/ERC721/ERC721Upgradeable.sol\":4069:4126  require(to != owner, \"ERC721: approval to current owner\") */\n      tag_77\n      jumpi\n      mload(0x40)\n      0x08c379a000000000000000000000000000000000000000000000000000000000\n      dup2\n      mstore\n      0x04\n      add\n      tag_78\n      swap1\n      tag_79\n      jump\t// in\n    tag_78:\n      mload(0x40)\n      dup1\n      swap2\n      sub\n      swap1\n      revert\n    tag_77:\n        /* \"@openzeppelin/contracts-upgradeable/token/ERC721/ERC721Upgradeable.sol\":4174:4179  owner */\n      dup1\n        /* \"@openzeppelin/contracts-upgradeable/token/ERC721/ERC721Upgradeable.sol\":4158:4179  _msgSender() == owner */\n      0xffffffffffffffffffffffffffffffffffffffff\n      and\n        /* \"@openzeppelin/contracts-upgradeable/token/ERC721/ERC721Upgradeable.sol\":4158:4170  _msgSender() */\n      tag_80\n        /* \"@openzeppelin/contracts-upgradeable/token/ERC721/ERC721Upgradeable.sol\":4158:4168  _msgSender */\n      tag_81\n        /* \"@openzeppelin/contracts-upgradeable/token/ERC721/ERC721Upgradeable.sol\":4158:4170  _msgSender() */\n      jump\t// in\n    tag_80:\n        /* \"@openzeppelin/contracts-upgradeable/token/ERC721/ERC721Upgradeable.sol\":4158:4179  _msgSender() == owner */\n      0xffffffffffffffffffffffffffffffffffffffff\n      and\n      eq\n        /* \"@openzeppelin/contracts-upgradeable/token/ERC721/ERC721Upgradeable.sol\":4158:4220  _msgSender() == owner || isApprovedForAll(owner, _msgSender()) */\n      dup1\n      tag_82\n      jumpi\n      pop\n        /* \"@openzeppelin/contracts-upgradeable/token/ERC721/ERC721Upgradeable.sol\":4183:4220  isApprovedForAll(owner, _msgSender()) */\n      tag_83\n        /* \"@openzeppelin/contracts-upgradeable/token/ERC721/ERC721Upgradeable.sol\":4200:4205  owner */\n      dup2\n        /* \"@openzeppelin/contracts-upgradeable/token/ERC721/ERC721Upgradeable.sol\":4207:4219  _msgSender() */\n      tag_84\n        /* \"@openzeppelin/contracts-upgradeable/token/ERC721/ERC721Upgradeable.sol\":4207:4217  _msgSender */\n      tag_81\n        /* \"@openzeppelin/contracts-upgradeable/token/ERC721/ERC721Upgradeable.sol\":4207:4219  _msgSender() */\n      jump\t// in\n    tag_84:\n        /* \"@openzeppelin/contracts-upgradeable/token/ERC721/ERC721Upgradeable.sol\":4183:4199  isApprovedForAll */\n      tag_58\n        /* \"@openzeppelin/contracts-upgradeable/token/ERC721/ERC721Upgradeable.sol\":4183:4220  isApprovedForAll(owner, _msgSender()) */\n      jump\t// in\n    tag_83:\n        /* \"@openzeppelin/contracts-upgradeable/token/ERC721/ERC721Upgradeable.sol\":4158:4220  _msgSender() == owner || isApprovedForAll(owner, _msgSender()) */\n    tag_82:\n        /* \"@openzeppelin/contracts-upgradeable/token/ERC721/ERC721Upgradeable.sol\":4137:4307  require(... */\n      tag_85\n      jumpi\n      mload(0x40)\n      0x08c379a000000000000000000000000000000000000000000000000000000000\n      dup2\n      mstore\n      0x04\n      add\n      tag_86\n      swap1\n      tag_87\n      jump\t// in\n    tag_86:\n      mload(0x40)\n      dup1\n      swap2\n      sub\n      swap1\n      revert\n    tag_85:\n        /* \"@openzeppelin/contracts-upgradeable/token/ERC721/ERC721Upgradeable.sol\":4318:4339  _approve(to, tokenId) */\n      tag_88\n        /* \"@openzeppelin/contracts-upgradeable/token/ERC721/ERC721Upgradeable.sol\":4327:4329  to */\n      dup4\n        /* \"@openzeppelin/contracts-upgradeable/token/ERC721/ERC721Upgradeable.sol\":4331:4338  tokenId */\n      dup4\n        /* \"@openzeppelin/contracts-upgradeable/token/ERC721/ERC721Upgradeable.sol\":4318:4326  _approve */\n      tag_89\n        /* \"@openzeppelin/contracts-upgradeable/token/ERC721/ERC721Upgradeable.sol\":4318:4339  _approve(to, tokenId) */\n      jump\t// in\n    tag_88:\n        /* \"@openzeppelin/contracts-upgradeable/token/ERC721/ERC721Upgradeable.sol\":3999:4346  {... */\n      pop\n        /* \"@openzeppelin/contracts-upgradeable/token/ERC721/ERC721Upgradeable.sol\":3929:4346  function approve(address to, uint256 tokenId) public virtual override {... */\n      pop\n      pop\n      jump\t// out\n        /* \"@openzeppelin/contracts-upgradeable/token/ERC721/ERC721Upgradeable.sol\":2651:2870  function ownerOf(uint256 tokenId) public view virtual override returns (address) {... */\n    tag_36:\n        /* \"@openzeppelin/contracts-upgradeable/token/ERC721/ERC721Upgradeable.sol\":2723:2730  address */\n      0x00\n        /* \"@openzeppelin/contracts-upgradeable/token/ERC721/ERC721Upgradeable.sol\":2742:2755  address owner */\n      dup1\n        /* \"@openzeppelin/contracts-upgradeable/token/ERC721/ERC721Upgradeable.sol\":2758:2775  _ownerOf(tokenId) */\n      tag_91\n        /* \"@openzeppelin/contracts-upgradeable/token/ERC721/ERC721Upgradeable.sol\":2767:2774  tokenId */\n      dup4\n        /* \"@openzeppelin/contracts-upgradeable/token/ERC721/ERC721Upgradeable.sol\":2758:2766  _ownerOf */\n      tag_92\n        /* \"@openzeppelin/contracts-upgradeable/token/ERC721/ERC721Upgradeable.sol\":2758:2775  _ownerOf(tokenId) */\n      jump\t// in\n    tag_91:\n        /* \"@openzeppelin/contracts-upgradeable/token/ERC721/ERC721Upgradeable.sol\":2742:2775  address owner = _ownerOf(tokenId) */\n      swap1\n      pop\n        /* \"@openzeppelin/contracts-upgradeable/token/ERC721/ERC721Upgradeable.sol\":2810:2811  0 */\n      0x00\n        /* \"@openzeppelin/contracts-upgradeable/token/ERC721/ERC721Upgradeable.sol\":2793:2812  owner != address(0) */\n      0xffffffffffffffffffffffffffffffffffffffff\n      and\n        /* \"@openzeppelin/contracts-upgradeable/token/ERC721/ERC721Upgradeable.sol\":2793:2798  owner */\n      dup2\n        /* \"@openzeppelin/contracts-upgradeable/token/ERC721/ERC721Upgradeable.sol\":2793:2812  owner != address(0) */\n      0xffffffffffffffffffffffffffffffffffffffff\n      and\n      eq\n      iszero\n        /* \"@openzeppelin/contracts-upgradeable/token/ERC721/ERC721Upgradeable.sol\":2785:2841  require(owner != address(0), \"ERC721: invalid token ID\") */\n      tag_93\n      jumpi\n      mload(0x40)\n      0x08c379a000000000000000000000000000000000000000000000000000000000\n      dup2\n      mstore\n      0x04\n      add\n      tag_94\n      swap1\n      tag_95\n      jump\t// in\n    tag_94:\n      mload(0x40)\n      dup1\n      swap2\n      sub\n      swap1\n      revert\n    tag_93:\n        /* \"@openzeppelin/contracts-upgradeable/token/ERC721/ERC721Upgradeable.sol\":2858:2863  owner */\n      dup1\n        /* \"@openzeppelin/contracts-upgradeable/token/ERC721/ERC721Upgradeable.sol\":2851:2863  return owner */\n      swap2\n      pop\n      pop\n        /* \"@openzeppelin/contracts-upgradeable/token/ERC721/ERC721Upgradeable.sol\":2651:2870  function ownerOf(uint256 tokenId) public view virtual override returns (address) {... */\n      swap2\n      swap1\n      pop\n      jump\t// out\n        /* \"@openzeppelin/contracts-upgradeable/token/ERC721/ERC721Upgradeable.sol\":2390:2594  function balanceOf(address owner) public view virtual override returns (uint256) {... */\n    tag_41:\n        /* \"@openzeppelin/contracts-upgradeable/token/ERC721/ERC721Upgradeable.sol\":2462:2469  uint256 */\n      0x00\n        /* \"@openzeppelin/contracts-upgradeable/token/ERC721/ERC721Upgradeable.sol\":2506:2507  0 */\n      dup1\n        /* \"@openzeppelin/contracts-upgradeable/token/ERC721/ERC721Upgradeable.sol\":2489:2508  owner != address(0) */\n      0xffffffffffffffffffffffffffffffffffffffff\n      and\n        /* \"@openzeppelin/contracts-upgradeable/token/ERC721/ERC721Upgradeable.sol\":2489:2494  owner */\n      dup3\n        /* \"@openzeppelin/contracts-upgradeable/token/ERC721/ERC721Upgradeable.sol\":2489:2508  owner != address(0) */\n      0xffffffffffffffffffffffffffffffffffffffff\n      and\n      eq\n      iszero\n        /* \"@openzeppelin/contracts-upgradeable/token/ERC721/ERC721Upgradeable.sol\":2481:2554  require(owner != address(0), \"ERC721: address zero is not a valid owner\") */\n      tag_97\n      jumpi\n      mload(0x40)\n      0x08c379a000000000000000000000000000000000000000000000000000000000\n      dup2\n      mstore\n      0x04\n      add\n      tag_98\n      swap1\n      tag_99\n      jump\t// in\n    tag_98:\n      mload(0x40)\n      dup1\n      swap2\n      sub\n      swap1\n      revert\n    tag_97:\n        /* \"@openzeppelin/contracts-upgradeable/token/ERC721/ERC721Upgradeable.sol\":2571:2580  _balances */\n      0x68\n        /* \"@openzeppelin/contracts-upgradeable/token/ERC721/ERC721Upgradeable.sol\":2571:2587  _balances[owner] */\n      0x00\n        /* \"@openzeppelin/contracts-upgradeable/token/ERC721/ERC721Upgradeable.sol\":2581:2586  owner */\n      dup4\n        /* \"@openzeppelin/contracts-upgradeable/token/ERC721/ERC721Upgradeable.sol\":2571:2587  _balances[owner] */\n      0xffffffffffffffffffffffffffffffffffffffff\n      and\n      0xffffffffffffffffffffffffffffffffffffffff\n      and\n      dup2\n      mstore\n      0x20\n      add\n      swap1\n      dup2\n      mstore\n      0x20\n      add\n      0x00\n      keccak256\n      sload\n        /* \"@openzeppelin/contracts-upgradeable/token/ERC721/ERC721Upgradeable.sol\":2564:2587  return _balances[owner] */\n      swap1\n      pop\n        /* \"@openzeppelin/contracts-upgradeable/token/ERC721/ERC721Upgradeable.sol\":2390:2594  function balanceOf(address owner) public view virtual override returns (uint256) {... */\n      swap2\n      swap1\n      pop\n      jump\t// out\n        /* \"@openzeppelin/contracts-upgradeable/token/ERC721/ERC721Upgradeable.sol\":3094:3196  function symbol() public view virtual override returns (string memory) {... */\n    tag_45:\n        /* \"@openzeppelin/contracts-upgradeable/token/ERC721/ERC721Upgradeable.sol\":3150:3163  string memory */\n      0x60\n        /* \"@openzeppelin/contracts-upgradeable/token/ERC721/ERC721Upgradeable.sol\":3182:3189  _symbol */\n      0x66\n        /* \"@openzeppelin/contracts-upgradeable/token/ERC721/ERC721Upgradeable.sol\":3175:3189  return _symbol */\n      dup1\n      sload\n      tag_101\n      swap1\n      tag_67\n      jump\t// in\n    tag_101:\n      dup1\n      0x1f\n      add\n      0x20\n      dup1\n      swap2\n      div\n      mul\n      0x20\n      add\n      mload(0x40)\n      swap1\n      dup2\n      add\n      0x40\n      mstore\n      dup1\n      swap3\n      swap2\n      swap1\n      dup2\n      dup2\n      mstore\n      0x20\n      add\n      dup3\n      dup1\n      sload\n      tag_102\n      swap1\n      tag_67\n      jump\t// in\n    tag_102:\n      dup1\n      iszero\n      tag_103\n      jumpi\n      dup1\n      0x1f\n      lt\n      tag_104\n      jumpi\n      0x0100\n      dup1\n      dup4\n      sload\n      div\n      mul\n      dup4\n      mstore\n      swap2\n      0x20\n      add\n      swap2\n      jump(tag_103)\n    tag_104:\n      dup3\n      add\n      swap2\n      swap1\n      0x00\n      mstore\n      keccak256(0x00, 0x20)\n      swap1\n    tag_105:\n      dup2\n      sload\n      dup2\n      mstore\n      swap1\n      0x01\n      add\n      swap1\n      0x20\n      add\n      dup1\n      dup4\n      gt\n      tag_105\n      jumpi\n      dup3\n      swap1\n      sub\n      0x1f\n      and\n      dup3\n      add\n      swap2\n    tag_103:\n      pop\n      pop\n      pop\n      pop\n      pop\n      swap1\n      pop\n        /* \"@openzeppelin/contracts-upgradeable/token/ERC721/ERC721Upgradeable.sol\":3094:3196  function symbol() public view virtual override returns (string memory) {... */\n      swap1\n      jump\t// out\n        /* \"@openzeppelin/contracts-upgradeable/token/ERC721/ERC721Upgradeable.sol\":4641:4794  function setApprovalForAll(address operator, bool approved) public virtual override {... */\n    tag_50:\n        /* \"@openzeppelin/contracts-upgradeable/token/ERC721/ERC721Upgradeable.sol\":4735:4787  _setApprovalForAll(_msgSender(), operator, approved) */\n      tag_107\n        /* \"@openzeppelin/contracts-upgradeable/token/ERC721/ERC721Upgradeable.sol\":4754:4766  _msgSender() */\n      tag_108\n        /* \"@openzeppelin/contracts-upgradeable/token/ERC721/ERC721Upgradeable.sol\":4754:4764  _msgSender */\n      tag_81\n        /* \"@openzeppelin/contracts-upgradeable/token/ERC721/ERC721Upgradeable.sol\":4754:4766  _msgSender() */\n      jump\t// in\n    tag_108:\n        /* \"@openzeppelin/contracts-upgradeable/token/ERC721/ERC721Upgradeable.sol\":4768:4776  operator */\n      dup4\n        /* \"@openzeppelin/contracts-upgradeable/token/ERC721/ERC721Upgradeable.sol\":4778:4786  approved */\n      dup4\n        /* \"@openzeppelin/contracts-upgradeable/token/ERC721/ERC721Upgradeable.sol\":4735:4753  _setApprovalForAll */\n      tag_109\n        /* \"@openzeppelin/contracts-upgradeable/token/ERC721/ERC721Upgradeable.sol\":4735:4787  _setApprovalForAll(_msgSender(), operator, approved) */\n      jump\t// in\n    tag_107:\n        /* \"@openzeppelin/contracts-upgradeable/token/ERC721/ERC721Upgradeable.sol\":4641:4794  function setApprovalForAll(address operator, bool approved) public virtual override {... */\n      pop\n      pop\n      jump\t// out\n        /* \"@openzeppelin/contracts-upgradeable/token/ERC721/ERC721Upgradeable.sol\":3262:3538  function tokenURI(uint256 tokenId) public view virtual override returns (string memory) {... */\n    tag_53:\n        /* \"@openzeppelin/contracts-upgradeable/token/ERC721/ERC721Upgradeable.sol\":3335:3348  string memory */\n      0x60\n        /* \"@openzeppelin/contracts-upgradeable/token/ERC721/ERC721Upgradeable.sol\":3360:3383  _requireMinted(tokenId) */\n      tag_111\n        /* \"@openzeppelin/contracts-upgradeable/token/ERC721/ERC721Upgradeable.sol\":3375:3382  tokenId */\n      dup3\n        /* \"@openzeppelin/contracts-upgradeable/token/ERC721/ERC721Upgradeable.sol\":3360:3374  _requireMinted */\n      tag_74\n        /* \"@openzeppelin/contracts-upgradeable/token/ERC721/ERC721Upgradeable.sol\":3360:3383  _requireMinted(tokenId) */\n      jump\t// in\n    tag_111:\n        /* \"@openzeppelin/contracts-upgradeable/token/ERC721/ERC721Upgradeable.sol\":3394:3415  string memory baseURI */\n      0x00\n        /* \"@openzeppelin/contracts-upgradeable/token/ERC721/ERC721Upgradeable.sol\":3418:3428  _baseURI() */\n      tag_112\n        /* \"@openzeppelin/contracts-upgradeable/token/ERC721/ERC721Upgradeable.sol\":3418:3426  _baseURI */\n      tag_113\n        /* \"@openzeppelin/contracts-upgradeable/token/ERC721/ERC721Upgradeable.sol\":3418:3428  _baseURI() */\n      jump\t// in\n    tag_112:\n        /* \"@openzeppelin/contracts-upgradeable/token/ERC721/ERC721Upgradeable.sol\":3394:3428  string memory baseURI = _baseURI() */\n      swap1\n      pop\n        /* \"@openzeppelin/contracts-upgradeable/token/ERC721/ERC721Upgradeable.sol\":3469:3470  0 */\n      0x00\n        /* \"@openzeppelin/contracts-upgradeable/token/ERC721/ERC721Upgradeable.sol\":3451:3458  baseURI */\n      dup2\n        /* \"@openzeppelin/contracts-upgradeable/token/ERC721/ERC721Upgradeable.sol\":3445:3466  bytes(baseURI).length */\n      mload\n        /* \"@openzeppelin/contracts-upgradeable/token/ERC721/ERC721Upgradeable.sol\":3445:3470  bytes(baseURI).length > 0 */\n      gt\n        /* \"@openzeppelin/contracts-upgradeable/token/ERC721/ERC721Upgradeable.sol\":3445:3531  bytes(baseURI).length > 0 ? string(abi.encodePacked(baseURI, tokenId.toString())) : \"\" */\n      tag_114\n      jumpi\n      mload(0x40)\n      dup1\n      0x20\n      add\n      0x40\n      mstore\n      dup1\n      0x00\n      dup2\n      mstore\n      pop\n      jump(tag_115)\n    tag_114:\n        /* \"@openzeppelin/contracts-upgradeable/token/ERC721/ERC721Upgradeable.sol\":3497:3504  baseURI */\n      dup1\n        /* \"@openzeppelin/contracts-upgradeable/token/ERC721/ERC721Upgradeable.sol\":3506:3524  tokenId.toString() */\n      tag_116\n        /* \"@openzeppelin/contracts-upgradeable/token/ERC721/ERC721Upgradeable.sol\":3506:3513  tokenId */\n      dup5\n        /* \"@openzeppelin/contracts-upgradeable/token/ERC721/ERC721Upgradeable.sol\":3506:3522  tokenId.toString */\n      tag_117\n        /* \"@openzeppelin/contracts-upgradeable/token/ERC721/ERC721Upgradeable.sol\":3506:3524  tokenId.toString() */\n      jump\t// in\n    tag_116:\n        /* \"@openzeppelin/contracts-upgradeable/token/ERC721/ERC721Upgradeable.sol\":3480:3525  abi.encodePacked(baseURI, tokenId.toString()) */\n      add(0x20, mload(0x40))\n      tag_118\n      swap3\n      swap2\n      swap1\n      tag_119\n      jump\t// in\n    tag_118:\n      mload(0x40)\n      0x20\n      dup2\n      dup4\n      sub\n      sub\n      dup2\n      mstore\n      swap1\n      0x40\n      mstore\n        /* \"@openzeppelin/contracts-upgradeable/token/ERC721/ERC721Upgradeable.sol\":3445:3531  bytes(baseURI).length > 0 ? string(abi.encodePacked(baseURI, tokenId.toString())) : \"\" */\n    tag_115:\n        /* \"@openzeppelin/contracts-upgradeable/token/ERC721/ERC721Upgradeable.sol\":3438:3531  return bytes(baseURI).length > 0 ? string(abi.encodePacked(baseURI, tokenId.toString())) : \"\" */\n      swap2\n      pop\n      pop\n        /* \"@openzeppelin/contracts-upgradeable/token/ERC721/ERC721Upgradeable.sol\":3262:3538  function tokenURI(uint256 tokenId) public view virtual override returns (string memory) {... */\n      swap2\n      swap1\n      pop\n      jump\t// out\n        /* \"@openzeppelin/contracts-upgradeable/token/ERC721/ERC721Upgradeable.sol\":4860:5022  function isApprovedForAll(address owner, address operator) public view virtual override returns (bool) {... */\n    tag_58:\n        /* \"@openzeppelin/contracts-upgradeable/token/ERC721/ERC721Upgradeable.sol\":4957:4961  bool */\n      0x00\n        /* \"@openzeppelin/contracts-upgradeable/token/ERC721/ERC721Upgradeable.sol\":4980:4998  _operatorApprovals */\n      0x6a\n        /* \"@openzeppelin/contracts-upgradeable/token/ERC721/ERC721Upgradeable.sol\":4980:5005  _operatorApprovals[owner] */\n      0x00\n        /* \"@openzeppelin/contracts-upgradeable/token/ERC721/ERC721Upgradeable.sol\":4999:5004  owner */\n      dup5\n        /* \"@openzeppelin/contracts-upgradeable/token/ERC721/ERC721Upgradeable.sol\":4980:5005  _operatorApprovals[owner] */\n      0xffffffffffffffffffffffffffffffffffffffff\n      and\n      0xffffffffffffffffffffffffffffffffffffffff\n      and\n      dup2\n      mstore\n      0x20\n      add\n      swap1\n      dup2\n      mstore\n      0x20\n      add\n      0x00\n      keccak256\n        /* \"@openzeppelin/contracts-upgradeable/token/ERC721/ERC721Upgradeable.sol\":4980:5015  _operatorApprovals[owner][operator] */\n      0x00\n        /* \"@openzeppelin/contracts-upgradeable/token/ERC721/ERC721Upgradeable.sol\":5006:5014  operator */\n      dup4\n        /* \"@openzeppelin/contracts-upgradeable/token/ERC721/ERC721Upgradeable.sol\":4980:5015  _operatorApprovals[owner][operator] */\n      0xffffffffffffffffffffffffffffffffffffffff\n      and\n      0xffffffffffffffffffffffffffffffffffffffff\n      and\n      dup2\n      mstore\n      0x20\n      add\n      swap1\n      dup2\n      mstore\n      0x20\n      add\n      0x00\n      keccak256\n      0x00\n      swap1\n      sload\n      swap1\n      0x0100\n      exp\n      swap1\n      div\n      0xff\n      and\n        /* \"@openzeppelin/contracts-upgradeable/token/ERC721/ERC721Upgradeable.sol\":4973:5015  return _operatorApprovals[owner][operator] */\n      swap1\n      pop\n        /* \"@openzeppelin/contracts-upgradeable/token/ERC721/ERC721Upgradeable.sol\":4860:5022  function isApprovedForAll(address owner, address operator) public view virtual override returns (bool) {... */\n      swap3\n      swap2\n      pop\n      pop\n      jump\t// out\n        /* \"@openzeppelin/contracts-upgradeable/utils/introspection/ERC165Upgradeable.sol\":1060:1226  function supportsInterface(bytes4 interfaceId) public view virtual override returns (bool) {... */\n    tag_64:\n        /* \"@openzeppelin/contracts-upgradeable/utils/introspection/ERC165Upgradeable.sol\":1145:1149  bool */\n      0x00\n        /* \"@openzeppelin/contracts-upgradeable/utils/introspection/ERC165Upgradeable.sol\":1183:1219  type(IERC165Upgradeable).interfaceId */\n      0x01ffc9a700000000000000000000000000000000000000000000000000000000\n        /* \"@openzeppelin/contracts-upgradeable/utils/introspection/ERC165Upgradeable.sol\":1168:1219  interfaceId == type(IERC165Upgradeable).interfaceId */\n      not(0xffffffffffffffffffffffffffffffffffffffffffffffffffffffff)\n      and\n        /* \"@openzeppelin/contracts-upgradeable/utils/introspection/ERC165Upgradeable.sol\":1168:1179  interfaceId */\n      dup3\n        /* \"@openzeppelin/contracts-upgradeable/utils/introspection/ERC165Upgradeable.sol\":1168:1219  interfaceId == type(IERC165Upgradeable).interfaceId */\n      not(0xffffffffffffffffffffffffffffffffffffffffffffffffffffffff)\n      and\n      eq\n        /* \"@openzeppelin/contracts-upgradeable/utils/introspection/ERC165Upgradeable.sol\":1161:1219  return interfaceId == type(IERC165Upgradeable).interfaceId */\n      swap1\n      pop\n        /* \"@openzeppelin/contracts-upgradeable/utils/introspection/ERC165Upgradeable.sol\":1060:1226  function supportsInterface(bytes4 interfaceId) public view virtual override returns (bool) {... */\n      swap2\n      swap1\n      pop\n      jump\t// out\n        /* \"@openzeppelin/contracts-upgradeable/token/ERC721/ERC721Upgradeable.sol\":14079:14212  function _requireMinted(uint256 tokenId) internal view virtual {... */\n    tag_74:\n        /* \"@openzeppelin/contracts-upgradeable/token/ERC721/ERC721Upgradeable.sol\":14160:14176  _exists(tokenId) */\n      tag_123\n        /* \"@openzeppelin/contracts-upgradeable/token/ERC721/ERC721Upgradeable.sol\":14168:14175  tokenId */\n      dup2\n        /* \"@openzeppelin/contracts-upgradeable/token/ERC721/ERC721Upgradeable.sol\":14160:14167  _exists */\n      tag_124\n        /* \"@openzeppelin/contracts-upgradeable/token/ERC721/ERC721Upgradeable.sol\":14160:14176  _exists(tokenId) */\n      jump\t// in\n    tag_123:\n        /* \"@openzeppelin/contracts-upgradeable/token/ERC721/ERC721Upgradeable.sol\":14152:14205  require(_exists(tokenId), \"ERC721: invalid token ID\") */\n      tag_125\n      jumpi\n      mload(0x40)\n      0x08c379a000000000000000000000000000000000000000000000000000000000\n      dup2\n      mstore\n      0x04\n      add\n      tag_126\n      swap1\n      tag_95\n      jump\t// in\n    tag_126:\n      mload(0x40)\n      dup1\n      swap2\n      sub\n      swap1\n      revert\n    tag_125:\n        /* \"@openzeppelin/contracts-upgradeable/token/ERC721/ERC721Upgradeable.sol\":14079:14212  function _requireMinted(uint256 tokenId) internal view virtual {... */\n      pop\n      jump\t// out\n        /* \"@openzeppelin/contracts-upgradeable/utils/ContextUpgradeable.sol\":850:946  function _msgSender() internal view virtual returns (address) {... */\n    tag_81:\n        /* \"@openzeppelin/contracts-upgradeable/utils/ContextUpgradeable.sol\":903:910  address */\n      0x00\n        /* \"@openzeppelin/contracts-upgradeable/utils/ContextUpgradeable.sol\":929:939  msg.sender */\n      caller\n        /* \"@openzeppelin/contracts-upgradeable/utils/ContextUpgradeable.sol\":922:939  return msg.sender */\n      swap1\n      pop\n        /* \"@openzeppelin/contracts-upgradeable/utils/ContextUpgradeable.sol\":850:946  function _msgSender() internal view virtual returns (address) {... */\n      swap1\n      jump\t// out\n        /* \"@openzeppelin/contracts-upgradeable/token/ERC721/ERC721Upgradeable.sol\":13370:13552  function _approve(address to, uint256 tokenId) internal virtual {... */\n    tag_89:\n        /* \"@openzeppelin/contracts-upgradeable/token/ERC721/ERC721Upgradeable.sol\":13471:13473  to */\n      dup2\n        /* \"@openzeppelin/contracts-upgradeable/token/ERC721/ERC721Upgradeable.sol\":13444:13459  _tokenApprovals */\n      0x69\n        /* \"@openzeppelin/contracts-upgradeable/token/ERC721/ERC721Upgradeable.sol\":13444:13468  _tokenApprovals[tokenId] */\n      0x00\n        /* \"@openzeppelin/contracts-upgradeable/token/ERC721/ERC721Upgradeable.sol\":13460:13467  tokenId */\n      dup4\n        /* \"@openzeppelin/contracts-upgradeable/token/ERC721/ERC721Upgradeable.sol\":13444:13468  _tokenApprovals[tokenId] */\n      dup2\n      mstore\n      0x20\n      add\n      swap1\n      dup2\n      mstore\n      0x20\n      add\n      0x00\n      keccak256\n      0x00\n        /* \"@openzeppelin/contracts-upgradeable/token/ERC721/ERC721Upgradeable.sol\":13444:13473  _tokenApprovals[tokenId] = to */\n      0x0100\n      exp\n      dup2\n      sload\n      dup2\n      0xffffffffffffffffffffffffffffffffffffffff\n      mul\n      not\n      and\n      swap1\n      dup4\n      0xffffffffffffffffffffffffffffffffffffffff\n      and\n      mul\n      or\n      swap1\n      sstore\n      pop\n        /* \"@openzeppelin/contracts-upgradeable/token/ERC721/ERC721Upgradeable.sol\":13537:13544  tokenId */\n      dup1\n        /* \"@openzeppelin/contracts-upgradeable/token/ERC721/ERC721Upgradeable.sol\":13533:13535  to */\n      dup3\n        /* \"@openzeppelin/contracts-upgradeable/token/ERC721/ERC721Upgradeable.sol\":13488:13545  Approval(ERC721Upgradeable.ownerOf(tokenId), to, tokenId) */\n      0xffffffffffffffffffffffffffffffffffffffff\n      and\n        /* \"@openzeppelin/contracts-upgradeable/token/ERC721/ERC721Upgradeable.sol\":13497:13531  ERC721Upgradeable.ownerOf(tokenId) */\n      tag_129\n        /* \"@openzeppelin/contracts-upgradeable/token/ERC721/ERC721Upgradeable.sol\":13523:13530  tokenId */\n      dup4\n        /* \"@openzeppelin/contracts-upgradeable/token/ERC721/ERC721Upgradeable.sol\":13497:13522  ERC721Upgradeable.ownerOf */\n      tag_36\n        /* \"@openzeppelin/contracts-upgradeable/token/ERC721/ERC721Upgradeable.sol\":13497:13531  ERC721Upgradeable.ownerOf(tokenId) */\n      jump\t// in\n    tag_129:\n        /* \"@openzeppelin/contracts-upgradeable/token/ERC721/ERC721Upgradeable.sol\":13488:13545  Approval(ERC721Upgradeable.ownerOf(tokenId), to, tokenId) */\n      0xffffffffffffffffffffffffffffffffffffffff\n      and\n      0x8c5be1e5ebec7d5bd14f71427d1e84f3dd0314c0f7b2291e5b200ac8c7c3b925\n      mload(0x40)\n      mload(0x40)\n      dup1\n      swap2\n      sub\n      swap1\n      log4\n        /* \"@openzeppelin/contracts-upgradeable/token/ERC721/ERC721Upgradeable.sol\":13370:13552  function _approve(address to, uint256 tokenId) internal virtual {... */\n      pop\n      pop\n      jump\t// out\n        /* \"@openzeppelin/contracts-upgradeable/token/ERC721/ERC721Upgradeable.sol\":7385:7500  function _ownerOf(uint256 tokenId) internal view virtual returns (address) {... */\n    tag_92:\n        /* \"@openzeppelin/contracts-upgradeable/token/ERC721/ERC721Upgradeable.sol\":7451:7458  address */\n      0x00\n        /* \"@openzeppelin/contracts-upgradeable/token/ERC721/ERC721Upgradeable.sol\":7477:7484  _owners */\n      0x67\n        /* \"@openzeppelin/contracts-upgradeable/token/ERC721/ERC721Upgradeable.sol\":7477:7493  _owners[tokenId] */\n      0x00\n        /* \"@openzeppelin/contracts-upgradeable/token/ERC721/ERC721Upgradeable.sol\":7485:7492  tokenId */\n      dup4\n        /* \"@openzeppelin/contracts-upgradeable/token/ERC721/ERC721Upgradeable.sol\":7477:7493  _owners[tokenId] */\n      dup2\n      mstore\n      0x20\n      add\n      swap1\n      dup2\n      mstore\n      0x20\n      add\n      0x00\n      keccak256\n      0x00\n      swap1\n      sload\n      swap1\n      0x0100\n      exp\n      swap1\n      div\n      0xffffffffffffffffffffffffffffffffffffffff\n      and\n        /* \"@openzeppelin/contracts-upgradeable/token/ERC721/ERC721Upgradeable.sol\":7470:7493  return _owners[tokenId] */\n      swap1\n      pop\n        /* \"@openzeppelin/contracts-upgradeable/token/ERC721/ERC721Upgradeable.sol\":7385:7500  function _ownerOf(uint256 tokenId) internal view virtual returns (address) {... */\n      swap2\n      swap1\n      pop\n      jump\t// out\n        /* \"@openzeppelin/contracts-upgradeable/token/ERC721/ERC721Upgradeable.sol\":13688:13995  function _setApprovalForAll(... */\n    tag_109:\n        /* \"@openzeppelin/contracts-upgradeable/token/ERC721/ERC721Upgradeable.sol\":13838:13846  operator */\n      dup2\n        /* \"@openzeppelin/contracts-upgradeable/token/ERC721/ERC721Upgradeable.sol\":13829:13846  owner != operator */\n      0xffffffffffffffffffffffffffffffffffffffff\n      and\n        /* \"@openzeppelin/contracts-upgradeable/token/ERC721/ERC721Upgradeable.sol\":13829:13834  owner */\n      dup4\n        /* \"@openzeppelin/contracts-upgradeable/token/ERC721/ERC721Upgradeable.sol\":13829:13846  owner != operator */\n      0xffffffffffffffffffffffffffffffffffffffff\n      and\n      eq\n      iszero\n        /* \"@openzeppelin/contracts-upgradeable/token/ERC721/ERC721Upgradeable.sol\":13821:13876  require(owner != operator, \"ERC721: approve to caller\") */\n      tag_132\n      jumpi\n      mload(0x40)\n      0x08c379a000000000000000000000000000000000000000000000000000000000\n      dup2\n      mstore\n      0x04\n      add\n      tag_133\n      swap1\n      tag_134\n      jump\t// in\n    tag_133:\n      mload(0x40)\n      dup1\n      swap2\n      sub\n      swap1\n      revert\n    tag_132:\n        /* \"@openzeppelin/contracts-upgradeable/token/ERC721/ERC721Upgradeable.sol\":13924:13932  approved */\n      dup1\n        /* \"@openzeppelin/contracts-upgradeable/token/ERC721/ERC721Upgradeable.sol\":13886:13904  _operatorApprovals */\n      0x6a\n        /* \"@openzeppelin/contracts-upgradeable/token/ERC721/ERC721Upgradeable.sol\":13886:13911  _operatorApprovals[owner] */\n      0x00\n        /* \"@openzeppelin/contracts-upgradeable/token/ERC721/ERC721Upgradeable.sol\":13905:13910  owner */\n      dup6\n        /* \"@openzeppelin/contracts-upgradeable/token/ERC721/ERC721Upgradeable.sol\":13886:13911  _operatorApprovals[owner] */\n      0xffffffffffffffffffffffffffffffffffffffff\n      and\n      0xffffffffffffffffffffffffffffffffffffffff\n      and\n      dup2\n      mstore\n      0x20\n      add\n      swap1\n      dup2\n      mstore\n      0x20\n      add\n      0x00\n      keccak256\n        /* \"@openzeppelin/contracts-upgradeable/token/ERC721/ERC721Upgradeable.sol\":13886:13921  _operatorApprovals[owner][operator] */\n      0x00\n        /* \"@openzeppelin/contracts-upgradeable/token/ERC721/ERC721Upgradeable.sol\":13912:13920  operator */\n      dup5\n        /* \"@openzeppelin/contracts-upgradeable/token/ERC721/ERC721Upgradeable.sol\":13886:13921  _operatorApprovals[owner][operator] */\n      0xffffffffffffffffffffffffffffffffffffffff\n      and\n      0xffffffffffffffffffffffffffffffffffffffff\n      and\n      dup2\n      mstore\n      0x20\n      add\n      swap1\n      dup2\n      mstore\n      0x20\n      add\n      0x00\n      keccak256\n      0x00\n        /* \"@openzeppelin/contracts-upgradeable/token/ERC721/ERC721Upgradeable.sol\":13886:13932  _operatorApprovals[owner][operator] = approved */\n      0x0100\n      exp\n      dup2\n      sload\n      dup2\n      0xff\n      mul\n      not\n      and\n      swap1\n      dup4\n      iszero\n      iszero\n      mul\n      or\n      swap1\n      sstore\n      pop\n        /* \"@openzeppelin/contracts-upgradeable/token/ERC721/ERC721Upgradeable.sol\":13969:13977  operator */\n      dup2\n        /* \"@openzeppelin/contracts-upgradeable/token/ERC721/ERC721Upgradeable.sol\":13947:13988  ApprovalForAll(owner, operator, approved) */\n      0xffffffffffffffffffffffffffffffffffffffff\n      and\n        /* \"@openzeppelin/contracts-upgradeable/token/ERC721/ERC721Upgradeable.sol\":13962:13967  owner */\n      dup4\n        /* \"@openzeppelin/contracts-upgradeable/token/ERC721/ERC721Upgradeable.sol\":13947:13988  ApprovalForAll(owner, operator, approved) */\n      0xffffffffffffffffffffffffffffffffffffffff\n      and\n      0x17307eab39ab6107e8899845ad3d59bd9653f200f220920489ca2b5937696c31\n        /* \"@openzeppelin/contracts-upgradeable/token/ERC721/ERC721Upgradeable.sol\":13979:13987  approved */\n      dup4\n        /* \"@openzeppelin/contracts-upgradeable/token/ERC721/ERC721Upgradeable.sol\":13947:13988  ApprovalForAll(owner, operator, approved) */\n      mload(0x40)\n      tag_135\n      swap2\n      swap1\n      tag_19\n      jump\t// in\n    tag_135:\n      mload(0x40)\n      dup1\n      swap2\n      sub\n      swap1\n      log3\n        /* \"@openzeppelin/contracts-upgradeable/token/ERC721/ERC721Upgradeable.sol\":13688:13995  function _setApprovalForAll(... */\n      pop\n      pop\n      pop\n      jump\t// out\n        /* \"@openzeppelin/contracts-upgradeable/token/ERC721/ERC721Upgradeable.sol\":3780:3872  function _baseURI() internal view virtual returns (string memory) {... */\n    tag_113:\n        /* \"@openzeppelin/contracts-upgradeable/token/ERC721/ERC721Upgradeable.sol\":3831:3844  string memory */\n      0x60\n        /* \"@openzeppelin/contracts-upgradeable/token/ERC721/ERC721Upgradeable.sol\":3856:3865  return \"\" */\n      mload(0x40)\n      dup1\n      0x20\n      add\n      0x40\n      mstore\n      dup1\n      0x00\n      dup2\n      mstore\n      pop\n      swap1\n      pop\n        /* \"@openzeppelin/contracts-upgradeable/token/ERC721/ERC721Upgradeable.sol\":3780:3872  function _baseURI() internal view virtual returns (string memory) {... */\n      swap1\n      jump\t// out\n        /* \"@openzeppelin/contracts-upgradeable/utils/StringsUpgradeable.sol\":437:1144  function toString(uint256 value) internal pure returns (string memory) {... */\n    tag_117:\n        /* \"@openzeppelin/contracts-upgradeable/utils/StringsUpgradeable.sol\":493:506  string memory */\n      0x60\n        /* \"@openzeppelin/contracts-upgradeable/utils/StringsUpgradeable.sol\":542:556  uint256 length */\n      0x00\n        /* \"@openzeppelin/contracts-upgradeable/utils/StringsUpgradeable.sol\":590:591  1 */\n      0x01\n        /* \"@openzeppelin/contracts-upgradeable/utils/StringsUpgradeable.sol\":559:587  MathUpgradeable.log10(value) */\n      tag_138\n        /* \"@openzeppelin/contracts-upgradeable/utils/StringsUpgradeable.sol\":581:586  value */\n      dup5\n        /* \"@openzeppelin/contracts-upgradeable/utils/StringsUpgradeable.sol\":559:580  MathUpgradeable.log10 */\n      tag_139\n        /* \"@openzeppelin/contracts-upgradeable/utils/StringsUpgradeable.sol\":559:587  MathUpgradeable.log10(value) */\n      jump\t// in\n    tag_138:\n        /* \"@openzeppelin/contracts-upgradeable/utils/StringsUpgradeable.sol\":559:591  MathUpgradeable.log10(value) + 1 */\n      add\n        /* \"@openzeppelin/contracts-upgradeable/utils/StringsUpgradeable.sol\":542:591  uint256 length = MathUpgradeable.log10(value) + 1 */\n      swap1\n      pop\n        /* \"@openzeppelin/contracts-upgradeable/utils/StringsUpgradeable.sol\":605:625  string memory buffer */\n      0x00\n        /* \"@openzeppelin/contracts-upgradeable/utils/StringsUpgradeable.sol\":639:645  length */\n      dup2\n        /* \"@openzeppelin/contracts-upgradeable/utils/StringsUpgradeable.sol\":628:646  new string(length) */\n      0xffffffffffffffff\n      dup2\n      gt\n      iszero\n      tag_140\n      jumpi\n      tag_141\n      tag_142\n      jump\t// in\n    tag_141:\n    tag_140:\n      mload(0x40)\n      swap1\n      dup1\n      dup3\n      mstore\n      dup1\n      0x1f\n      add\n      not(0x1f)\n      and\n      0x20\n      add\n      dup3\n      add\n      0x40\n      mstore\n      dup1\n      iszero\n      tag_143\n      jumpi\n      dup2\n      0x20\n      add\n      0x01\n      dup3\n      mul\n      dup1\n      calldatasize\n      dup4\n      calldatacopy\n      dup1\n      dup3\n      add\n      swap2\n      pop\n      pop\n      swap1\n      pop\n    tag_143:\n      pop\n        /* \"@openzeppelin/contracts-upgradeable/utils/StringsUpgradeable.sol\":605:646  string memory buffer = new string(length) */\n      swap1\n      pop\n        /* \"@openzeppelin/contracts-upgradeable/utils/StringsUpgradeable.sol\":660:671  uint256 ptr */\n      0x00\n        /* \"@openzeppelin/contracts-upgradeable/utils/StringsUpgradeable.sol\":786:792  length */\n      dup3\n        /* \"@openzeppelin/contracts-upgradeable/utils/StringsUpgradeable.sol\":782:784  32 */\n      0x20\n        /* \"@openzeppelin/contracts-upgradeable/utils/StringsUpgradeable.sol\":778:793  add(32, length) */\n      add\n        /* \"@openzeppelin/contracts-upgradeable/utils/StringsUpgradeable.sol\":770:776  buffer */\n      dup3\n        /* \"@openzeppelin/contracts-upgradeable/utils/StringsUpgradeable.sol\":766:794  add(buffer, add(32, length)) */\n      add\n        /* \"@openzeppelin/contracts-upgradeable/utils/StringsUpgradeable.sol\":759:794  ptr := add(buffer, add(32, length)) */\n      swap1\n      pop\n        /* \"@openzeppelin/contracts-upgradeable/utils/StringsUpgradeable.sol\":821:1101  while (true) {... */\n    tag_144:\n        /* \"@openzeppelin/contracts-upgradeable/utils/StringsUpgradeable.sol\":828:832  true */\n      0x01\n        /* \"@openzeppelin/contracts-upgradeable/utils/StringsUpgradeable.sol\":821:1101  while (true) {... */\n      iszero\n      tag_145\n      jumpi\n        /* \"@openzeppelin/contracts-upgradeable/utils/StringsUpgradeable.sol\":852:857  ptr-- */\n      dup1\n      dup1\n      0x01\n      swap1\n      sub\n      swap2\n      pop\n      pop\n        /* \"@openzeppelin/contracts-upgradeable/utils/StringsUpgradeable.sol\":991:999  _SYMBOLS */\n      0x3031323334353637383961626364656600000000000000000000000000000000\n        /* \"@openzeppelin/contracts-upgradeable/utils/StringsUpgradeable.sol\":986:988  10 */\n      0x0a\n        /* \"@openzeppelin/contracts-upgradeable/utils/StringsUpgradeable.sol\":979:984  value */\n      dup7\n        /* \"@openzeppelin/contracts-upgradeable/utils/StringsUpgradeable.sol\":975:989  mod(value, 10) */\n      mod\n        /* \"@openzeppelin/contracts-upgradeable/utils/StringsUpgradeable.sol\":970:1000  byte(mod(value, 10), _SYMBOLS) */\n      byte\n        /* \"@openzeppelin/contracts-upgradeable/utils/StringsUpgradeable.sol\":965:968  ptr */\n      dup2\n        /* \"@openzeppelin/contracts-upgradeable/utils/StringsUpgradeable.sol\":957:1001  mstore8(ptr, byte(mod(value, 10), _SYMBOLS)) */\n      mstore8\n        /* \"@openzeppelin/contracts-upgradeable/utils/StringsUpgradeable.sol\":1045:1047  10 */\n      0x0a\n        /* \"@openzeppelin/contracts-upgradeable/utils/StringsUpgradeable.sol\":1036:1047  value /= 10 */\n      dup6\n      dup2\n      tag_146\n      jumpi\n      tag_147\n      tag_148\n      jump\t// in\n    tag_147:\n    tag_146:\n      div\n      swap5\n      pop\n        /* \"@openzeppelin/contracts-upgradeable/utils/StringsUpgradeable.sol\":1078:1079  0 */\n      0x00\n        /* \"@openzeppelin/contracts-upgradeable/utils/StringsUpgradeable.sol\":1069:1074  value */\n      dup6\n        /* \"@openzeppelin/contracts-upgradeable/utils/StringsUpgradeable.sol\":1069:1079  value == 0 */\n      eq\n        /* \"@openzeppelin/contracts-upgradeable/utils/StringsUpgradeable.sol\":1065:1086  if (value == 0) break */\n      iszero\n      tag_149\n      jumpi\n        /* \"@openzeppelin/contracts-upgradeable/utils/StringsUpgradeable.sol\":1081:1086  break */\n      jump(tag_145)\n        /* \"@openzeppelin/contracts-upgradeable/utils/StringsUpgradeable.sol\":1065:1086  if (value == 0) break */\n    tag_149:\n        /* \"@openzeppelin/contracts-upgradeable/utils/StringsUpgradeable.sol\":821:1101  while (true) {... */\n      jump(tag_144)\n    tag_145:\n        /* \"@openzeppelin/contracts-upgradeable/utils/StringsUpgradeable.sol\":1121:1127  buffer */\n      dup2\n        /* \"@openzeppelin/contracts-upgradeable/utils/StringsUpgradeable.sol\":1114:1127  return buffer */\n      swap4\n      pop\n      pop\n      pop\n      pop\n        /* \"@openzeppelin/contracts-upgradeable/utils/StringsUpgradeable.sol\":437:1144  function toString(uint256 value) internal pure returns (string memory) {... */\n      swap2\n      swap1\n      pop\n      jump\t// out\n        /* \"@openzeppelin/contracts-upgradeable/token/ERC721/ERC721Upgradeable.sol\":7803:7929  function _exists(uint256 tokenId) internal view virtual returns (bool) {... */\n    tag_124:\n        /* \"@openzeppelin/contracts-upgradeable/token/ERC721/ERC721Upgradeable.sol\":7868:7872  bool */\n      0x00\n        /* \"@openzeppelin/contracts-upgradeable/token/ERC721/ERC721Upgradeable.sol\":7920:7921  0 */\n      dup1\n        /* \"@openzeppelin/contracts-upgradeable/token/ERC721/ERC721Upgradeable.sol\":7891:7922  _ownerOf(tokenId) != address(0) */\n      0xffffffffffffffffffffffffffffffffffffffff\n      and\n        /* \"@openzeppelin/contracts-upgradeable/token/ERC721/ERC721Upgradeable.sol\":7891:7908  _ownerOf(tokenId) */\n      tag_151\n        /* \"@openzeppelin/contracts-upgradeable/token/ERC721/ERC721Upgradeable.sol\":7900:7907  tokenId */\n      dup4\n        /* \"@openzeppelin/contracts-upgradeable/token/ERC721/ERC721Upgradeable.sol\":7891:7899  _ownerOf */\n      tag_92\n        /* \"@openzeppelin/contracts-upgradeable/token/ERC721/ERC721Upgradeable.sol\":7891:7908  _ownerOf(tokenId) */\n      jump\t// in\n    tag_151:\n        /* \"@openzeppelin/contracts-upgradeable/token/ERC721/ERC721Upgradeable.sol\":7891:7922  _ownerOf(tokenId) != address(0) */\n      0xffffffffffffffffffffffffffffffffffffffff\n      and\n      eq\n      iszero\n        /* \"@openzeppelin/contracts-upgradeable/token/ERC721/ERC721Upgradeable.sol\":7884:7922  return _ownerOf(tokenId) != address(0) */\n      swap1\n      pop\n        /* \"@openzeppelin/contracts-upgradeable/token/ERC721/ERC721Upgradeable.sol\":7803:7929  function _exists(uint256 tokenId) internal view virtual returns (bool) {... */\n      swap2\n      swap1\n      pop\n      jump\t// out\n        /* \"@openzeppelin/contracts-upgradeable/utils/math/MathUpgradeable.sol\":9900:10790  function log10(uint256 value) internal pure returns (uint256) {... */\n    tag_139:\n        /* \"@openzeppelin/contracts-upgradeable/utils/math/MathUpgradeable.sol\":9953:9960  uint256 */\n      0x00\n        /* \"@openzeppelin/contracts-upgradeable/utils/math/MathUpgradeable.sol\":9972:9986  uint256 result */\n      dup1\n        /* \"@openzeppelin/contracts-upgradeable/utils/math/MathUpgradeable.sol\":9989:9990  0 */\n      0x00\n        /* \"@openzeppelin/contracts-upgradeable/utils/math/MathUpgradeable.sol\":9972:9990  uint256 result = 0 */\n      swap1\n      pop\n        /* \"@openzeppelin/contracts-upgradeable/utils/math/MathUpgradeable.sol\":10037:10043  10**64 */\n      0x184f03e93ff9f4daa797ed6e38ed64bf6a1f010000000000000000\n        /* \"@openzeppelin/contracts-upgradeable/utils/math/MathUpgradeable.sol\":10028:10033  value */\n      dup4\n        /* \"@openzeppelin/contracts-upgradeable/utils/math/MathUpgradeable.sol\":10028:10043  value >= 10**64 */\n      lt\n        /* \"@openzeppelin/contracts-upgradeable/utils/math/MathUpgradeable.sol\":10024:10123  if (value >= 10**64) {... */\n      tag_153\n      jumpi\n        /* \"@openzeppelin/contracts-upgradeable/utils/math/MathUpgradeable.sol\":10072:10078  10**64 */\n      0x184f03e93ff9f4daa797ed6e38ed64bf6a1f010000000000000000\n        /* \"@openzeppelin/contracts-upgradeable/utils/math/MathUpgradeable.sol\":10063:10078  value /= 10**64 */\n      dup4\n      dup2\n      tag_154\n      jumpi\n      tag_155\n      tag_148\n      jump\t// in\n    tag_155:\n    tag_154:\n      div\n      swap3\n      pop\n        /* \"@openzeppelin/contracts-upgradeable/utils/math/MathUpgradeable.sol\":10106:10108  64 */\n      0x40\n        /* \"@openzeppelin/contracts-upgradeable/utils/math/MathUpgradeable.sol\":10096:10108  result += 64 */\n      dup2\n      add\n      swap1\n      pop\n        /* \"@openzeppelin/contracts-upgradeable/utils/math/MathUpgradeable.sol\":10024:10123  if (value >= 10**64) {... */\n    tag_153:\n        /* \"@openzeppelin/contracts-upgradeable/utils/math/MathUpgradeable.sol\":10149:10155  10**32 */\n      0x04ee2d6d415b85acef8100000000\n        /* \"@openzeppelin/contracts-upgradeable/utils/math/MathUpgradeable.sol\":10140:10145  value */\n      dup4\n        /* \"@openzeppelin/contracts-upgradeable/utils/math/MathUpgradeable.sol\":10140:10155  value >= 10**32 */\n      lt\n        /* \"@openzeppelin/contracts-upgradeable/utils/math/MathUpgradeable.sol\":10136:10235  if (value >= 10**32) {... */\n      tag_156\n      jumpi\n        /* \"@openzeppelin/contracts-upgradeable/utils/math/MathUpgradeable.sol\":10184:10190  10**32 */\n      0x04ee2d6d415b85acef8100000000\n        /* \"@openzeppelin/contracts-upgradeable/utils/math/MathUpgradeable.sol\":10175:10190  value /= 10**32 */\n      dup4\n      dup2\n      tag_157\n      jumpi\n      tag_158\n      tag_148\n      jump\t// in\n    tag_158:\n    tag_157:\n      div\n      swap3\n      pop\n        /* \"@openzeppelin/contracts-upgradeable/utils/math/MathUpgradeable.sol\":10218:10220  32 */\n      0x20\n        /* \"@openzeppelin/contracts-upgradeable/utils/math/MathUpgradeable.sol\":10208:10220  result += 32 */\n      dup2\n      add\n      swap1\n      pop\n        /* \"@openzeppelin/contracts-upgradeable/utils/math/MathUpgradeable.sol\":10136:10235  if (value >= 10**32) {... */\n    tag_156:\n        /* \"@openzeppelin/contracts-upgradeable/utils/math/MathUpgradeable.sol\":10261:10267  10**16 */\n      0x2386f26fc10000\n        /* \"@openzeppelin/contracts-upgradeable/utils/math/MathUpgradeable.sol\":10252:10257  value */\n      dup4\n        /* \"@openzeppelin/contracts-upgradeable/utils/math/MathUpgradeable.sol\":10252:10267  value >= 10**16 */\n      lt\n        /* \"@openzeppelin/contracts-upgradeable/utils/math/MathUpgradeable.sol\":10248:10347  if (value >= 10**16) {... */\n      tag_159\n      jumpi\n        /* \"@openzeppelin/contracts-upgradeable/utils/math/MathUpgradeable.sol\":10296:10302  10**16 */\n      0x2386f26fc10000\n        /* \"@openzeppelin/contracts-upgradeable/utils/math/MathUpgradeable.sol\":10287:10302  value /= 10**16 */\n      dup4\n      dup2\n      tag_160\n      jumpi\n      tag_161\n      tag_148\n      jump\t// in\n    tag_161:\n    tag_160:\n      div\n      swap3\n      pop\n        /* \"@openzeppelin/contracts-upgradeable/utils/math/MathUpgradeable.sol\":10330:10332  16 */\n      0x10\n        /* \"@openzeppelin/contracts-upgradeable/utils/math/MathUpgradeable.sol\":10320:10332  result += 16 */\n      dup2\n      add\n      swap1\n      pop\n        /* \"@openzeppelin/contracts-upgradeable/utils/math/MathUpgradeable.sol\":10248:10347  if (value >= 10**16) {... */\n    tag_159:\n        /* \"@openzeppelin/contracts-upgradeable/utils/math/MathUpgradeable.sol\":10373:10378  10**8 */\n      0x05f5e100\n        /* \"@openzeppelin/contracts-upgradeable/utils/math/MathUpgradeable.sol\":10364:10369  value */\n      dup4\n        /* \"@openzeppelin/contracts-upgradeable/utils/math/MathUpgradeable.sol\":10364:10378  value >= 10**8 */\n      lt\n        /* \"@openzeppelin/contracts-upgradeable/utils/math/MathUpgradeable.sol\":10360:10456  if (value >= 10**8) {... */\n      tag_162\n      jumpi\n        /* \"@openzeppelin/contracts-upgradeable/utils/math/MathUpgradeable.sol\":10407:10412  10**8 */\n      0x05f5e100\n        /* \"@openzeppelin/contracts-upgradeable/utils/math/MathUpgradeable.sol\":10398:10412  value /= 10**8 */\n      dup4\n      dup2\n      tag_163\n      jumpi\n      tag_164\n      tag_148\n      jump\t// in\n    tag_164:\n    tag_163:\n      div\n      swap3\n      pop\n        /* \"@openzeppelin/contracts-upgradeable/utils/math/MathUpgradeable.sol\":10440:10441  8 */\n      0x08\n        /* \"@openzeppelin/contracts-upgradeable/utils/math/MathUpgradeable.sol\":10430:10441  result += 8 */\n      dup2\n      add\n      swap1\n      pop\n        /* \"@openzeppelin/contracts-upgradeable/utils/math/MathUpgradeable.sol\":10360:10456  if (value >= 10**8) {... */\n    tag_162:\n        /* \"@openzeppelin/contracts-upgradeable/utils/math/MathUpgradeable.sol\":10482:10487  10**4 */\n      0x2710\n        /* \"@openzeppelin/contracts-upgradeable/utils/math/MathUpgradeable.sol\":10473:10478  value */\n      dup4\n        /* \"@openzeppelin/contracts-upgradeable/utils/math/MathUpgradeable.sol\":10473:10487  value >= 10**4 */\n      lt\n        /* \"@openzeppelin/contracts-upgradeable/utils/math/MathUpgradeable.sol\":10469:10565  if (value >= 10**4) {... */\n      tag_165\n      jumpi\n        /* \"@openzeppelin/contracts-upgradeable/utils/math/MathUpgradeable.sol\":10516:10521  10**4 */\n      0x2710\n        /* \"@openzeppelin/contracts-upgradeable/utils/math/MathUpgradeable.sol\":10507:10521  value /= 10**4 */\n      dup4\n      dup2\n      tag_166\n      jumpi\n      tag_167\n      tag_148\n      jump\t// in\n    tag_167:\n    tag_166:\n      div\n      swap3\n      pop\n        /* \"@openzeppelin/contracts-upgradeable/utils/math/MathUpgradeable.sol\":10549:10550  4 */\n      0x04\n        /* \"@openzeppelin/contracts-upgradeable/utils/math/MathUpgradeable.sol\":10539:10550  result += 4 */\n      dup2\n      add\n      swap1\n      pop\n        /* \"@openzeppelin/contracts-upgradeable/utils/math/MathUpgradeable.sol\":10469:10565  if (value >= 10**4) {... */\n    tag_165:\n        /* \"@openzeppelin/contracts-upgradeable/utils/math/MathUpgradeable.sol\":10591:10596  10**2 */\n      0x64\n        /* \"@openzeppelin/contracts-upgradeable/utils/math/MathUpgradeable.sol\":10582:10587  value */\n      dup4\n        /* \"@openzeppelin/contracts-upgradeable/utils/math/MathUpgradeable.sol\":10582:10596  value >= 10**2 */\n      lt\n        /* \"@openzeppelin/contracts-upgradeable/utils/math/MathUpgradeable.sol\":10578:10674  if (value >= 10**2) {... */\n      tag_168\n      jumpi\n        /* \"@openzeppelin/contracts-upgradeable/utils/math/MathUpgradeable.sol\":10625:10630  10**2 */\n      0x64\n        /* \"@openzeppelin/contracts-upgradeable/utils/math/MathUpgradeable.sol\":10616:10630  value /= 10**2 */\n      dup4\n      dup2\n      tag_169\n      jumpi\n      tag_170\n      tag_148\n      jump\t// in\n    tag_170:\n    tag_169:\n      div\n      swap3\n      pop\n        /* \"@openzeppelin/contracts-upgradeable/utils/math/MathUpgradeable.sol\":10658:10659  2 */\n      0x02\n        /* \"@openzeppelin/contracts-upgradeable/utils/math/MathUpgradeable.sol\":10648:10659  result += 2 */\n      dup2\n      add\n      swap1\n      pop\n        /* \"@openzeppelin/contracts-upgradeable/utils/math/MathUpgradeable.sol\":10578:10674  if (value >= 10**2) {... */\n    tag_168:\n        /* \"@openzeppelin/contracts-upgradeable/utils/math/MathUpgradeable.sol\":10700:10705  10**1 */\n      0x0a\n        /* \"@openzeppelin/contracts-upgradeable/utils/math/MathUpgradeable.sol\":10691:10696  value */\n      dup4\n        /* \"@openzeppelin/contracts-upgradeable/utils/math/MathUpgradeable.sol\":10691:10705  value >= 10**1 */\n      lt\n        /* \"@openzeppelin/contracts-upgradeable/utils/math/MathUpgradeable.sol\":10687:10751  if (value >= 10**1) {... */\n      tag_171\n      jumpi\n        /* \"@openzeppelin/contracts-upgradeable/utils/math/MathUpgradeable.sol\":10735:10736  1 */\n      0x01\n        /* \"@openzeppelin/contracts-upgradeable/utils/math/MathUpgradeable.sol\":10725:10736  result += 1 */\n      dup2\n      add\n      swap1\n      pop\n        /* \"@openzeppelin/contracts-upgradeable/utils/math/MathUpgradeable.sol\":10687:10751  if (value >= 10**1) {... */\n    tag_171:\n        /* \"@openzeppelin/contracts-upgradeable/utils/math/MathUpgradeable.sol\":10777:10783  result */\n      dup1\n        /* \"@openzeppelin/contracts-upgradeable/utils/math/MathUpgradeable.sol\":10770:10783  return result */\n      swap2\n      pop\n      pop\n        /* \"@openzeppelin/contracts-upgradeable/utils/math/MathUpgradeable.sol\":9900:10790  function log10(uint256 value) internal pure returns (uint256) {... */\n      swap2\n      swap1\n      pop\n      jump\t// out\n        /* \"#utility.yul\":7:146   */\n    tag_173:\n        /* \"#utility.yul\":53:58   */\n      0x00\n        /* \"#utility.yul\":91:97   */\n      dup2\n        /* \"#utility.yul\":78:98   */\n      calldataload\n        /* \"#utility.yul\":69:98   */\n      swap1\n      pop\n        /* \"#utility.yul\":107:140   */\n      tag_175\n        /* \"#utility.yul\":134:139   */\n      dup2\n        /* \"#utility.yul\":107:140   */\n      tag_176\n      jump\t// in\n    tag_175:\n        /* \"#utility.yul\":7:146   */\n      swap3\n      swap2\n      pop\n      pop\n      jump\t// out\n        /* \"#utility.yul\":152:285   */\n    tag_177:\n        /* \"#utility.yul\":195:200   */\n      0x00\n        /* \"#utility.yul\":233:239   */\n      dup2\n        /* \"#utility.yul\":220:240   */\n      calldataload\n        /* \"#utility.yul\":211:240   */\n      swap1\n      pop\n        /* \"#utility.yul\":249:279   */\n      tag_179\n        /* \"#utility.yul\":273:278   */\n      dup2\n        /* \"#utility.yul\":249:279   */\n      tag_180\n      jump\t// in\n    tag_179:\n        /* \"#utility.yul\":152:285   */\n      swap3\n      swap2\n      pop\n      pop\n      jump\t// out\n        /* \"#utility.yul\":291:428   */\n    tag_181:\n        /* \"#utility.yul\":336:341   */\n      0x00\n        /* \"#utility.yul\":374:380   */\n      dup2\n        /* \"#utility.yul\":361:381   */\n      calldataload\n        /* \"#utility.yul\":352:381   */\n      swap1\n      pop\n        /* \"#utility.yul\":390:422   */\n      tag_183\n        /* \"#utility.yul\":416:421   */\n      dup2\n        /* \"#utility.yul\":390:422   */\n      tag_184\n      jump\t// in\n    tag_183:\n        /* \"#utility.yul\":291:428   */\n      swap3\n      swap2\n      pop\n      pop\n      jump\t// out\n        /* \"#utility.yul\":434:573   */\n    tag_185:\n        /* \"#utility.yul\":480:485   */\n      0x00\n        /* \"#utility.yul\":518:524   */\n      dup2\n        /* \"#utility.yul\":505:525   */\n      calldataload\n        /* \"#utility.yul\":496:525   */\n      swap1\n      pop\n        /* \"#utility.yul\":534:567   */\n      tag_187\n        /* \"#utility.yul\":561:566   */\n      dup2\n        /* \"#utility.yul\":534:567   */\n      tag_188\n      jump\t// in\n    tag_187:\n        /* \"#utility.yul\":434:573   */\n      swap3\n      swap2\n      pop\n      pop\n      jump\t// out\n        /* \"#utility.yul\":579:908   */\n    tag_40:\n        /* \"#utility.yul\":638:644   */\n      0x00\n        /* \"#utility.yul\":687:689   */\n      0x20\n        /* \"#utility.yul\":675:684   */\n      dup3\n        /* \"#utility.yul\":666:673   */\n      dup5\n        /* \"#utility.yul\":662:685   */\n      sub\n        /* \"#utility.yul\":658:690   */\n      slt\n        /* \"#utility.yul\":655:774   */\n      iszero\n      tag_190\n      jumpi\n        /* \"#utility.yul\":693:772   */\n      tag_191\n      tag_192\n      jump\t// in\n    tag_191:\n        /* \"#utility.yul\":655:774   */\n    tag_190:\n        /* \"#utility.yul\":813:814   */\n      0x00\n        /* \"#utility.yul\":838:891   */\n      tag_193\n        /* \"#utility.yul\":883:890   */\n      dup5\n        /* \"#utility.yul\":874:880   */\n      dup3\n        /* \"#utility.yul\":863:872   */\n      dup6\n        /* \"#utility.yul\":859:881   */\n      add\n        /* \"#utility.yul\":838:891   */\n      tag_173\n      jump\t// in\n    tag_193:\n        /* \"#utility.yul\":828:891   */\n      swap2\n      pop\n        /* \"#utility.yul\":784:901   */\n      pop\n        /* \"#utility.yul\":579:908   */\n      swap3\n      swap2\n      pop\n      pop\n      jump\t// out\n        /* \"#utility.yul\":914:1388   */\n    tag_57:\n        /* \"#utility.yul\":982:988   */\n      0x00\n        /* \"#utility.yul\":990:996   */\n      dup1\n        /* \"#utility.yul\":1039:1041   */\n      0x40\n        /* \"#utility.yul\":1027:1036   */\n      dup4\n        /* \"#utility.yul\":1018:1025   */\n      dup6\n        /* \"#utility.yul\":1014:1037   */\n      sub\n        /* \"#utility.yul\":1010:1042   */\n      slt\n        /* \"#utility.yul\":1007:1126   */\n      iszero\n      tag_195\n      jumpi\n        /* \"#utility.yul\":1045:1124   */\n      tag_196\n      tag_192\n      jump\t// in\n    tag_196:\n        /* \"#utility.yul\":1007:1126   */\n    tag_195:\n        /* \"#utility.yul\":1165:1166   */\n      0x00\n        /* \"#utility.yul\":1190:1243   */\n      tag_197\n        /* \"#utility.yul\":1235:1242   */\n      dup6\n        /* \"#utility.yul\":1226:1232   */\n      dup3\n        /* \"#utility.yul\":1215:1224   */\n      dup7\n        /* \"#utility.yul\":1211:1233   */\n      add\n        /* \"#utility.yul\":1190:1243   */\n      tag_173\n      jump\t// in\n    tag_197:\n        /* \"#utility.yul\":1180:1243   */\n      swap3\n      pop\n        /* \"#utility.yul\":1136:1253   */\n      pop\n        /* \"#utility.yul\":1292:1294   */\n      0x20\n        /* \"#utility.yul\":1318:1371   */\n      tag_198\n        /* \"#utility.yul\":1363:1370   */\n      dup6\n        /* \"#utility.yul\":1354:1360   */\n      dup3\n        /* \"#utility.yul\":1343:1352   */\n      dup7\n        /* \"#utility.yul\":1339:1361   */\n      add\n        /* \"#utility.yul\":1318:1371   */\n      tag_173\n      jump\t// in\n    tag_198:\n        /* \"#utility.yul\":1308:1371   */\n      swap2\n      pop\n        /* \"#utility.yul\":1263:1381   */\n      pop\n        /* \"#utility.yul\":914:1388   */\n      swap3\n      pop\n      swap3\n      swap1\n      pop\n      jump\t// out\n        /* \"#utility.yul\":1394:1862   */\n    tag_49:\n        /* \"#utility.yul\":1459:1465   */\n      0x00\n        /* \"#utility.yul\":1467:1473   */\n      dup1\n        /* \"#utility.yul\":1516:1518   */\n      0x40\n        /* \"#utility.yul\":1504:1513   */\n      dup4\n        /* \"#utility.yul\":1495:1502   */\n      dup6\n        /* \"#utility.yul\":1491:1514   */\n      sub\n        /* \"#utility.yul\":1487:1519   */\n      slt\n        /* \"#utility.yul\":1484:1603   */\n      iszero\n      tag_200\n      jumpi\n        /* \"#utility.yul\":1522:1601   */\n      tag_201\n      tag_192\n      jump\t// in\n    tag_201:\n        /* \"#utility.yul\":1484:1603   */\n    tag_200:\n        /* \"#utility.yul\":1642:1643   */\n      0x00\n        /* \"#utility.yul\":1667:1720   */\n      tag_202\n        /* \"#utility.yul\":1712:1719   */\n      dup6\n        /* \"#utility.yul\":1703:1709   */\n      dup3\n        /* \"#utility.yul\":1692:1701   */\n      dup7\n        /* \"#utility.yul\":1688:1710   */\n      add\n        /* \"#utility.yul\":1667:1720   */\n      tag_173\n      jump\t// in\n    tag_202:\n        /* \"#utility.yul\":1657:1720   */\n      swap3\n      pop\n        /* \"#utility.yul\":1613:1730   */\n      pop\n        /* \"#utility.yul\":1769:1771   */\n      0x20\n        /* \"#utility.yul\":1795:1845   */\n      tag_203\n        /* \"#utility.yul\":1837:1844   */\n      dup6\n        /* \"#utility.yul\":1828:1834   */\n      dup3\n        /* \"#utility.yul\":1817:1826   */\n      dup7\n        /* \"#utility.yul\":1813:1835   */\n      add\n        /* \"#utility.yul\":1795:1845   */\n      tag_177\n      jump\t// in\n    tag_203:\n        /* \"#utility.yul\":1785:1845   */\n      swap2\n      pop\n        /* \"#utility.yul\":1740:1855   */\n      pop\n        /* \"#utility.yul\":1394:1862   */\n      swap3\n      pop\n      swap3\n      swap1\n      pop\n      jump\t// out\n        /* \"#utility.yul\":1868:2342   */\n    tag_32:\n        /* \"#utility.yul\":1936:1942   */\n      0x00\n        /* \"#utility.yul\":1944:1950   */\n      dup1\n        /* \"#utility.yul\":1993:1995   */\n      0x40\n        /* \"#utility.yul\":1981:1990   */\n      dup4\n        /* \"#utility.yul\":1972:1979   */\n      dup6\n        /* \"#utility.yul\":1968:1991   */\n      sub\n        /* \"#utility.yul\":1964:1996   */\n      slt\n        /* \"#utility.yul\":1961:2080   */\n      iszero\n      tag_205\n      jumpi\n        /* \"#utility.yul\":1999:2078   */\n      tag_206\n      tag_192\n      jump\t// in\n    tag_206:\n        /* \"#utility.yul\":1961:2080   */\n    tag_205:\n        /* \"#utility.yul\":2119:2120   */\n      0x00\n        /* \"#utility.yul\":2144:2197   */\n      tag_207\n        /* \"#utility.yul\":2189:2196   */\n      dup6\n        /* \"#utility.yul\":2180:2186   */\n      dup3\n        /* \"#utility.yul\":2169:2178   */\n      dup7\n        /* \"#utility.yul\":2165:2187   */\n      add\n        /* \"#utility.yul\":2144:2197   */\n      tag_173\n      jump\t// in\n    tag_207:\n        /* \"#utility.yul\":2134:2197   */\n      swap3\n      pop\n        /* \"#utility.yul\":2090:2207   */\n      pop\n        /* \"#utility.yul\":2246:2248   */\n      0x20\n        /* \"#utility.yul\":2272:2325   */\n      tag_208\n        /* \"#utility.yul\":2317:2324   */\n      dup6\n        /* \"#utility.yul\":2308:2314   */\n      dup3\n        /* \"#utility.yul\":2297:2306   */\n      dup7\n        /* \"#utility.yul\":2293:2315   */\n      add\n        /* \"#utility.yul\":2272:2325   */\n      tag_185\n      jump\t// in\n    tag_208:\n        /* \"#utility.yul\":2262:2325   */\n      swap2\n      pop\n        /* \"#utility.yul\":2217:2335   */\n      pop\n        /* \"#utility.yul\":1868:2342   */\n      swap3\n      pop\n      swap3\n      swap1\n      pop\n      jump\t// out\n        /* \"#utility.yul\":2348:2675   */\n    tag_16:\n        /* \"#utility.yul\":2406:2412   */\n      0x00\n        /* \"#utility.yul\":2455:2457   */\n      0x20\n        /* \"#utility.yul\":2443:2452   */\n      dup3\n        /* \"#utility.yul\":2434:2441   */\n      dup5\n        /* \"#utility.yul\":2430:2453   */\n      sub\n        /* \"#utility.yul\":2426:2458   */\n      slt\n        /* \"#utility.yul\":2423:2542   */\n      iszero\n      tag_210\n      jumpi\n        /* \"#utility.yul\":2461:2540   */\n      tag_211\n      tag_192\n      jump\t// in\n    tag_211:\n        /* \"#utility.yul\":2423:2542   */\n    tag_210:\n        /* \"#utility.yul\":2581:2582   */\n      0x00\n        /* \"#utility.yul\":2606:2658   */\n      tag_212\n        /* \"#utility.yul\":2650:2657   */\n      dup5\n        /* \"#utility.yul\":2641:2647   */\n      dup3\n        /* \"#utility.yul\":2630:2639   */\n      dup6\n        /* \"#utility.yul\":2626:2648   */\n      add\n        /* \"#utility.yul\":2606:2658   */\n      tag_181\n      jump\t// in\n    tag_212:\n        /* \"#utility.yul\":2596:2658   */\n      swap2\n      pop\n        /* \"#utility.yul\":2552:2668   */\n      pop\n        /* \"#utility.yul\":2348:2675   */\n      swap3\n      swap2\n      pop\n      pop\n      jump\t// out\n        /* \"#utility.yul\":2681:3010   */\n    tag_26:\n        /* \"#utility.yul\":2740:2746   */\n      0x00\n        /* \"#utility.yul\":2789:2791   */\n      0x20\n        /* \"#utility.yul\":2777:2786   */\n      dup3\n        /* \"#utility.yul\":2768:2775   */\n      dup5\n        /* \"#utility.yul\":2764:2787   */\n      sub\n        /* \"#utility.yul\":2760:2792   */\n      slt\n        /* \"#utility.yul\":2757:2876   */\n      iszero\n      tag_214\n      jumpi\n        /* \"#utility.yul\":2795:2874   */\n      tag_215\n      tag_192\n      jump\t// in\n    tag_215:\n        /* \"#utility.yul\":2757:2876   */\n    tag_214:\n        /* \"#utility.yul\":2915:2916   */\n      0x00\n        /* \"#utility.yul\":2940:2993   */\n      tag_216\n        /* \"#utility.yul\":2985:2992   */\n      dup5\n        /* \"#utility.yul\":2976:2982   */\n      dup3\n        /* \"#utility.yul\":2965:2974   */\n      dup6\n        /* \"#utility.yul\":2961:2983   */\n      add\n        /* \"#utility.yul\":2940:2993   */\n      tag_185\n      jump\t// in\n    tag_216:\n        /* \"#utility.yul\":2930:2993   */\n      swap2\n      pop\n        /* \"#utility.yul\":2886:3003   */\n      pop\n        /* \"#utility.yul\":2681:3010   */\n      swap3\n      swap2\n      pop\n      pop\n      jump\t// out\n        /* \"#utility.yul\":3016:3134   */\n    tag_217:\n        /* \"#utility.yul\":3103:3127   */\n      tag_219\n        /* \"#utility.yul\":3121:3126   */\n      dup2\n        /* \"#utility.yul\":3103:3127   */\n      tag_220\n      jump\t// in\n    tag_219:\n        /* \"#utility.yul\":3098:3101   */\n      dup3\n        /* \"#utility.yul\":3091:3128   */\n      mstore\n        /* \"#utility.yul\":3016:3134   */\n      pop\n      pop\n      jump\t// out\n        /* \"#utility.yul\":3140:3249   */\n    tag_221:\n        /* \"#utility.yul\":3221:3242   */\n      tag_223\n        /* \"#utility.yul\":3236:3241   */\n      dup2\n        /* \"#utility.yul\":3221:3242   */\n      tag_224\n      jump\t// in\n    tag_223:\n        /* \"#utility.yul\":3216:3219   */\n      dup3\n        /* \"#utility.yul\":3209:3243   */\n      mstore\n        /* \"#utility.yul\":3140:3249   */\n      pop\n      pop\n      jump\t// out\n        /* \"#utility.yul\":3255:3619   */\n    tag_225:\n        /* \"#utility.yul\":3343:3346   */\n      0x00\n        /* \"#utility.yul\":3371:3410   */\n      tag_227\n        /* \"#utility.yul\":3404:3409   */\n      dup3\n        /* \"#utility.yul\":3371:3410   */\n      tag_228\n      jump\t// in\n    tag_227:\n        /* \"#utility.yul\":3426:3497   */\n      tag_229\n        /* \"#utility.yul\":3490:3496   */\n      dup2\n        /* \"#utility.yul\":3485:3488   */\n      dup6\n        /* \"#utility.yul\":3426:3497   */\n      tag_230\n      jump\t// in\n    tag_229:\n        /* \"#utility.yul\":3419:3497   */\n      swap4\n      pop\n        /* \"#utility.yul\":3506:3558   */\n      tag_231\n        /* \"#utility.yul\":3551:3557   */\n      dup2\n        /* \"#utility.yul\":3546:3549   */\n      dup6\n        /* \"#utility.yul\":3539:3543   */\n      0x20\n        /* \"#utility.yul\":3532:3537   */\n      dup7\n        /* \"#utility.yul\":3528:3544   */\n      add\n        /* \"#utility.yul\":3506:3558   */\n      tag_232\n      jump\t// in\n    tag_231:\n        /* \"#utility.yul\":3583:3612   */\n      tag_233\n        /* \"#utility.yul\":3605:3611   */\n      dup2\n        /* \"#utility.yul\":3583:3612   */\n      tag_234\n      jump\t// in\n    tag_233:\n        /* \"#utility.yul\":3578:3581   */\n      dup5\n        /* \"#utility.yul\":3574:3613   */\n      add\n        /* \"#utility.yul\":3567:3613   */\n      swap2\n      pop\n        /* \"#utility.yul\":3347:3619   */\n      pop\n        /* \"#utility.yul\":3255:3619   */\n      swap3\n      swap2\n      pop\n      pop\n      jump\t// out\n        /* \"#utility.yul\":3625:4002   */\n    tag_235:\n        /* \"#utility.yul\":3731:3734   */\n      0x00\n        /* \"#utility.yul\":3759:3798   */\n      tag_237\n        /* \"#utility.yul\":3792:3797   */\n      dup3\n        /* \"#utility.yul\":3759:3798   */\n      tag_228\n      jump\t// in\n    tag_237:\n        /* \"#utility.yul\":3814:3903   */\n      tag_238\n        /* \"#utility.yul\":3896:3902   */\n      dup2\n        /* \"#utility.yul\":3891:3894   */\n      dup6\n        /* \"#utility.yul\":3814:3903   */\n      tag_239\n      jump\t// in\n    tag_238:\n        /* \"#utility.yul\":3807:3903   */\n      swap4\n      pop\n        /* \"#utility.yul\":3912:3964   */\n      tag_240\n        /* \"#utility.yul\":3957:3963   */\n      dup2\n        /* \"#utility.yul\":3952:3955   */\n      dup6\n        /* \"#utility.yul\":3945:3949   */\n      0x20\n        /* \"#utility.yul\":3938:3943   */\n      dup7\n        /* \"#utility.yul\":3934:3950   */\n      add\n        /* \"#utility.yul\":3912:3964   */\n      tag_232\n      jump\t// in\n    tag_240:\n        /* \"#utility.yul\":3989:3995   */\n      dup1\n        /* \"#utility.yul\":3984:3987   */\n      dup5\n        /* \"#utility.yul\":3980:3996   */\n      add\n        /* \"#utility.yul\":3973:3996   */\n      swap2\n      pop\n        /* \"#utility.yul\":3735:4002   */\n      pop\n        /* \"#utility.yul\":3625:4002   */\n      swap3\n      swap2\n      pop\n      pop\n      jump\t// out\n        /* \"#utility.yul\":4008:4374   */\n    tag_241:\n        /* \"#utility.yul\":4150:4153   */\n      0x00\n        /* \"#utility.yul\":4171:4238   */\n      tag_243\n        /* \"#utility.yul\":4235:4237   */\n      0x19\n        /* \"#utility.yul\":4230:4233   */\n      dup4\n        /* \"#utility.yul\":4171:4238   */\n      tag_230\n      jump\t// in\n    tag_243:\n        /* \"#utility.yul\":4164:4238   */\n      swap2\n      pop\n        /* \"#utility.yul\":4247:4340   */\n      tag_244\n        /* \"#utility.yul\":4336:4339   */\n      dup3\n        /* \"#utility.yul\":4247:4340   */\n      tag_245\n      jump\t// in\n    tag_244:\n        /* \"#utility.yul\":4365:4367   */\n      0x20\n        /* \"#utility.yul\":4360:4363   */\n      dup3\n        /* \"#utility.yul\":4356:4368   */\n      add\n        /* \"#utility.yul\":4349:4368   */\n      swap1\n      pop\n        /* \"#utility.yul\":4008:4374   */\n      swap2\n      swap1\n      pop\n      jump\t// out\n        /* \"#utility.yul\":4380:4746   */\n    tag_246:\n        /* \"#utility.yul\":4522:4525   */\n      0x00\n        /* \"#utility.yul\":4543:4610   */\n      tag_248\n        /* \"#utility.yul\":4607:4609   */\n      0x29\n        /* \"#utility.yul\":4602:4605   */\n      dup4\n        /* \"#utility.yul\":4543:4610   */\n      tag_230\n      jump\t// in\n    tag_248:\n        /* \"#utility.yul\":4536:4610   */\n      swap2\n      pop\n        /* \"#utility.yul\":4619:4712   */\n      tag_249\n        /* \"#utility.yul\":4708:4711   */\n      dup3\n        /* \"#utility.yul\":4619:4712   */\n      tag_250\n      jump\t// in\n    tag_249:\n        /* \"#utility.yul\":4737:4739   */\n      0x40\n        /* \"#utility.yul\":4732:4735   */\n      dup3\n        /* \"#utility.yul\":4728:4740   */\n      add\n        /* \"#utility.yul\":4721:4740   */\n      swap1\n      pop\n        /* \"#utility.yul\":4380:4746   */\n      swap2\n      swap1\n      pop\n      jump\t// out\n        /* \"#utility.yul\":4752:5118   */\n    tag_251:\n        /* \"#utility.yul\":4894:4897   */\n      0x00\n        /* \"#utility.yul\":4915:4982   */\n      tag_253\n        /* \"#utility.yul\":4979:4981   */\n      0x18\n        /* \"#utility.yul\":4974:4977   */\n      dup4\n        /* \"#utility.yul\":4915:4982   */\n      tag_230\n      jump\t// in\n    tag_253:\n        /* \"#utility.yul\":4908:4982   */\n      swap2\n      pop\n        /* \"#utility.yul\":4991:5084   */\n      tag_254\n        /* \"#utility.yul\":5080:5083   */\n      dup3\n        /* \"#utility.yul\":4991:5084   */\n      tag_255\n      jump\t// in\n    tag_254:\n        /* \"#utility.yul\":5109:5111   */\n      0x20\n        /* \"#utility.yul\":5104:5107   */\n      dup3\n        /* \"#utility.yul\":5100:5112   */\n      add\n        /* \"#utility.yul\":5093:5112   */\n      swap1\n      pop\n        /* \"#utility.yul\":4752:5118   */\n      swap2\n      swap1\n      pop\n      jump\t// out\n        /* \"#utility.yul\":5124:5490   */\n    tag_256:\n        /* \"#utility.yul\":5266:5269   */\n      0x00\n        /* \"#utility.yul\":5287:5354   */\n      tag_258\n        /* \"#utility.yul\":5351:5353   */\n      0x21\n        /* \"#utility.yul\":5346:5349   */\n      dup4\n        /* \"#utility.yul\":5287:5354   */\n      tag_230\n      jump\t// in\n    tag_258:\n        /* \"#utility.yul\":5280:5354   */\n      swap2\n      pop\n        /* \"#utility.yul\":5363:5456   */\n      tag_259\n        /* \"#utility.yul\":5452:5455   */\n      dup3\n        /* \"#utility.yul\":5363:5456   */\n      tag_260\n      jump\t// in\n    tag_259:\n        /* \"#utility.yul\":5481:5483   */\n      0x40\n        /* \"#utility.yul\":5476:5479   */\n      dup3\n        /* \"#utility.yul\":5472:5484   */\n      add\n        /* \"#utility.yul\":5465:5484   */\n      swap1\n      pop\n        /* \"#utility.yul\":5124:5490   */\n      swap2\n      swap1\n      pop\n      jump\t// out\n        /* \"#utility.yul\":5496:5862   */\n    tag_261:\n        /* \"#utility.yul\":5638:5641   */\n      0x00\n        /* \"#utility.yul\":5659:5726   */\n      tag_263\n        /* \"#utility.yul\":5723:5725   */\n      0x3d\n        /* \"#utility.yul\":5718:5721   */\n      dup4\n        /* \"#utility.yul\":5659:5726   */\n      tag_230\n      jump\t// in\n    tag_263:\n        /* \"#utility.yul\":5652:5726   */\n      swap2\n      pop\n        /* \"#utility.yul\":5735:5828   */\n      tag_264\n        /* \"#utility.yul\":5824:5827   */\n      dup3\n        /* \"#utility.yul\":5735:5828   */\n      tag_265\n      jump\t// in\n    tag_264:\n        /* \"#utility.yul\":5853:5855   */\n      0x40\n        /* \"#utility.yul\":5848:5851   */\n      dup3\n        /* \"#utility.yul\":5844:5856   */\n      add\n        /* \"#utility.yul\":5837:5856   */\n      swap1\n      pop\n        /* \"#utility.yul\":5496:5862   */\n      swap2\n      swap1\n      pop\n      jump\t// out\n        /* \"#utility.yul\":5868:5986   */\n    tag_266:\n        /* \"#utility.yul\":5955:5979   */\n      tag_268\n        /* \"#utility.yul\":5973:5978   */\n      dup2\n        /* \"#utility.yul\":5955:5979   */\n      tag_269\n      jump\t// in\n    tag_268:\n        /* \"#utility.yul\":5950:5953   */\n      dup3\n        /* \"#utility.yul\":5943:5980   */\n      mstore\n        /* \"#utility.yul\":5868:5986   */\n      pop\n      pop\n      jump\t// out\n        /* \"#utility.yul\":5992:6427   */\n    tag_119:\n        /* \"#utility.yul\":6172:6175   */\n      0x00\n        /* \"#utility.yul\":6194:6289   */\n      tag_271\n        /* \"#utility.yul\":6285:6288   */\n      dup3\n        /* \"#utility.yul\":6276:6282   */\n      dup6\n        /* \"#utility.yul\":6194:6289   */\n      tag_235\n      jump\t// in\n    tag_271:\n        /* \"#utility.yul\":6187:6289   */\n      swap2\n      pop\n        /* \"#utility.yul\":6306:6401   */\n      tag_272\n        /* \"#utility.yul\":6397:6400   */\n      dup3\n        /* \"#utility.yul\":6388:6394   */\n      dup5\n        /* \"#utility.yul\":6306:6401   */\n      tag_235\n      jump\t// in\n    tag_272:\n        /* \"#utility.yul\":6299:6401   */\n      swap2\n      pop\n        /* \"#utility.yul\":6418:6421   */\n      dup2\n        /* \"#utility.yul\":6411:6421   */\n      swap1\n      pop\n        /* \"#utility.yul\":5992:6427   */\n      swap4\n      swap3\n      pop\n      pop\n      pop\n      jump\t// out\n        /* \"#utility.yul\":6433:6655   */\n    tag_29:\n        /* \"#utility.yul\":6526:6530   */\n      0x00\n        /* \"#utility.yul\":6564:6566   */\n      0x20\n        /* \"#utility.yul\":6553:6562   */\n      dup3\n        /* \"#utility.yul\":6549:6567   */\n      add\n        /* \"#utility.yul\":6541:6567   */\n      swap1\n      pop\n        /* \"#utility.yul\":6577:6648   */\n      tag_274\n        /* \"#utility.yul\":6645:6646   */\n      0x00\n        /* \"#utility.yul\":6634:6643   */\n      dup4\n        /* \"#utility.yul\":6630:6647   */\n      add\n        /* \"#utility.yul\":6621:6627   */\n      dup5\n        /* \"#utility.yul\":6577:6648   */\n      tag_217\n      jump\t// in\n    tag_274:\n        /* \"#utility.yul\":6433:6655   */\n      swap3\n      swap2\n      pop\n      pop\n      jump\t// out\n        /* \"#utility.yul\":6661:6871   */\n    tag_19:\n        /* \"#utility.yul\":6748:6752   */\n      0x00\n        /* \"#utility.yul\":6786:6788   */\n      0x20\n        /* \"#utility.yul\":6775:6784   */\n      dup3\n        /* \"#utility.yul\":6771:6789   */\n      add\n        /* \"#utility.yul\":6763:6789   */\n      swap1\n      pop\n        /* \"#utility.yul\":6799:6864   */\n      tag_276\n        /* \"#utility.yul\":6861:6862   */\n      0x00\n        /* \"#utility.yul\":6850:6859   */\n      dup4\n        /* \"#utility.yul\":6846:6863   */\n      add\n        /* \"#utility.yul\":6837:6843   */\n      dup5\n        /* \"#utility.yul\":6799:6864   */\n      tag_221\n      jump\t// in\n    tag_276:\n        /* \"#utility.yul\":6661:6871   */\n      swap3\n      swap2\n      pop\n      pop\n      jump\t// out\n        /* \"#utility.yul\":6877:7190   */\n    tag_23:\n        /* \"#utility.yul\":6990:6994   */\n      0x00\n        /* \"#utility.yul\":7028:7030   */\n      0x20\n        /* \"#utility.yul\":7017:7026   */\n      dup3\n        /* \"#utility.yul\":7013:7031   */\n      add\n        /* \"#utility.yul\":7005:7031   */\n      swap1\n      pop\n        /* \"#utility.yul\":7077:7086   */\n      dup2\n        /* \"#utility.yul\":7071:7075   */\n      dup2\n        /* \"#utility.yul\":7067:7087   */\n      sub\n        /* \"#utility.yul\":7063:7064   */\n      0x00\n        /* \"#utility.yul\":7052:7061   */\n      dup4\n        /* \"#utility.yul\":7048:7065   */\n      add\n        /* \"#utility.yul\":7041:7088   */\n      mstore\n        /* \"#utility.yul\":7105:7183   */\n      tag_278\n        /* \"#utility.yul\":7178:7182   */\n      dup2\n        /* \"#utility.yul\":7169:7175   */\n      dup5\n        /* \"#utility.yul\":7105:7183   */\n      tag_225\n      jump\t// in\n    tag_278:\n        /* \"#utility.yul\":7097:7183   */\n      swap1\n      pop\n        /* \"#utility.yul\":6877:7190   */\n      swap3\n      swap2\n      pop\n      pop\n      jump\t// out\n        /* \"#utility.yul\":7196:7615   */\n    tag_134:\n        /* \"#utility.yul\":7362:7366   */\n      0x00\n        /* \"#utility.yul\":7400:7402   */\n      0x20\n        /* \"#utility.yul\":7389:7398   */\n      dup3\n        /* \"#utility.yul\":7385:7403   */\n      add\n        /* \"#utility.yul\":7377:7403   */\n      swap1\n      pop\n        /* \"#utility.yul\":7449:7458   */\n      dup2\n        /* \"#utility.yul\":7443:7447   */\n      dup2\n        /* \"#utility.yul\":7439:7459   */\n      sub\n        /* \"#utility.yul\":7435:7436   */\n      0x00\n        /* \"#utility.yul\":7424:7433   */\n      dup4\n        /* \"#utility.yul\":7420:7437   */\n      add\n        /* \"#utility.yul\":7413:7460   */\n      mstore\n        /* \"#utility.yul\":7477:7608   */\n      tag_280\n        /* \"#utility.yul\":7603:7607   */\n      dup2\n        /* \"#utility.yul\":7477:7608   */\n      tag_241\n      jump\t// in\n    tag_280:\n        /* \"#utility.yul\":7469:7608   */\n      swap1\n      pop\n        /* \"#utility.yul\":7196:7615   */\n      swap2\n      swap1\n      pop\n      jump\t// out\n        /* \"#utility.yul\":7621:8040   */\n    tag_99:\n        /* \"#utility.yul\":7787:7791   */\n      0x00\n        /* \"#utility.yul\":7825:7827   */\n      0x20\n        /* \"#utility.yul\":7814:7823   */\n      dup3\n        /* \"#utility.yul\":7810:7828   */\n      add\n        /* \"#utility.yul\":7802:7828   */\n      swap1\n      pop\n        /* \"#utility.yul\":7874:7883   */\n      dup2\n        /* \"#utility.yul\":7868:7872   */\n      dup2\n        /* \"#utility.yul\":7864:7884   */\n      sub\n        /* \"#utility.yul\":7860:7861   */\n      0x00\n        /* \"#utility.yul\":7849:7858   */\n      dup4\n        /* \"#utility.yul\":7845:7862   */\n      add\n        /* \"#utility.yul\":7838:7885   */\n      mstore\n        /* \"#utility.yul\":7902:8033   */\n      tag_282\n        /* \"#utility.yul\":8028:8032   */\n      dup2\n        /* \"#utility.yul\":7902:8033   */\n      tag_246\n      jump\t// in\n    tag_282:\n        /* \"#utility.yul\":7894:8033   */\n      swap1\n      pop\n        /* \"#utility.yul\":7621:8040   */\n      swap2\n      swap1\n      pop\n      jump\t// out\n        /* \"#utility.yul\":8046:8465   */\n    tag_95:\n        /* \"#utility.yul\":8212:8216   */\n      0x00\n        /* \"#utility.yul\":8250:8252   */\n      0x20\n        /* \"#utility.yul\":8239:8248   */\n      dup3\n        /* \"#utility.yul\":8235:8253   */\n      add\n        /* \"#utility.yul\":8227:8253   */\n      swap1\n      pop\n        /* \"#utility.yul\":8299:8308   */\n      dup2\n        /* \"#utility.yul\":8293:8297   */\n      dup2\n        /* \"#utility.yul\":8289:8309   */\n      sub\n        /* \"#utility.yul\":8285:8286   */\n      0x00\n        /* \"#utility.yul\":8274:8283   */\n      dup4\n        /* \"#utility.yul\":8270:8287   */\n      add\n        /* \"#utility.yul\":8263:8310   */\n      mstore\n        /* \"#utility.yul\":8327:8458   */\n      tag_284\n        /* \"#utility.yul\":8453:8457   */\n      dup2\n        /* \"#utility.yul\":8327:8458   */\n      tag_251\n      jump\t// in\n    tag_284:\n        /* \"#utility.yul\":8319:8458   */\n      swap1\n      pop\n        /* \"#utility.yul\":8046:8465   */\n      swap2\n      swap1\n      pop\n      jump\t// out\n        /* \"#utility.yul\":8471:8890   */\n    tag_79:\n        /* \"#utility.yul\":8637:8641   */\n      0x00\n        /* \"#utility.yul\":8675:8677   */\n      0x20\n        /* \"#utility.yul\":8664:8673   */\n      dup3\n        /* \"#utility.yul\":8660:8678   */\n      add\n        /* \"#utility.yul\":8652:8678   */\n      swap1\n      pop\n        /* \"#utility.yul\":8724:8733   */\n      dup2\n        /* \"#utility.yul\":8718:8722   */\n      dup2\n        /* \"#utility.yul\":8714:8734   */\n      sub\n        /* \"#utility.yul\":8710:8711   */\n      0x00\n        /* \"#utility.yul\":8699:8708   */\n      dup4\n        /* \"#utility.yul\":8695:8712   */\n      add\n        /* \"#utility.yul\":8688:8735   */\n      mstore\n        /* \"#utility.yul\":8752:8883   */\n      tag_286\n        /* \"#utility.yul\":8878:8882   */\n      dup2\n        /* \"#utility.yul\":8752:8883   */\n      tag_256\n      jump\t// in\n    tag_286:\n        /* \"#utility.yul\":8744:8883   */\n      swap1\n      pop\n        /* \"#utility.yul\":8471:8890   */\n      swap2\n      swap1\n      pop\n      jump\t// out\n        /* \"#utility.yul\":8896:9315   */\n    tag_87:\n        /* \"#utility.yul\":9062:9066   */\n      0x00\n        /* \"#utility.yul\":9100:9102   */\n      0x20\n        /* \"#utility.yul\":9089:9098   */\n      dup3\n        /* \"#utility.yul\":9085:9103   */\n      add\n        /* \"#utility.yul\":9077:9103   */\n      swap1\n      pop\n        /* \"#utility.yul\":9149:9158   */\n      dup2\n        /* \"#utility.yul\":9143:9147   */\n      dup2\n        /* \"#utility.yul\":9139:9159   */\n      sub\n        /* \"#utility.yul\":9135:9136   */\n      0x00\n        /* \"#utility.yul\":9124:9133   */\n      dup4\n        /* \"#utility.yul\":9120:9137   */\n      add\n        /* \"#utility.yul\":9113:9160   */\n      mstore\n        /* \"#utility.yul\":9177:9308   */\n      tag_288\n        /* \"#utility.yul\":9303:9307   */\n      dup2\n        /* \"#utility.yul\":9177:9308   */\n      tag_261\n      jump\t// in\n    tag_288:\n        /* \"#utility.yul\":9169:9308   */\n      swap1\n      pop\n        /* \"#utility.yul\":8896:9315   */\n      swap2\n      swap1\n      pop\n      jump\t// out\n        /* \"#utility.yul\":9321:9543   */\n    tag_43:\n        /* \"#utility.yul\":9414:9418   */\n      0x00\n        /* \"#utility.yul\":9452:9454   */\n      0x20\n        /* \"#utility.yul\":9441:9450   */\n      dup3\n        /* \"#utility.yul\":9437:9455   */\n      add\n        /* \"#utility.yul\":9429:9455   */\n      swap1\n      pop\n        /* \"#utility.yul\":9465:9536   */\n      tag_290\n        /* \"#utility.yul\":9533:9534   */\n      0x00\n        /* \"#utility.yul\":9522:9531   */\n      dup4\n        /* \"#utility.yul\":9518:9535   */\n      add\n        /* \"#utility.yul\":9509:9515   */\n      dup5\n        /* \"#utility.yul\":9465:9536   */\n      tag_266\n      jump\t// in\n    tag_290:\n        /* \"#utility.yul\":9321:9543   */\n      swap3\n      swap2\n      pop\n      pop\n      jump\t// out\n        /* \"#utility.yul\":9630:9729   */\n    tag_228:\n        /* \"#utility.yul\":9682:9688   */\n      0x00\n        /* \"#utility.yul\":9716:9721   */\n      dup2\n        /* \"#utility.yul\":9710:9722   */\n      mload\n        /* \"#utility.yul\":9700:9722   */\n      swap1\n      pop\n        /* \"#utility.yul\":9630:9729   */\n      swap2\n      swap1\n      pop\n      jump\t// out\n        /* \"#utility.yul\":9735:9904   */\n    tag_230:\n        /* \"#utility.yul\":9819:9830   */\n      0x00\n        /* \"#utility.yul\":9853:9859   */\n      dup3\n        /* \"#utility.yul\":9848:9851   */\n      dup3\n        /* \"#utility.yul\":9841:9860   */\n      mstore\n        /* \"#utility.yul\":9893:9897   */\n      0x20\n        /* \"#utility.yul\":9888:9891   */\n      dup3\n        /* \"#utility.yul\":9884:9898   */\n      add\n        /* \"#utility.yul\":9869:9898   */\n      swap1\n      pop\n        /* \"#utility.yul\":9735:9904   */\n      swap3\n      swap2\n      pop\n      pop\n      jump\t// out\n        /* \"#utility.yul\":9910:10058   */\n    tag_239:\n        /* \"#utility.yul\":10012:10023   */\n      0x00\n        /* \"#utility.yul\":10049:10052   */\n      dup2\n        /* \"#utility.yul\":10034:10052   */\n      swap1\n      pop\n        /* \"#utility.yul\":9910:10058   */\n      swap3\n      swap2\n      pop\n      pop\n      jump\t// out\n        /* \"#utility.yul\":10064:10160   */\n    tag_220:\n        /* \"#utility.yul\":10101:10108   */\n      0x00\n        /* \"#utility.yul\":10130:10154   */\n      tag_297\n        /* \"#utility.yul\":10148:10153   */\n      dup3\n        /* \"#utility.yul\":10130:10154   */\n      tag_298\n      jump\t// in\n    tag_297:\n        /* \"#utility.yul\":10119:10154   */\n      swap1\n      pop\n        /* \"#utility.yul\":10064:10160   */\n      swap2\n      swap1\n      pop\n      jump\t// out\n        /* \"#utility.yul\":10166:10256   */\n    tag_224:\n        /* \"#utility.yul\":10200:10207   */\n      0x00\n        /* \"#utility.yul\":10243:10248   */\n      dup2\n        /* \"#utility.yul\":10236:10249   */\n      iszero\n        /* \"#utility.yul\":10229:10250   */\n      iszero\n        /* \"#utility.yul\":10218:10250   */\n      swap1\n      pop\n        /* \"#utility.yul\":10166:10256   */\n      swap2\n      swap1\n      pop\n      jump\t// out\n        /* \"#utility.yul\":10262:10411   */\n    tag_300:\n        /* \"#utility.yul\":10298:10305   */\n      0x00\n        /* \"#utility.yul\":10338:10404   */\n      0xffffffff00000000000000000000000000000000000000000000000000000000\n        /* \"#utility.yul\":10331:10336   */\n      dup3\n        /* \"#utility.yul\":10327:10405   */\n      and\n        /* \"#utility.yul\":10316:10405   */\n      swap1\n      pop\n        /* \"#utility.yul\":10262:10411   */\n      swap2\n      swap1\n      pop\n      jump\t// out\n        /* \"#utility.yul\":10417:10543   */\n    tag_298:\n        /* \"#utility.yul\":10454:10461   */\n      0x00\n        /* \"#utility.yul\":10494:10536   */\n      0xffffffffffffffffffffffffffffffffffffffff\n        /* \"#utility.yul\":10487:10492   */\n      dup3\n        /* \"#utility.yul\":10483:10537   */\n      and\n        /* \"#utility.yul\":10472:10537   */\n      swap1\n      pop\n        /* \"#utility.yul\":10417:10543   */\n      swap2\n      swap1\n      pop\n      jump\t// out\n        /* \"#utility.yul\":10549:10626   */\n    tag_269:\n        /* \"#utility.yul\":10586:10593   */\n      0x00\n        /* \"#utility.yul\":10615:10620   */\n      dup2\n        /* \"#utility.yul\":10604:10620   */\n      swap1\n      pop\n        /* \"#utility.yul\":10549:10626   */\n      swap2\n      swap1\n      pop\n      jump\t// out\n        /* \"#utility.yul\":10632:10939   */\n    tag_232:\n        /* \"#utility.yul\":10700:10701   */\n      0x00\n        /* \"#utility.yul\":10710:10823   */\n    tag_305:\n        /* \"#utility.yul\":10724:10730   */\n      dup4\n        /* \"#utility.yul\":10721:10722   */\n      dup2\n        /* \"#utility.yul\":10718:10731   */\n      lt\n        /* \"#utility.yul\":10710:10823   */\n      iszero\n      tag_307\n      jumpi\n        /* \"#utility.yul\":10809:10810   */\n      dup1\n        /* \"#utility.yul\":10804:10807   */\n      dup3\n        /* \"#utility.yul\":10800:10811   */\n      add\n        /* \"#utility.yul\":10794:10812   */\n      mload\n        /* \"#utility.yul\":10790:10791   */\n      dup2\n        /* \"#utility.yul\":10785:10788   */\n      dup5\n        /* \"#utility.yul\":10781:10792   */\n      add\n        /* \"#utility.yul\":10774:10813   */\n      mstore\n        /* \"#utility.yul\":10746:10748   */\n      0x20\n        /* \"#utility.yul\":10743:10744   */\n      dup2\n        /* \"#utility.yul\":10739:10749   */\n      add\n        /* \"#utility.yul\":10734:10749   */\n      swap1\n      pop\n        /* \"#utility.yul\":10710:10823   */\n      jump(tag_305)\n    tag_307:\n        /* \"#utility.yul\":10841:10847   */\n      dup4\n        /* \"#utility.yul\":10838:10839   */\n      dup2\n        /* \"#utility.yul\":10835:10848   */\n      gt\n        /* \"#utility.yul\":10832:10933   */\n      iszero\n      tag_308\n      jumpi\n        /* \"#utility.yul\":10921:10922   */\n      0x00\n        /* \"#utility.yul\":10912:10918   */\n      dup5\n        /* \"#utility.yul\":10907:10910   */\n      dup5\n        /* \"#utility.yul\":10903:10919   */\n      add\n        /* \"#utility.yul\":10896:10923   */\n      mstore\n        /* \"#utility.yul\":10832:10933   */\n    tag_308:\n        /* \"#utility.yul\":10681:10939   */\n      pop\n        /* \"#utility.yul\":10632:10939   */\n      pop\n      pop\n      pop\n      jump\t// out\n        /* \"#utility.yul\":10945:11265   */\n    tag_67:\n        /* \"#utility.yul\":10989:10995   */\n      0x00\n        /* \"#utility.yul\":11026:11027   */\n      0x02\n        /* \"#utility.yul\":11020:11024   */\n      dup3\n        /* \"#utility.yul\":11016:11028   */\n      div\n        /* \"#utility.yul\":11006:11028   */\n      swap1\n      pop\n        /* \"#utility.yul\":11073:11074   */\n      0x01\n        /* \"#utility.yul\":11067:11071   */\n      dup3\n        /* \"#utility.yul\":11063:11075   */\n      and\n        /* \"#utility.yul\":11094:11112   */\n      dup1\n        /* \"#utility.yul\":11084:11165   */\n      tag_310\n      jumpi\n        /* \"#utility.yul\":11150:11154   */\n      0x7f\n        /* \"#utility.yul\":11142:11148   */\n      dup3\n        /* \"#utility.yul\":11138:11155   */\n      and\n        /* \"#utility.yul\":11128:11155   */\n      swap2\n      pop\n        /* \"#utility.yul\":11084:11165   */\n    tag_310:\n        /* \"#utility.yul\":11212:11214   */\n      0x20\n        /* \"#utility.yul\":11204:11210   */\n      dup3\n        /* \"#utility.yul\":11201:11215   */\n      lt\n        /* \"#utility.yul\":11181:11199   */\n      dup2\n        /* \"#utility.yul\":11178:11216   */\n      eq\n        /* \"#utility.yul\":11175:11259   */\n      iszero\n      tag_311\n      jumpi\n        /* \"#utility.yul\":11231:11249   */\n      tag_312\n      tag_313\n      jump\t// in\n    tag_312:\n        /* \"#utility.yul\":11175:11259   */\n    tag_311:\n        /* \"#utility.yul\":10996:11265   */\n      pop\n        /* \"#utility.yul\":10945:11265   */\n      swap2\n      swap1\n      pop\n      jump\t// out\n        /* \"#utility.yul\":11271:11451   */\n    tag_148:\n        /* \"#utility.yul\":11319:11396   */\n      0x4e487b7100000000000000000000000000000000000000000000000000000000\n        /* \"#utility.yul\":11316:11317   */\n      0x00\n        /* \"#utility.yul\":11309:11397   */\n      mstore\n        /* \"#utility.yul\":11416:11420   */\n      0x12\n        /* \"#utility.yul\":11413:11414   */\n      0x04\n        /* \"#utility.yul\":11406:11421   */\n      mstore\n        /* \"#utility.yul\":11440:11444   */\n      0x24\n        /* \"#utility.yul\":11437:11438   */\n      0x00\n        /* \"#utility.yul\":11430:11445   */\n      revert\n        /* \"#utility.yul\":11457:11637   */\n    tag_313:\n        /* \"#utility.yul\":11505:11582   */\n      0x4e487b7100000000000000000000000000000000000000000000000000000000\n        /* \"#utility.yul\":11502:11503   */\n      0x00\n        /* \"#utility.yul\":11495:11583   */\n      mstore\n        /* \"#utility.yul\":11602:11606   */\n      0x22\n        /* \"#utility.yul\":11599:11600   */\n      0x04\n        /* \"#utility.yul\":11592:11607   */\n      mstore\n        /* \"#utility.yul\":11626:11630   */\n      0x24\n        /* \"#utility.yul\":11623:11624   */\n      0x00\n        /* \"#utility.yul\":11616:11631   */\n      revert\n        /* \"#utility.yul\":11643:11823   */\n    tag_142:\n        /* \"#utility.yul\":11691:11768   */\n      0x4e487b7100000000000000000000000000000000000000000000000000000000\n        /* \"#utility.yul\":11688:11689   */\n      0x00\n        /* \"#utility.yul\":11681:11769   */\n      mstore\n        /* \"#utility.yul\":11788:11792   */\n      0x41\n        /* \"#utility.yul\":11785:11786   */\n      0x04\n        /* \"#utility.yul\":11778:11793   */\n      mstore\n        /* \"#utility.yul\":11812:11816   */\n      0x24\n        /* \"#utility.yul\":11809:11810   */\n      0x00\n        /* \"#utility.yul\":11802:11817   */\n      revert\n        /* \"#utility.yul\":11952:12069   */\n    tag_192:\n        /* \"#utility.yul\":12061:12062   */\n      0x00\n        /* \"#utility.yul\":12058:12059   */\n      dup1\n        /* \"#utility.yul\":12051:12063   */\n      revert\n        /* \"#utility.yul\":12075:12177   */\n    tag_234:\n        /* \"#utility.yul\":12116:12122   */\n      0x00\n        /* \"#utility.yul\":12167:12169   */\n      0x1f\n        /* \"#utility.yul\":12163:12170   */\n      not\n        /* \"#utility.yul\":12158:12160   */\n      0x1f\n        /* \"#utility.yul\":12151:12156   */\n      dup4\n        /* \"#utility.yul\":12147:12161   */\n      add\n        /* \"#utility.yul\":12143:12171   */\n      and\n        /* \"#utility.yul\":12133:12171   */\n      swap1\n      pop\n        /* \"#utility.yul\":12075:12177   */\n      swap2\n      swap1\n      pop\n      jump\t// out\n        /* \"#utility.yul\":12183:12358   */\n    tag_245:\n        /* \"#utility.yul\":12323:12350   */\n      0x4552433732313a20617070726f766520746f2063616c6c657200000000000000\n        /* \"#utility.yul\":12319:12320   */\n      0x00\n        /* \"#utility.yul\":12311:12317   */\n      dup3\n        /* \"#utility.yul\":12307:12321   */\n      add\n        /* \"#utility.yul\":12300:12351   */\n      mstore\n        /* \"#utility.yul\":12183:12358   */\n      pop\n      jump\t// out\n        /* \"#utility.yul\":12364:12592   */\n    tag_250:\n        /* \"#utility.yul\":12504:12538   */\n      0x4552433732313a2061646472657373207a65726f206973206e6f742061207661\n        /* \"#utility.yul\":12500:12501   */\n      0x00\n        /* \"#utility.yul\":12492:12498   */\n      dup3\n        /* \"#utility.yul\":12488:12502   */\n      add\n        /* \"#utility.yul\":12481:12539   */\n      mstore\n        /* \"#utility.yul\":12573:12584   */\n      0x6c6964206f776e65720000000000000000000000000000000000000000000000\n        /* \"#utility.yul\":12568:12570   */\n      0x20\n        /* \"#utility.yul\":12560:12566   */\n      dup3\n        /* \"#utility.yul\":12556:12571   */\n      add\n        /* \"#utility.yul\":12549:12585   */\n      mstore\n        /* \"#utility.yul\":12364:12592   */\n      pop\n      jump\t// out\n        /* \"#utility.yul\":12598:12772   */\n    tag_255:\n        /* \"#utility.yul\":12738:12764   */\n      0x4552433732313a20696e76616c696420746f6b656e2049440000000000000000\n        /* \"#utility.yul\":12734:12735   */\n      0x00\n        /* \"#utility.yul\":12726:12732   */\n      dup3\n        /* \"#utility.yul\":12722:12736   */\n      add\n        /* \"#utility.yul\":12715:12765   */\n      mstore\n        /* \"#utility.yul\":12598:12772   */\n      pop\n      jump\t// out\n        /* \"#utility.yul\":12778:12998   */\n    tag_260:\n        /* \"#utility.yul\":12918:12952   */\n      0x4552433732313a20617070726f76616c20746f2063757272656e74206f776e65\n        /* \"#utility.yul\":12914:12915   */\n      0x00\n        /* \"#utility.yul\":12906:12912   */\n      dup3\n        /* \"#utility.yul\":12902:12916   */\n      add\n        /* \"#utility.yul\":12895:12953   */\n      mstore\n        /* \"#utility.yul\":12987:12990   */\n      0x7200000000000000000000000000000000000000000000000000000000000000\n        /* \"#utility.yul\":12982:12984   */\n      0x20\n        /* \"#utility.yul\":12974:12980   */\n      dup3\n        /* \"#utility.yul\":12970:12985   */\n      add\n        /* \"#utility.yul\":12963:12991   */\n      mstore\n        /* \"#utility.yul\":12778:12998   */\n      pop\n      jump\t// out\n        /* \"#utility.yul\":13004:13252   */\n    tag_265:\n        /* \"#utility.yul\":13144:13178   */\n      0x4552433732313a20617070726f76652063616c6c6572206973206e6f7420746f\n        /* \"#utility.yul\":13140:13141   */\n      0x00\n        /* \"#utility.yul\":13132:13138   */\n      dup3\n        /* \"#utility.yul\":13128:13142   */\n      add\n        /* \"#utility.yul\":13121:13179   */\n      mstore\n        /* \"#utility.yul\":13213:13244   */\n      0x6b656e206f776e6572206f7220617070726f76656420666f7220616c6c000000\n        /* \"#utility.yul\":13208:13210   */\n      0x20\n        /* \"#utility.yul\":13200:13206   */\n      dup3\n        /* \"#utility.yul\":13196:13211   */\n      add\n        /* \"#utility.yul\":13189:13245   */\n      mstore\n        /* \"#utility.yul\":13004:13252   */\n      pop\n      jump\t// out\n        /* \"#utility.yul\":13258:13380   */\n    tag_176:\n        /* \"#utility.yul\":13331:13355   */\n      tag_327\n        /* \"#utility.yul\":13349:13354   */\n      dup2\n        /* \"#utility.yul\":13331:13355   */\n      tag_220\n      jump\t// in\n    tag_327:\n        /* \"#utility.yul\":13324:13329   */\n      dup2\n        /* \"#utility.yul\":13321:13356   */\n      eq\n        /* \"#utility.yul\":13311:13374   */\n      tag_328\n      jumpi\n        /* \"#utility.yul\":13370:13371   */\n      0x00\n        /* \"#utility.yul\":13367:13368   */\n      dup1\n        /* \"#utility.yul\":13360:13372   */\n      revert\n        /* \"#utility.yul\":13311:13374   */\n    tag_328:\n        /* \"#utility.yul\":13258:13380   */\n      pop\n      jump\t// out\n        /* \"#utility.yul\":13386:13502   */\n    tag_180:\n        /* \"#utility.yul\":13456:13477   */\n      tag_330\n        /* \"#utility.yul\":13471:13476   */\n      dup2\n        /* \"#utility.yul\":13456:13477   */\n      tag_224\n      jump\t// in\n    tag_330:\n        /* \"#utility.yul\":13449:13454   */\n      dup2\n        /* \"#utility.yul\":13446:13478   */\n      eq\n        /* \"#utility.yul\":13436:13496   */\n      tag_331\n      jumpi\n        /* \"#utility.yul\":13492:13493   */\n      0x00\n        /* \"#utility.yul\":13489:13490   */\n      dup1\n        /* \"#utility.yul\":13482:13494   */\n      revert\n        /* \"#utility.yul\":13436:13496   */\n    tag_331:\n        /* \"#utility.yul\":13386:13502   */\n      pop\n      jump\t// out\n        /* \"#utility.yul\":13508:13628   */\n    tag_184:\n        /* \"#utility.yul\":13580:13603   */\n      tag_333\n        /* \"#utility.yul\":13597:13602   */\n      dup2\n        /* \"#utility.yul\":13580:13603   */\n      tag_300\n      jump\t// in\n    tag_333:\n        /* \"#utility.yul\":13573:13578   */\n      dup2\n        /* \"#utility.yul\":13570:13604   */\n      eq\n        /* \"#utility.yul\":13560:13622   */\n      tag_334\n      jumpi\n        /* \"#utility.yul\":13618:13619   */\n      0x00\n        /* \"#utility.yul\":13615:13616   */\n      dup1\n        /* \"#utility.yul\":13608:13620   */\n      revert\n        /* \"#utility.yul\":13560:13622   */\n    tag_334:\n        /* \"#utility.yul\":13508:13628   */\n      pop\n      jump\t// out\n        /* \"#utility.yul\":13634:13756   */\n    tag_188:\n        /* \"#utility.yul\":13707:13731   */\n      tag_336\n        /* \"#utility.yul\":13725:13730   */\n      dup2\n        /* \"#utility.yul\":13707:13731   */\n      tag_269\n      jump\t// in\n    tag_336:\n        /* \"#utility.yul\":13700:13705   */\n      dup2\n        /* \"#utility.yul\":13697:13732   */\n      eq\n        /* \"#utility.yul\":13687:13750   */\n      tag_337\n      jumpi\n        /* \"#utility.yul\":13746:13747   */\n      0x00\n        /* \"#utility.yul\":13743:13744   */\n      dup1\n        /* \"#utility.yul\":13736:13748   */\n      revert\n        /* \"#utility.yul\":13687:13750   */\n    tag_337:\n        /* \"#utility.yul\":13634:13756   */\n      pop\n      jump\t// out\n\n    auxdata: 0xa26469706673582212201296f670d6ce98389f64dddc124ccf550a5d9650569eb975181762648935037564736f6c63430008070033\n}\n",
				"bytecode": {
					"linkReferences": {},
					"object": "608060405234801561001057600080fd5b5061151b806100206000396000f3fe608060405234801561001057600080fd5b506004361061009e5760003560e01c806370a082311161006657806370a082311461016d57806395d89b411461019d578063a22cb465146101bb578063c87b56dd146101d7578063e985e9c5146102075761009e565b806301ffc9a7146100a357806306fdde03146100d3578063081812fc146100f1578063095ea7b3146101215780636352211e1461013d575b600080fd5b6100bd60048036038101906100b89190610ed0565b610237565b6040516100ca91906110af565b60405180910390f35b6100db610319565b6040516100e891906110ca565b60405180910390f35b61010b60048036038101906101069190610efd565b6103ab565b6040516101189190611094565b60405180910390f35b61013b60048036038101906101369190610e90565b6103f1565b005b61015760048036038101906101529190610efd565b610509565b6040516101649190611094565b60405180910390f35b61018760048036038101906101829190610de3565b610590565b604051610194919061118c565b60405180910390f35b6101a5610648565b6040516101b291906110ca565b60405180910390f35b6101d560048036038101906101d09190610e50565b6106da565b005b6101f160048036038101906101ec9190610efd565b6106f0565b6040516101fe91906110ca565b60405180910390f35b610221600480360381019061021c9190610e10565b610758565b60405161022e91906110af565b60405180910390f35b60007f591d4bc0000000000000000000000000000000000000000000000000000000007bffffffffffffffffffffffffffffffffffffffffffffffffffffffff1916827bffffffffffffffffffffffffffffffffffffffffffffffffffffffff1916148061030257507f5b5e139f000000000000000000000000000000000000000000000000000000007bffffffffffffffffffffffffffffffffffffffffffffffffffffffff1916827bffffffffffffffffffffffffffffffffffffffffffffffffffffffff1916145b806103125750610311826107ec565b5b9050919050565b60606065805461032890611275565b80601f016020809104026020016040519081016040528092919081815260200182805461035490611275565b80156103a15780601f10610376576101008083540402835291602001916103a1565b820191906000526020600020905b81548152906001019060200180831161038457829003601f168201915b5050505050905090565b60006103b682610856565b6069600083815260200190815260200160002060009054906101000a900473ffffffffffffffffffffffffffffffffffffffff169050919050565b60006103fc82610509565b90508073ffffffffffffffffffffffffffffffffffffffff168373ffffffffffffffffffffffffffffffffffffffff16141561046d576040517f08c379a00000000000000000000000000000000000000000000000000000000081526004016104649061114c565b60405180910390fd5b8073ffffffffffffffffffffffffffffffffffffffff1661048c6108a1565b73ffffffffffffffffffffffffffffffffffffffff1614806104bb57506104ba816104b56108a1565b610758565b5b6104fa576040517f08c379a00000000000000000000000000000000000000000000000000000000081526004016104f19061116c565b60405180910390fd5b61050483836108a9565b505050565b60008061051583610962565b9050600073ffffffffffffffffffffffffffffffffffffffff168173ffffffffffffffffffffffffffffffffffffffff161415610587576040517f08c379a000000000000000000000000000000000000000000000000000000000815260040161057e9061112c565b60405180910390fd5b80915050919050565b60008073ffffffffffffffffffffffffffffffffffffffff168273ffffffffffffffffffffffffffffffffffffffff161415610601576040517f08c379a00000000000000000000000000000000000000000000000000000000081526004016105f89061110c565b60405180910390fd5b606860008373ffffffffffffffffffffffffffffffffffffffff1673ffffffffffffffffffffffffffffffffffffffff168152602001908152602001600020549050919050565b60606066805461065790611275565b80601f016020809104026020016040519081016040528092919081815260200182805461068390611275565b80156106d05780601f106106a5576101008083540402835291602001916106d0565b820191906000526020600020905b8154815290600101906020018083116106b357829003601f168201915b5050505050905090565b6106ec6106e56108a1565b838361099f565b5050565b60606106fb82610856565b6000610705610b0c565b905060008151116107255760405180602001604052806000815250610750565b8061072f84610b23565b604051602001610740929190611070565b6040516020818303038152906040525b915050919050565b6000606a60008473ffffffffffffffffffffffffffffffffffffffff1673ffffffffffffffffffffffffffffffffffffffff16815260200190815260200160002060008373ffffffffffffffffffffffffffffffffffffffff1673ffffffffffffffffffffffffffffffffffffffff16815260200190815260200160002060009054906101000a900460ff16905092915050565b60007f01ffc9a7000000000000000000000000000000000000000000000000000000007bffffffffffffffffffffffffffffffffffffffffffffffffffffffff1916827bffffffffffffffffffffffffffffffffffffffffffffffffffffffff1916149050919050565b61085f81610bfb565b61089e576040517f08c379a00000000000000000000000000000000000000000000000000000000081526004016108959061112c565b60405180910390fd5b50565b600033905090565b816069600083815260200190815260200160002060006101000a81548173ffffffffffffffffffffffffffffffffffffffff021916908373ffffffffffffffffffffffffffffffffffffffff160217905550808273ffffffffffffffffffffffffffffffffffffffff1661091c83610509565b73ffffffffffffffffffffffffffffffffffffffff167f8c5be1e5ebec7d5bd14f71427d1e84f3dd0314c0f7b2291e5b200ac8c7c3b92560405160405180910390a45050565b60006067600083815260200190815260200160002060009054906101000a900473ffffffffffffffffffffffffffffffffffffffff169050919050565b8173ffffffffffffffffffffffffffffffffffffffff168373ffffffffffffffffffffffffffffffffffffffff161415610a0e576040517f08c379a0000000000000000000000000000000000000000000000000000000008152600401610a05906110ec565b60405180910390fd5b80606a60008573ffffffffffffffffffffffffffffffffffffffff1673ffffffffffffffffffffffffffffffffffffffff16815260200190815260200160002060008473ffffffffffffffffffffffffffffffffffffffff1673ffffffffffffffffffffffffffffffffffffffff16815260200190815260200160002060006101000a81548160ff0219169083151502179055508173ffffffffffffffffffffffffffffffffffffffff168373ffffffffffffffffffffffffffffffffffffffff167f17307eab39ab6107e8899845ad3d59bd9653f200f220920489ca2b5937696c3183604051610aff91906110af565b60405180910390a3505050565b606060405180602001604052806000815250905090565b606060006001610b3284610c3c565b01905060008167ffffffffffffffff811115610b5157610b50611305565b5b6040519080825280601f01601f191660200182016040528015610b835781602001600182028036833780820191505090505b509050600082602001820190505b600115610bf0578080600190039150507f3031323334353637383961626364656600000000000000000000000000000000600a86061a8153600a8581610bda57610bd96112a7565b5b0494506000851415610beb57610bf0565b610b91565b819350505050919050565b60008073ffffffffffffffffffffffffffffffffffffffff16610c1d83610962565b73ffffffffffffffffffffffffffffffffffffffff1614159050919050565b600080600090507a184f03e93ff9f4daa797ed6e38ed64bf6a1f0100000000000000008310610c9a577a184f03e93ff9f4daa797ed6e38ed64bf6a1f0100000000000000008381610c9057610c8f6112a7565b5b0492506040810190505b6d04ee2d6d415b85acef81000000008310610cd7576d04ee2d6d415b85acef81000000008381610ccd57610ccc6112a7565b5b0492506020810190505b662386f26fc100008310610d0657662386f26fc100008381610cfc57610cfb6112a7565b5b0492506010810190505b6305f5e1008310610d2f576305f5e1008381610d2557610d246112a7565b5b0492506008810190505b6127108310610d54576127108381610d4a57610d496112a7565b5b0492506004810190505b60648310610d775760648381610d6d57610d6c6112a7565b5b0492506002810190505b600a8310610d86576001810190505b80915050919050565b600081359050610d9e81611489565b92915050565b600081359050610db3816114a0565b92915050565b600081359050610dc8816114b7565b92915050565b600081359050610ddd816114ce565b92915050565b600060208284031215610df957610df8611334565b5b6000610e0784828501610d8f565b91505092915050565b60008060408385031215610e2757610e26611334565b5b6000610e3585828601610d8f565b9250506020610e4685828601610d8f565b9150509250929050565b60008060408385031215610e6757610e66611334565b5b6000610e7585828601610d8f565b9250506020610e8685828601610da4565b9150509250929050565b60008060408385031215610ea757610ea6611334565b5b6000610eb585828601610d8f565b9250506020610ec685828601610dce565b9150509250929050565b600060208284031215610ee657610ee5611334565b5b6000610ef484828501610db9565b91505092915050565b600060208284031215610f1357610f12611334565b5b6000610f2184828501610dce565b91505092915050565b610f33816111ce565b82525050565b610f42816111e0565b82525050565b6000610f53826111a7565b610f5d81856111b2565b9350610f6d818560208601611242565b610f7681611339565b840191505092915050565b6000610f8c826111a7565b610f9681856111c3565b9350610fa6818560208601611242565b80840191505092915050565b6000610fbf6019836111b2565b9150610fca8261134a565b602082019050919050565b6000610fe26029836111b2565b9150610fed82611373565b604082019050919050565b60006110056018836111b2565b9150611010826113c2565b602082019050919050565b60006110286021836111b2565b9150611033826113eb565b604082019050919050565b600061104b603d836111b2565b91506110568261143a565b604082019050919050565b61106a81611238565b82525050565b600061107c8285610f81565b91506110888284610f81565b91508190509392505050565b60006020820190506110a96000830184610f2a565b92915050565b60006020820190506110c46000830184610f39565b92915050565b600060208201905081810360008301526110e48184610f48565b905092915050565b6000602082019050818103600083015261110581610fb2565b9050919050565b6000602082019050818103600083015261112581610fd5565b9050919050565b6000602082019050818103600083015261114581610ff8565b9050919050565b600060208201905081810360008301526111658161101b565b9050919050565b600060208201905081810360008301526111858161103e565b9050919050565b60006020820190506111a16000830184611061565b92915050565b600081519050919050565b600082825260208201905092915050565b600081905092915050565b60006111d982611218565b9050919050565b60008115159050919050565b60007fffffffff0000000000000000000000000000000000000000000000000000000082169050919050565b600073ffffffffffffffffffffffffffffffffffffffff82169050919050565b6000819050919050565b60005b83811015611260578082015181840152602081019050611245565b8381111561126f576000848401525b50505050565b6000600282049050600182168061128d57607f821691505b602082108114156112a1576112a06112d6565b5b50919050565b7f4e487b7100000000000000000000000000000000000000000000000000000000600052601260045260246000fd5b7f4e487b7100000000000000000000000000000000000000000000000000000000600052602260045260246000fd5b7f4e487b7100000000000000000000000000000000000000000000000000000000600052604160045260246000fd5b600080fd5b6000601f19601f8301169050919050565b7f4552433732313a20617070726f766520746f2063616c6c657200000000000000600082015250565b7f4552433732313a2061646472657373207a65726f206973206e6f74206120766160008201527f6c6964206f776e65720000000000000000000000000000000000000000000000602082015250565b7f4552433732313a20696e76616c696420746f6b656e2049440000000000000000600082015250565b7f4552433732313a20617070726f76616c20746f2063757272656e74206f776e6560008201527f7200000000000000000000000000000000000000000000000000000000000000602082015250565b7f4552433732313a20617070726f76652063616c6c6572206973206e6f7420746f60008201527f6b656e206f776e6572206f7220617070726f76656420666f7220616c6c000000602082015250565b611492816111ce565b811461149d57600080fd5b50565b6114a9816111e0565b81146114b457600080fd5b50565b6114c0816111ec565b81146114cb57600080fd5b50565b6114d781611238565b81146114e257600080fd5b5056fea26469706673582212201296f670d6ce98389f64dddc124ccf550a5d9650569eb975181762648935037564736f6c63430008070033",
					"opcodes": "PUSH1 0x80 PUSH1 0x40 MSTORE CALLVALUE DUP1 ISZERO PUSH2 0x10 JUMPI PUSH1 0x0 DUP1 REVERT JUMPDEST POP PUSH2 0x151B DUP1 PUSH2 0x20 PUSH1 0x0 CODECOPY PUSH1 0x0 RETURN INVALID PUSH1 0x80 PUSH1 0x40 MSTORE CALLVALUE DUP1 ISZERO PUSH2 0x10 JUMPI PUSH1 0x0 DUP1 REVERT JUMPDEST POP PUSH1 0x4 CALLDATASIZE LT PUSH2 0x9E JUMPI PUSH1 0x0 CALLDATALOAD PUSH1 0xE0 SHR DUP1 PUSH4 0x70A08231 GT PUSH2 0x66 JUMPI DUP1 PUSH4 0x70A08231 EQ PUSH2 0x16D JUMPI DUP1 PUSH4 0x95D89B41 EQ PUSH2 0x19D JUMPI DUP1 PUSH4 0xA22CB465 EQ PUSH2 0x1BB JUMPI DUP1 PUSH4 0xC87B56DD EQ PUSH2 0x1D7 JUMPI DUP1 PUSH4 0xE985E9C5 EQ PUSH2 0x207 JUMPI PUSH2 0x9E JUMP JUMPDEST DUP1 PUSH4 0x1FFC9A7 EQ PUSH2 0xA3 JUMPI DUP1 PUSH4 0x6FDDE03 EQ PUSH2 0xD3 JUMPI DUP1 PUSH4 0x81812FC EQ PUSH2 0xF1 JUMPI DUP1 PUSH4 0x95EA7B3 EQ PUSH2 0x121 JUMPI DUP1 PUSH4 0x6352211E EQ PUSH2 0x13D JUMPI JUMPDEST PUSH1 0x0 DUP1 REVERT JUMPDEST PUSH2 0xBD PUSH1 0x4 DUP1 CALLDATASIZE SUB DUP2 ADD SWAP1 PUSH2 0xB8 SWAP2 SWAP1 PUSH2 0xED0 JUMP JUMPDEST PUSH2 0x237 JUMP JUMPDEST PUSH1 0x40 MLOAD PUSH2 0xCA SWAP2 SWAP1 PUSH2 0x10AF JUMP JUMPDEST PUSH1 0x40 MLOAD DUP1 SWAP2 SUB SWAP1 RETURN JUMPDEST PUSH2 0xDB PUSH2 0x319 JUMP JUMPDEST PUSH1 0x40 MLOAD PUSH2 0xE8 SWAP2 SWAP1 PUSH2 0x10CA JUMP JUMPDEST PUSH1 0x40 MLOAD DUP1 SWAP2 SUB SWAP1 RETURN JUMPDEST PUSH2 0x10B PUSH1 0x4 DUP1 CALLDATASIZE SUB DUP2 ADD SWAP1 PUSH2 0x106 SWAP2 SWAP1 PUSH2 0xEFD JUMP JUMPDEST PUSH2 0x3AB JUMP JUMPDEST PUSH1 0x40 MLOAD PUSH2 0x118 SWAP2 SWAP1 PUSH2 0x1094 JUMP JUMPDEST PUSH1 0x40 MLOAD DUP1 SWAP2 SUB SWAP1 RETURN JUMPDEST PUSH2 0x13B PUSH1 0x4 DUP1 CALLDATASIZE SUB DUP2 ADD SWAP1 PUSH2 0x136 SWAP2 SWAP1 PUSH2 0xE90 JUMP JUMPDEST PUSH2 0x3F1 JUMP JUMPDEST STOP JUMPDEST PUSH2 0x157 PUSH1 0x4 DUP1 CALLDATASIZE SUB DUP2 ADD SWAP1 PUSH2 0x152 SWAP2 SWAP1 PUSH2 0xEFD JUMP JUMPDEST PUSH2 0x509 JUMP JUMPDEST PUSH1 0x40 MLOAD PUSH2 0x164 SWAP2 SWAP1 PUSH2 0x1094 JUMP JUMPDEST PUSH1 0x40 MLOAD DUP1 SWAP2 SUB SWAP1 RETURN JUMPDEST PUSH2 0x187 PUSH1 0x4 DUP1 CALLDATASIZE SUB DUP2 ADD SWAP1 PUSH2 0x182 SWAP2 SWAP1 PUSH2 0xDE3 JUMP JUMPDEST PUSH2 0x590 JUMP JUMPDEST PUSH1 0x40 MLOAD PUSH2 0x194 SWAP2 SWAP1 PUSH2 0x118C JUMP JUMPDEST PUSH1 0x40 MLOAD DUP1 SWAP2 SUB SWAP1 RETURN JUMPDEST PUSH2 0x1A5 PUSH2 0x648 JUMP JUMPDEST PUSH1 0x40 MLOAD PUSH2 0x1B2 SWAP2 SWAP1 PUSH2 0x10CA JUMP JUMPDEST PUSH1 0x40 MLOAD DUP1 SWAP2 SUB SWAP1 RETURN JUMPDEST PUSH2 0x1D5 PUSH1 0x4 DUP1 CALLDATASIZE SUB DUP2 ADD SWAP1 PUSH2 0x1D0 SWAP2 SWAP1 PUSH2 0xE50 JUMP JUMPDEST PUSH2 0x6DA JUMP JUMPDEST STOP JUMPDEST PUSH2 0x1F1 PUSH1 0x4 DUP1 CALLDATASIZE SUB DUP2 ADD SWAP1 PUSH2 0x1EC SWAP2 SWAP1 PUSH2 0xEFD JUMP JUMPDEST PUSH2 0x6F0 JUMP JUMPDEST PUSH1 0x40 MLOAD PUSH2 0x1FE SWAP2 SWAP1 PUSH2 0x10CA JUMP JUMPDEST PUSH1 0x40 MLOAD DUP1 SWAP2 SUB SWAP1 RETURN JUMPDEST PUSH2 0x221 PUSH1 0x4 DUP1 CALLDATASIZE SUB DUP2 ADD SWAP1 PUSH2 0x21C SWAP2 SWAP1 PUSH2 0xE10 JUMP JUMPDEST PUSH2 0x758 JUMP JUMPDEST PUSH1 0x40 MLOAD PUSH2 0x22E SWAP2 SWAP1 PUSH2 0x10AF JUMP JUMPDEST PUSH1 0x40 MLOAD DUP1 SWAP2 SUB SWAP1 RETURN JUMPDEST PUSH1 0x0 PUSH32 0x591D4BC000000000000000000000000000000000000000000000000000000000 PUSH28 0xFFFFFFFFFFFFFFFFFFFFFFFFFFFFFFFFFFFFFFFFFFFFFFFFFFFFFFFF NOT AND DUP3 PUSH28 0xFFFFFFFFFFFFFFFFFFFFFFFFFFFFFFFFFFFFFFFFFFFFFFFFFFFFFFFF NOT AND EQ DUP1 PUSH2 0x302 JUMPI POP PUSH32 0x5B5E139F00000000000000000000000000000000000000000000000000000000 PUSH28 0xFFFFFFFFFFFFFFFFFFFFFFFFFFFFFFFFFFFFFFFFFFFFFFFFFFFFFFFF NOT AND DUP3 PUSH28 0xFFFFFFFFFFFFFFFFFFFFFFFFFFFFFFFFFFFFFFFFFFFFFFFFFFFFFFFF NOT AND EQ JUMPDEST DUP1 PUSH2 0x312 JUMPI POP PUSH2 0x311 DUP3 PUSH2 0x7EC JUMP JUMPDEST JUMPDEST SWAP1 POP SWAP2 SWAP1 POP JUMP JUMPDEST PUSH1 0x60 PUSH1 0x65 DUP1 SLOAD PUSH2 0x328 SWAP1 PUSH2 0x1275 JUMP JUMPDEST DUP1 PUSH1 0x1F ADD PUSH1 0x20 DUP1 SWAP2 DIV MUL PUSH1 0x20 ADD PUSH1 0x40 MLOAD SWAP1 DUP2 ADD PUSH1 0x40 MSTORE DUP1 SWAP3 SWAP2 SWAP1 DUP2 DUP2 MSTORE PUSH1 0x20 ADD DUP3 DUP1 SLOAD PUSH2 0x354 SWAP1 PUSH2 0x1275 JUMP JUMPDEST DUP1 ISZERO PUSH2 0x3A1 JUMPI DUP1 PUSH1 0x1F LT PUSH2 0x376 JUMPI PUSH2 0x100 DUP1 DUP4 SLOAD DIV MUL DUP4 MSTORE SWAP2 PUSH1 0x20 ADD SWAP2 PUSH2 0x3A1 JUMP JUMPDEST DUP3 ADD SWAP2 SWAP1 PUSH1 0x0 MSTORE PUSH1 0x20 PUSH1 0x0 KECCAK256 SWAP1 JUMPDEST DUP2 SLOAD DUP2 MSTORE SWAP1 PUSH1 0x1 ADD SWAP1 PUSH1 0x20 ADD DUP1 DUP4 GT PUSH2 0x384 JUMPI DUP3 SWAP1 SUB PUSH1 0x1F AND DUP3 ADD SWAP2 JUMPDEST POP POP POP POP POP SWAP1 POP SWAP1 JUMP JUMPDEST PUSH1 0x0 PUSH2 0x3B6 DUP3 PUSH2 0x856 JUMP JUMPDEST PUSH1 0x69 PUSH1 0x0 DUP4 DUP2 MSTORE PUSH1 0x20 ADD SWAP1 DUP2 MSTORE PUSH1 0x20 ADD PUSH1 0x0 KECCAK256 PUSH1 0x0 SWAP1 SLOAD SWAP1 PUSH2 0x100 EXP SWAP1 DIV PUSH20 0xFFFFFFFFFFFFFFFFFFFFFFFFFFFFFFFFFFFFFFFF AND SWAP1 POP SWAP2 SWAP1 POP JUMP JUMPDEST PUSH1 0x0 PUSH2 0x3FC DUP3 PUSH2 0x509 JUMP JUMPDEST SWAP1 POP DUP1 PUSH20 0xFFFFFFFFFFFFFFFFFFFFFFFFFFFFFFFFFFFFFFFF AND DUP4 PUSH20 0xFFFFFFFFFFFFFFFFFFFFFFFFFFFFFFFFFFFFFFFF AND EQ ISZERO PUSH2 0x46D JUMPI PUSH1 0x40 MLOAD PUSH32 0x8C379A000000000000000000000000000000000000000000000000000000000 DUP2 MSTORE PUSH1 0x4 ADD PUSH2 0x464 SWAP1 PUSH2 0x114C JUMP JUMPDEST PUSH1 0x40 MLOAD DUP1 SWAP2 SUB SWAP1 REVERT JUMPDEST DUP1 PUSH20 0xFFFFFFFFFFFFFFFFFFFFFFFFFFFFFFFFFFFFFFFF AND PUSH2 0x48C PUSH2 0x8A1 JUMP JUMPDEST PUSH20 0xFFFFFFFFFFFFFFFFFFFFFFFFFFFFFFFFFFFFFFFF AND EQ DUP1 PUSH2 0x4BB JUMPI POP PUSH2 0x4BA DUP2 PUSH2 0x4B5 PUSH2 0x8A1 JUMP JUMPDEST PUSH2 0x758 JUMP JUMPDEST JUMPDEST PUSH2 0x4FA JUMPI PUSH1 0x40 MLOAD PUSH32 0x8C379A000000000000000000000000000000000000000000000000000000000 DUP2 MSTORE PUSH1 0x4 ADD PUSH2 0x4F1 SWAP1 PUSH2 0x116C JUMP JUMPDEST PUSH1 0x40 MLOAD DUP1 SWAP2 SUB SWAP1 REVERT JUMPDEST PUSH2 0x504 DUP4 DUP4 PUSH2 0x8A9 JUMP JUMPDEST POP POP POP JUMP JUMPDEST PUSH1 0x0 DUP1 PUSH2 0x515 DUP4 PUSH2 0x962 JUMP JUMPDEST SWAP1 POP PUSH1 0x0 PUSH20 0xFFFFFFFFFFFFFFFFFFFFFFFFFFFFFFFFFFFFFFFF AND DUP2 PUSH20 0xFFFFFFFFFFFFFFFFFFFFFFFFFFFFFFFFFFFFFFFF AND EQ ISZERO PUSH2 0x587 JUMPI PUSH1 0x40 MLOAD PUSH32 0x8C379A000000000000000000000000000000000000000000000000000000000 DUP2 MSTORE PUSH1 0x4 ADD PUSH2 0x57E SWAP1 PUSH2 0x112C JUMP JUMPDEST PUSH1 0x40 MLOAD DUP1 SWAP2 SUB SWAP1 REVERT JUMPDEST DUP1 SWAP2 POP POP SWAP2 SWAP1 POP JUMP JUMPDEST PUSH1 0x0 DUP1 PUSH20 0xFFFFFFFFFFFFFFFFFFFFFFFFFFFFFFFFFFFFFFFF AND DUP3 PUSH20 0xFFFFFFFFFFFFFFFFFFFFFFFFFFFFFFFFFFFFFFFF AND EQ ISZERO PUSH2 0x601 JUMPI PUSH1 0x40 MLOAD PUSH32 0x8C379A000000000000000000000000000000000000000000000000000000000 DUP2 MSTORE PUSH1 0x4 ADD PUSH2 0x5F8 SWAP1 PUSH2 0x110C JUMP JUMPDEST PUSH1 0x40 MLOAD DUP1 SWAP2 SUB SWAP1 REVERT JUMPDEST PUSH1 0x68 PUSH1 0x0 DUP4 PUSH20 0xFFFFFFFFFFFFFFFFFFFFFFFFFFFFFFFFFFFFFFFF AND PUSH20 0xFFFFFFFFFFFFFFFFFFFFFFFFFFFFFFFFFFFFFFFF AND DUP2 MSTORE PUSH1 0x20 ADD SWAP1 DUP2 MSTORE PUSH1 0x20 ADD PUSH1 0x0 KECCAK256 SLOAD SWAP1 POP SWAP2 SWAP1 POP JUMP JUMPDEST PUSH1 0x60 PUSH1 0x66 DUP1 SLOAD PUSH2 0x657 SWAP1 PUSH2 0x1275 JUMP JUMPDEST DUP1 PUSH1 0x1F ADD PUSH1 0x20 DUP1 SWAP2 DIV MUL PUSH1 0x20 ADD PUSH1 0x40 MLOAD SWAP1 DUP2 ADD PUSH1 0x40 MSTORE DUP1 SWAP3 SWAP2 SWAP1 DUP2 DUP2 MSTORE PUSH1 0x20 ADD DUP3 DUP1 SLOAD PUSH2 0x683 SWAP1 PUSH2 0x1275 JUMP JUMPDEST DUP1 ISZERO PUSH2 0x6D0 JUMPI DUP1 PUSH1 0x1F LT PUSH2 0x6A5 JUMPI PUSH2 0x100 DUP1 DUP4 SLOAD DIV MUL DUP4 MSTORE SWAP2 PUSH1 0x20 ADD SWAP2 PUSH2 0x6D0 JUMP JUMPDEST DUP3 ADD SWAP2 SWAP1 PUSH1 0x0 MSTORE PUSH1 0x20 PUSH1 0x0 KECCAK256 SWAP1 JUMPDEST DUP2 SLOAD DUP2 MSTORE SWAP1 PUSH1 0x1 ADD SWAP1 PUSH1 0x20 ADD DUP1 DUP4 GT PUSH2 0x6B3 JUMPI DUP3 SWAP1 SUB PUSH1 0x1F AND DUP3 ADD SWAP2 JUMPDEST POP POP POP POP POP SWAP1 POP SWAP1 JUMP JUMPDEST PUSH2 0x6EC PUSH2 0x6E5 PUSH2 0x8A1 JUMP JUMPDEST DUP4 DUP4 PUSH2 0x99F JUMP JUMPDEST POP POP JUMP JUMPDEST PUSH1 0x60 PUSH2 0x6FB DUP3 PUSH2 0x856 JUMP JUMPDEST PUSH1 0x0 PUSH2 0x705 PUSH2 0xB0C JUMP JUMPDEST SWAP1 POP PUSH1 0x0 DUP2 MLOAD GT PUSH2 0x725 JUMPI PUSH1 0x40 MLOAD DUP1 PUSH1 0x20 ADD PUSH1 0x40 MSTORE DUP1 PUSH1 0x0 DUP2 MSTORE POP PUSH2 0x750 JUMP JUMPDEST DUP1 PUSH2 0x72F DUP5 PUSH2 0xB23 JUMP JUMPDEST PUSH1 0x40 MLOAD PUSH1 0x20 ADD PUSH2 0x740 SWAP3 SWAP2 SWAP1 PUSH2 0x1070 JUMP JUMPDEST PUSH1 0x40 MLOAD PUSH1 0x20 DUP2 DUP4 SUB SUB DUP2 MSTORE SWAP1 PUSH1 0x40 MSTORE JUMPDEST SWAP2 POP POP SWAP2 SWAP1 POP JUMP JUMPDEST PUSH1 0x0 PUSH1 0x6A PUSH1 0x0 DUP5 PUSH20 0xFFFFFFFFFFFFFFFFFFFFFFFFFFFFFFFFFFFFFFFF AND PUSH20 0xFFFFFFFFFFFFFFFFFFFFFFFFFFFFFFFFFFFFFFFF AND DUP2 MSTORE PUSH1 0x20 ADD SWAP1 DUP2 MSTORE PUSH1 0x20 ADD PUSH1 0x0 KECCAK256 PUSH1 0x0 DUP4 PUSH20 0xFFFFFFFFFFFFFFFFFFFFFFFFFFFFFFFFFFFFFFFF AND PUSH20 0xFFFFFFFFFFFFFFFFFFFFFFFFFFFFFFFFFFFFFFFF AND DUP2 MSTORE PUSH1 0x20 ADD SWAP1 DUP2 MSTORE PUSH1 0x20 ADD PUSH1 0x0 KECCAK256 PUSH1 0x0 SWAP1 SLOAD SWAP1 PUSH2 0x100 EXP SWAP1 DIV PUSH1 0xFF AND SWAP1 POP SWAP3 SWAP2 POP POP JUMP JUMPDEST PUSH1 0x0 PUSH32 0x1FFC9A700000000000000000000000000000000000000000000000000000000 PUSH28 0xFFFFFFFFFFFFFFFFFFFFFFFFFFFFFFFFFFFFFFFFFFFFFFFFFFFFFFFF NOT AND DUP3 PUSH28 0xFFFFFFFFFFFFFFFFFFFFFFFFFFFFFFFFFFFFFFFFFFFFFFFFFFFFFFFF NOT AND EQ SWAP1 POP SWAP2 SWAP1 POP JUMP JUMPDEST PUSH2 0x85F DUP2 PUSH2 0xBFB JUMP JUMPDEST PUSH2 0x89E JUMPI PUSH1 0x40 MLOAD PUSH32 0x8C379A000000000000000000000000000000000000000000000000000000000 DUP2 MSTORE PUSH1 0x4 ADD PUSH2 0x895 SWAP1 PUSH2 0x112C JUMP JUMPDEST PUSH1 0x40 MLOAD DUP1 SWAP2 SUB SWAP1 REVERT JUMPDEST POP JUMP JUMPDEST PUSH1 0x0 CALLER SWAP1 POP SWAP1 JUMP JUMPDEST DUP2 PUSH1 0x69 PUSH1 0x0 DUP4 DUP2 MSTORE PUSH1 0x20 ADD SWAP1 DUP2 MSTORE PUSH1 0x20 ADD PUSH1 0x0 KECCAK256 PUSH1 0x0 PUSH2 0x100 EXP DUP2 SLOAD DUP2 PUSH20 0xFFFFFFFFFFFFFFFFFFFFFFFFFFFFFFFFFFFFFFFF MUL NOT AND SWAP1 DUP4 PUSH20 0xFFFFFFFFFFFFFFFFFFFFFFFFFFFFFFFFFFFFFFFF AND MUL OR SWAP1 SSTORE POP DUP1 DUP3 PUSH20 0xFFFFFFFFFFFFFFFFFFFFFFFFFFFFFFFFFFFFFFFF AND PUSH2 0x91C DUP4 PUSH2 0x509 JUMP JUMPDEST PUSH20 0xFFFFFFFFFFFFFFFFFFFFFFFFFFFFFFFFFFFFFFFF AND PUSH32 0x8C5BE1E5EBEC7D5BD14F71427D1E84F3DD0314C0F7B2291E5B200AC8C7C3B925 PUSH1 0x40 MLOAD PUSH1 0x40 MLOAD DUP1 SWAP2 SUB SWAP1 LOG4 POP POP JUMP JUMPDEST PUSH1 0x0 PUSH1 0x67 PUSH1 0x0 DUP4 DUP2 MSTORE PUSH1 0x20 ADD SWAP1 DUP2 MSTORE PUSH1 0x20 ADD PUSH1 0x0 KECCAK256 PUSH1 0x0 SWAP1 SLOAD SWAP1 PUSH2 0x100 EXP SWAP1 DIV PUSH20 0xFFFFFFFFFFFFFFFFFFFFFFFFFFFFFFFFFFFFFFFF AND SWAP1 POP SWAP2 SWAP1 POP JUMP JUMPDEST DUP2 PUSH20 0xFFFFFFFFFFFFFFFFFFFFFFFFFFFFFFFFFFFFFFFF AND DUP4 PUSH20 0xFFFFFFFFFFFFFFFFFFFFFFFFFFFFFFFFFFFFFFFF AND EQ ISZERO PUSH2 0xA0E JUMPI PUSH1 0x40 MLOAD PUSH32 0x8C379A000000000000000000000000000000000000000000000000000000000 DUP2 MSTORE PUSH1 0x4 ADD PUSH2 0xA05 SWAP1 PUSH2 0x10EC JUMP JUMPDEST PUSH1 0x40 MLOAD DUP1 SWAP2 SUB SWAP1 REVERT JUMPDEST DUP1 PUSH1 0x6A PUSH1 0x0 DUP6 PUSH20 0xFFFFFFFFFFFFFFFFFFFFFFFFFFFFFFFFFFFFFFFF AND PUSH20 0xFFFFFFFFFFFFFFFFFFFFFFFFFFFFFFFFFFFFFFFF AND DUP2 MSTORE PUSH1 0x20 ADD SWAP1 DUP2 MSTORE PUSH1 0x20 ADD PUSH1 0x0 KECCAK256 PUSH1 0x0 DUP5 PUSH20 0xFFFFFFFFFFFFFFFFFFFFFFFFFFFFFFFFFFFFFFFF AND PUSH20 0xFFFFFFFFFFFFFFFFFFFFFFFFFFFFFFFFFFFFFFFF AND DUP2 MSTORE PUSH1 0x20 ADD SWAP1 DUP2 MSTORE PUSH1 0x20 ADD PUSH1 0x0 KECCAK256 PUSH1 0x0 PUSH2 0x100 EXP DUP2 SLOAD DUP2 PUSH1 0xFF MUL NOT AND SWAP1 DUP4 ISZERO ISZERO MUL OR SWAP1 SSTORE POP DUP2 PUSH20 0xFFFFFFFFFFFFFFFFFFFFFFFFFFFFFFFFFFFFFFFF AND DUP4 PUSH20 0xFFFFFFFFFFFFFFFFFFFFFFFFFFFFFFFFFFFFFFFF AND PUSH32 0x17307EAB39AB6107E8899845AD3D59BD9653F200F220920489CA2B5937696C31 DUP4 PUSH1 0x40 MLOAD PUSH2 0xAFF SWAP2 SWAP1 PUSH2 0x10AF JUMP JUMPDEST PUSH1 0x40 MLOAD DUP1 SWAP2 SUB SWAP1 LOG3 POP POP POP JUMP JUMPDEST PUSH1 0x60 PUSH1 0x40 MLOAD DUP1 PUSH1 0x20 ADD PUSH1 0x40 MSTORE DUP1 PUSH1 0x0 DUP2 MSTORE POP SWAP1 POP SWAP1 JUMP JUMPDEST PUSH1 0x60 PUSH1 0x0 PUSH1 0x1 PUSH2 0xB32 DUP5 PUSH2 0xC3C JUMP JUMPDEST ADD SWAP1 POP PUSH1 0x0 DUP2 PUSH8 0xFFFFFFFFFFFFFFFF DUP2 GT ISZERO PUSH2 0xB51 JUMPI PUSH2 0xB50 PUSH2 0x1305 JUMP JUMPDEST JUMPDEST PUSH1 0x40 MLOAD SWAP1 DUP1 DUP3 MSTORE DUP1 PUSH1 0x1F ADD PUSH1 0x1F NOT AND PUSH1 0x20 ADD DUP3 ADD PUSH1 0x40 MSTORE DUP1 ISZERO PUSH2 0xB83 JUMPI DUP2 PUSH1 0x20 ADD PUSH1 0x1 DUP3 MUL DUP1 CALLDATASIZE DUP4 CALLDATACOPY DUP1 DUP3 ADD SWAP2 POP POP SWAP1 POP JUMPDEST POP SWAP1 POP PUSH1 0x0 DUP3 PUSH1 0x20 ADD DUP3 ADD SWAP1 POP JUMPDEST PUSH1 0x1 ISZERO PUSH2 0xBF0 JUMPI DUP1 DUP1 PUSH1 0x1 SWAP1 SUB SWAP2 POP POP PUSH32 0x3031323334353637383961626364656600000000000000000000000000000000 PUSH1 0xA DUP7 MOD BYTE DUP2 MSTORE8 PUSH1 0xA DUP6 DUP2 PUSH2 0xBDA JUMPI PUSH2 0xBD9 PUSH2 0x12A7 JUMP JUMPDEST JUMPDEST DIV SWAP5 POP PUSH1 0x0 DUP6 EQ ISZERO PUSH2 0xBEB JUMPI PUSH2 0xBF0 JUMP JUMPDEST PUSH2 0xB91 JUMP JUMPDEST DUP2 SWAP4 POP POP POP POP SWAP2 SWAP1 POP JUMP JUMPDEST PUSH1 0x0 DUP1 PUSH20 0xFFFFFFFFFFFFFFFFFFFFFFFFFFFFFFFFFFFFFFFF AND PUSH2 0xC1D DUP4 PUSH2 0x962 JUMP JUMPDEST PUSH20 0xFFFFFFFFFFFFFFFFFFFFFFFFFFFFFFFFFFFFFFFF AND EQ ISZERO SWAP1 POP SWAP2 SWAP1 POP JUMP JUMPDEST PUSH1 0x0 DUP1 PUSH1 0x0 SWAP1 POP PUSH27 0x184F03E93FF9F4DAA797ED6E38ED64BF6A1F010000000000000000 DUP4 LT PUSH2 0xC9A JUMPI PUSH27 0x184F03E93FF9F4DAA797ED6E38ED64BF6A1F010000000000000000 DUP4 DUP2 PUSH2 0xC90 JUMPI PUSH2 0xC8F PUSH2 0x12A7 JUMP JUMPDEST JUMPDEST DIV SWAP3 POP PUSH1 0x40 DUP2 ADD SWAP1 POP JUMPDEST PUSH14 0x4EE2D6D415B85ACEF8100000000 DUP4 LT PUSH2 0xCD7 JUMPI PUSH14 0x4EE2D6D415B85ACEF8100000000 DUP4 DUP2 PUSH2 0xCCD JUMPI PUSH2 0xCCC PUSH2 0x12A7 JUMP JUMPDEST JUMPDEST DIV SWAP3 POP PUSH1 0x20 DUP2 ADD SWAP1 POP JUMPDEST PUSH7 0x2386F26FC10000 DUP4 LT PUSH2 0xD06 JUMPI PUSH7 0x2386F26FC10000 DUP4 DUP2 PUSH2 0xCFC JUMPI PUSH2 0xCFB PUSH2 0x12A7 JUMP JUMPDEST JUMPDEST DIV SWAP3 POP PUSH1 0x10 DUP2 ADD SWAP1 POP JUMPDEST PUSH4 0x5F5E100 DUP4 LT PUSH2 0xD2F JUMPI PUSH4 0x5F5E100 DUP4 DUP2 PUSH2 0xD25 JUMPI PUSH2 0xD24 PUSH2 0x12A7 JUMP JUMPDEST JUMPDEST DIV SWAP3 POP PUSH1 0x8 DUP2 ADD SWAP1 POP JUMPDEST PUSH2 0x2710 DUP4 LT PUSH2 0xD54 JUMPI PUSH2 0x2710 DUP4 DUP2 PUSH2 0xD4A JUMPI PUSH2 0xD49 PUSH2 0x12A7 JUMP JUMPDEST JUMPDEST DIV SWAP3 POP PUSH1 0x4 DUP2 ADD SWAP1 POP JUMPDEST PUSH1 0x64 DUP4 LT PUSH2 0xD77 JUMPI PUSH1 0x64 DUP4 DUP2 PUSH2 0xD6D JUMPI PUSH2 0xD6C PUSH2 0x12A7 JUMP JUMPDEST JUMPDEST DIV SWAP3 POP PUSH1 0x2 DUP2 ADD SWAP1 POP JUMPDEST PUSH1 0xA DUP4 LT PUSH2 0xD86 JUMPI PUSH1 0x1 DUP2 ADD SWAP1 POP JUMPDEST DUP1 SWAP2 POP POP SWAP2 SWAP1 POP JUMP JUMPDEST PUSH1 0x0 DUP2 CALLDATALOAD SWAP1 POP PUSH2 0xD9E DUP2 PUSH2 0x1489 JUMP JUMPDEST SWAP3 SWAP2 POP POP JUMP JUMPDEST PUSH1 0x0 DUP2 CALLDATALOAD SWAP1 POP PUSH2 0xDB3 DUP2 PUSH2 0x14A0 JUMP JUMPDEST SWAP3 SWAP2 POP POP JUMP JUMPDEST PUSH1 0x0 DUP2 CALLDATALOAD SWAP1 POP PUSH2 0xDC8 DUP2 PUSH2 0x14B7 JUMP JUMPDEST SWAP3 SWAP2 POP POP JUMP JUMPDEST PUSH1 0x0 DUP2 CALLDATALOAD SWAP1 POP PUSH2 0xDDD DUP2 PUSH2 0x14CE JUMP JUMPDEST SWAP3 SWAP2 POP POP JUMP JUMPDEST PUSH1 0x0 PUSH1 0x20 DUP3 DUP5 SUB SLT ISZERO PUSH2 0xDF9 JUMPI PUSH2 0xDF8 PUSH2 0x1334 JUMP JUMPDEST JUMPDEST PUSH1 0x0 PUSH2 0xE07 DUP5 DUP3 DUP6 ADD PUSH2 0xD8F JUMP JUMPDEST SWAP2 POP POP SWAP3 SWAP2 POP POP JUMP JUMPDEST PUSH1 0x0 DUP1 PUSH1 0x40 DUP4 DUP6 SUB SLT ISZERO PUSH2 0xE27 JUMPI PUSH2 0xE26 PUSH2 0x1334 JUMP JUMPDEST JUMPDEST PUSH1 0x0 PUSH2 0xE35 DUP6 DUP3 DUP7 ADD PUSH2 0xD8F JUMP JUMPDEST SWAP3 POP POP PUSH1 0x20 PUSH2 0xE46 DUP6 DUP3 DUP7 ADD PUSH2 0xD8F JUMP JUMPDEST SWAP2 POP POP SWAP3 POP SWAP3 SWAP1 POP JUMP JUMPDEST PUSH1 0x0 DUP1 PUSH1 0x40 DUP4 DUP6 SUB SLT ISZERO PUSH2 0xE67 JUMPI PUSH2 0xE66 PUSH2 0x1334 JUMP JUMPDEST JUMPDEST PUSH1 0x0 PUSH2 0xE75 DUP6 DUP3 DUP7 ADD PUSH2 0xD8F JUMP JUMPDEST SWAP3 POP POP PUSH1 0x20 PUSH2 0xE86 DUP6 DUP3 DUP7 ADD PUSH2 0xDA4 JUMP JUMPDEST SWAP2 POP POP SWAP3 POP SWAP3 SWAP1 POP JUMP JUMPDEST PUSH1 0x0 DUP1 PUSH1 0x40 DUP4 DUP6 SUB SLT ISZERO PUSH2 0xEA7 JUMPI PUSH2 0xEA6 PUSH2 0x1334 JUMP JUMPDEST JUMPDEST PUSH1 0x0 PUSH2 0xEB5 DUP6 DUP3 DUP7 ADD PUSH2 0xD8F JUMP JUMPDEST SWAP3 POP POP PUSH1 0x20 PUSH2 0xEC6 DUP6 DUP3 DUP7 ADD PUSH2 0xDCE JUMP JUMPDEST SWAP2 POP POP SWAP3 POP SWAP3 SWAP1 POP JUMP JUMPDEST PUSH1 0x0 PUSH1 0x20 DUP3 DUP5 SUB SLT ISZERO PUSH2 0xEE6 JUMPI PUSH2 0xEE5 PUSH2 0x1334 JUMP JUMPDEST JUMPDEST PUSH1 0x0 PUSH2 0xEF4 DUP5 DUP3 DUP6 ADD PUSH2 0xDB9 JUMP JUMPDEST SWAP2 POP POP SWAP3 SWAP2 POP POP JUMP JUMPDEST PUSH1 0x0 PUSH1 0x20 DUP3 DUP5 SUB SLT ISZERO PUSH2 0xF13 JUMPI PUSH2 0xF12 PUSH2 0x1334 JUMP JUMPDEST JUMPDEST PUSH1 0x0 PUSH2 0xF21 DUP5 DUP3 DUP6 ADD PUSH2 0xDCE JUMP JUMPDEST SWAP2 POP POP SWAP3 SWAP2 POP POP JUMP JUMPDEST PUSH2 0xF33 DUP2 PUSH2 0x11CE JUMP JUMPDEST DUP3 MSTORE POP POP JUMP JUMPDEST PUSH2 0xF42 DUP2 PUSH2 0x11E0 JUMP JUMPDEST DUP3 MSTORE POP POP JUMP JUMPDEST PUSH1 0x0 PUSH2 0xF53 DUP3 PUSH2 0x11A7 JUMP JUMPDEST PUSH2 0xF5D DUP2 DUP6 PUSH2 0x11B2 JUMP JUMPDEST SWAP4 POP PUSH2 0xF6D DUP2 DUP6 PUSH1 0x20 DUP7 ADD PUSH2 0x1242 JUMP JUMPDEST PUSH2 0xF76 DUP2 PUSH2 0x1339 JUMP JUMPDEST DUP5 ADD SWAP2 POP POP SWAP3 SWAP2 POP POP JUMP JUMPDEST PUSH1 0x0 PUSH2 0xF8C DUP3 PUSH2 0x11A7 JUMP JUMPDEST PUSH2 0xF96 DUP2 DUP6 PUSH2 0x11C3 JUMP JUMPDEST SWAP4 POP PUSH2 0xFA6 DUP2 DUP6 PUSH1 0x20 DUP7 ADD PUSH2 0x1242 JUMP JUMPDEST DUP1 DUP5 ADD SWAP2 POP POP SWAP3 SWAP2 POP POP JUMP JUMPDEST PUSH1 0x0 PUSH2 0xFBF PUSH1 0x19 DUP4 PUSH2 0x11B2 JUMP JUMPDEST SWAP2 POP PUSH2 0xFCA DUP3 PUSH2 0x134A JUMP JUMPDEST PUSH1 0x20 DUP3 ADD SWAP1 POP SWAP2 SWAP1 POP JUMP JUMPDEST PUSH1 0x0 PUSH2 0xFE2 PUSH1 0x29 DUP4 PUSH2 0x11B2 JUMP JUMPDEST SWAP2 POP PUSH2 0xFED DUP3 PUSH2 0x1373 JUMP JUMPDEST PUSH1 0x40 DUP3 ADD SWAP1 POP SWAP2 SWAP1 POP JUMP JUMPDEST PUSH1 0x0 PUSH2 0x1005 PUSH1 0x18 DUP4 PUSH2 0x11B2 JUMP JUMPDEST SWAP2 POP PUSH2 0x1010 DUP3 PUSH2 0x13C2 JUMP JUMPDEST PUSH1 0x20 DUP3 ADD SWAP1 POP SWAP2 SWAP1 POP JUMP JUMPDEST PUSH1 0x0 PUSH2 0x1028 PUSH1 0x21 DUP4 PUSH2 0x11B2 JUMP JUMPDEST SWAP2 POP PUSH2 0x1033 DUP3 PUSH2 0x13EB JUMP JUMPDEST PUSH1 0x40 DUP3 ADD SWAP1 POP SWAP2 SWAP1 POP JUMP JUMPDEST PUSH1 0x0 PUSH2 0x104B PUSH1 0x3D DUP4 PUSH2 0x11B2 JUMP JUMPDEST SWAP2 POP PUSH2 0x1056 DUP3 PUSH2 0x143A JUMP JUMPDEST PUSH1 0x40 DUP3 ADD SWAP1 POP SWAP2 SWAP1 POP JUMP JUMPDEST PUSH2 0x106A DUP2 PUSH2 0x1238 JUMP JUMPDEST DUP3 MSTORE POP POP JUMP JUMPDEST PUSH1 0x0 PUSH2 0x107C DUP3 DUP6 PUSH2 0xF81 JUMP JUMPDEST SWAP2 POP PUSH2 0x1088 DUP3 DUP5 PUSH2 0xF81 JUMP JUMPDEST SWAP2 POP DUP2 SWAP1 POP SWAP4 SWAP3 POP POP POP JUMP JUMPDEST PUSH1 0x0 PUSH1 0x20 DUP3 ADD SWAP1 POP PUSH2 0x10A9 PUSH1 0x0 DUP4 ADD DUP5 PUSH2 0xF2A JUMP JUMPDEST SWAP3 SWAP2 POP POP JUMP JUMPDEST PUSH1 0x0 PUSH1 0x20 DUP3 ADD SWAP1 POP PUSH2 0x10C4 PUSH1 0x0 DUP4 ADD DUP5 PUSH2 0xF39 JUMP JUMPDEST SWAP3 SWAP2 POP POP JUMP JUMPDEST PUSH1 0x0 PUSH1 0x20 DUP3 ADD SWAP1 POP DUP2 DUP2 SUB PUSH1 0x0 DUP4 ADD MSTORE PUSH2 0x10E4 DUP2 DUP5 PUSH2 0xF48 JUMP JUMPDEST SWAP1 POP SWAP3 SWAP2 POP POP JUMP JUMPDEST PUSH1 0x0 PUSH1 0x20 DUP3 ADD SWAP1 POP DUP2 DUP2 SUB PUSH1 0x0 DUP4 ADD MSTORE PUSH2 0x1105 DUP2 PUSH2 0xFB2 JUMP JUMPDEST SWAP1 POP SWAP2 SWAP1 POP JUMP JUMPDEST PUSH1 0x0 PUSH1 0x20 DUP3 ADD SWAP1 POP DUP2 DUP2 SUB PUSH1 0x0 DUP4 ADD MSTORE PUSH2 0x1125 DUP2 PUSH2 0xFD5 JUMP JUMPDEST SWAP1 POP SWAP2 SWAP1 POP JUMP JUMPDEST PUSH1 0x0 PUSH1 0x20 DUP3 ADD SWAP1 POP DUP2 DUP2 SUB PUSH1 0x0 DUP4 ADD MSTORE PUSH2 0x1145 DUP2 PUSH2 0xFF8 JUMP JUMPDEST SWAP1 POP SWAP2 SWAP1 POP JUMP JUMPDEST PUSH1 0x0 PUSH1 0x20 DUP3 ADD SWAP1 POP DUP2 DUP2 SUB PUSH1 0x0 DUP4 ADD MSTORE PUSH2 0x1165 DUP2 PUSH2 0x101B JUMP JUMPDEST SWAP1 POP SWAP2 SWAP1 POP JUMP JUMPDEST PUSH1 0x0 PUSH1 0x20 DUP3 ADD SWAP1 POP DUP2 DUP2 SUB PUSH1 0x0 DUP4 ADD MSTORE PUSH2 0x1185 DUP2 PUSH2 0x103E JUMP JUMPDEST SWAP1 POP SWAP2 SWAP1 POP JUMP JUMPDEST PUSH1 0x0 PUSH1 0x20 DUP3 ADD SWAP1 POP PUSH2 0x11A1 PUSH1 0x0 DUP4 ADD DUP5 PUSH2 0x1061 JUMP JUMPDEST SWAP3 SWAP2 POP POP JUMP JUMPDEST PUSH1 0x0 DUP2 MLOAD SWAP1 POP SWAP2 SWAP1 POP JUMP JUMPDEST PUSH1 0x0 DUP3 DUP3 MSTORE PUSH1 0x20 DUP3 ADD SWAP1 POP SWAP3 SWAP2 POP POP JUMP JUMPDEST PUSH1 0x0 DUP2 SWAP1 POP SWAP3 SWAP2 POP POP JUMP JUMPDEST PUSH1 0x0 PUSH2 0x11D9 DUP3 PUSH2 0x1218 JUMP JUMPDEST SWAP1 POP SWAP2 SWAP1 POP JUMP JUMPDEST PUSH1 0x0 DUP2 ISZERO ISZERO SWAP1 POP SWAP2 SWAP1 POP JUMP JUMPDEST PUSH1 0x0 PUSH32 0xFFFFFFFF00000000000000000000000000000000000000000000000000000000 DUP3 AND SWAP1 POP SWAP2 SWAP1 POP JUMP JUMPDEST PUSH1 0x0 PUSH20 0xFFFFFFFFFFFFFFFFFFFFFFFFFFFFFFFFFFFFFFFF DUP3 AND SWAP1 POP SWAP2 SWAP1 POP JUMP JUMPDEST PUSH1 0x0 DUP2 SWAP1 POP SWAP2 SWAP1 POP JUMP JUMPDEST PUSH1 0x0 JUMPDEST DUP4 DUP2 LT ISZERO PUSH2 0x1260 JUMPI DUP1 DUP3 ADD MLOAD DUP2 DUP5 ADD MSTORE PUSH1 0x20 DUP2 ADD SWAP1 POP PUSH2 0x1245 JUMP JUMPDEST DUP4 DUP2 GT ISZERO PUSH2 0x126F JUMPI PUSH1 0x0 DUP5 DUP5 ADD MSTORE JUMPDEST POP POP POP POP JUMP JUMPDEST PUSH1 0x0 PUSH1 0x2 DUP3 DIV SWAP1 POP PUSH1 0x1 DUP3 AND DUP1 PUSH2 0x128D JUMPI PUSH1 0x7F DUP3 AND SWAP2 POP JUMPDEST PUSH1 0x20 DUP3 LT DUP2 EQ ISZERO PUSH2 0x12A1 JUMPI PUSH2 0x12A0 PUSH2 0x12D6 JUMP JUMPDEST JUMPDEST POP SWAP2 SWAP1 POP JUMP JUMPDEST PUSH32 0x4E487B7100000000000000000000000000000000000000000000000000000000 PUSH1 0x0 MSTORE PUSH1 0x12 PUSH1 0x4 MSTORE PUSH1 0x24 PUSH1 0x0 REVERT JUMPDEST PUSH32 0x4E487B7100000000000000000000000000000000000000000000000000000000 PUSH1 0x0 MSTORE PUSH1 0x22 PUSH1 0x4 MSTORE PUSH1 0x24 PUSH1 0x0 REVERT JUMPDEST PUSH32 0x4E487B7100000000000000000000000000000000000000000000000000000000 PUSH1 0x0 MSTORE PUSH1 0x41 PUSH1 0x4 MSTORE PUSH1 0x24 PUSH1 0x0 REVERT JUMPDEST PUSH1 0x0 DUP1 REVERT JUMPDEST PUSH1 0x0 PUSH1 0x1F NOT PUSH1 0x1F DUP4 ADD AND SWAP1 POP SWAP2 SWAP1 POP JUMP JUMPDEST PUSH32 0x4552433732313A20617070726F766520746F2063616C6C657200000000000000 PUSH1 0x0 DUP3 ADD MSTORE POP JUMP JUMPDEST PUSH32 0x4552433732313A2061646472657373207A65726F206973206E6F742061207661 PUSH1 0x0 DUP3 ADD MSTORE PUSH32 0x6C6964206F776E65720000000000000000000000000000000000000000000000 PUSH1 0x20 DUP3 ADD MSTORE POP JUMP JUMPDEST PUSH32 0x4552433732313A20696E76616C696420746F6B656E2049440000000000000000 PUSH1 0x0 DUP3 ADD MSTORE POP JUMP JUMPDEST PUSH32 0x4552433732313A20617070726F76616C20746F2063757272656E74206F776E65 PUSH1 0x0 DUP3 ADD MSTORE PUSH32 0x7200000000000000000000000000000000000000000000000000000000000000 PUSH1 0x20 DUP3 ADD MSTORE POP JUMP JUMPDEST PUSH32 0x4552433732313A20617070726F76652063616C6C6572206973206E6F7420746F PUSH1 0x0 DUP3 ADD MSTORE PUSH32 0x6B656E206F776E6572206F7220617070726F76656420666F7220616C6C000000 PUSH1 0x20 DUP3 ADD MSTORE POP JUMP JUMPDEST PUSH2 0x1492 DUP2 PUSH2 0x11CE JUMP JUMPDEST DUP2 EQ PUSH2 0x149D JUMPI PUSH1 0x0 DUP1 REVERT JUMPDEST POP JUMP JUMPDEST PUSH2 0x14A9 DUP2 PUSH2 0x11E0 JUMP JUMPDEST DUP2 EQ PUSH2 0x14B4 JUMPI PUSH1 0x0 DUP1 REVERT JUMPDEST POP JUMP JUMPDEST PUSH2 0x14C0 DUP2 PUSH2 0x11EC JUMP JUMPDEST DUP2 EQ PUSH2 0x14CB JUMPI PUSH1 0x0 DUP1 REVERT JUMPDEST POP JUMP JUMPDEST PUSH2 0x14D7 DUP2 PUSH2 0x1238 JUMP JUMPDEST DUP2 EQ PUSH2 0x14E2 JUMPI PUSH1 0x0 DUP1 REVERT JUMPDEST POP JUMP INVALID LOG2 PUSH5 0x6970667358 0x22 SLT KECCAK256 SLT SWAP7 0xF6 PUSH17 0xD6CE98389F64DDDC124CCF550A5D965056 SWAP15 0xB9 PUSH22 0x181762648935037564736F6C63430008070033000000 "
				},
				"gasEstimates": {
					"creation": {
						"codeDepositCost": "1080600",
						"executionCost": "1120",
						"totalCost": "1081720"
					},
					"external": {
						"approve(address,uint256)": "infinite",
						"balanceOf(address)": "2879",
						"getApproved(uint256)": "5277",
						"isApprovedForAll(address,address)": "infinite",
						"name()": "infinite",
						"ownerOf(uint256)": "3091",
						"setApprovalForAll(address,bool)": "infinite",
						"supportsInterface(bytes4)": "774",
						"symbol()": "infinite",
						"tokenURI(uint256)": "3467"
					},
					"internal": {
						"__ERC721_init(string memory,string memory)": "infinite",
						"__ERC721_init_unchained(string memory,string memory)": "infinite",
						"_afterTokenTransfer(address,address,uint256,uint256)": "infinite",
						"_approve(address,uint256)": "infinite",
						"_baseURI()": "infinite",
						"_beforeTokenTransfer(address,address,uint256,uint256)": "infinite",
						"_burn(uint256)": "infinite",
						"_checkOnERC721Received(address,address,uint256,bytes memory)": "infinite",
						"_exists(uint256)": "2312",
						"_isApprovedOrOwner(address,uint256)": "infinite",
						"_mint(address,uint256)": "infinite",
						"_ownerOf(uint256)": "2248",
						"_requireMinted(uint256)": "infinite",
						"_safeMint(address,uint256)": "infinite",
						"_safeMint(address,uint256,bytes memory)": "infinite",
						"_safeTransfer(address,address,uint256,bytes memory)": "infinite",
						"_setApprovalForAll(address,address,bool)": "infinite",
						"_transfer(address,address,uint256)": "infinite"
					}
				},
				"methodIdentifiers": {
					"approve(address,uint256)": "095ea7b3",
					"balanceOf(address)": "70a08231",
					"getApproved(uint256)": "081812fc",
					"isApprovedForAll(address,address)": "e985e9c5",
					"name()": "06fdde03",
					"ownerOf(uint256)": "6352211e",
					"setApprovalForAll(address,bool)": "a22cb465",
					"supportsInterface(bytes4)": "01ffc9a7",
					"symbol()": "95d89b41",
					"tokenURI(uint256)": "c87b56dd"
				}
			},
			"storageLayout": {
				"storage": [
					{
						"astId": 6,
						"contract": "@openzeppelin/contracts-upgradeable/token/ERC721/ERC721Upgradeable.sol:ERC721Upgradeable",
						"label": "_initialized",
						"offset": 0,
						"slot": "0",
						"type": "t_uint8"
					},
					{
						"astId": 9,
						"contract": "@openzeppelin/contracts-upgradeable/token/ERC721/ERC721Upgradeable.sol:ERC721Upgradeable",
						"label": "_initializing",
						"offset": 1,
						"slot": "0",
						"type": "t_bool"
					},
					{
						"astId": 1516,
						"contract": "@openzeppelin/contracts-upgradeable/token/ERC721/ERC721Upgradeable.sol:ERC721Upgradeable",
						"label": "__gap",
						"offset": 0,
						"slot": "1",
						"type": "t_array(t_uint256)50_storage"
					},
					{
						"astId": 1735,
						"contract": "@openzeppelin/contracts-upgradeable/token/ERC721/ERC721Upgradeable.sol:ERC721Upgradeable",
						"label": "__gap",
						"offset": 0,
						"slot": "51",
						"type": "t_array(t_uint256)50_storage"
					},
					{
						"astId": 197,
						"contract": "@openzeppelin/contracts-upgradeable/token/ERC721/ERC721Upgradeable.sol:ERC721Upgradeable",
						"label": "_name",
						"offset": 0,
						"slot": "101",
						"type": "t_string_storage"
					},
					{
						"astId": 199,
						"contract": "@openzeppelin/contracts-upgradeable/token/ERC721/ERC721Upgradeable.sol:ERC721Upgradeable",
						"label": "_symbol",
						"offset": 0,
						"slot": "102",
						"type": "t_string_storage"
					},
					{
						"astId": 203,
						"contract": "@openzeppelin/contracts-upgradeable/token/ERC721/ERC721Upgradeable.sol:ERC721Upgradeable",
						"label": "_owners",
						"offset": 0,
						"slot": "103",
						"type": "t_mapping(t_uint256,t_address)"
					},
					{
						"astId": 207,
						"contract": "@openzeppelin/contracts-upgradeable/token/ERC721/ERC721Upgradeable.sol:ERC721Upgradeable",
						"label": "_balances",
						"offset": 0,
						"slot": "104",
						"type": "t_mapping(t_address,t_uint256)"
					},
					{
						"astId": 211,
						"contract": "@openzeppelin/contracts-upgradeable/token/ERC721/ERC721Upgradeable.sol:ERC721Upgradeable",
						"label": "_tokenApprovals",
						"offset": 0,
						"slot": "105",
						"type": "t_mapping(t_uint256,t_address)"
					},
					{
						"astId": 217,
						"contract": "@openzeppelin/contracts-upgradeable/token/ERC721/ERC721Upgradeable.sol:ERC721Upgradeable",
						"label": "_operatorApprovals",
						"offset": 0,
						"slot": "106",
						"type": "t_mapping(t_address,t_mapping(t_address,t_bool))"
					},
					{
						"astId": 1061,
						"contract": "@openzeppelin/contracts-upgradeable/token/ERC721/ERC721Upgradeable.sol:ERC721Upgradeable",
						"label": "__gap",
						"offset": 0,
						"slot": "107",
						"type": "t_array(t_uint256)44_storage"
					}
				],
				"types": {
					"t_address": {
						"encoding": "inplace",
						"label": "address",
						"numberOfBytes": "20"
					},
					"t_array(t_uint256)44_storage": {
						"base": "t_uint256",
						"encoding": "inplace",
						"label": "uint256[44]",
						"numberOfBytes": "1408"
					},
					"t_array(t_uint256)50_storage": {
						"base": "t_uint256",
						"encoding": "inplace",
						"label": "uint256[50]",
						"numberOfBytes": "1600"
					},
					"t_bool": {
						"encoding": "inplace",
						"label": "bool",
						"numberOfBytes": "1"
					},
					"t_mapping(t_address,t_bool)": {
						"encoding": "mapping",
						"key": "t_address",
						"label": "mapping(address => bool)",
						"numberOfBytes": "32",
						"value": "t_bool"
					},
					"t_mapping(t_address,t_mapping(t_address,t_bool))": {
						"encoding": "mapping",
						"key": "t_address",
						"label": "mapping(address => mapping(address => bool))",
						"numberOfBytes": "32",
						"value": "t_mapping(t_address,t_bool)"
					},
					"t_mapping(t_address,t_uint256)": {
						"encoding": "mapping",
						"key": "t_address",
						"label": "mapping(address => uint256)",
						"numberOfBytes": "32",
						"value": "t_uint256"
					},
					"t_mapping(t_uint256,t_address)": {
						"encoding": "mapping",
						"key": "t_uint256",
						"label": "mapping(uint256 => address)",
						"numberOfBytes": "32",
						"value": "t_address"
					},
					"t_string_storage": {
						"encoding": "bytes",
						"label": "string",
						"numberOfBytes": "32"
					},
					"t_uint256": {
						"encoding": "inplace",
						"label": "uint256",
						"numberOfBytes": "32"
					},
					"t_uint8": {
						"encoding": "inplace",
						"label": "uint8",
						"numberOfBytes": "1"
					}
				}
			},
			"userdoc": {
				"kind": "user",
				"methods": {},
				"version": 1
			}
		}
	}
}